{
	"UserAuth.sol": {
		"UserAuth": {
			"abi": [
				{
					"anonymous": false,
					"inputs": [
						{
							"indexed": true,
							"internalType": "address",
							"name": "userAddress",
							"type": "address"
						},
						{
							"indexed": false,
							"internalType": "uint256",
							"name": "timestamp",
							"type": "uint256"
						}
					],
					"name": "UserDeactivated",
					"type": "event"
				},
				{
					"anonymous": false,
					"inputs": [
						{
							"indexed": true,
							"internalType": "address",
							"name": "userAddress",
							"type": "address"
						},
						{
							"indexed": false,
							"internalType": "string",
							"name": "username",
							"type": "string"
						},
						{
							"indexed": false,
							"internalType": "uint256",
							"name": "timestamp",
							"type": "uint256"
						}
					],
					"name": "UserRegistered",
					"type": "event"
				},
				{
					"anonymous": false,
					"inputs": [
						{
							"indexed": true,
							"internalType": "address",
							"name": "userAddress",
							"type": "address"
						},
						{
							"indexed": false,
							"internalType": "string",
							"name": "username",
							"type": "string"
						},
						{
							"indexed": false,
							"internalType": "uint256",
							"name": "timestamp",
							"type": "uint256"
						}
					],
					"name": "UserUpdated",
					"type": "event"
				},
				{
					"inputs": [],
					"name": "deactivateAccount",
					"outputs": [],
					"stateMutability": "nonpayable",
					"type": "function"
				},
				{
					"inputs": [
						{
							"internalType": "bytes32",
							"name": "messageHash",
							"type": "bytes32"
						}
					],
					"name": "getEthSignedMessageHash",
					"outputs": [
						{
							"internalType": "bytes32",
							"name": "",
							"type": "bytes32"
						}
					],
					"stateMutability": "pure",
					"type": "function"
				},
				{
					"inputs": [],
					"name": "getMyInfo",
					"outputs": [
						{
							"internalType": "address",
							"name": "userAddress",
							"type": "address"
						},
						{
							"internalType": "string",
							"name": "username",
							"type": "string"
						},
						{
							"internalType": "uint256",
							"name": "registeredAt",
							"type": "uint256"
						},
						{
							"internalType": "bool",
							"name": "isActive",
							"type": "bool"
						}
					],
					"stateMutability": "view",
					"type": "function"
				},
				{
					"inputs": [],
					"name": "getTotalUsers",
					"outputs": [
						{
							"internalType": "uint256",
							"name": "",
							"type": "uint256"
						}
					],
					"stateMutability": "view",
					"type": "function"
				},
				{
					"inputs": [
						{
							"internalType": "address",
							"name": "_userAddress",
							"type": "address"
						}
					],
					"name": "getUserInfo",
					"outputs": [
						{
							"internalType": "address",
							"name": "userAddress",
							"type": "address"
						},
						{
							"internalType": "string",
							"name": "username",
							"type": "string"
						},
						{
							"internalType": "uint256",
							"name": "registeredAt",
							"type": "uint256"
						},
						{
							"internalType": "bool",
							"name": "isActive",
							"type": "bool"
						}
					],
					"stateMutability": "view",
					"type": "function"
				},
				{
					"inputs": [
						{
							"internalType": "address",
							"name": "",
							"type": "address"
						}
					],
					"name": "isRegistered",
					"outputs": [
						{
							"internalType": "bool",
							"name": "",
							"type": "bool"
						}
					],
					"stateMutability": "view",
					"type": "function"
				},
				{
					"inputs": [
						{
							"internalType": "bytes32",
							"name": "ethSignedMessageHash",
							"type": "bytes32"
						},
						{
							"internalType": "bytes",
							"name": "signature",
							"type": "bytes"
						}
					],
					"name": "recoverSigner",
					"outputs": [
						{
							"internalType": "address",
							"name": "",
							"type": "address"
						}
					],
					"stateMutability": "pure",
					"type": "function"
				},
				{
					"inputs": [
						{
							"internalType": "string",
							"name": "_username",
							"type": "string"
						}
					],
					"name": "registerUser",
					"outputs": [],
					"stateMutability": "nonpayable",
					"type": "function"
				},
				{
					"inputs": [
						{
							"internalType": "bytes",
							"name": "sig",
							"type": "bytes"
						}
					],
					"name": "splitSignature",
					"outputs": [
						{
							"internalType": "bytes32",
							"name": "r",
							"type": "bytes32"
						},
						{
							"internalType": "bytes32",
							"name": "s",
							"type": "bytes32"
						},
						{
							"internalType": "uint8",
							"name": "v",
							"type": "uint8"
						}
					],
					"stateMutability": "pure",
					"type": "function"
				},
				{
					"inputs": [
						{
							"internalType": "string",
							"name": "_newUsername",
							"type": "string"
						}
					],
					"name": "updateUsername",
					"outputs": [],
					"stateMutability": "nonpayable",
					"type": "function"
				},
				{
					"inputs": [
						{
							"internalType": "uint256",
							"name": "",
							"type": "uint256"
						}
					],
					"name": "userAddresses",
					"outputs": [
						{
							"internalType": "address",
							"name": "",
							"type": "address"
						}
					],
					"stateMutability": "view",
					"type": "function"
				},
				{
					"inputs": [
						{
							"internalType": "address",
							"name": "",
							"type": "address"
						}
					],
					"name": "users",
					"outputs": [
						{
							"internalType": "address",
							"name": "userAddress",
							"type": "address"
						},
						{
							"internalType": "string",
							"name": "username",
							"type": "string"
						},
						{
							"internalType": "uint256",
							"name": "registeredAt",
							"type": "uint256"
						},
						{
							"internalType": "bool",
							"name": "isActive",
							"type": "bool"
						}
					],
					"stateMutability": "view",
					"type": "function"
				},
				{
					"inputs": [
						{
							"internalType": "bytes32",
							"name": "message",
							"type": "bytes32"
						},
						{
							"internalType": "bytes",
							"name": "signature",
							"type": "bytes"
						}
					],
					"name": "verifySignature",
					"outputs": [
						{
							"internalType": "address",
							"name": "",
							"type": "address"
						}
					],
					"stateMutability": "pure",
					"type": "function"
				}
			],
			"devdoc": {
				"kind": "dev",
				"methods": {},
				"version": 1
			},
			"evm": {
				"assembly": "    /* \"UserAuth.sol\":57:3779  contract UserAuth {... */\n  mstore(0x40, 0x80)\n  callvalue\n  dup1\n  iszero\n  tag_1\n  jumpi\n  0x00\n  dup1\n  revert\ntag_1:\n  pop\n  dataSize(sub_0)\n  dup1\n  dataOffset(sub_0)\n  0x00\n  codecopy\n  0x00\n  return\nstop\n\nsub_0: assembly {\n        /* \"UserAuth.sol\":57:3779  contract UserAuth {... */\n      mstore(0x40, 0x80)\n      callvalue\n      dup1\n      iszero\n      tag_1\n      jumpi\n      0x00\n      dup1\n      revert\n    tag_1:\n      pop\n      jumpi(tag_2, lt(calldatasize, 0x04))\n      shr(0xe0, calldataload(0x00))\n      dup1\n      0xa7bb5803\n      gt\n      tag_16\n      jumpi\n      dup1\n      0xc96cea70\n      gt\n      tag_17\n      jumpi\n      dup1\n      0xc96cea70\n      eq\n      tag_12\n      jumpi\n      dup1\n      0xdaca6f78\n      eq\n      tag_13\n      jumpi\n      dup1\n      0xe040e9a0\n      eq\n      tag_14\n      jumpi\n      dup1\n      0xfa540801\n      eq\n      tag_15\n      jumpi\n      jump(tag_2)\n    tag_17:\n      dup1\n      0xa7bb5803\n      eq\n      tag_9\n      jumpi\n      dup1\n      0xa87430ba\n      eq\n      tag_10\n      jumpi\n      dup1\n      0xc3c5a547\n      eq\n      tag_11\n      jumpi\n      jump(tag_2)\n    tag_16:\n      dup1\n      0x502c9bd5\n      eq\n      tag_3\n      jumpi\n      dup1\n      0x6386c1c7\n      eq\n      tag_4\n      jumpi\n      dup1\n      0x704f1b94\n      eq\n      tag_5\n      jumpi\n      dup1\n      0x7daa10ce\n      eq\n      tag_6\n      jumpi\n      dup1\n      0x97aba7f9\n      eq\n      tag_7\n      jumpi\n      dup1\n      0x9be572f6\n      eq\n      tag_8\n      jumpi\n    tag_2:\n      0x00\n      dup1\n      revert\n        /* \"UserAuth.sol\":310:340  address[] public userAddresses */\n    tag_3:\n      tag_18\n      0x04\n      dup1\n      calldatasize\n      sub\n      dup2\n      add\n      swap1\n      tag_19\n      swap2\n      swap1\n      tag_20\n      jump\t// in\n    tag_19:\n      tag_21\n      jump\t// in\n    tag_18:\n      mload(0x40)\n      tag_22\n      swap2\n      swap1\n      tag_23\n      jump\t// in\n    tag_22:\n      mload(0x40)\n      dup1\n      swap2\n      sub\n      swap1\n      return\n        /* \"UserAuth.sol\":1933:2319  function getUserInfo(address _userAddress) public view returns (... */\n    tag_4:\n      tag_24\n      0x04\n      dup1\n      calldatasize\n      sub\n      dup2\n      add\n      swap1\n      tag_25\n      swap2\n      swap1\n      tag_26\n      jump\t// in\n    tag_25:\n      tag_27\n      jump\t// in\n    tag_24:\n      mload(0x40)\n      tag_28\n      swap5\n      swap4\n      swap3\n      swap2\n      swap1\n      tag_29\n      jump\t// in\n    tag_28:\n      mload(0x40)\n      dup1\n      swap2\n      sub\n      swap1\n      return\n        /* \"UserAuth.sol\":856:1426  function registerUser(string memory _username) public {... */\n    tag_5:\n      tag_30\n      0x04\n      dup1\n      calldatasize\n      sub\n      dup2\n      add\n      swap1\n      tag_31\n      swap2\n      swap1\n      tag_32\n      jump\t// in\n    tag_31:\n      tag_33\n      jump\t// in\n    tag_30:\n      stop\n        /* \"UserAuth.sol\":2329:2643  function getMyInfo() public view onlyRegistered returns (... */\n    tag_6:\n      tag_34\n      tag_35\n      jump\t// in\n    tag_34:\n      mload(0x40)\n      tag_36\n      swap5\n      swap4\n      swap3\n      swap2\n      swap1\n      tag_29\n      jump\t// in\n    tag_36:\n      mload(0x40)\n      dup1\n      swap2\n      sub\n      swap1\n      return\n        /* \"UserAuth.sol\":3205:3445  function recoverSigner(bytes32 ethSignedMessageHash, bytes memory signature) public pure returns (address) {... */\n    tag_7:\n      tag_37\n      0x04\n      dup1\n      calldatasize\n      sub\n      dup2\n      add\n      swap1\n      tag_38\n      swap2\n      swap1\n      tag_39\n      jump\t// in\n    tag_38:\n      tag_40\n      jump\t// in\n    tag_37:\n      mload(0x40)\n      tag_41\n      swap2\n      swap1\n      tag_23\n      jump\t// in\n    tag_41:\n      mload(0x40)\n      dup1\n      swap2\n      sub\n      swap1\n      return\n        /* \"UserAuth.sol\":2653:2752  function getTotalUsers() public view returns (uint256) {... */\n    tag_8:\n      tag_42\n      tag_43\n      jump\t// in\n    tag_42:\n      mload(0x40)\n      tag_44\n      swap2\n      swap1\n      tag_45\n      jump\t// in\n    tag_44:\n      mload(0x40)\n      dup1\n      swap2\n      sub\n      swap1\n      return\n        /* \"UserAuth.sol\":3455:3777  function splitSignature(bytes memory sig) public pure returns (bytes32 r, bytes32 s, uint8 v) {... */\n    tag_9:\n      tag_46\n      0x04\n      dup1\n      calldatasize\n      sub\n      dup2\n      add\n      swap1\n      tag_47\n      swap2\n      swap1\n      tag_48\n      jump\t// in\n    tag_47:\n      tag_49\n      jump\t// in\n    tag_46:\n      mload(0x40)\n      tag_50\n      swap4\n      swap3\n      swap2\n      swap1\n      tag_51\n      jump\t// in\n    tag_50:\n      mload(0x40)\n      dup1\n      swap2\n      sub\n      swap1\n      return\n        /* \"UserAuth.sol\":217:254  mapping(address => User) public users */\n    tag_10:\n      tag_52\n      0x04\n      dup1\n      calldatasize\n      sub\n      dup2\n      add\n      swap1\n      tag_53\n      swap2\n      swap1\n      tag_26\n      jump\t// in\n    tag_53:\n      tag_54\n      jump\t// in\n    tag_52:\n      mload(0x40)\n      tag_55\n      swap5\n      swap4\n      swap3\n      swap2\n      swap1\n      tag_29\n      jump\t// in\n    tag_55:\n      mload(0x40)\n      dup1\n      swap2\n      sub\n      swap1\n      return\n        /* \"UserAuth.sol\":260:304  mapping(address => bool) public isRegistered */\n    tag_11:\n      tag_56\n      0x04\n      dup1\n      calldatasize\n      sub\n      dup2\n      add\n      swap1\n      tag_57\n      swap2\n      swap1\n      tag_26\n      jump\t// in\n    tag_57:\n      tag_58\n      jump\t// in\n    tag_56:\n      mload(0x40)\n      tag_59\n      swap2\n      swap1\n      tag_60\n      jump\t// in\n    tag_59:\n      mload(0x40)\n      dup1\n      swap2\n      sub\n      swap1\n      return\n        /* \"UserAuth.sol\":1436:1743  function updateUsername(string memory _newUsername) public onlyRegistered onlyActive {... */\n    tag_12:\n      tag_61\n      0x04\n      dup1\n      calldatasize\n      sub\n      dup2\n      add\n      swap1\n      tag_62\n      swap2\n      swap1\n      tag_32\n      jump\t// in\n    tag_62:\n      tag_63\n      jump\t// in\n    tag_61:\n      stop\n        /* \"UserAuth.sol\":2762:3001  function verifySignature(bytes32 message, bytes memory signature) public pure returns (address) {... */\n    tag_13:\n      tag_64\n      0x04\n      dup1\n      calldatasize\n      sub\n      dup2\n      add\n      swap1\n      tag_65\n      swap2\n      swap1\n      tag_39\n      jump\t// in\n    tag_65:\n      tag_66\n      jump\t// in\n    tag_64:\n      mload(0x40)\n      tag_67\n      swap2\n      swap1\n      tag_23\n      jump\t// in\n    tag_67:\n      mload(0x40)\n      dup1\n      swap2\n      sub\n      swap1\n      return\n        /* \"UserAuth.sol\":1753:1923  function deactivateAccount() public onlyRegistered {... */\n    tag_14:\n      tag_68\n      tag_69\n      jump\t// in\n    tag_68:\n      stop\n        /* \"UserAuth.sol\":3011:3195  function getEthSignedMessageHash(bytes32 messageHash) public pure returns (bytes32) {... */\n    tag_15:\n      tag_70\n      0x04\n      dup1\n      calldatasize\n      sub\n      dup2\n      add\n      swap1\n      tag_71\n      swap2\n      swap1\n      tag_72\n      jump\t// in\n    tag_71:\n      tag_73\n      jump\t// in\n    tag_70:\n      mload(0x40)\n      tag_74\n      swap2\n      swap1\n      tag_75\n      jump\t// in\n    tag_74:\n      mload(0x40)\n      dup1\n      swap2\n      sub\n      swap1\n      return\n        /* \"UserAuth.sol\":310:340  address[] public userAddresses */\n    tag_21:\n      0x02\n      dup2\n      dup2\n      sload\n      dup2\n      lt\n      tag_76\n      jumpi\n      0x00\n      dup1\n      revert\n    tag_76:\n      swap1\n      0x00\n      mstore\n      keccak256(0x00, 0x20)\n      add\n      0x00\n      swap2\n      pop\n      sload\n      swap1\n      0x0100\n      exp\n      swap1\n      div\n      0xffffffffffffffffffffffffffffffffffffffff\n      and\n      dup2\n      jump\t// out\n        /* \"UserAuth.sol\":1933:2319  function getUserInfo(address _userAddress) public view returns (... */\n    tag_27:\n        /* \"UserAuth.sol\":2006:2025  address userAddress */\n      0x00\n        /* \"UserAuth.sol\":2035:2057  string memory username */\n      0x60\n        /* \"UserAuth.sol\":2067:2087  uint256 registeredAt */\n      0x00\n        /* \"UserAuth.sol\":2097:2110  bool isActive */\n      dup1\n        /* \"UserAuth.sol\":2135:2147  isRegistered */\n      0x01\n        /* \"UserAuth.sol\":2135:2161  isRegistered[_userAddress] */\n      0x00\n        /* \"UserAuth.sol\":2148:2160  _userAddress */\n      dup7\n        /* \"UserAuth.sol\":2135:2161  isRegistered[_userAddress] */\n      0xffffffffffffffffffffffffffffffffffffffff\n      and\n      0xffffffffffffffffffffffffffffffffffffffff\n      and\n      dup2\n      mstore\n      0x20\n      add\n      swap1\n      dup2\n      mstore\n      0x20\n      add\n      0x00\n      keccak256\n      0x00\n      swap1\n      sload\n      swap1\n      0x0100\n      exp\n      swap1\n      div\n      0xff\n      and\n        /* \"UserAuth.sol\":2127:2180  require(isRegistered[_userAddress], \"User not found\") */\n      tag_79\n      jumpi\n      mload(0x40)\n      0x08c379a000000000000000000000000000000000000000000000000000000000\n      dup2\n      mstore\n      0x04\n      add\n      tag_80\n      swap1\n      tag_81\n      jump\t// in\n    tag_80:\n      mload(0x40)\n      dup1\n      swap2\n      sub\n      swap1\n      revert\n    tag_79:\n        /* \"UserAuth.sol\":2190:2206  User memory user */\n      0x00\n        /* \"UserAuth.sol\":2209:2214  users */\n      dup1\n        /* \"UserAuth.sol\":2209:2228  users[_userAddress] */\n      0x00\n        /* \"UserAuth.sol\":2215:2227  _userAddress */\n      dup8\n        /* \"UserAuth.sol\":2209:2228  users[_userAddress] */\n      0xffffffffffffffffffffffffffffffffffffffff\n      and\n      0xffffffffffffffffffffffffffffffffffffffff\n      and\n      dup2\n      mstore\n      0x20\n      add\n      swap1\n      dup2\n      mstore\n      0x20\n      add\n      0x00\n      keccak256\n        /* \"UserAuth.sol\":2190:2228  User memory user = users[_userAddress] */\n      mload(0x40)\n      dup1\n      0x80\n      add\n      0x40\n      mstore\n      swap1\n      dup2\n      0x00\n      dup3\n      add\n      0x00\n      swap1\n      sload\n      swap1\n      0x0100\n      exp\n      swap1\n      div\n      0xffffffffffffffffffffffffffffffffffffffff\n      and\n      0xffffffffffffffffffffffffffffffffffffffff\n      and\n      0xffffffffffffffffffffffffffffffffffffffff\n      and\n      dup2\n      mstore\n      0x20\n      add\n      0x01\n      dup3\n      add\n      dup1\n      sload\n      tag_82\n      swap1\n      tag_83\n      jump\t// in\n    tag_82:\n      dup1\n      0x1f\n      add\n      0x20\n      dup1\n      swap2\n      div\n      mul\n      0x20\n      add\n      mload(0x40)\n      swap1\n      dup2\n      add\n      0x40\n      mstore\n      dup1\n      swap3\n      swap2\n      swap1\n      dup2\n      dup2\n      mstore\n      0x20\n      add\n      dup3\n      dup1\n      sload\n      tag_84\n      swap1\n      tag_83\n      jump\t// in\n    tag_84:\n      dup1\n      iszero\n      tag_85\n      jumpi\n      dup1\n      0x1f\n      lt\n      tag_86\n      jumpi\n      0x0100\n      dup1\n      dup4\n      sload\n      div\n      mul\n      dup4\n      mstore\n      swap2\n      0x20\n      add\n      swap2\n      jump(tag_85)\n    tag_86:\n      dup3\n      add\n      swap2\n      swap1\n      0x00\n      mstore\n      keccak256(0x00, 0x20)\n      swap1\n    tag_87:\n      dup2\n      sload\n      dup2\n      mstore\n      swap1\n      0x01\n      add\n      swap1\n      0x20\n      add\n      dup1\n      dup4\n      gt\n      tag_87\n      jumpi\n      dup3\n      swap1\n      sub\n      0x1f\n      and\n      dup3\n      add\n      swap2\n    tag_85:\n      pop\n      pop\n      pop\n      pop\n      pop\n      dup2\n      mstore\n      0x20\n      add\n      0x02\n      dup3\n      add\n      sload\n      dup2\n      mstore\n      0x20\n      add\n      0x03\n      dup3\n      add\n      0x00\n      swap1\n      sload\n      swap1\n      0x0100\n      exp\n      swap1\n      div\n      0xff\n      and\n      iszero\n      iszero\n      iszero\n      iszero\n      dup2\n      mstore\n      pop\n      pop\n      swap1\n      pop\n        /* \"UserAuth.sol\":2246:2250  user */\n      dup1\n        /* \"UserAuth.sol\":2246:2262  user.userAddress */\n      0x00\n      add\n      mload\n        /* \"UserAuth.sol\":2264:2268  user */\n      dup2\n        /* \"UserAuth.sol\":2264:2277  user.username */\n      0x20\n      add\n      mload\n        /* \"UserAuth.sol\":2279:2283  user */\n      dup3\n        /* \"UserAuth.sol\":2279:2296  user.registeredAt */\n      0x40\n      add\n      mload\n        /* \"UserAuth.sol\":2298:2302  user */\n      dup4\n        /* \"UserAuth.sol\":2298:2311  user.isActive */\n      0x60\n      add\n      mload\n        /* \"UserAuth.sol\":2238:2312  return (user.userAddress, user.username, user.registeredAt, user.isActive) */\n      swap5\n      pop\n      swap5\n      pop\n      swap5\n      pop\n      swap5\n      pop\n      pop\n        /* \"UserAuth.sol\":1933:2319  function getUserInfo(address _userAddress) public view returns (... */\n      swap2\n      swap4\n      pop\n      swap2\n      swap4\n      jump\t// out\n        /* \"UserAuth.sol\":856:1426  function registerUser(string memory _username) public {... */\n    tag_33:\n        /* \"UserAuth.sol\":929:941  isRegistered */\n      0x01\n        /* \"UserAuth.sol\":929:953  isRegistered[msg.sender] */\n      0x00\n        /* \"UserAuth.sol\":942:952  msg.sender */\n      caller\n        /* \"UserAuth.sol\":929:953  isRegistered[msg.sender] */\n      0xffffffffffffffffffffffffffffffffffffffff\n      and\n      0xffffffffffffffffffffffffffffffffffffffff\n      and\n      dup2\n      mstore\n      0x20\n      add\n      swap1\n      dup2\n      mstore\n      0x20\n      add\n      0x00\n      keccak256\n      0x00\n      swap1\n      sload\n      swap1\n      0x0100\n      exp\n      swap1\n      div\n      0xff\n      and\n        /* \"UserAuth.sol\":928:953  !isRegistered[msg.sender] */\n      iszero\n        /* \"UserAuth.sol\":920:981  require(!isRegistered[msg.sender], \"User already registered\") */\n      tag_89\n      jumpi\n      mload(0x40)\n      0x08c379a000000000000000000000000000000000000000000000000000000000\n      dup2\n      mstore\n      0x04\n      add\n      tag_90\n      swap1\n      tag_91\n      jump\t// in\n    tag_90:\n      mload(0x40)\n      dup1\n      swap2\n      sub\n      swap1\n      revert\n    tag_89:\n        /* \"UserAuth.sol\":1025:1026  0 */\n      0x00\n        /* \"UserAuth.sol\":1005:1014  _username */\n      dup2\n        /* \"UserAuth.sol\":999:1022  bytes(_username).length */\n      mload\n        /* \"UserAuth.sol\":999:1026  bytes(_username).length > 0 */\n      gt\n        /* \"UserAuth.sol\":991:1055  require(bytes(_username).length > 0, \"Username cannot be empty\") */\n      tag_92\n      jumpi\n      mload(0x40)\n      0x08c379a000000000000000000000000000000000000000000000000000000000\n      dup2\n      mstore\n      0x04\n      add\n      tag_93\n      swap1\n      tag_94\n      jump\t// in\n    tag_93:\n      mload(0x40)\n      dup1\n      swap2\n      sub\n      swap1\n      revert\n    tag_92:\n        /* \"UserAuth.sol\":1094:1251  User({... */\n      mload(0x40)\n      dup1\n      0x80\n      add\n      0x40\n      mstore\n      dup1\n        /* \"UserAuth.sol\":1126:1136  msg.sender */\n      caller\n        /* \"UserAuth.sol\":1094:1251  User({... */\n      0xffffffffffffffffffffffffffffffffffffffff\n      and\n      dup2\n      mstore\n      0x20\n      add\n        /* \"UserAuth.sol\":1160:1169  _username */\n      dup3\n        /* \"UserAuth.sol\":1094:1251  User({... */\n      dup2\n      mstore\n      0x20\n      add\n        /* \"UserAuth.sol\":1197:1212  block.timestamp */\n      timestamp\n        /* \"UserAuth.sol\":1094:1251  User({... */\n      dup2\n      mstore\n      0x20\n      add\n        /* \"UserAuth.sol\":1236:1240  true */\n      0x01\n        /* \"UserAuth.sol\":1094:1251  User({... */\n      iszero\n      iszero\n      dup2\n      mstore\n      pop\n        /* \"UserAuth.sol\":1074:1079  users */\n      0x00\n        /* \"UserAuth.sol\":1074:1091  users[msg.sender] */\n      dup1\n        /* \"UserAuth.sol\":1080:1090  msg.sender */\n      caller\n        /* \"UserAuth.sol\":1074:1091  users[msg.sender] */\n      0xffffffffffffffffffffffffffffffffffffffff\n      and\n      0xffffffffffffffffffffffffffffffffffffffff\n      and\n      dup2\n      mstore\n      0x20\n      add\n      swap1\n      dup2\n      mstore\n      0x20\n      add\n      0x00\n      keccak256\n        /* \"UserAuth.sol\":1074:1251  users[msg.sender] = User({... */\n      0x00\n      dup3\n      add\n      mload\n      dup2\n      0x00\n      add\n      exp(0x0100, 0x00)\n      dup2\n      sload\n      dup2\n      0xffffffffffffffffffffffffffffffffffffffff\n      mul\n      not\n      and\n      swap1\n      dup4\n      0xffffffffffffffffffffffffffffffffffffffff\n      and\n      mul\n      or\n      swap1\n      sstore\n      pop\n      0x20\n      dup3\n      add\n      mload\n      dup2\n      0x01\n      add\n      swap1\n      dup2\n      tag_95\n      swap2\n      swap1\n      tag_96\n      jump\t// in\n    tag_95:\n      pop\n      0x40\n      dup3\n      add\n      mload\n      dup2\n      0x02\n      add\n      sstore\n      0x60\n      dup3\n      add\n      mload\n      dup2\n      0x03\n      add\n      exp(0x0100, 0x00)\n      dup2\n      sload\n      dup2\n      0xff\n      mul\n      not\n      and\n      swap1\n      dup4\n      iszero\n      iszero\n      mul\n      or\n      swap1\n      sstore\n      pop\n      swap1\n      pop\n      pop\n        /* \"UserAuth.sol\":1297:1301  true */\n      0x01\n        /* \"UserAuth.sol\":1270:1282  isRegistered */\n      dup1\n        /* \"UserAuth.sol\":1270:1294  isRegistered[msg.sender] */\n      0x00\n        /* \"UserAuth.sol\":1283:1293  msg.sender */\n      caller\n        /* \"UserAuth.sol\":1270:1294  isRegistered[msg.sender] */\n      0xffffffffffffffffffffffffffffffffffffffff\n      and\n      0xffffffffffffffffffffffffffffffffffffffff\n      and\n      dup2\n      mstore\n      0x20\n      add\n      swap1\n      dup2\n      mstore\n      0x20\n      add\n      0x00\n      keccak256\n      0x00\n        /* \"UserAuth.sol\":1270:1301  isRegistered[msg.sender] = true */\n      0x0100\n      exp\n      dup2\n      sload\n      dup2\n      0xff\n      mul\n      not\n      and\n      swap1\n      dup4\n      iszero\n      iszero\n      mul\n      or\n      swap1\n      sstore\n      pop\n        /* \"UserAuth.sol\":1311:1324  userAddresses */\n      0x02\n        /* \"UserAuth.sol\":1330:1340  msg.sender */\n      caller\n        /* \"UserAuth.sol\":1311:1341  userAddresses.push(msg.sender) */\n      swap1\n      dup1\n      0x01\n      dup2\n      sload\n      add\n      dup1\n      dup3\n      sstore\n      dup1\n      swap2\n      pop\n      pop\n      0x01\n      swap1\n      sub\n      swap1\n      0x00\n      mstore\n      keccak256(0x00, 0x20)\n      add\n      0x00\n      swap1\n      swap2\n      swap1\n      swap2\n      swap1\n      swap2\n      0x0100\n      exp\n      dup2\n      sload\n      dup2\n      0xffffffffffffffffffffffffffffffffffffffff\n      mul\n      not\n      and\n      swap1\n      dup4\n      0xffffffffffffffffffffffffffffffffffffffff\n      and\n      mul\n      or\n      swap1\n      sstore\n      pop\n        /* \"UserAuth.sol\":1380:1390  msg.sender */\n      caller\n        /* \"UserAuth.sol\":1365:1419  UserRegistered(msg.sender, _username, block.timestamp) */\n      0xffffffffffffffffffffffffffffffffffffffff\n      and\n      0x89105a1c6a3c2fbd471255c66a31ccab604af5697f67d7e2e9a0028c5e4dbd91\n        /* \"UserAuth.sol\":1392:1401  _username */\n      dup3\n        /* \"UserAuth.sol\":1403:1418  block.timestamp */\n      timestamp\n        /* \"UserAuth.sol\":1365:1419  UserRegistered(msg.sender, _username, block.timestamp) */\n      mload(0x40)\n      tag_98\n      swap3\n      swap2\n      swap1\n      tag_99\n      jump\t// in\n    tag_98:\n      mload(0x40)\n      dup1\n      swap2\n      sub\n      swap1\n      log2\n        /* \"UserAuth.sol\":856:1426  function registerUser(string memory _username) public {... */\n      pop\n      jump\t// out\n        /* \"UserAuth.sol\":2329:2643  function getMyInfo() public view onlyRegistered returns (... */\n    tag_35:\n        /* \"UserAuth.sol\":2395:2414  address userAddress */\n      0x00\n        /* \"UserAuth.sol\":2424:2446  string memory username */\n      0x60\n        /* \"UserAuth.sol\":2456:2476  uint256 registeredAt */\n      0x00\n        /* \"UserAuth.sol\":2486:2499  bool isActive */\n      dup1\n        /* \"UserAuth.sol\":654:666  isRegistered */\n      0x01\n        /* \"UserAuth.sol\":654:678  isRegistered[msg.sender] */\n      0x00\n        /* \"UserAuth.sol\":667:677  msg.sender */\n      caller\n        /* \"UserAuth.sol\":654:678  isRegistered[msg.sender] */\n      0xffffffffffffffffffffffffffffffffffffffff\n      and\n      0xffffffffffffffffffffffffffffffffffffffff\n      and\n      dup2\n      mstore\n      0x20\n      add\n      swap1\n      dup2\n      mstore\n      0x20\n      add\n      0x00\n      keccak256\n      0x00\n      swap1\n      sload\n      swap1\n      0x0100\n      exp\n      swap1\n      div\n      0xff\n      and\n        /* \"UserAuth.sol\":646:702  require(isRegistered[msg.sender], \"User not registered\") */\n      tag_101\n      jumpi\n      mload(0x40)\n      0x08c379a000000000000000000000000000000000000000000000000000000000\n      dup2\n      mstore\n      0x04\n      add\n      tag_102\n      swap1\n      tag_103\n      jump\t// in\n    tag_102:\n      mload(0x40)\n      dup1\n      swap2\n      sub\n      swap1\n      revert\n    tag_101:\n        /* \"UserAuth.sol\":2516:2532  User memory user */\n      0x00\n        /* \"UserAuth.sol\":2535:2540  users */\n      dup1\n        /* \"UserAuth.sol\":2535:2552  users[msg.sender] */\n      0x00\n        /* \"UserAuth.sol\":2541:2551  msg.sender */\n      caller\n        /* \"UserAuth.sol\":2535:2552  users[msg.sender] */\n      0xffffffffffffffffffffffffffffffffffffffff\n      and\n      0xffffffffffffffffffffffffffffffffffffffff\n      and\n      dup2\n      mstore\n      0x20\n      add\n      swap1\n      dup2\n      mstore\n      0x20\n      add\n      0x00\n      keccak256\n        /* \"UserAuth.sol\":2516:2552  User memory user = users[msg.sender] */\n      mload(0x40)\n      dup1\n      0x80\n      add\n      0x40\n      mstore\n      swap1\n      dup2\n      0x00\n      dup3\n      add\n      0x00\n      swap1\n      sload\n      swap1\n      0x0100\n      exp\n      swap1\n      div\n      0xffffffffffffffffffffffffffffffffffffffff\n      and\n      0xffffffffffffffffffffffffffffffffffffffff\n      and\n      0xffffffffffffffffffffffffffffffffffffffff\n      and\n      dup2\n      mstore\n      0x20\n      add\n      0x01\n      dup3\n      add\n      dup1\n      sload\n      tag_105\n      swap1\n      tag_83\n      jump\t// in\n    tag_105:\n      dup1\n      0x1f\n      add\n      0x20\n      dup1\n      swap2\n      div\n      mul\n      0x20\n      add\n      mload(0x40)\n      swap1\n      dup2\n      add\n      0x40\n      mstore\n      dup1\n      swap3\n      swap2\n      swap1\n      dup2\n      dup2\n      mstore\n      0x20\n      add\n      dup3\n      dup1\n      sload\n      tag_106\n      swap1\n      tag_83\n      jump\t// in\n    tag_106:\n      dup1\n      iszero\n      tag_107\n      jumpi\n      dup1\n      0x1f\n      lt\n      tag_108\n      jumpi\n      0x0100\n      dup1\n      dup4\n      sload\n      div\n      mul\n      dup4\n      mstore\n      swap2\n      0x20\n      add\n      swap2\n      jump(tag_107)\n    tag_108:\n      dup3\n      add\n      swap2\n      swap1\n      0x00\n      mstore\n      keccak256(0x00, 0x20)\n      swap1\n    tag_109:\n      dup2\n      sload\n      dup2\n      mstore\n      swap1\n      0x01\n      add\n      swap1\n      0x20\n      add\n      dup1\n      dup4\n      gt\n      tag_109\n      jumpi\n      dup3\n      swap1\n      sub\n      0x1f\n      and\n      dup3\n      add\n      swap2\n    tag_107:\n      pop\n      pop\n      pop\n      pop\n      pop\n      dup2\n      mstore\n      0x20\n      add\n      0x02\n      dup3\n      add\n      sload\n      dup2\n      mstore\n      0x20\n      add\n      0x03\n      dup3\n      add\n      0x00\n      swap1\n      sload\n      swap1\n      0x0100\n      exp\n      swap1\n      div\n      0xff\n      and\n      iszero\n      iszero\n      iszero\n      iszero\n      dup2\n      mstore\n      pop\n      pop\n      swap1\n      pop\n        /* \"UserAuth.sol\":2570:2574  user */\n      dup1\n        /* \"UserAuth.sol\":2570:2586  user.userAddress */\n      0x00\n      add\n      mload\n        /* \"UserAuth.sol\":2588:2592  user */\n      dup2\n        /* \"UserAuth.sol\":2588:2601  user.username */\n      0x20\n      add\n      mload\n        /* \"UserAuth.sol\":2603:2607  user */\n      dup3\n        /* \"UserAuth.sol\":2603:2620  user.registeredAt */\n      0x40\n      add\n      mload\n        /* \"UserAuth.sol\":2622:2626  user */\n      dup4\n        /* \"UserAuth.sol\":2622:2635  user.isActive */\n      0x60\n      add\n      mload\n        /* \"UserAuth.sol\":2562:2636  return (user.userAddress, user.username, user.registeredAt, user.isActive) */\n      swap5\n      pop\n      swap5\n      pop\n      swap5\n      pop\n      swap5\n      pop\n      pop\n        /* \"UserAuth.sol\":2329:2643  function getMyInfo() public view onlyRegistered returns (... */\n      swap1\n      swap2\n      swap3\n      swap4\n      jump\t// out\n        /* \"UserAuth.sol\":3205:3445  function recoverSigner(bytes32 ethSignedMessageHash, bytes memory signature) public pure returns (address) {... */\n    tag_40:\n        /* \"UserAuth.sol\":3303:3310  address */\n      0x00\n        /* \"UserAuth.sol\":3323:3332  bytes32 r */\n      dup1\n        /* \"UserAuth.sol\":3334:3343  bytes32 s */\n      0x00\n        /* \"UserAuth.sol\":3345:3352  uint8 v */\n      dup1\n        /* \"UserAuth.sol\":3356:3381  splitSignature(signature) */\n      tag_111\n        /* \"UserAuth.sol\":3371:3380  signature */\n      dup6\n        /* \"UserAuth.sol\":3356:3370  splitSignature */\n      tag_49\n        /* \"UserAuth.sol\":3356:3381  splitSignature(signature) */\n      jump\t// in\n    tag_111:\n        /* \"UserAuth.sol\":3322:3381  (bytes32 r, bytes32 s, uint8 v) = splitSignature(signature) */\n      swap3\n      pop\n      swap3\n      pop\n      swap3\n      pop\n        /* \"UserAuth.sol\":3398:3438  ecrecover(ethSignedMessageHash, v, r, s) */\n      0x01\n        /* \"UserAuth.sol\":3408:3428  ethSignedMessageHash */\n      dup7\n        /* \"UserAuth.sol\":3430:3431  v */\n      dup3\n        /* \"UserAuth.sol\":3433:3434  r */\n      dup6\n        /* \"UserAuth.sol\":3436:3437  s */\n      dup6\n        /* \"UserAuth.sol\":3398:3438  ecrecover(ethSignedMessageHash, v, r, s) */\n      mload(0x40)\n      0x00\n      dup2\n      mstore\n      0x20\n      add\n      0x40\n      mstore\n      mload(0x40)\n      tag_112\n      swap5\n      swap4\n      swap3\n      swap2\n      swap1\n      tag_113\n      jump\t// in\n    tag_112:\n      0x20\n      mload(0x40)\n      0x20\n      dup2\n      sub\n      swap1\n      dup1\n      dup5\n      sub\n      swap1\n      dup6\n      gas\n      staticcall\n      iszero\n      dup1\n      iszero\n      tag_115\n      jumpi\n      returndatasize\n      0x00\n      dup1\n      returndatacopy\n      revert(0x00, returndatasize)\n    tag_115:\n      pop\n      pop\n      pop\n      mload(sub(mload(0x40), 0x20))\n        /* \"UserAuth.sol\":3391:3438  return ecrecover(ethSignedMessageHash, v, r, s) */\n      swap4\n      pop\n      pop\n      pop\n      pop\n        /* \"UserAuth.sol\":3205:3445  function recoverSigner(bytes32 ethSignedMessageHash, bytes memory signature) public pure returns (address) {... */\n      swap3\n      swap2\n      pop\n      pop\n      jump\t// out\n        /* \"UserAuth.sol\":2653:2752  function getTotalUsers() public view returns (uint256) {... */\n    tag_43:\n        /* \"UserAuth.sol\":2699:2706  uint256 */\n      0x00\n        /* \"UserAuth.sol\":2725:2738  userAddresses */\n      0x02\n        /* \"UserAuth.sol\":2725:2745  userAddresses.length */\n      dup1\n      sload\n      swap1\n      pop\n        /* \"UserAuth.sol\":2718:2745  return userAddresses.length */\n      swap1\n      pop\n        /* \"UserAuth.sol\":2653:2752  function getTotalUsers() public view returns (uint256) {... */\n      swap1\n      jump\t// out\n        /* \"UserAuth.sol\":3455:3777  function splitSignature(bytes memory sig) public pure returns (bytes32 r, bytes32 s, uint8 v) {... */\n    tag_49:\n        /* \"UserAuth.sol\":3518:3527  bytes32 r */\n      0x00\n        /* \"UserAuth.sol\":3529:3538  bytes32 s */\n      dup1\n        /* \"UserAuth.sol\":3540:3547  uint8 v */\n      0x00\n        /* \"UserAuth.sol\":3581:3583  65 */\n      0x41\n        /* \"UserAuth.sol\":3567:3570  sig */\n      dup5\n        /* \"UserAuth.sol\":3567:3577  sig.length */\n      mload\n        /* \"UserAuth.sol\":3567:3583  sig.length == 65 */\n      eq\n        /* \"UserAuth.sol\":3559:3612  require(sig.length == 65, \"Invalid signature length\") */\n      tag_118\n      jumpi\n      mload(0x40)\n      0x08c379a000000000000000000000000000000000000000000000000000000000\n      dup2\n      mstore\n      0x04\n      add\n      tag_119\n      swap1\n      tag_120\n      jump\t// in\n    tag_119:\n      mload(0x40)\n      dup1\n      swap2\n      sub\n      swap1\n      revert\n    tag_118:\n        /* \"UserAuth.sol\":3674:3676  32 */\n      0x20\n        /* \"UserAuth.sol\":3669:3672  sig */\n      dup5\n        /* \"UserAuth.sol\":3665:3677  add(sig, 32) */\n      add\n        /* \"UserAuth.sol\":3659:3678  mload(add(sig, 32)) */\n      mload\n        /* \"UserAuth.sol\":3654:3678  r := mload(add(sig, 32)) */\n      swap3\n      pop\n        /* \"UserAuth.sol\":3711:3713  64 */\n      0x40\n        /* \"UserAuth.sol\":3706:3709  sig */\n      dup5\n        /* \"UserAuth.sol\":3702:3714  add(sig, 64) */\n      add\n        /* \"UserAuth.sol\":3696:3715  mload(add(sig, 64)) */\n      mload\n        /* \"UserAuth.sol\":3691:3715  s := mload(add(sig, 64)) */\n      swap2\n      pop\n        /* \"UserAuth.sol\":3756:3758  96 */\n      0x60\n        /* \"UserAuth.sol\":3751:3754  sig */\n      dup5\n        /* \"UserAuth.sol\":3747:3759  add(sig, 96) */\n      add\n        /* \"UserAuth.sol\":3741:3760  mload(add(sig, 96)) */\n      mload\n        /* \"UserAuth.sol\":3738:3739  0 */\n      0x00\n        /* \"UserAuth.sol\":3733:3761  byte(0, mload(add(sig, 96))) */\n      byte\n        /* \"UserAuth.sol\":3728:3761  v := byte(0, mload(add(sig, 96))) */\n      swap1\n      pop\n        /* \"UserAuth.sol\":3455:3777  function splitSignature(bytes memory sig) public pure returns (bytes32 r, bytes32 s, uint8 v) {... */\n      swap2\n      swap4\n      swap1\n      swap3\n      pop\n      jump\t// out\n        /* \"UserAuth.sol\":217:254  mapping(address => User) public users */\n    tag_54:\n      mstore(0x20, 0x00)\n      dup1\n      0x00\n      mstore\n      keccak256(0x00, 0x40)\n      0x00\n      swap2\n      pop\n      swap1\n      pop\n      dup1\n      0x00\n      add\n      0x00\n      swap1\n      sload\n      swap1\n      0x0100\n      exp\n      swap1\n      div\n      0xffffffffffffffffffffffffffffffffffffffff\n      and\n      swap1\n      dup1\n      0x01\n      add\n      dup1\n      sload\n      tag_121\n      swap1\n      tag_83\n      jump\t// in\n    tag_121:\n      dup1\n      0x1f\n      add\n      0x20\n      dup1\n      swap2\n      div\n      mul\n      0x20\n      add\n      mload(0x40)\n      swap1\n      dup2\n      add\n      0x40\n      mstore\n      dup1\n      swap3\n      swap2\n      swap1\n      dup2\n      dup2\n      mstore\n      0x20\n      add\n      dup3\n      dup1\n      sload\n      tag_122\n      swap1\n      tag_83\n      jump\t// in\n    tag_122:\n      dup1\n      iszero\n      tag_123\n      jumpi\n      dup1\n      0x1f\n      lt\n      tag_124\n      jumpi\n      0x0100\n      dup1\n      dup4\n      sload\n      div\n      mul\n      dup4\n      mstore\n      swap2\n      0x20\n      add\n      swap2\n      jump(tag_123)\n    tag_124:\n      dup3\n      add\n      swap2\n      swap1\n      0x00\n      mstore\n      keccak256(0x00, 0x20)\n      swap1\n    tag_125:\n      dup2\n      sload\n      dup2\n      mstore\n      swap1\n      0x01\n      add\n      swap1\n      0x20\n      add\n      dup1\n      dup4\n      gt\n      tag_125\n      jumpi\n      dup3\n      swap1\n      sub\n      0x1f\n      and\n      dup3\n      add\n      swap2\n    tag_123:\n      pop\n      pop\n      pop\n      pop\n      pop\n      swap1\n      dup1\n      0x02\n      add\n      sload\n      swap1\n      dup1\n      0x03\n      add\n      0x00\n      swap1\n      sload\n      swap1\n      0x0100\n      exp\n      swap1\n      div\n      0xff\n      and\n      swap1\n      pop\n      dup5\n      jump\t// out\n        /* \"UserAuth.sol\":260:304  mapping(address => bool) public isRegistered */\n    tag_58:\n      mstore(0x20, 0x01)\n      dup1\n      0x00\n      mstore\n      keccak256(0x00, 0x40)\n      0x00\n      swap2\n      pop\n      sload\n      swap1\n      0x0100\n      exp\n      swap1\n      div\n      0xff\n      and\n      dup2\n      jump\t// out\n        /* \"UserAuth.sol\":1436:1743  function updateUsername(string memory _newUsername) public onlyRegistered onlyActive {... */\n    tag_63:\n        /* \"UserAuth.sol\":654:666  isRegistered */\n      0x01\n        /* \"UserAuth.sol\":654:678  isRegistered[msg.sender] */\n      0x00\n        /* \"UserAuth.sol\":667:677  msg.sender */\n      caller\n        /* \"UserAuth.sol\":654:678  isRegistered[msg.sender] */\n      0xffffffffffffffffffffffffffffffffffffffff\n      and\n      0xffffffffffffffffffffffffffffffffffffffff\n      and\n      dup2\n      mstore\n      0x20\n      add\n      swap1\n      dup2\n      mstore\n      0x20\n      add\n      0x00\n      keccak256\n      0x00\n      swap1\n      sload\n      swap1\n      0x0100\n      exp\n      swap1\n      div\n      0xff\n      and\n        /* \"UserAuth.sol\":646:702  require(isRegistered[msg.sender], \"User not registered\") */\n      tag_127\n      jumpi\n      mload(0x40)\n      0x08c379a000000000000000000000000000000000000000000000000000000000\n      dup2\n      mstore\n      0x04\n      add\n      tag_128\n      swap1\n      tag_103\n      jump\t// in\n    tag_128:\n      mload(0x40)\n      dup1\n      swap2\n      sub\n      swap1\n      revert\n    tag_127:\n        /* \"UserAuth.sol\":770:775  users */\n      0x00\n        /* \"UserAuth.sol\":770:787  users[msg.sender] */\n      dup1\n        /* \"UserAuth.sol\":776:786  msg.sender */\n      caller\n        /* \"UserAuth.sol\":770:787  users[msg.sender] */\n      0xffffffffffffffffffffffffffffffffffffffff\n      and\n      0xffffffffffffffffffffffffffffffffffffffff\n      and\n      dup2\n      mstore\n      0x20\n      add\n      swap1\n      dup2\n      mstore\n      0x20\n      add\n      0x00\n      keccak256\n        /* \"UserAuth.sol\":770:796  users[msg.sender].isActive */\n      0x03\n      add\n      0x00\n      swap1\n      sload\n      swap1\n      0x0100\n      exp\n      swap1\n      div\n      0xff\n      and\n        /* \"UserAuth.sol\":762:828  require(users[msg.sender].isActive, \"User account is deactivated\") */\n      tag_130\n      jumpi\n      mload(0x40)\n      0x08c379a000000000000000000000000000000000000000000000000000000000\n      dup2\n      mstore\n      0x04\n      add\n      tag_131\n      swap1\n      tag_132\n      jump\t// in\n    tag_131:\n      mload(0x40)\n      dup1\n      swap2\n      sub\n      swap1\n      revert\n    tag_130:\n        /* \"UserAuth.sol\":1568:1569  0 */\n      0x00\n        /* \"UserAuth.sol\":1545:1557  _newUsername */\n      dup2\n        /* \"UserAuth.sol\":1539:1565  bytes(_newUsername).length */\n      mload\n        /* \"UserAuth.sol\":1539:1569  bytes(_newUsername).length > 0 */\n      gt\n        /* \"UserAuth.sol\":1531:1598  require(bytes(_newUsername).length > 0, \"Username cannot be empty\") */\n      tag_134\n      jumpi\n      mload(0x40)\n      0x08c379a000000000000000000000000000000000000000000000000000000000\n      dup2\n      mstore\n      0x04\n      add\n      tag_135\n      swap1\n      tag_94\n      jump\t// in\n    tag_135:\n      mload(0x40)\n      dup1\n      swap2\n      sub\n      swap1\n      revert\n    tag_134:\n        /* \"UserAuth.sol\":1646:1658  _newUsername */\n      dup1\n        /* \"UserAuth.sol\":1617:1622  users */\n      0x00\n        /* \"UserAuth.sol\":1617:1634  users[msg.sender] */\n      dup1\n        /* \"UserAuth.sol\":1623:1633  msg.sender */\n      caller\n        /* \"UserAuth.sol\":1617:1634  users[msg.sender] */\n      0xffffffffffffffffffffffffffffffffffffffff\n      and\n      0xffffffffffffffffffffffffffffffffffffffff\n      and\n      dup2\n      mstore\n      0x20\n      add\n      swap1\n      dup2\n      mstore\n      0x20\n      add\n      0x00\n      keccak256\n        /* \"UserAuth.sol\":1617:1643  users[msg.sender].username */\n      0x01\n      add\n        /* \"UserAuth.sol\":1617:1658  users[msg.sender].username = _newUsername */\n      swap1\n      dup2\n      tag_136\n      swap2\n      swap1\n      tag_96\n      jump\t// in\n    tag_136:\n      pop\n        /* \"UserAuth.sol\":1694:1704  msg.sender */\n      caller\n        /* \"UserAuth.sol\":1682:1736  UserUpdated(msg.sender, _newUsername, block.timestamp) */\n      0xffffffffffffffffffffffffffffffffffffffff\n      and\n      0x429ad3a7ede99d93a72d6f0ba190681a2763d681f984e2f299af21ca35caebdb\n        /* \"UserAuth.sol\":1706:1718  _newUsername */\n      dup3\n        /* \"UserAuth.sol\":1720:1735  block.timestamp */\n      timestamp\n        /* \"UserAuth.sol\":1682:1736  UserUpdated(msg.sender, _newUsername, block.timestamp) */\n      mload(0x40)\n      tag_137\n      swap3\n      swap2\n      swap1\n      tag_99\n      jump\t// in\n    tag_137:\n      mload(0x40)\n      dup1\n      swap2\n      sub\n      swap1\n      log2\n        /* \"UserAuth.sol\":1436:1743  function updateUsername(string memory _newUsername) public onlyRegistered onlyActive {... */\n      pop\n      jump\t// out\n        /* \"UserAuth.sol\":2762:3001  function verifySignature(bytes32 message, bytes memory signature) public pure returns (address) {... */\n    tag_66:\n        /* \"UserAuth.sol\":2849:2856  address */\n      0x00\n        /* \"UserAuth.sol\":2868:2896  bytes32 ethSignedMessageHash */\n      dup1\n        /* \"UserAuth.sol\":2899:2931  getEthSignedMessageHash(message) */\n      tag_139\n        /* \"UserAuth.sol\":2923:2930  message */\n      dup5\n        /* \"UserAuth.sol\":2899:2922  getEthSignedMessageHash */\n      tag_73\n        /* \"UserAuth.sol\":2899:2931  getEthSignedMessageHash(message) */\n      jump\t// in\n    tag_139:\n        /* \"UserAuth.sol\":2868:2931  bytes32 ethSignedMessageHash = getEthSignedMessageHash(message) */\n      swap1\n      pop\n        /* \"UserAuth.sol\":2948:2994  recoverSigner(ethSignedMessageHash, signature) */\n      tag_140\n        /* \"UserAuth.sol\":2962:2982  ethSignedMessageHash */\n      dup2\n        /* \"UserAuth.sol\":2984:2993  signature */\n      dup5\n        /* \"UserAuth.sol\":2948:2961  recoverSigner */\n      tag_40\n        /* \"UserAuth.sol\":2948:2994  recoverSigner(ethSignedMessageHash, signature) */\n      jump\t// in\n    tag_140:\n        /* \"UserAuth.sol\":2941:2994  return recoverSigner(ethSignedMessageHash, signature) */\n      swap2\n      pop\n      pop\n        /* \"UserAuth.sol\":2762:3001  function verifySignature(bytes32 message, bytes memory signature) public pure returns (address) {... */\n      swap3\n      swap2\n      pop\n      pop\n      jump\t// out\n        /* \"UserAuth.sol\":1753:1923  function deactivateAccount() public onlyRegistered {... */\n    tag_69:\n        /* \"UserAuth.sol\":654:666  isRegistered */\n      0x01\n        /* \"UserAuth.sol\":654:678  isRegistered[msg.sender] */\n      0x00\n        /* \"UserAuth.sol\":667:677  msg.sender */\n      caller\n        /* \"UserAuth.sol\":654:678  isRegistered[msg.sender] */\n      0xffffffffffffffffffffffffffffffffffffffff\n      and\n      0xffffffffffffffffffffffffffffffffffffffff\n      and\n      dup2\n      mstore\n      0x20\n      add\n      swap1\n      dup2\n      mstore\n      0x20\n      add\n      0x00\n      keccak256\n      0x00\n      swap1\n      sload\n      swap1\n      0x0100\n      exp\n      swap1\n      div\n      0xff\n      and\n        /* \"UserAuth.sol\":646:702  require(isRegistered[msg.sender], \"User not registered\") */\n      tag_142\n      jumpi\n      mload(0x40)\n      0x08c379a000000000000000000000000000000000000000000000000000000000\n      dup2\n      mstore\n      0x04\n      add\n      tag_143\n      swap1\n      tag_103\n      jump\t// in\n    tag_143:\n      mload(0x40)\n      dup1\n      swap2\n      sub\n      swap1\n      revert\n    tag_142:\n        /* \"UserAuth.sol\":1843:1848  false */\n      0x00\n        /* \"UserAuth.sol\":1814:1819  users */\n      dup1\n        /* \"UserAuth.sol\":1814:1831  users[msg.sender] */\n      0x00\n        /* \"UserAuth.sol\":1820:1830  msg.sender */\n      caller\n        /* \"UserAuth.sol\":1814:1831  users[msg.sender] */\n      0xffffffffffffffffffffffffffffffffffffffff\n      and\n      0xffffffffffffffffffffffffffffffffffffffff\n      and\n      dup2\n      mstore\n      0x20\n      add\n      swap1\n      dup2\n      mstore\n      0x20\n      add\n      0x00\n      keccak256\n        /* \"UserAuth.sol\":1814:1840  users[msg.sender].isActive */\n      0x03\n      add\n      0x00\n        /* \"UserAuth.sol\":1814:1848  users[msg.sender].isActive = false */\n      0x0100\n      exp\n      dup2\n      sload\n      dup2\n      0xff\n      mul\n      not\n      and\n      swap1\n      dup4\n      iszero\n      iszero\n      mul\n      or\n      swap1\n      sstore\n      pop\n        /* \"UserAuth.sol\":1888:1898  msg.sender */\n      caller\n        /* \"UserAuth.sol\":1872:1916  UserDeactivated(msg.sender, block.timestamp) */\n      0xffffffffffffffffffffffffffffffffffffffff\n      and\n      0x0a3c4dd3ee5277d6eada470cf9b47a480953120ecafcbbdc14bde6f8a6248930\n        /* \"UserAuth.sol\":1900:1915  block.timestamp */\n      timestamp\n        /* \"UserAuth.sol\":1872:1916  UserDeactivated(msg.sender, block.timestamp) */\n      mload(0x40)\n      tag_145\n      swap2\n      swap1\n      tag_45\n      jump\t// in\n    tag_145:\n      mload(0x40)\n      dup1\n      swap2\n      sub\n      swap1\n      log2\n        /* \"UserAuth.sol\":1753:1923  function deactivateAccount() public onlyRegistered {... */\n      jump\t// out\n        /* \"UserAuth.sol\":3011:3195  function getEthSignedMessageHash(bytes32 messageHash) public pure returns (bytes32) {... */\n    tag_73:\n        /* \"UserAuth.sol\":3086:3093  bytes32 */\n      0x00\n        /* \"UserAuth.sol\":3175:3186  messageHash */\n      dup2\n        /* \"UserAuth.sol\":3122:3187  abi.encodePacked(\"\\x19Ethereum Signed Message:\\n32\", messageHash) */\n      add(0x20, mload(0x40))\n      tag_147\n      swap2\n      swap1\n      tag_148\n      jump\t// in\n    tag_147:\n      mload(0x40)\n      0x20\n      dup2\n      dup4\n      sub\n      sub\n      dup2\n      mstore\n      swap1\n      0x40\n      mstore\n        /* \"UserAuth.sol\":3112:3188  keccak256(abi.encodePacked(\"\\x19Ethereum Signed Message:\\n32\", messageHash)) */\n      dup1\n      mload\n      swap1\n      0x20\n      add\n      keccak256\n        /* \"UserAuth.sol\":3105:3188  return keccak256(abi.encodePacked(\"\\x19Ethereum Signed Message:\\n32\", messageHash)) */\n      swap1\n      pop\n        /* \"UserAuth.sol\":3011:3195  function getEthSignedMessageHash(bytes32 messageHash) public pure returns (bytes32) {... */\n      swap2\n      swap1\n      pop\n      jump\t// out\n        /* \"#utility.yul\":7:82   */\n    tag_149:\n        /* \"#utility.yul\":40:46   */\n      0x00\n        /* \"#utility.yul\":73:75   */\n      0x40\n        /* \"#utility.yul\":67:76   */\n      mload\n        /* \"#utility.yul\":57:76   */\n      swap1\n      pop\n        /* \"#utility.yul\":7:82   */\n      swap1\n      jump\t// out\n        /* \"#utility.yul\":88:205   */\n    tag_150:\n        /* \"#utility.yul\":197:198   */\n      0x00\n        /* \"#utility.yul\":194:195   */\n      dup1\n        /* \"#utility.yul\":187:199   */\n      revert\n        /* \"#utility.yul\":211:328   */\n    tag_151:\n        /* \"#utility.yul\":320:321   */\n      0x00\n        /* \"#utility.yul\":317:318   */\n      dup1\n        /* \"#utility.yul\":310:322   */\n      revert\n        /* \"#utility.yul\":334:411   */\n    tag_152:\n        /* \"#utility.yul\":371:378   */\n      0x00\n        /* \"#utility.yul\":400:405   */\n      dup2\n        /* \"#utility.yul\":389:405   */\n      swap1\n      pop\n        /* \"#utility.yul\":334:411   */\n      swap2\n      swap1\n      pop\n      jump\t// out\n        /* \"#utility.yul\":417:539   */\n    tag_153:\n        /* \"#utility.yul\":490:514   */\n      tag_225\n        /* \"#utility.yul\":508:513   */\n      dup2\n        /* \"#utility.yul\":490:514   */\n      tag_152\n      jump\t// in\n    tag_225:\n        /* \"#utility.yul\":483:488   */\n      dup2\n        /* \"#utility.yul\":480:515   */\n      eq\n        /* \"#utility.yul\":470:533   */\n      tag_226\n      jumpi\n        /* \"#utility.yul\":529:530   */\n      0x00\n        /* \"#utility.yul\":526:527   */\n      dup1\n        /* \"#utility.yul\":519:531   */\n      revert\n        /* \"#utility.yul\":470:533   */\n    tag_226:\n        /* \"#utility.yul\":417:539   */\n      pop\n      jump\t// out\n        /* \"#utility.yul\":545:684   */\n    tag_154:\n        /* \"#utility.yul\":591:596   */\n      0x00\n        /* \"#utility.yul\":629:635   */\n      dup2\n        /* \"#utility.yul\":616:636   */\n      calldataload\n        /* \"#utility.yul\":607:636   */\n      swap1\n      pop\n        /* \"#utility.yul\":645:678   */\n      tag_228\n        /* \"#utility.yul\":672:677   */\n      dup2\n        /* \"#utility.yul\":645:678   */\n      tag_153\n      jump\t// in\n    tag_228:\n        /* \"#utility.yul\":545:684   */\n      swap3\n      swap2\n      pop\n      pop\n      jump\t// out\n        /* \"#utility.yul\":690:1019   */\n    tag_20:\n        /* \"#utility.yul\":749:755   */\n      0x00\n        /* \"#utility.yul\":798:800   */\n      0x20\n        /* \"#utility.yul\":786:795   */\n      dup3\n        /* \"#utility.yul\":777:784   */\n      dup5\n        /* \"#utility.yul\":773:796   */\n      sub\n        /* \"#utility.yul\":769:801   */\n      slt\n        /* \"#utility.yul\":766:885   */\n      iszero\n      tag_230\n      jumpi\n        /* \"#utility.yul\":804:883   */\n      tag_231\n      tag_150\n      jump\t// in\n    tag_231:\n        /* \"#utility.yul\":766:885   */\n    tag_230:\n        /* \"#utility.yul\":924:925   */\n      0x00\n        /* \"#utility.yul\":949:1002   */\n      tag_232\n        /* \"#utility.yul\":994:1001   */\n      dup5\n        /* \"#utility.yul\":985:991   */\n      dup3\n        /* \"#utility.yul\":974:983   */\n      dup6\n        /* \"#utility.yul\":970:992   */\n      add\n        /* \"#utility.yul\":949:1002   */\n      tag_154\n      jump\t// in\n    tag_232:\n        /* \"#utility.yul\":939:1002   */\n      swap2\n      pop\n        /* \"#utility.yul\":895:1012   */\n      pop\n        /* \"#utility.yul\":690:1019   */\n      swap3\n      swap2\n      pop\n      pop\n      jump\t// out\n        /* \"#utility.yul\":1025:1151   */\n    tag_155:\n        /* \"#utility.yul\":1062:1069   */\n      0x00\n        /* \"#utility.yul\":1102:1144   */\n      0xffffffffffffffffffffffffffffffffffffffff\n        /* \"#utility.yul\":1095:1100   */\n      dup3\n        /* \"#utility.yul\":1091:1145   */\n      and\n        /* \"#utility.yul\":1080:1145   */\n      swap1\n      pop\n        /* \"#utility.yul\":1025:1151   */\n      swap2\n      swap1\n      pop\n      jump\t// out\n        /* \"#utility.yul\":1157:1253   */\n    tag_156:\n        /* \"#utility.yul\":1194:1201   */\n      0x00\n        /* \"#utility.yul\":1223:1247   */\n      tag_235\n        /* \"#utility.yul\":1241:1246   */\n      dup3\n        /* \"#utility.yul\":1223:1247   */\n      tag_155\n      jump\t// in\n    tag_235:\n        /* \"#utility.yul\":1212:1247   */\n      swap1\n      pop\n        /* \"#utility.yul\":1157:1253   */\n      swap2\n      swap1\n      pop\n      jump\t// out\n        /* \"#utility.yul\":1259:1377   */\n    tag_157:\n        /* \"#utility.yul\":1346:1370   */\n      tag_237\n        /* \"#utility.yul\":1364:1369   */\n      dup2\n        /* \"#utility.yul\":1346:1370   */\n      tag_156\n      jump\t// in\n    tag_237:\n        /* \"#utility.yul\":1341:1344   */\n      dup3\n        /* \"#utility.yul\":1334:1371   */\n      mstore\n        /* \"#utility.yul\":1259:1377   */\n      pop\n      pop\n      jump\t// out\n        /* \"#utility.yul\":1383:1605   */\n    tag_23:\n        /* \"#utility.yul\":1476:1480   */\n      0x00\n        /* \"#utility.yul\":1514:1516   */\n      0x20\n        /* \"#utility.yul\":1503:1512   */\n      dup3\n        /* \"#utility.yul\":1499:1517   */\n      add\n        /* \"#utility.yul\":1491:1517   */\n      swap1\n      pop\n        /* \"#utility.yul\":1527:1598   */\n      tag_239\n        /* \"#utility.yul\":1595:1596   */\n      0x00\n        /* \"#utility.yul\":1584:1593   */\n      dup4\n        /* \"#utility.yul\":1580:1597   */\n      add\n        /* \"#utility.yul\":1571:1577   */\n      dup5\n        /* \"#utility.yul\":1527:1598   */\n      tag_157\n      jump\t// in\n    tag_239:\n        /* \"#utility.yul\":1383:1605   */\n      swap3\n      swap2\n      pop\n      pop\n      jump\t// out\n        /* \"#utility.yul\":1611:1733   */\n    tag_158:\n        /* \"#utility.yul\":1684:1708   */\n      tag_241\n        /* \"#utility.yul\":1702:1707   */\n      dup2\n        /* \"#utility.yul\":1684:1708   */\n      tag_156\n      jump\t// in\n    tag_241:\n        /* \"#utility.yul\":1677:1682   */\n      dup2\n        /* \"#utility.yul\":1674:1709   */\n      eq\n        /* \"#utility.yul\":1664:1727   */\n      tag_242\n      jumpi\n        /* \"#utility.yul\":1723:1724   */\n      0x00\n        /* \"#utility.yul\":1720:1721   */\n      dup1\n        /* \"#utility.yul\":1713:1725   */\n      revert\n        /* \"#utility.yul\":1664:1727   */\n    tag_242:\n        /* \"#utility.yul\":1611:1733   */\n      pop\n      jump\t// out\n        /* \"#utility.yul\":1739:1878   */\n    tag_159:\n        /* \"#utility.yul\":1785:1790   */\n      0x00\n        /* \"#utility.yul\":1823:1829   */\n      dup2\n        /* \"#utility.yul\":1810:1830   */\n      calldataload\n        /* \"#utility.yul\":1801:1830   */\n      swap1\n      pop\n        /* \"#utility.yul\":1839:1872   */\n      tag_244\n        /* \"#utility.yul\":1866:1871   */\n      dup2\n        /* \"#utility.yul\":1839:1872   */\n      tag_158\n      jump\t// in\n    tag_244:\n        /* \"#utility.yul\":1739:1878   */\n      swap3\n      swap2\n      pop\n      pop\n      jump\t// out\n        /* \"#utility.yul\":1884:2213   */\n    tag_26:\n        /* \"#utility.yul\":1943:1949   */\n      0x00\n        /* \"#utility.yul\":1992:1994   */\n      0x20\n        /* \"#utility.yul\":1980:1989   */\n      dup3\n        /* \"#utility.yul\":1971:1978   */\n      dup5\n        /* \"#utility.yul\":1967:1990   */\n      sub\n        /* \"#utility.yul\":1963:1995   */\n      slt\n        /* \"#utility.yul\":1960:2079   */\n      iszero\n      tag_246\n      jumpi\n        /* \"#utility.yul\":1998:2077   */\n      tag_247\n      tag_150\n      jump\t// in\n    tag_247:\n        /* \"#utility.yul\":1960:2079   */\n    tag_246:\n        /* \"#utility.yul\":2118:2119   */\n      0x00\n        /* \"#utility.yul\":2143:2196   */\n      tag_248\n        /* \"#utility.yul\":2188:2195   */\n      dup5\n        /* \"#utility.yul\":2179:2185   */\n      dup3\n        /* \"#utility.yul\":2168:2177   */\n      dup6\n        /* \"#utility.yul\":2164:2186   */\n      add\n        /* \"#utility.yul\":2143:2196   */\n      tag_159\n      jump\t// in\n    tag_248:\n        /* \"#utility.yul\":2133:2196   */\n      swap2\n      pop\n        /* \"#utility.yul\":2089:2206   */\n      pop\n        /* \"#utility.yul\":1884:2213   */\n      swap3\n      swap2\n      pop\n      pop\n      jump\t// out\n        /* \"#utility.yul\":2219:2318   */\n    tag_160:\n        /* \"#utility.yul\":2271:2277   */\n      0x00\n        /* \"#utility.yul\":2305:2310   */\n      dup2\n        /* \"#utility.yul\":2299:2311   */\n      mload\n        /* \"#utility.yul\":2289:2311   */\n      swap1\n      pop\n        /* \"#utility.yul\":2219:2318   */\n      swap2\n      swap1\n      pop\n      jump\t// out\n        /* \"#utility.yul\":2324:2493   */\n    tag_161:\n        /* \"#utility.yul\":2408:2419   */\n      0x00\n        /* \"#utility.yul\":2442:2448   */\n      dup3\n        /* \"#utility.yul\":2437:2440   */\n      dup3\n        /* \"#utility.yul\":2430:2449   */\n      mstore\n        /* \"#utility.yul\":2482:2486   */\n      0x20\n        /* \"#utility.yul\":2477:2480   */\n      dup3\n        /* \"#utility.yul\":2473:2487   */\n      add\n        /* \"#utility.yul\":2458:2487   */\n      swap1\n      pop\n        /* \"#utility.yul\":2324:2493   */\n      swap3\n      swap2\n      pop\n      pop\n      jump\t// out\n        /* \"#utility.yul\":2499:2747   */\n    tag_162:\n        /* \"#utility.yul\":2581:2582   */\n      0x00\n        /* \"#utility.yul\":2591:2704   */\n    tag_252:\n        /* \"#utility.yul\":2605:2611   */\n      dup4\n        /* \"#utility.yul\":2602:2603   */\n      dup2\n        /* \"#utility.yul\":2599:2612   */\n      lt\n        /* \"#utility.yul\":2591:2704   */\n      iszero\n      tag_254\n      jumpi\n        /* \"#utility.yul\":2690:2691   */\n      dup1\n        /* \"#utility.yul\":2685:2688   */\n      dup3\n        /* \"#utility.yul\":2681:2692   */\n      add\n        /* \"#utility.yul\":2675:2693   */\n      mload\n        /* \"#utility.yul\":2671:2672   */\n      dup2\n        /* \"#utility.yul\":2666:2669   */\n      dup5\n        /* \"#utility.yul\":2662:2673   */\n      add\n        /* \"#utility.yul\":2655:2694   */\n      mstore\n        /* \"#utility.yul\":2627:2629   */\n      0x20\n        /* \"#utility.yul\":2624:2625   */\n      dup2\n        /* \"#utility.yul\":2620:2630   */\n      add\n        /* \"#utility.yul\":2615:2630   */\n      swap1\n      pop\n        /* \"#utility.yul\":2591:2704   */\n      jump(tag_252)\n    tag_254:\n        /* \"#utility.yul\":2738:2739   */\n      0x00\n        /* \"#utility.yul\":2729:2735   */\n      dup5\n        /* \"#utility.yul\":2724:2727   */\n      dup5\n        /* \"#utility.yul\":2720:2736   */\n      add\n        /* \"#utility.yul\":2713:2740   */\n      mstore\n        /* \"#utility.yul\":2561:2747   */\n      pop\n        /* \"#utility.yul\":2499:2747   */\n      pop\n      pop\n      pop\n      jump\t// out\n        /* \"#utility.yul\":2753:2855   */\n    tag_163:\n        /* \"#utility.yul\":2794:2800   */\n      0x00\n        /* \"#utility.yul\":2845:2847   */\n      0x1f\n        /* \"#utility.yul\":2841:2848   */\n      not\n        /* \"#utility.yul\":2836:2838   */\n      0x1f\n        /* \"#utility.yul\":2829:2834   */\n      dup4\n        /* \"#utility.yul\":2825:2839   */\n      add\n        /* \"#utility.yul\":2821:2849   */\n      and\n        /* \"#utility.yul\":2811:2849   */\n      swap1\n      pop\n        /* \"#utility.yul\":2753:2855   */\n      swap2\n      swap1\n      pop\n      jump\t// out\n        /* \"#utility.yul\":2861:3238   */\n    tag_164:\n        /* \"#utility.yul\":2949:2952   */\n      0x00\n        /* \"#utility.yul\":2977:3016   */\n      tag_257\n        /* \"#utility.yul\":3010:3015   */\n      dup3\n        /* \"#utility.yul\":2977:3016   */\n      tag_160\n      jump\t// in\n    tag_257:\n        /* \"#utility.yul\":3032:3103   */\n      tag_258\n        /* \"#utility.yul\":3096:3102   */\n      dup2\n        /* \"#utility.yul\":3091:3094   */\n      dup6\n        /* \"#utility.yul\":3032:3103   */\n      tag_161\n      jump\t// in\n    tag_258:\n        /* \"#utility.yul\":3025:3103   */\n      swap4\n      pop\n        /* \"#utility.yul\":3112:3177   */\n      tag_259\n        /* \"#utility.yul\":3170:3176   */\n      dup2\n        /* \"#utility.yul\":3165:3168   */\n      dup6\n        /* \"#utility.yul\":3158:3162   */\n      0x20\n        /* \"#utility.yul\":3151:3156   */\n      dup7\n        /* \"#utility.yul\":3147:3163   */\n      add\n        /* \"#utility.yul\":3112:3177   */\n      tag_162\n      jump\t// in\n    tag_259:\n        /* \"#utility.yul\":3202:3231   */\n      tag_260\n        /* \"#utility.yul\":3224:3230   */\n      dup2\n        /* \"#utility.yul\":3202:3231   */\n      tag_163\n      jump\t// in\n    tag_260:\n        /* \"#utility.yul\":3197:3200   */\n      dup5\n        /* \"#utility.yul\":3193:3232   */\n      add\n        /* \"#utility.yul\":3186:3232   */\n      swap2\n      pop\n        /* \"#utility.yul\":2953:3238   */\n      pop\n        /* \"#utility.yul\":2861:3238   */\n      swap3\n      swap2\n      pop\n      pop\n      jump\t// out\n        /* \"#utility.yul\":3244:3362   */\n    tag_165:\n        /* \"#utility.yul\":3331:3355   */\n      tag_262\n        /* \"#utility.yul\":3349:3354   */\n      dup2\n        /* \"#utility.yul\":3331:3355   */\n      tag_152\n      jump\t// in\n    tag_262:\n        /* \"#utility.yul\":3326:3329   */\n      dup3\n        /* \"#utility.yul\":3319:3356   */\n      mstore\n        /* \"#utility.yul\":3244:3362   */\n      pop\n      pop\n      jump\t// out\n        /* \"#utility.yul\":3368:3458   */\n    tag_166:\n        /* \"#utility.yul\":3402:3409   */\n      0x00\n        /* \"#utility.yul\":3445:3450   */\n      dup2\n        /* \"#utility.yul\":3438:3451   */\n      iszero\n        /* \"#utility.yul\":3431:3452   */\n      iszero\n        /* \"#utility.yul\":3420:3452   */\n      swap1\n      pop\n        /* \"#utility.yul\":3368:3458   */\n      swap2\n      swap1\n      pop\n      jump\t// out\n        /* \"#utility.yul\":3464:3573   */\n    tag_167:\n        /* \"#utility.yul\":3545:3566   */\n      tag_265\n        /* \"#utility.yul\":3560:3565   */\n      dup2\n        /* \"#utility.yul\":3545:3566   */\n      tag_166\n      jump\t// in\n    tag_265:\n        /* \"#utility.yul\":3540:3543   */\n      dup3\n        /* \"#utility.yul\":3533:3567   */\n      mstore\n        /* \"#utility.yul\":3464:3573   */\n      pop\n      pop\n      jump\t// out\n        /* \"#utility.yul\":3579:4211   */\n    tag_29:\n        /* \"#utility.yul\":3770:3774   */\n      0x00\n        /* \"#utility.yul\":3808:3811   */\n      0x80\n        /* \"#utility.yul\":3797:3806   */\n      dup3\n        /* \"#utility.yul\":3793:3812   */\n      add\n        /* \"#utility.yul\":3785:3812   */\n      swap1\n      pop\n        /* \"#utility.yul\":3822:3893   */\n      tag_267\n        /* \"#utility.yul\":3890:3891   */\n      0x00\n        /* \"#utility.yul\":3879:3888   */\n      dup4\n        /* \"#utility.yul\":3875:3892   */\n      add\n        /* \"#utility.yul\":3866:3872   */\n      dup8\n        /* \"#utility.yul\":3822:3893   */\n      tag_157\n      jump\t// in\n    tag_267:\n        /* \"#utility.yul\":3940:3949   */\n      dup2\n        /* \"#utility.yul\":3934:3938   */\n      dup2\n        /* \"#utility.yul\":3930:3950   */\n      sub\n        /* \"#utility.yul\":3925:3927   */\n      0x20\n        /* \"#utility.yul\":3914:3923   */\n      dup4\n        /* \"#utility.yul\":3910:3928   */\n      add\n        /* \"#utility.yul\":3903:3951   */\n      mstore\n        /* \"#utility.yul\":3968:4046   */\n      tag_268\n        /* \"#utility.yul\":4041:4045   */\n      dup2\n        /* \"#utility.yul\":4032:4038   */\n      dup7\n        /* \"#utility.yul\":3968:4046   */\n      tag_164\n      jump\t// in\n    tag_268:\n        /* \"#utility.yul\":3960:4046   */\n      swap1\n      pop\n        /* \"#utility.yul\":4056:4128   */\n      tag_269\n        /* \"#utility.yul\":4124:4126   */\n      0x40\n        /* \"#utility.yul\":4113:4122   */\n      dup4\n        /* \"#utility.yul\":4109:4127   */\n      add\n        /* \"#utility.yul\":4100:4106   */\n      dup6\n        /* \"#utility.yul\":4056:4128   */\n      tag_165\n      jump\t// in\n    tag_269:\n        /* \"#utility.yul\":4138:4204   */\n      tag_270\n        /* \"#utility.yul\":4200:4202   */\n      0x60\n        /* \"#utility.yul\":4189:4198   */\n      dup4\n        /* \"#utility.yul\":4185:4203   */\n      add\n        /* \"#utility.yul\":4176:4182   */\n      dup5\n        /* \"#utility.yul\":4138:4204   */\n      tag_167\n      jump\t// in\n    tag_270:\n        /* \"#utility.yul\":3579:4211   */\n      swap6\n      swap5\n      pop\n      pop\n      pop\n      pop\n      pop\n      jump\t// out\n        /* \"#utility.yul\":4217:4334   */\n    tag_168:\n        /* \"#utility.yul\":4326:4327   */\n      0x00\n        /* \"#utility.yul\":4323:4324   */\n      dup1\n        /* \"#utility.yul\":4316:4328   */\n      revert\n        /* \"#utility.yul\":4340:4457   */\n    tag_169:\n        /* \"#utility.yul\":4449:4450   */\n      0x00\n        /* \"#utility.yul\":4446:4447   */\n      dup1\n        /* \"#utility.yul\":4439:4451   */\n      revert\n        /* \"#utility.yul\":4463:4643   */\n    tag_170:\n        /* \"#utility.yul\":4511:4588   */\n      0x4e487b7100000000000000000000000000000000000000000000000000000000\n        /* \"#utility.yul\":4508:4509   */\n      0x00\n        /* \"#utility.yul\":4501:4589   */\n      mstore\n        /* \"#utility.yul\":4608:4612   */\n      0x41\n        /* \"#utility.yul\":4605:4606   */\n      0x04\n        /* \"#utility.yul\":4598:4613   */\n      mstore\n        /* \"#utility.yul\":4632:4636   */\n      0x24\n        /* \"#utility.yul\":4629:4630   */\n      0x00\n        /* \"#utility.yul\":4622:4637   */\n      revert\n        /* \"#utility.yul\":4649:4930   */\n    tag_171:\n        /* \"#utility.yul\":4732:4759   */\n      tag_275\n        /* \"#utility.yul\":4754:4758   */\n      dup3\n        /* \"#utility.yul\":4732:4759   */\n      tag_163\n      jump\t// in\n    tag_275:\n        /* \"#utility.yul\":4724:4730   */\n      dup2\n        /* \"#utility.yul\":4720:4760   */\n      add\n        /* \"#utility.yul\":4862:4868   */\n      dup2\n        /* \"#utility.yul\":4850:4860   */\n      dup2\n        /* \"#utility.yul\":4847:4869   */\n      lt\n        /* \"#utility.yul\":4826:4844   */\n      0xffffffffffffffff\n        /* \"#utility.yul\":4814:4824   */\n      dup3\n        /* \"#utility.yul\":4811:4845   */\n      gt\n        /* \"#utility.yul\":4808:4870   */\n      or\n        /* \"#utility.yul\":4805:4893   */\n      iszero\n      tag_276\n      jumpi\n        /* \"#utility.yul\":4873:4891   */\n      tag_277\n      tag_170\n      jump\t// in\n    tag_277:\n        /* \"#utility.yul\":4805:4893   */\n    tag_276:\n        /* \"#utility.yul\":4913:4923   */\n      dup1\n        /* \"#utility.yul\":4909:4911   */\n      0x40\n        /* \"#utility.yul\":4902:4924   */\n      mstore\n        /* \"#utility.yul\":4692:4930   */\n      pop\n        /* \"#utility.yul\":4649:4930   */\n      pop\n      pop\n      jump\t// out\n        /* \"#utility.yul\":4936:5065   */\n    tag_172:\n        /* \"#utility.yul\":4970:4976   */\n      0x00\n        /* \"#utility.yul\":4997:5017   */\n      tag_279\n      tag_149\n      jump\t// in\n    tag_279:\n        /* \"#utility.yul\":4987:5017   */\n      swap1\n      pop\n        /* \"#utility.yul\":5026:5059   */\n      tag_280\n        /* \"#utility.yul\":5054:5058   */\n      dup3\n        /* \"#utility.yul\":5046:5052   */\n      dup3\n        /* \"#utility.yul\":5026:5059   */\n      tag_171\n      jump\t// in\n    tag_280:\n        /* \"#utility.yul\":4936:5065   */\n      swap2\n      swap1\n      pop\n      jump\t// out\n        /* \"#utility.yul\":5071:5379   */\n    tag_173:\n        /* \"#utility.yul\":5133:5137   */\n      0x00\n        /* \"#utility.yul\":5223:5241   */\n      0xffffffffffffffff\n        /* \"#utility.yul\":5215:5221   */\n      dup3\n        /* \"#utility.yul\":5212:5242   */\n      gt\n        /* \"#utility.yul\":5209:5265   */\n      iszero\n      tag_282\n      jumpi\n        /* \"#utility.yul\":5245:5263   */\n      tag_283\n      tag_170\n      jump\t// in\n    tag_283:\n        /* \"#utility.yul\":5209:5265   */\n    tag_282:\n        /* \"#utility.yul\":5283:5312   */\n      tag_284\n        /* \"#utility.yul\":5305:5311   */\n      dup3\n        /* \"#utility.yul\":5283:5312   */\n      tag_163\n      jump\t// in\n    tag_284:\n        /* \"#utility.yul\":5275:5312   */\n      swap1\n      pop\n        /* \"#utility.yul\":5367:5371   */\n      0x20\n        /* \"#utility.yul\":5361:5365   */\n      dup2\n        /* \"#utility.yul\":5357:5372   */\n      add\n        /* \"#utility.yul\":5349:5372   */\n      swap1\n      pop\n        /* \"#utility.yul\":5071:5379   */\n      swap2\n      swap1\n      pop\n      jump\t// out\n        /* \"#utility.yul\":5385:5533   */\n    tag_174:\n        /* \"#utility.yul\":5483:5489   */\n      dup3\n        /* \"#utility.yul\":5478:5481   */\n      dup2\n        /* \"#utility.yul\":5473:5476   */\n      dup4\n        /* \"#utility.yul\":5460:5490   */\n      calldatacopy\n        /* \"#utility.yul\":5524:5525   */\n      0x00\n        /* \"#utility.yul\":5515:5521   */\n      dup4\n        /* \"#utility.yul\":5510:5513   */\n      dup4\n        /* \"#utility.yul\":5506:5522   */\n      add\n        /* \"#utility.yul\":5499:5526   */\n      mstore\n        /* \"#utility.yul\":5385:5533   */\n      pop\n      pop\n      pop\n      jump\t// out\n        /* \"#utility.yul\":5539:5964   */\n    tag_175:\n        /* \"#utility.yul\":5617:5622   */\n      0x00\n        /* \"#utility.yul\":5642:5708   */\n      tag_287\n        /* \"#utility.yul\":5658:5707   */\n      tag_288\n        /* \"#utility.yul\":5700:5706   */\n      dup5\n        /* \"#utility.yul\":5658:5707   */\n      tag_173\n      jump\t// in\n    tag_288:\n        /* \"#utility.yul\":5642:5708   */\n      tag_172\n      jump\t// in\n    tag_287:\n        /* \"#utility.yul\":5633:5708   */\n      swap1\n      pop\n        /* \"#utility.yul\":5731:5737   */\n      dup3\n        /* \"#utility.yul\":5724:5729   */\n      dup2\n        /* \"#utility.yul\":5717:5738   */\n      mstore\n        /* \"#utility.yul\":5769:5773   */\n      0x20\n        /* \"#utility.yul\":5762:5767   */\n      dup2\n        /* \"#utility.yul\":5758:5774   */\n      add\n        /* \"#utility.yul\":5807:5810   */\n      dup5\n        /* \"#utility.yul\":5798:5804   */\n      dup5\n        /* \"#utility.yul\":5793:5796   */\n      dup5\n        /* \"#utility.yul\":5789:5805   */\n      add\n        /* \"#utility.yul\":5786:5811   */\n      gt\n        /* \"#utility.yul\":5783:5895   */\n      iszero\n      tag_289\n      jumpi\n        /* \"#utility.yul\":5814:5893   */\n      tag_290\n      tag_169\n      jump\t// in\n    tag_290:\n        /* \"#utility.yul\":5783:5895   */\n    tag_289:\n        /* \"#utility.yul\":5904:5958   */\n      tag_291\n        /* \"#utility.yul\":5951:5957   */\n      dup5\n        /* \"#utility.yul\":5946:5949   */\n      dup3\n        /* \"#utility.yul\":5941:5944   */\n      dup6\n        /* \"#utility.yul\":5904:5958   */\n      tag_174\n      jump\t// in\n    tag_291:\n        /* \"#utility.yul\":5623:5964   */\n      pop\n        /* \"#utility.yul\":5539:5964   */\n      swap4\n      swap3\n      pop\n      pop\n      pop\n      jump\t// out\n        /* \"#utility.yul\":5984:6324   */\n    tag_176:\n        /* \"#utility.yul\":6040:6045   */\n      0x00\n        /* \"#utility.yul\":6089:6092   */\n      dup3\n        /* \"#utility.yul\":6082:6086   */\n      0x1f\n        /* \"#utility.yul\":6074:6080   */\n      dup4\n        /* \"#utility.yul\":6070:6087   */\n      add\n        /* \"#utility.yul\":6066:6093   */\n      slt\n        /* \"#utility.yul\":6056:6178   */\n      tag_293\n      jumpi\n        /* \"#utility.yul\":6097:6176   */\n      tag_294\n      tag_168\n      jump\t// in\n    tag_294:\n        /* \"#utility.yul\":6056:6178   */\n    tag_293:\n        /* \"#utility.yul\":6214:6220   */\n      dup2\n        /* \"#utility.yul\":6201:6221   */\n      calldataload\n        /* \"#utility.yul\":6239:6318   */\n      tag_295\n        /* \"#utility.yul\":6314:6317   */\n      dup5\n        /* \"#utility.yul\":6306:6312   */\n      dup3\n        /* \"#utility.yul\":6299:6303   */\n      0x20\n        /* \"#utility.yul\":6291:6297   */\n      dup7\n        /* \"#utility.yul\":6287:6304   */\n      add\n        /* \"#utility.yul\":6239:6318   */\n      tag_175\n      jump\t// in\n    tag_295:\n        /* \"#utility.yul\":6230:6318   */\n      swap2\n      pop\n        /* \"#utility.yul\":6046:6324   */\n      pop\n        /* \"#utility.yul\":5984:6324   */\n      swap3\n      swap2\n      pop\n      pop\n      jump\t// out\n        /* \"#utility.yul\":6330:6839   */\n    tag_32:\n        /* \"#utility.yul\":6399:6405   */\n      0x00\n        /* \"#utility.yul\":6448:6450   */\n      0x20\n        /* \"#utility.yul\":6436:6445   */\n      dup3\n        /* \"#utility.yul\":6427:6434   */\n      dup5\n        /* \"#utility.yul\":6423:6446   */\n      sub\n        /* \"#utility.yul\":6419:6451   */\n      slt\n        /* \"#utility.yul\":6416:6535   */\n      iszero\n      tag_297\n      jumpi\n        /* \"#utility.yul\":6454:6533   */\n      tag_298\n      tag_150\n      jump\t// in\n    tag_298:\n        /* \"#utility.yul\":6416:6535   */\n    tag_297:\n        /* \"#utility.yul\":6602:6603   */\n      0x00\n        /* \"#utility.yul\":6591:6600   */\n      dup3\n        /* \"#utility.yul\":6587:6604   */\n      add\n        /* \"#utility.yul\":6574:6605   */\n      calldataload\n        /* \"#utility.yul\":6632:6650   */\n      0xffffffffffffffff\n        /* \"#utility.yul\":6624:6630   */\n      dup2\n        /* \"#utility.yul\":6621:6651   */\n      gt\n        /* \"#utility.yul\":6618:6735   */\n      iszero\n      tag_299\n      jumpi\n        /* \"#utility.yul\":6654:6733   */\n      tag_300\n      tag_151\n      jump\t// in\n    tag_300:\n        /* \"#utility.yul\":6618:6735   */\n    tag_299:\n        /* \"#utility.yul\":6759:6822   */\n      tag_301\n        /* \"#utility.yul\":6814:6821   */\n      dup5\n        /* \"#utility.yul\":6805:6811   */\n      dup3\n        /* \"#utility.yul\":6794:6803   */\n      dup6\n        /* \"#utility.yul\":6790:6812   */\n      add\n        /* \"#utility.yul\":6759:6822   */\n      tag_176\n      jump\t// in\n    tag_301:\n        /* \"#utility.yul\":6749:6822   */\n      swap2\n      pop\n        /* \"#utility.yul\":6545:6832   */\n      pop\n        /* \"#utility.yul\":6330:6839   */\n      swap3\n      swap2\n      pop\n      pop\n      jump\t// out\n        /* \"#utility.yul\":6845:6922   */\n    tag_177:\n        /* \"#utility.yul\":6882:6889   */\n      0x00\n        /* \"#utility.yul\":6911:6916   */\n      dup2\n        /* \"#utility.yul\":6900:6916   */\n      swap1\n      pop\n        /* \"#utility.yul\":6845:6922   */\n      swap2\n      swap1\n      pop\n      jump\t// out\n        /* \"#utility.yul\":6928:7050   */\n    tag_178:\n        /* \"#utility.yul\":7001:7025   */\n      tag_304\n        /* \"#utility.yul\":7019:7024   */\n      dup2\n        /* \"#utility.yul\":7001:7025   */\n      tag_177\n      jump\t// in\n    tag_304:\n        /* \"#utility.yul\":6994:6999   */\n      dup2\n        /* \"#utility.yul\":6991:7026   */\n      eq\n        /* \"#utility.yul\":6981:7044   */\n      tag_305\n      jumpi\n        /* \"#utility.yul\":7040:7041   */\n      0x00\n        /* \"#utility.yul\":7037:7038   */\n      dup1\n        /* \"#utility.yul\":7030:7042   */\n      revert\n        /* \"#utility.yul\":6981:7044   */\n    tag_305:\n        /* \"#utility.yul\":6928:7050   */\n      pop\n      jump\t// out\n        /* \"#utility.yul\":7056:7195   */\n    tag_179:\n        /* \"#utility.yul\":7102:7107   */\n      0x00\n        /* \"#utility.yul\":7140:7146   */\n      dup2\n        /* \"#utility.yul\":7127:7147   */\n      calldataload\n        /* \"#utility.yul\":7118:7147   */\n      swap1\n      pop\n        /* \"#utility.yul\":7156:7189   */\n      tag_307\n        /* \"#utility.yul\":7183:7188   */\n      dup2\n        /* \"#utility.yul\":7156:7189   */\n      tag_178\n      jump\t// in\n    tag_307:\n        /* \"#utility.yul\":7056:7195   */\n      swap3\n      swap2\n      pop\n      pop\n      jump\t// out\n        /* \"#utility.yul\":7201:7508   */\n    tag_180:\n        /* \"#utility.yul\":7262:7266   */\n      0x00\n        /* \"#utility.yul\":7352:7370   */\n      0xffffffffffffffff\n        /* \"#utility.yul\":7344:7350   */\n      dup3\n        /* \"#utility.yul\":7341:7371   */\n      gt\n        /* \"#utility.yul\":7338:7394   */\n      iszero\n      tag_309\n      jumpi\n        /* \"#utility.yul\":7374:7392   */\n      tag_310\n      tag_170\n      jump\t// in\n    tag_310:\n        /* \"#utility.yul\":7338:7394   */\n    tag_309:\n        /* \"#utility.yul\":7412:7441   */\n      tag_311\n        /* \"#utility.yul\":7434:7440   */\n      dup3\n        /* \"#utility.yul\":7412:7441   */\n      tag_163\n      jump\t// in\n    tag_311:\n        /* \"#utility.yul\":7404:7441   */\n      swap1\n      pop\n        /* \"#utility.yul\":7496:7500   */\n      0x20\n        /* \"#utility.yul\":7490:7494   */\n      dup2\n        /* \"#utility.yul\":7486:7501   */\n      add\n        /* \"#utility.yul\":7478:7501   */\n      swap1\n      pop\n        /* \"#utility.yul\":7201:7508   */\n      swap2\n      swap1\n      pop\n      jump\t// out\n        /* \"#utility.yul\":7514:7937   */\n    tag_181:\n        /* \"#utility.yul\":7591:7596   */\n      0x00\n        /* \"#utility.yul\":7616:7681   */\n      tag_313\n        /* \"#utility.yul\":7632:7680   */\n      tag_314\n        /* \"#utility.yul\":7673:7679   */\n      dup5\n        /* \"#utility.yul\":7632:7680   */\n      tag_180\n      jump\t// in\n    tag_314:\n        /* \"#utility.yul\":7616:7681   */\n      tag_172\n      jump\t// in\n    tag_313:\n        /* \"#utility.yul\":7607:7681   */\n      swap1\n      pop\n        /* \"#utility.yul\":7704:7710   */\n      dup3\n        /* \"#utility.yul\":7697:7702   */\n      dup2\n        /* \"#utility.yul\":7690:7711   */\n      mstore\n        /* \"#utility.yul\":7742:7746   */\n      0x20\n        /* \"#utility.yul\":7735:7740   */\n      dup2\n        /* \"#utility.yul\":7731:7747   */\n      add\n        /* \"#utility.yul\":7780:7783   */\n      dup5\n        /* \"#utility.yul\":7771:7777   */\n      dup5\n        /* \"#utility.yul\":7766:7769   */\n      dup5\n        /* \"#utility.yul\":7762:7778   */\n      add\n        /* \"#utility.yul\":7759:7784   */\n      gt\n        /* \"#utility.yul\":7756:7868   */\n      iszero\n      tag_315\n      jumpi\n        /* \"#utility.yul\":7787:7866   */\n      tag_316\n      tag_169\n      jump\t// in\n    tag_316:\n        /* \"#utility.yul\":7756:7868   */\n    tag_315:\n        /* \"#utility.yul\":7877:7931   */\n      tag_317\n        /* \"#utility.yul\":7924:7930   */\n      dup5\n        /* \"#utility.yul\":7919:7922   */\n      dup3\n        /* \"#utility.yul\":7914:7917   */\n      dup6\n        /* \"#utility.yul\":7877:7931   */\n      tag_174\n      jump\t// in\n    tag_317:\n        /* \"#utility.yul\":7597:7937   */\n      pop\n        /* \"#utility.yul\":7514:7937   */\n      swap4\n      swap3\n      pop\n      pop\n      pop\n      jump\t// out\n        /* \"#utility.yul\":7956:8294   */\n    tag_182:\n        /* \"#utility.yul\":8011:8016   */\n      0x00\n        /* \"#utility.yul\":8060:8063   */\n      dup3\n        /* \"#utility.yul\":8053:8057   */\n      0x1f\n        /* \"#utility.yul\":8045:8051   */\n      dup4\n        /* \"#utility.yul\":8041:8058   */\n      add\n        /* \"#utility.yul\":8037:8064   */\n      slt\n        /* \"#utility.yul\":8027:8149   */\n      tag_319\n      jumpi\n        /* \"#utility.yul\":8068:8147   */\n      tag_320\n      tag_168\n      jump\t// in\n    tag_320:\n        /* \"#utility.yul\":8027:8149   */\n    tag_319:\n        /* \"#utility.yul\":8185:8191   */\n      dup2\n        /* \"#utility.yul\":8172:8192   */\n      calldataload\n        /* \"#utility.yul\":8210:8288   */\n      tag_321\n        /* \"#utility.yul\":8284:8287   */\n      dup5\n        /* \"#utility.yul\":8276:8282   */\n      dup3\n        /* \"#utility.yul\":8269:8273   */\n      0x20\n        /* \"#utility.yul\":8261:8267   */\n      dup7\n        /* \"#utility.yul\":8257:8274   */\n      add\n        /* \"#utility.yul\":8210:8288   */\n      tag_181\n      jump\t// in\n    tag_321:\n        /* \"#utility.yul\":8201:8288   */\n      swap2\n      pop\n        /* \"#utility.yul\":8017:8294   */\n      pop\n        /* \"#utility.yul\":7956:8294   */\n      swap3\n      swap2\n      pop\n      pop\n      jump\t// out\n        /* \"#utility.yul\":8300:8952   */\n    tag_39:\n        /* \"#utility.yul\":8377:8383   */\n      0x00\n        /* \"#utility.yul\":8385:8391   */\n      dup1\n        /* \"#utility.yul\":8434:8436   */\n      0x40\n        /* \"#utility.yul\":8422:8431   */\n      dup4\n        /* \"#utility.yul\":8413:8420   */\n      dup6\n        /* \"#utility.yul\":8409:8432   */\n      sub\n        /* \"#utility.yul\":8405:8437   */\n      slt\n        /* \"#utility.yul\":8402:8521   */\n      iszero\n      tag_323\n      jumpi\n        /* \"#utility.yul\":8440:8519   */\n      tag_324\n      tag_150\n      jump\t// in\n    tag_324:\n        /* \"#utility.yul\":8402:8521   */\n    tag_323:\n        /* \"#utility.yul\":8560:8561   */\n      0x00\n        /* \"#utility.yul\":8585:8638   */\n      tag_325\n        /* \"#utility.yul\":8630:8637   */\n      dup6\n        /* \"#utility.yul\":8621:8627   */\n      dup3\n        /* \"#utility.yul\":8610:8619   */\n      dup7\n        /* \"#utility.yul\":8606:8628   */\n      add\n        /* \"#utility.yul\":8585:8638   */\n      tag_179\n      jump\t// in\n    tag_325:\n        /* \"#utility.yul\":8575:8638   */\n      swap3\n      pop\n        /* \"#utility.yul\":8531:8648   */\n      pop\n        /* \"#utility.yul\":8715:8717   */\n      0x20\n        /* \"#utility.yul\":8704:8713   */\n      dup4\n        /* \"#utility.yul\":8700:8718   */\n      add\n        /* \"#utility.yul\":8687:8719   */\n      calldataload\n        /* \"#utility.yul\":8746:8764   */\n      0xffffffffffffffff\n        /* \"#utility.yul\":8738:8744   */\n      dup2\n        /* \"#utility.yul\":8735:8765   */\n      gt\n        /* \"#utility.yul\":8732:8849   */\n      iszero\n      tag_326\n      jumpi\n        /* \"#utility.yul\":8768:8847   */\n      tag_327\n      tag_151\n      jump\t// in\n    tag_327:\n        /* \"#utility.yul\":8732:8849   */\n    tag_326:\n        /* \"#utility.yul\":8873:8935   */\n      tag_328\n        /* \"#utility.yul\":8927:8934   */\n      dup6\n        /* \"#utility.yul\":8918:8924   */\n      dup3\n        /* \"#utility.yul\":8907:8916   */\n      dup7\n        /* \"#utility.yul\":8903:8925   */\n      add\n        /* \"#utility.yul\":8873:8935   */\n      tag_182\n      jump\t// in\n    tag_328:\n        /* \"#utility.yul\":8863:8935   */\n      swap2\n      pop\n        /* \"#utility.yul\":8658:8945   */\n      pop\n        /* \"#utility.yul\":8300:8952   */\n      swap3\n      pop\n      swap3\n      swap1\n      pop\n      jump\t// out\n        /* \"#utility.yul\":8958:9180   */\n    tag_45:\n        /* \"#utility.yul\":9051:9055   */\n      0x00\n        /* \"#utility.yul\":9089:9091   */\n      0x20\n        /* \"#utility.yul\":9078:9087   */\n      dup3\n        /* \"#utility.yul\":9074:9092   */\n      add\n        /* \"#utility.yul\":9066:9092   */\n      swap1\n      pop\n        /* \"#utility.yul\":9102:9173   */\n      tag_330\n        /* \"#utility.yul\":9170:9171   */\n      0x00\n        /* \"#utility.yul\":9159:9168   */\n      dup4\n        /* \"#utility.yul\":9155:9172   */\n      add\n        /* \"#utility.yul\":9146:9152   */\n      dup5\n        /* \"#utility.yul\":9102:9173   */\n      tag_165\n      jump\t// in\n    tag_330:\n        /* \"#utility.yul\":8958:9180   */\n      swap3\n      swap2\n      pop\n      pop\n      jump\t// out\n        /* \"#utility.yul\":9186:9693   */\n    tag_48:\n        /* \"#utility.yul\":9254:9260   */\n      0x00\n        /* \"#utility.yul\":9303:9305   */\n      0x20\n        /* \"#utility.yul\":9291:9300   */\n      dup3\n        /* \"#utility.yul\":9282:9289   */\n      dup5\n        /* \"#utility.yul\":9278:9301   */\n      sub\n        /* \"#utility.yul\":9274:9306   */\n      slt\n        /* \"#utility.yul\":9271:9390   */\n      iszero\n      tag_332\n      jumpi\n        /* \"#utility.yul\":9309:9388   */\n      tag_333\n      tag_150\n      jump\t// in\n    tag_333:\n        /* \"#utility.yul\":9271:9390   */\n    tag_332:\n        /* \"#utility.yul\":9457:9458   */\n      0x00\n        /* \"#utility.yul\":9446:9455   */\n      dup3\n        /* \"#utility.yul\":9442:9459   */\n      add\n        /* \"#utility.yul\":9429:9460   */\n      calldataload\n        /* \"#utility.yul\":9487:9505   */\n      0xffffffffffffffff\n        /* \"#utility.yul\":9479:9485   */\n      dup2\n        /* \"#utility.yul\":9476:9506   */\n      gt\n        /* \"#utility.yul\":9473:9590   */\n      iszero\n      tag_334\n      jumpi\n        /* \"#utility.yul\":9509:9588   */\n      tag_335\n      tag_151\n      jump\t// in\n    tag_335:\n        /* \"#utility.yul\":9473:9590   */\n    tag_334:\n        /* \"#utility.yul\":9614:9676   */\n      tag_336\n        /* \"#utility.yul\":9668:9675   */\n      dup5\n        /* \"#utility.yul\":9659:9665   */\n      dup3\n        /* \"#utility.yul\":9648:9657   */\n      dup6\n        /* \"#utility.yul\":9644:9666   */\n      add\n        /* \"#utility.yul\":9614:9676   */\n      tag_182\n      jump\t// in\n    tag_336:\n        /* \"#utility.yul\":9604:9676   */\n      swap2\n      pop\n        /* \"#utility.yul\":9400:9686   */\n      pop\n        /* \"#utility.yul\":9186:9693   */\n      swap3\n      swap2\n      pop\n      pop\n      jump\t// out\n        /* \"#utility.yul\":9699:9817   */\n    tag_183:\n        /* \"#utility.yul\":9786:9810   */\n      tag_338\n        /* \"#utility.yul\":9804:9809   */\n      dup2\n        /* \"#utility.yul\":9786:9810   */\n      tag_177\n      jump\t// in\n    tag_338:\n        /* \"#utility.yul\":9781:9784   */\n      dup3\n        /* \"#utility.yul\":9774:9811   */\n      mstore\n        /* \"#utility.yul\":9699:9817   */\n      pop\n      pop\n      jump\t// out\n        /* \"#utility.yul\":9823:9909   */\n    tag_184:\n        /* \"#utility.yul\":9858:9865   */\n      0x00\n        /* \"#utility.yul\":9898:9902   */\n      0xff\n        /* \"#utility.yul\":9891:9896   */\n      dup3\n        /* \"#utility.yul\":9887:9903   */\n      and\n        /* \"#utility.yul\":9876:9903   */\n      swap1\n      pop\n        /* \"#utility.yul\":9823:9909   */\n      swap2\n      swap1\n      pop\n      jump\t// out\n        /* \"#utility.yul\":9915:10027   */\n    tag_185:\n        /* \"#utility.yul\":9998:10020   */\n      tag_341\n        /* \"#utility.yul\":10014:10019   */\n      dup2\n        /* \"#utility.yul\":9998:10020   */\n      tag_184\n      jump\t// in\n    tag_341:\n        /* \"#utility.yul\":9993:9996   */\n      dup3\n        /* \"#utility.yul\":9986:10021   */\n      mstore\n        /* \"#utility.yul\":9915:10027   */\n      pop\n      pop\n      jump\t// out\n        /* \"#utility.yul\":10033:10467   */\n    tag_51:\n        /* \"#utility.yul\":10178:10182   */\n      0x00\n        /* \"#utility.yul\":10216:10218   */\n      0x60\n        /* \"#utility.yul\":10205:10214   */\n      dup3\n        /* \"#utility.yul\":10201:10219   */\n      add\n        /* \"#utility.yul\":10193:10219   */\n      swap1\n      pop\n        /* \"#utility.yul\":10229:10300   */\n      tag_343\n        /* \"#utility.yul\":10297:10298   */\n      0x00\n        /* \"#utility.yul\":10286:10295   */\n      dup4\n        /* \"#utility.yul\":10282:10299   */\n      add\n        /* \"#utility.yul\":10273:10279   */\n      dup7\n        /* \"#utility.yul\":10229:10300   */\n      tag_183\n      jump\t// in\n    tag_343:\n        /* \"#utility.yul\":10310:10382   */\n      tag_344\n        /* \"#utility.yul\":10378:10380   */\n      0x20\n        /* \"#utility.yul\":10367:10376   */\n      dup4\n        /* \"#utility.yul\":10363:10381   */\n      add\n        /* \"#utility.yul\":10354:10360   */\n      dup6\n        /* \"#utility.yul\":10310:10382   */\n      tag_183\n      jump\t// in\n    tag_344:\n        /* \"#utility.yul\":10392:10460   */\n      tag_345\n        /* \"#utility.yul\":10456:10458   */\n      0x40\n        /* \"#utility.yul\":10445:10454   */\n      dup4\n        /* \"#utility.yul\":10441:10459   */\n      add\n        /* \"#utility.yul\":10432:10438   */\n      dup5\n        /* \"#utility.yul\":10392:10460   */\n      tag_185\n      jump\t// in\n    tag_345:\n        /* \"#utility.yul\":10033:10467   */\n      swap5\n      swap4\n      pop\n      pop\n      pop\n      pop\n      jump\t// out\n        /* \"#utility.yul\":10473:10683   */\n    tag_60:\n        /* \"#utility.yul\":10560:10564   */\n      0x00\n        /* \"#utility.yul\":10598:10600   */\n      0x20\n        /* \"#utility.yul\":10587:10596   */\n      dup3\n        /* \"#utility.yul\":10583:10601   */\n      add\n        /* \"#utility.yul\":10575:10601   */\n      swap1\n      pop\n        /* \"#utility.yul\":10611:10676   */\n      tag_347\n        /* \"#utility.yul\":10673:10674   */\n      0x00\n        /* \"#utility.yul\":10662:10671   */\n      dup4\n        /* \"#utility.yul\":10658:10675   */\n      add\n        /* \"#utility.yul\":10649:10655   */\n      dup5\n        /* \"#utility.yul\":10611:10676   */\n      tag_167\n      jump\t// in\n    tag_347:\n        /* \"#utility.yul\":10473:10683   */\n      swap3\n      swap2\n      pop\n      pop\n      jump\t// out\n        /* \"#utility.yul\":10689:11018   */\n    tag_72:\n        /* \"#utility.yul\":10748:10754   */\n      0x00\n        /* \"#utility.yul\":10797:10799   */\n      0x20\n        /* \"#utility.yul\":10785:10794   */\n      dup3\n        /* \"#utility.yul\":10776:10783   */\n      dup5\n        /* \"#utility.yul\":10772:10795   */\n      sub\n        /* \"#utility.yul\":10768:10800   */\n      slt\n        /* \"#utility.yul\":10765:10884   */\n      iszero\n      tag_349\n      jumpi\n        /* \"#utility.yul\":10803:10882   */\n      tag_350\n      tag_150\n      jump\t// in\n    tag_350:\n        /* \"#utility.yul\":10765:10884   */\n    tag_349:\n        /* \"#utility.yul\":10923:10924   */\n      0x00\n        /* \"#utility.yul\":10948:11001   */\n      tag_351\n        /* \"#utility.yul\":10993:11000   */\n      dup5\n        /* \"#utility.yul\":10984:10990   */\n      dup3\n        /* \"#utility.yul\":10973:10982   */\n      dup6\n        /* \"#utility.yul\":10969:10991   */\n      add\n        /* \"#utility.yul\":10948:11001   */\n      tag_179\n      jump\t// in\n    tag_351:\n        /* \"#utility.yul\":10938:11001   */\n      swap2\n      pop\n        /* \"#utility.yul\":10894:11011   */\n      pop\n        /* \"#utility.yul\":10689:11018   */\n      swap3\n      swap2\n      pop\n      pop\n      jump\t// out\n        /* \"#utility.yul\":11024:11246   */\n    tag_75:\n        /* \"#utility.yul\":11117:11121   */\n      0x00\n        /* \"#utility.yul\":11155:11157   */\n      0x20\n        /* \"#utility.yul\":11144:11153   */\n      dup3\n        /* \"#utility.yul\":11140:11158   */\n      add\n        /* \"#utility.yul\":11132:11158   */\n      swap1\n      pop\n        /* \"#utility.yul\":11168:11239   */\n      tag_353\n        /* \"#utility.yul\":11236:11237   */\n      0x00\n        /* \"#utility.yul\":11225:11234   */\n      dup4\n        /* \"#utility.yul\":11221:11238   */\n      add\n        /* \"#utility.yul\":11212:11218   */\n      dup5\n        /* \"#utility.yul\":11168:11239   */\n      tag_183\n      jump\t// in\n    tag_353:\n        /* \"#utility.yul\":11024:11246   */\n      swap3\n      swap2\n      pop\n      pop\n      jump\t// out\n        /* \"#utility.yul\":11252:11416   */\n    tag_186:\n        /* \"#utility.yul\":11392:11408   */\n      0x55736572206e6f7420666f756e64000000000000000000000000000000000000\n        /* \"#utility.yul\":11388:11389   */\n      0x00\n        /* \"#utility.yul\":11380:11386   */\n      dup3\n        /* \"#utility.yul\":11376:11390   */\n      add\n        /* \"#utility.yul\":11369:11409   */\n      mstore\n        /* \"#utility.yul\":11252:11416   */\n      pop\n      jump\t// out\n        /* \"#utility.yul\":11422:11788   */\n    tag_187:\n        /* \"#utility.yul\":11564:11567   */\n      0x00\n        /* \"#utility.yul\":11585:11652   */\n      tag_356\n        /* \"#utility.yul\":11649:11651   */\n      0x0e\n        /* \"#utility.yul\":11644:11647   */\n      dup4\n        /* \"#utility.yul\":11585:11652   */\n      tag_161\n      jump\t// in\n    tag_356:\n        /* \"#utility.yul\":11578:11652   */\n      swap2\n      pop\n        /* \"#utility.yul\":11661:11754   */\n      tag_357\n        /* \"#utility.yul\":11750:11753   */\n      dup3\n        /* \"#utility.yul\":11661:11754   */\n      tag_186\n      jump\t// in\n    tag_357:\n        /* \"#utility.yul\":11779:11781   */\n      0x20\n        /* \"#utility.yul\":11774:11777   */\n      dup3\n        /* \"#utility.yul\":11770:11782   */\n      add\n        /* \"#utility.yul\":11763:11782   */\n      swap1\n      pop\n        /* \"#utility.yul\":11422:11788   */\n      swap2\n      swap1\n      pop\n      jump\t// out\n        /* \"#utility.yul\":11794:12213   */\n    tag_81:\n        /* \"#utility.yul\":11960:11964   */\n      0x00\n        /* \"#utility.yul\":11998:12000   */\n      0x20\n        /* \"#utility.yul\":11987:11996   */\n      dup3\n        /* \"#utility.yul\":11983:12001   */\n      add\n        /* \"#utility.yul\":11975:12001   */\n      swap1\n      pop\n        /* \"#utility.yul\":12047:12056   */\n      dup2\n        /* \"#utility.yul\":12041:12045   */\n      dup2\n        /* \"#utility.yul\":12037:12057   */\n      sub\n        /* \"#utility.yul\":12033:12034   */\n      0x00\n        /* \"#utility.yul\":12022:12031   */\n      dup4\n        /* \"#utility.yul\":12018:12035   */\n      add\n        /* \"#utility.yul\":12011:12058   */\n      mstore\n        /* \"#utility.yul\":12075:12206   */\n      tag_359\n        /* \"#utility.yul\":12201:12205   */\n      dup2\n        /* \"#utility.yul\":12075:12206   */\n      tag_187\n      jump\t// in\n    tag_359:\n        /* \"#utility.yul\":12067:12206   */\n      swap1\n      pop\n        /* \"#utility.yul\":11794:12213   */\n      swap2\n      swap1\n      pop\n      jump\t// out\n        /* \"#utility.yul\":12219:12399   */\n    tag_188:\n        /* \"#utility.yul\":12267:12344   */\n      0x4e487b7100000000000000000000000000000000000000000000000000000000\n        /* \"#utility.yul\":12264:12265   */\n      0x00\n        /* \"#utility.yul\":12257:12345   */\n      mstore\n        /* \"#utility.yul\":12364:12368   */\n      0x22\n        /* \"#utility.yul\":12361:12362   */\n      0x04\n        /* \"#utility.yul\":12354:12369   */\n      mstore\n        /* \"#utility.yul\":12388:12392   */\n      0x24\n        /* \"#utility.yul\":12385:12386   */\n      0x00\n        /* \"#utility.yul\":12378:12393   */\n      revert\n        /* \"#utility.yul\":12405:12725   */\n    tag_83:\n        /* \"#utility.yul\":12449:12455   */\n      0x00\n        /* \"#utility.yul\":12486:12487   */\n      0x02\n        /* \"#utility.yul\":12480:12484   */\n      dup3\n        /* \"#utility.yul\":12476:12488   */\n      div\n        /* \"#utility.yul\":12466:12488   */\n      swap1\n      pop\n        /* \"#utility.yul\":12533:12534   */\n      0x01\n        /* \"#utility.yul\":12527:12531   */\n      dup3\n        /* \"#utility.yul\":12523:12535   */\n      and\n        /* \"#utility.yul\":12554:12572   */\n      dup1\n        /* \"#utility.yul\":12544:12625   */\n      tag_362\n      jumpi\n        /* \"#utility.yul\":12610:12614   */\n      0x7f\n        /* \"#utility.yul\":12602:12608   */\n      dup3\n        /* \"#utility.yul\":12598:12615   */\n      and\n        /* \"#utility.yul\":12588:12615   */\n      swap2\n      pop\n        /* \"#utility.yul\":12544:12625   */\n    tag_362:\n        /* \"#utility.yul\":12672:12674   */\n      0x20\n        /* \"#utility.yul\":12664:12670   */\n      dup3\n        /* \"#utility.yul\":12661:12675   */\n      lt\n        /* \"#utility.yul\":12641:12659   */\n      dup2\n        /* \"#utility.yul\":12638:12676   */\n      sub\n        /* \"#utility.yul\":12635:12719   */\n      tag_363\n      jumpi\n        /* \"#utility.yul\":12691:12709   */\n      tag_364\n      tag_188\n      jump\t// in\n    tag_364:\n        /* \"#utility.yul\":12635:12719   */\n    tag_363:\n        /* \"#utility.yul\":12456:12725   */\n      pop\n        /* \"#utility.yul\":12405:12725   */\n      swap2\n      swap1\n      pop\n      jump\t// out\n        /* \"#utility.yul\":12731:12904   */\n    tag_189:\n        /* \"#utility.yul\":12871:12896   */\n      0x5573657220616c72656164792072656769737465726564000000000000000000\n        /* \"#utility.yul\":12867:12868   */\n      0x00\n        /* \"#utility.yul\":12859:12865   */\n      dup3\n        /* \"#utility.yul\":12855:12869   */\n      add\n        /* \"#utility.yul\":12848:12897   */\n      mstore\n        /* \"#utility.yul\":12731:12904   */\n      pop\n      jump\t// out\n        /* \"#utility.yul\":12910:13276   */\n    tag_190:\n        /* \"#utility.yul\":13052:13055   */\n      0x00\n        /* \"#utility.yul\":13073:13140   */\n      tag_367\n        /* \"#utility.yul\":13137:13139   */\n      0x17\n        /* \"#utility.yul\":13132:13135   */\n      dup4\n        /* \"#utility.yul\":13073:13140   */\n      tag_161\n      jump\t// in\n    tag_367:\n        /* \"#utility.yul\":13066:13140   */\n      swap2\n      pop\n        /* \"#utility.yul\":13149:13242   */\n      tag_368\n        /* \"#utility.yul\":13238:13241   */\n      dup3\n        /* \"#utility.yul\":13149:13242   */\n      tag_189\n      jump\t// in\n    tag_368:\n        /* \"#utility.yul\":13267:13269   */\n      0x20\n        /* \"#utility.yul\":13262:13265   */\n      dup3\n        /* \"#utility.yul\":13258:13270   */\n      add\n        /* \"#utility.yul\":13251:13270   */\n      swap1\n      pop\n        /* \"#utility.yul\":12910:13276   */\n      swap2\n      swap1\n      pop\n      jump\t// out\n        /* \"#utility.yul\":13282:13701   */\n    tag_91:\n        /* \"#utility.yul\":13448:13452   */\n      0x00\n        /* \"#utility.yul\":13486:13488   */\n      0x20\n        /* \"#utility.yul\":13475:13484   */\n      dup3\n        /* \"#utility.yul\":13471:13489   */\n      add\n        /* \"#utility.yul\":13463:13489   */\n      swap1\n      pop\n        /* \"#utility.yul\":13535:13544   */\n      dup2\n        /* \"#utility.yul\":13529:13533   */\n      dup2\n        /* \"#utility.yul\":13525:13545   */\n      sub\n        /* \"#utility.yul\":13521:13522   */\n      0x00\n        /* \"#utility.yul\":13510:13519   */\n      dup4\n        /* \"#utility.yul\":13506:13523   */\n      add\n        /* \"#utility.yul\":13499:13546   */\n      mstore\n        /* \"#utility.yul\":13563:13694   */\n      tag_370\n        /* \"#utility.yul\":13689:13693   */\n      dup2\n        /* \"#utility.yul\":13563:13694   */\n      tag_190\n      jump\t// in\n    tag_370:\n        /* \"#utility.yul\":13555:13694   */\n      swap1\n      pop\n        /* \"#utility.yul\":13282:13701   */\n      swap2\n      swap1\n      pop\n      jump\t// out\n        /* \"#utility.yul\":13707:13881   */\n    tag_191:\n        /* \"#utility.yul\":13847:13873   */\n      0x557365726e616d652063616e6e6f7420626520656d7074790000000000000000\n        /* \"#utility.yul\":13843:13844   */\n      0x00\n        /* \"#utility.yul\":13835:13841   */\n      dup3\n        /* \"#utility.yul\":13831:13845   */\n      add\n        /* \"#utility.yul\":13824:13874   */\n      mstore\n        /* \"#utility.yul\":13707:13881   */\n      pop\n      jump\t// out\n        /* \"#utility.yul\":13887:14253   */\n    tag_192:\n        /* \"#utility.yul\":14029:14032   */\n      0x00\n        /* \"#utility.yul\":14050:14117   */\n      tag_373\n        /* \"#utility.yul\":14114:14116   */\n      0x18\n        /* \"#utility.yul\":14109:14112   */\n      dup4\n        /* \"#utility.yul\":14050:14117   */\n      tag_161\n      jump\t// in\n    tag_373:\n        /* \"#utility.yul\":14043:14117   */\n      swap2\n      pop\n        /* \"#utility.yul\":14126:14219   */\n      tag_374\n        /* \"#utility.yul\":14215:14218   */\n      dup3\n        /* \"#utility.yul\":14126:14219   */\n      tag_191\n      jump\t// in\n    tag_374:\n        /* \"#utility.yul\":14244:14246   */\n      0x20\n        /* \"#utility.yul\":14239:14242   */\n      dup3\n        /* \"#utility.yul\":14235:14247   */\n      add\n        /* \"#utility.yul\":14228:14247   */\n      swap1\n      pop\n        /* \"#utility.yul\":13887:14253   */\n      swap2\n      swap1\n      pop\n      jump\t// out\n        /* \"#utility.yul\":14259:14678   */\n    tag_94:\n        /* \"#utility.yul\":14425:14429   */\n      0x00\n        /* \"#utility.yul\":14463:14465   */\n      0x20\n        /* \"#utility.yul\":14452:14461   */\n      dup3\n        /* \"#utility.yul\":14448:14466   */\n      add\n        /* \"#utility.yul\":14440:14466   */\n      swap1\n      pop\n        /* \"#utility.yul\":14512:14521   */\n      dup2\n        /* \"#utility.yul\":14506:14510   */\n      dup2\n        /* \"#utility.yul\":14502:14522   */\n      sub\n        /* \"#utility.yul\":14498:14499   */\n      0x00\n        /* \"#utility.yul\":14487:14496   */\n      dup4\n        /* \"#utility.yul\":14483:14500   */\n      add\n        /* \"#utility.yul\":14476:14523   */\n      mstore\n        /* \"#utility.yul\":14540:14671   */\n      tag_376\n        /* \"#utility.yul\":14666:14670   */\n      dup2\n        /* \"#utility.yul\":14540:14671   */\n      tag_192\n      jump\t// in\n    tag_376:\n        /* \"#utility.yul\":14532:14671   */\n      swap1\n      pop\n        /* \"#utility.yul\":14259:14678   */\n      swap2\n      swap1\n      pop\n      jump\t// out\n        /* \"#utility.yul\":14684:14825   */\n    tag_193:\n        /* \"#utility.yul\":14733:14737   */\n      0x00\n        /* \"#utility.yul\":14756:14759   */\n      dup2\n        /* \"#utility.yul\":14748:14759   */\n      swap1\n      pop\n        /* \"#utility.yul\":14779:14782   */\n      dup2\n        /* \"#utility.yul\":14776:14777   */\n      0x00\n        /* \"#utility.yul\":14769:14783   */\n      mstore\n        /* \"#utility.yul\":14813:14817   */\n      0x20\n        /* \"#utility.yul\":14810:14811   */\n      0x00\n        /* \"#utility.yul\":14800:14818   */\n      keccak256\n        /* \"#utility.yul\":14792:14818   */\n      swap1\n      pop\n        /* \"#utility.yul\":14684:14825   */\n      swap2\n      swap1\n      pop\n      jump\t// out\n        /* \"#utility.yul\":14831:14924   */\n    tag_194:\n        /* \"#utility.yul\":14868:14874   */\n      0x00\n        /* \"#utility.yul\":14915:14917   */\n      0x20\n        /* \"#utility.yul\":14910:14912   */\n      0x1f\n        /* \"#utility.yul\":14903:14908   */\n      dup4\n        /* \"#utility.yul\":14899:14913   */\n      add\n        /* \"#utility.yul\":14895:14918   */\n      div\n        /* \"#utility.yul\":14885:14918   */\n      swap1\n      pop\n        /* \"#utility.yul\":14831:14924   */\n      swap2\n      swap1\n      pop\n      jump\t// out\n        /* \"#utility.yul\":14930:15037   */\n    tag_195:\n        /* \"#utility.yul\":14974:14982   */\n      0x00\n        /* \"#utility.yul\":15024:15029   */\n      dup3\n        /* \"#utility.yul\":15018:15022   */\n      dup3\n        /* \"#utility.yul\":15014:15030   */\n      shl\n        /* \"#utility.yul\":14993:15030   */\n      swap1\n      pop\n        /* \"#utility.yul\":14930:15037   */\n      swap3\n      swap2\n      pop\n      pop\n      jump\t// out\n        /* \"#utility.yul\":15043:15436   */\n    tag_196:\n        /* \"#utility.yul\":15112:15118   */\n      0x00\n        /* \"#utility.yul\":15162:15163   */\n      0x08\n        /* \"#utility.yul\":15150:15160   */\n      dup4\n        /* \"#utility.yul\":15146:15164   */\n      mul\n        /* \"#utility.yul\":15185:15282   */\n      tag_381\n        /* \"#utility.yul\":15215:15281   */\n      0xffffffffffffffffffffffffffffffffffffffffffffffffffffffffffffffff\n        /* \"#utility.yul\":15204:15213   */\n      dup3\n        /* \"#utility.yul\":15185:15282   */\n      tag_195\n      jump\t// in\n    tag_381:\n        /* \"#utility.yul\":15303:15342   */\n      tag_382\n        /* \"#utility.yul\":15333:15341   */\n      dup7\n        /* \"#utility.yul\":15322:15331   */\n      dup4\n        /* \"#utility.yul\":15303:15342   */\n      tag_195\n      jump\t// in\n    tag_382:\n        /* \"#utility.yul\":15291:15342   */\n      swap6\n      pop\n        /* \"#utility.yul\":15375:15379   */\n      dup1\n        /* \"#utility.yul\":15371:15380   */\n      not\n        /* \"#utility.yul\":15364:15369   */\n      dup5\n        /* \"#utility.yul\":15360:15381   */\n      and\n        /* \"#utility.yul\":15351:15381   */\n      swap4\n      pop\n        /* \"#utility.yul\":15424:15428   */\n      dup1\n        /* \"#utility.yul\":15414:15422   */\n      dup7\n        /* \"#utility.yul\":15410:15429   */\n      and\n        /* \"#utility.yul\":15403:15408   */\n      dup5\n        /* \"#utility.yul\":15400:15430   */\n      or\n        /* \"#utility.yul\":15390:15430   */\n      swap3\n      pop\n        /* \"#utility.yul\":15119:15436   */\n      pop\n      pop\n        /* \"#utility.yul\":15043:15436   */\n      swap4\n      swap3\n      pop\n      pop\n      pop\n      jump\t// out\n        /* \"#utility.yul\":15442:15502   */\n    tag_197:\n        /* \"#utility.yul\":15470:15473   */\n      0x00\n        /* \"#utility.yul\":15491:15496   */\n      dup2\n        /* \"#utility.yul\":15484:15496   */\n      swap1\n      pop\n        /* \"#utility.yul\":15442:15502   */\n      swap2\n      swap1\n      pop\n      jump\t// out\n        /* \"#utility.yul\":15508:15650   */\n    tag_198:\n        /* \"#utility.yul\":15558:15567   */\n      0x00\n        /* \"#utility.yul\":15591:15644   */\n      tag_385\n        /* \"#utility.yul\":15609:15643   */\n      tag_386\n        /* \"#utility.yul\":15618:15642   */\n      tag_387\n        /* \"#utility.yul\":15636:15641   */\n      dup5\n        /* \"#utility.yul\":15618:15642   */\n      tag_152\n      jump\t// in\n    tag_387:\n        /* \"#utility.yul\":15609:15643   */\n      tag_197\n      jump\t// in\n    tag_386:\n        /* \"#utility.yul\":15591:15644   */\n      tag_152\n      jump\t// in\n    tag_385:\n        /* \"#utility.yul\":15578:15644   */\n      swap1\n      pop\n        /* \"#utility.yul\":15508:15650   */\n      swap2\n      swap1\n      pop\n      jump\t// out\n        /* \"#utility.yul\":15656:15731   */\n    tag_199:\n        /* \"#utility.yul\":15699:15702   */\n      0x00\n        /* \"#utility.yul\":15720:15725   */\n      dup2\n        /* \"#utility.yul\":15713:15725   */\n      swap1\n      pop\n        /* \"#utility.yul\":15656:15731   */\n      swap2\n      swap1\n      pop\n      jump\t// out\n        /* \"#utility.yul\":15737:16006   */\n    tag_200:\n        /* \"#utility.yul\":15847:15886   */\n      tag_390\n        /* \"#utility.yul\":15878:15885   */\n      dup4\n        /* \"#utility.yul\":15847:15886   */\n      tag_198\n      jump\t// in\n    tag_390:\n        /* \"#utility.yul\":15908:15999   */\n      tag_391\n        /* \"#utility.yul\":15957:15998   */\n      tag_392\n        /* \"#utility.yul\":15981:15997   */\n      dup3\n        /* \"#utility.yul\":15957:15998   */\n      tag_199\n      jump\t// in\n    tag_392:\n        /* \"#utility.yul\":15949:15955   */\n      dup5\n        /* \"#utility.yul\":15942:15946   */\n      dup5\n        /* \"#utility.yul\":15936:15947   */\n      sload\n        /* \"#utility.yul\":15908:15999   */\n      tag_196\n      jump\t// in\n    tag_391:\n        /* \"#utility.yul\":15902:15906   */\n      dup3\n        /* \"#utility.yul\":15895:16000   */\n      sstore\n        /* \"#utility.yul\":15813:16006   */\n      pop\n        /* \"#utility.yul\":15737:16006   */\n      pop\n      pop\n      pop\n      jump\t// out\n        /* \"#utility.yul\":16012:16085   */\n    tag_201:\n        /* \"#utility.yul\":16057:16060   */\n      0x00\n        /* \"#utility.yul\":16012:16085   */\n      swap1\n      jump\t// out\n        /* \"#utility.yul\":16091:16280   */\n    tag_202:\n        /* \"#utility.yul\":16168:16200   */\n      tag_395\n      tag_201\n      jump\t// in\n    tag_395:\n        /* \"#utility.yul\":16209:16274   */\n      tag_396\n        /* \"#utility.yul\":16267:16273   */\n      dup2\n        /* \"#utility.yul\":16259:16265   */\n      dup5\n        /* \"#utility.yul\":16253:16257   */\n      dup5\n        /* \"#utility.yul\":16209:16274   */\n      tag_200\n      jump\t// in\n    tag_396:\n        /* \"#utility.yul\":16144:16280   */\n      pop\n        /* \"#utility.yul\":16091:16280   */\n      pop\n      pop\n      jump\t// out\n        /* \"#utility.yul\":16286:16472   */\n    tag_203:\n        /* \"#utility.yul\":16346:16466   */\n    tag_398:\n        /* \"#utility.yul\":16363:16366   */\n      dup2\n        /* \"#utility.yul\":16356:16361   */\n      dup2\n        /* \"#utility.yul\":16353:16367   */\n      lt\n        /* \"#utility.yul\":16346:16466   */\n      iszero\n      tag_400\n      jumpi\n        /* \"#utility.yul\":16417:16456   */\n      tag_401\n        /* \"#utility.yul\":16454:16455   */\n      0x00\n        /* \"#utility.yul\":16447:16452   */\n      dup3\n        /* \"#utility.yul\":16417:16456   */\n      tag_202\n      jump\t// in\n    tag_401:\n        /* \"#utility.yul\":16390:16391   */\n      0x01\n        /* \"#utility.yul\":16383:16388   */\n      dup2\n        /* \"#utility.yul\":16379:16392   */\n      add\n        /* \"#utility.yul\":16370:16392   */\n      swap1\n      pop\n        /* \"#utility.yul\":16346:16466   */\n      jump(tag_398)\n    tag_400:\n        /* \"#utility.yul\":16286:16472   */\n      pop\n      pop\n      jump\t// out\n        /* \"#utility.yul\":16478:17021   */\n    tag_204:\n        /* \"#utility.yul\":16579:16581   */\n      0x1f\n        /* \"#utility.yul\":16574:16577   */\n      dup3\n        /* \"#utility.yul\":16571:16582   */\n      gt\n        /* \"#utility.yul\":16568:17014   */\n      iszero\n      tag_403\n      jumpi\n        /* \"#utility.yul\":16613:16651   */\n      tag_404\n        /* \"#utility.yul\":16645:16650   */\n      dup2\n        /* \"#utility.yul\":16613:16651   */\n      tag_193\n      jump\t// in\n    tag_404:\n        /* \"#utility.yul\":16697:16726   */\n      tag_405\n        /* \"#utility.yul\":16715:16725   */\n      dup5\n        /* \"#utility.yul\":16697:16726   */\n      tag_194\n      jump\t// in\n    tag_405:\n        /* \"#utility.yul\":16687:16695   */\n      dup2\n        /* \"#utility.yul\":16683:16727   */\n      add\n        /* \"#utility.yul\":16880:16882   */\n      0x20\n        /* \"#utility.yul\":16868:16878   */\n      dup6\n        /* \"#utility.yul\":16865:16883   */\n      lt\n        /* \"#utility.yul\":16862:16911   */\n      iszero\n      tag_406\n      jumpi\n        /* \"#utility.yul\":16901:16909   */\n      dup2\n        /* \"#utility.yul\":16886:16909   */\n      swap1\n      pop\n        /* \"#utility.yul\":16862:16911   */\n    tag_406:\n        /* \"#utility.yul\":16924:17004   */\n      tag_407\n        /* \"#utility.yul\":16980:17002   */\n      tag_408\n        /* \"#utility.yul\":16998:17001   */\n      dup6\n        /* \"#utility.yul\":16980:17002   */\n      tag_194\n      jump\t// in\n    tag_408:\n        /* \"#utility.yul\":16970:16978   */\n      dup4\n        /* \"#utility.yul\":16966:17003   */\n      add\n        /* \"#utility.yul\":16953:16964   */\n      dup3\n        /* \"#utility.yul\":16924:17004   */\n      tag_203\n      jump\t// in\n    tag_407:\n        /* \"#utility.yul\":16583:17014   */\n      pop\n      pop\n        /* \"#utility.yul\":16568:17014   */\n    tag_403:\n        /* \"#utility.yul\":16478:17021   */\n      pop\n      pop\n      pop\n      jump\t// out\n        /* \"#utility.yul\":17027:17144   */\n    tag_205:\n        /* \"#utility.yul\":17081:17089   */\n      0x00\n        /* \"#utility.yul\":17131:17136   */\n      dup3\n        /* \"#utility.yul\":17125:17129   */\n      dup3\n        /* \"#utility.yul\":17121:17137   */\n      shr\n        /* \"#utility.yul\":17100:17137   */\n      swap1\n      pop\n        /* \"#utility.yul\":17027:17144   */\n      swap3\n      swap2\n      pop\n      pop\n      jump\t// out\n        /* \"#utility.yul\":17150:17319   */\n    tag_206:\n        /* \"#utility.yul\":17194:17200   */\n      0x00\n        /* \"#utility.yul\":17227:17278   */\n      tag_411\n        /* \"#utility.yul\":17275:17276   */\n      0x00\n        /* \"#utility.yul\":17271:17277   */\n      not\n        /* \"#utility.yul\":17263:17268   */\n      dup5\n        /* \"#utility.yul\":17260:17261   */\n      0x08\n        /* \"#utility.yul\":17256:17269   */\n      mul\n        /* \"#utility.yul\":17227:17278   */\n      tag_205\n      jump\t// in\n    tag_411:\n        /* \"#utility.yul\":17223:17279   */\n      not\n        /* \"#utility.yul\":17308:17312   */\n      dup1\n        /* \"#utility.yul\":17302:17306   */\n      dup4\n        /* \"#utility.yul\":17298:17313   */\n      and\n        /* \"#utility.yul\":17288:17313   */\n      swap2\n      pop\n        /* \"#utility.yul\":17201:17319   */\n      pop\n        /* \"#utility.yul\":17150:17319   */\n      swap3\n      swap2\n      pop\n      pop\n      jump\t// out\n        /* \"#utility.yul\":17324:17619   */\n    tag_207:\n        /* \"#utility.yul\":17400:17404   */\n      0x00\n        /* \"#utility.yul\":17546:17575   */\n      tag_413\n        /* \"#utility.yul\":17571:17574   */\n      dup4\n        /* \"#utility.yul\":17565:17569   */\n      dup4\n        /* \"#utility.yul\":17546:17575   */\n      tag_206\n      jump\t// in\n    tag_413:\n        /* \"#utility.yul\":17538:17575   */\n      swap2\n      pop\n        /* \"#utility.yul\":17608:17611   */\n      dup3\n        /* \"#utility.yul\":17605:17606   */\n      0x02\n        /* \"#utility.yul\":17601:17612   */\n      mul\n        /* \"#utility.yul\":17595:17599   */\n      dup3\n        /* \"#utility.yul\":17592:17613   */\n      or\n        /* \"#utility.yul\":17584:17613   */\n      swap1\n      pop\n        /* \"#utility.yul\":17324:17619   */\n      swap3\n      swap2\n      pop\n      pop\n      jump\t// out\n        /* \"#utility.yul\":17624:19019   */\n    tag_96:\n        /* \"#utility.yul\":17741:17778   */\n      tag_415\n        /* \"#utility.yul\":17774:17777   */\n      dup3\n        /* \"#utility.yul\":17741:17778   */\n      tag_160\n      jump\t// in\n    tag_415:\n        /* \"#utility.yul\":17843:17861   */\n      0xffffffffffffffff\n        /* \"#utility.yul\":17835:17841   */\n      dup2\n        /* \"#utility.yul\":17832:17862   */\n      gt\n        /* \"#utility.yul\":17829:17885   */\n      iszero\n      tag_416\n      jumpi\n        /* \"#utility.yul\":17865:17883   */\n      tag_417\n      tag_170\n      jump\t// in\n    tag_417:\n        /* \"#utility.yul\":17829:17885   */\n    tag_416:\n        /* \"#utility.yul\":17909:17947   */\n      tag_418\n        /* \"#utility.yul\":17941:17945   */\n      dup3\n        /* \"#utility.yul\":17935:17946   */\n      sload\n        /* \"#utility.yul\":17909:17947   */\n      tag_83\n      jump\t// in\n    tag_418:\n        /* \"#utility.yul\":17994:18061   */\n      tag_419\n        /* \"#utility.yul\":18054:18060   */\n      dup3\n        /* \"#utility.yul\":18046:18052   */\n      dup3\n        /* \"#utility.yul\":18040:18044   */\n      dup6\n        /* \"#utility.yul\":17994:18061   */\n      tag_204\n      jump\t// in\n    tag_419:\n        /* \"#utility.yul\":18088:18089   */\n      0x00\n        /* \"#utility.yul\":18112:18116   */\n      0x20\n        /* \"#utility.yul\":18099:18116   */\n      swap1\n      pop\n        /* \"#utility.yul\":18144:18146   */\n      0x1f\n        /* \"#utility.yul\":18136:18142   */\n      dup4\n        /* \"#utility.yul\":18133:18147   */\n      gt\n        /* \"#utility.yul\":18161:18162   */\n      0x01\n        /* \"#utility.yul\":18156:18774   */\n      dup2\n      eq\n      tag_421\n      jumpi\n        /* \"#utility.yul\":18818:18819   */\n      0x00\n        /* \"#utility.yul\":18835:18841   */\n      dup5\n        /* \"#utility.yul\":18832:18909   */\n      iszero\n      tag_422\n      jumpi\n        /* \"#utility.yul\":18884:18893   */\n      dup3\n        /* \"#utility.yul\":18879:18882   */\n      dup8\n        /* \"#utility.yul\":18875:18894   */\n      add\n        /* \"#utility.yul\":18869:18895   */\n      mload\n        /* \"#utility.yul\":18860:18895   */\n      swap1\n      pop\n        /* \"#utility.yul\":18832:18909   */\n    tag_422:\n        /* \"#utility.yul\":18935:19002   */\n      tag_423\n        /* \"#utility.yul\":18995:19001   */\n      dup6\n        /* \"#utility.yul\":18988:18993   */\n      dup3\n        /* \"#utility.yul\":18935:19002   */\n      tag_207\n      jump\t// in\n    tag_423:\n        /* \"#utility.yul\":18929:18933   */\n      dup7\n        /* \"#utility.yul\":18922:19003   */\n      sstore\n        /* \"#utility.yul\":18791:19013   */\n      pop\n        /* \"#utility.yul\":18126:19013   */\n      jump(tag_420)\n        /* \"#utility.yul\":18156:18774   */\n    tag_421:\n        /* \"#utility.yul\":18208:18212   */\n      0x1f\n        /* \"#utility.yul\":18204:18213   */\n      not\n        /* \"#utility.yul\":18196:18202   */\n      dup5\n        /* \"#utility.yul\":18192:18214   */\n      and\n        /* \"#utility.yul\":18242:18279   */\n      tag_424\n        /* \"#utility.yul\":18274:18278   */\n      dup7\n        /* \"#utility.yul\":18242:18279   */\n      tag_193\n      jump\t// in\n    tag_424:\n        /* \"#utility.yul\":18301:18302   */\n      0x00\n        /* \"#utility.yul\":18315:18523   */\n    tag_425:\n        /* \"#utility.yul\":18329:18336   */\n      dup3\n        /* \"#utility.yul\":18326:18327   */\n      dup2\n        /* \"#utility.yul\":18323:18337   */\n      lt\n        /* \"#utility.yul\":18315:18523   */\n      iszero\n      tag_427\n      jumpi\n        /* \"#utility.yul\":18408:18417   */\n      dup5\n        /* \"#utility.yul\":18403:18406   */\n      dup10\n        /* \"#utility.yul\":18399:18418   */\n      add\n        /* \"#utility.yul\":18393:18419   */\n      mload\n        /* \"#utility.yul\":18385:18391   */\n      dup3\n        /* \"#utility.yul\":18378:18420   */\n      sstore\n        /* \"#utility.yul\":18459:18460   */\n      0x01\n        /* \"#utility.yul\":18451:18457   */\n      dup3\n        /* \"#utility.yul\":18447:18461   */\n      add\n        /* \"#utility.yul\":18437:18461   */\n      swap2\n      pop\n        /* \"#utility.yul\":18506:18508   */\n      0x20\n        /* \"#utility.yul\":18495:18504   */\n      dup6\n        /* \"#utility.yul\":18491:18509   */\n      add\n        /* \"#utility.yul\":18478:18509   */\n      swap5\n      pop\n        /* \"#utility.yul\":18352:18356   */\n      0x20\n        /* \"#utility.yul\":18349:18350   */\n      dup2\n        /* \"#utility.yul\":18345:18357   */\n      add\n        /* \"#utility.yul\":18340:18357   */\n      swap1\n      pop\n        /* \"#utility.yul\":18315:18523   */\n      jump(tag_425)\n    tag_427:\n        /* \"#utility.yul\":18551:18557   */\n      dup7\n        /* \"#utility.yul\":18542:18549   */\n      dup4\n        /* \"#utility.yul\":18539:18558   */\n      lt\n        /* \"#utility.yul\":18536:18715   */\n      iszero\n      tag_428\n      jumpi\n        /* \"#utility.yul\":18609:18618   */\n      dup5\n        /* \"#utility.yul\":18604:18607   */\n      dup10\n        /* \"#utility.yul\":18600:18619   */\n      add\n        /* \"#utility.yul\":18594:18620   */\n      mload\n        /* \"#utility.yul\":18652:18700   */\n      tag_429\n        /* \"#utility.yul\":18694:18698   */\n      0x1f\n        /* \"#utility.yul\":18686:18692   */\n      dup10\n        /* \"#utility.yul\":18682:18699   */\n      and\n        /* \"#utility.yul\":18671:18680   */\n      dup3\n        /* \"#utility.yul\":18652:18700   */\n      tag_206\n      jump\t// in\n    tag_429:\n        /* \"#utility.yul\":18644:18650   */\n      dup4\n        /* \"#utility.yul\":18637:18701   */\n      sstore\n        /* \"#utility.yul\":18559:18715   */\n      pop\n        /* \"#utility.yul\":18536:18715   */\n    tag_428:\n        /* \"#utility.yul\":18761:18762   */\n      0x01\n        /* \"#utility.yul\":18757:18758   */\n      0x02\n        /* \"#utility.yul\":18749:18755   */\n      dup9\n        /* \"#utility.yul\":18745:18759   */\n      mul\n        /* \"#utility.yul\":18741:18763   */\n      add\n        /* \"#utility.yul\":18735:18739   */\n      dup9\n        /* \"#utility.yul\":18728:18764   */\n      sstore\n        /* \"#utility.yul\":18163:18774   */\n      pop\n      pop\n      pop\n        /* \"#utility.yul\":18126:19013   */\n    tag_420:\n      pop\n        /* \"#utility.yul\":17716:19019   */\n      pop\n      pop\n      pop\n        /* \"#utility.yul\":17624:19019   */\n      pop\n      pop\n      jump\t// out\n        /* \"#utility.yul\":19025:19448   */\n    tag_99:\n        /* \"#utility.yul\":19166:19170   */\n      0x00\n        /* \"#utility.yul\":19204:19206   */\n      0x40\n        /* \"#utility.yul\":19193:19202   */\n      dup3\n        /* \"#utility.yul\":19189:19207   */\n      add\n        /* \"#utility.yul\":19181:19207   */\n      swap1\n      pop\n        /* \"#utility.yul\":19253:19262   */\n      dup2\n        /* \"#utility.yul\":19247:19251   */\n      dup2\n        /* \"#utility.yul\":19243:19263   */\n      sub\n        /* \"#utility.yul\":19239:19240   */\n      0x00\n        /* \"#utility.yul\":19228:19237   */\n      dup4\n        /* \"#utility.yul\":19224:19241   */\n      add\n        /* \"#utility.yul\":19217:19264   */\n      mstore\n        /* \"#utility.yul\":19281:19359   */\n      tag_431\n        /* \"#utility.yul\":19354:19358   */\n      dup2\n        /* \"#utility.yul\":19345:19351   */\n      dup6\n        /* \"#utility.yul\":19281:19359   */\n      tag_164\n      jump\t// in\n    tag_431:\n        /* \"#utility.yul\":19273:19359   */\n      swap1\n      pop\n        /* \"#utility.yul\":19369:19441   */\n      tag_432\n        /* \"#utility.yul\":19437:19439   */\n      0x20\n        /* \"#utility.yul\":19426:19435   */\n      dup4\n        /* \"#utility.yul\":19422:19440   */\n      add\n        /* \"#utility.yul\":19413:19419   */\n      dup5\n        /* \"#utility.yul\":19369:19441   */\n      tag_165\n      jump\t// in\n    tag_432:\n        /* \"#utility.yul\":19025:19448   */\n      swap4\n      swap3\n      pop\n      pop\n      pop\n      jump\t// out\n        /* \"#utility.yul\":19454:19623   */\n    tag_208:\n        /* \"#utility.yul\":19594:19615   */\n      0x55736572206e6f74207265676973746572656400000000000000000000000000\n        /* \"#utility.yul\":19590:19591   */\n      0x00\n        /* \"#utility.yul\":19582:19588   */\n      dup3\n        /* \"#utility.yul\":19578:19592   */\n      add\n        /* \"#utility.yul\":19571:19616   */\n      mstore\n        /* \"#utility.yul\":19454:19623   */\n      pop\n      jump\t// out\n        /* \"#utility.yul\":19629:19995   */\n    tag_209:\n        /* \"#utility.yul\":19771:19774   */\n      0x00\n        /* \"#utility.yul\":19792:19859   */\n      tag_435\n        /* \"#utility.yul\":19856:19858   */\n      0x13\n        /* \"#utility.yul\":19851:19854   */\n      dup4\n        /* \"#utility.yul\":19792:19859   */\n      tag_161\n      jump\t// in\n    tag_435:\n        /* \"#utility.yul\":19785:19859   */\n      swap2\n      pop\n        /* \"#utility.yul\":19868:19961   */\n      tag_436\n        /* \"#utility.yul\":19957:19960   */\n      dup3\n        /* \"#utility.yul\":19868:19961   */\n      tag_208\n      jump\t// in\n    tag_436:\n        /* \"#utility.yul\":19986:19988   */\n      0x20\n        /* \"#utility.yul\":19981:19984   */\n      dup3\n        /* \"#utility.yul\":19977:19989   */\n      add\n        /* \"#utility.yul\":19970:19989   */\n      swap1\n      pop\n        /* \"#utility.yul\":19629:19995   */\n      swap2\n      swap1\n      pop\n      jump\t// out\n        /* \"#utility.yul\":20001:20420   */\n    tag_103:\n        /* \"#utility.yul\":20167:20171   */\n      0x00\n        /* \"#utility.yul\":20205:20207   */\n      0x20\n        /* \"#utility.yul\":20194:20203   */\n      dup3\n        /* \"#utility.yul\":20190:20208   */\n      add\n        /* \"#utility.yul\":20182:20208   */\n      swap1\n      pop\n        /* \"#utility.yul\":20254:20263   */\n      dup2\n        /* \"#utility.yul\":20248:20252   */\n      dup2\n        /* \"#utility.yul\":20244:20264   */\n      sub\n        /* \"#utility.yul\":20240:20241   */\n      0x00\n        /* \"#utility.yul\":20229:20238   */\n      dup4\n        /* \"#utility.yul\":20225:20242   */\n      add\n        /* \"#utility.yul\":20218:20265   */\n      mstore\n        /* \"#utility.yul\":20282:20413   */\n      tag_438\n        /* \"#utility.yul\":20408:20412   */\n      dup2\n        /* \"#utility.yul\":20282:20413   */\n      tag_209\n      jump\t// in\n    tag_438:\n        /* \"#utility.yul\":20274:20413   */\n      swap1\n      pop\n        /* \"#utility.yul\":20001:20420   */\n      swap2\n      swap1\n      pop\n      jump\t// out\n        /* \"#utility.yul\":20426:20971   */\n    tag_113:\n        /* \"#utility.yul\":20599:20603   */\n      0x00\n        /* \"#utility.yul\":20637:20640   */\n      0x80\n        /* \"#utility.yul\":20626:20635   */\n      dup3\n        /* \"#utility.yul\":20622:20641   */\n      add\n        /* \"#utility.yul\":20614:20641   */\n      swap1\n      pop\n        /* \"#utility.yul\":20651:20722   */\n      tag_440\n        /* \"#utility.yul\":20719:20720   */\n      0x00\n        /* \"#utility.yul\":20708:20717   */\n      dup4\n        /* \"#utility.yul\":20704:20721   */\n      add\n        /* \"#utility.yul\":20695:20701   */\n      dup8\n        /* \"#utility.yul\":20651:20722   */\n      tag_183\n      jump\t// in\n    tag_440:\n        /* \"#utility.yul\":20732:20800   */\n      tag_441\n        /* \"#utility.yul\":20796:20798   */\n      0x20\n        /* \"#utility.yul\":20785:20794   */\n      dup4\n        /* \"#utility.yul\":20781:20799   */\n      add\n        /* \"#utility.yul\":20772:20778   */\n      dup7\n        /* \"#utility.yul\":20732:20800   */\n      tag_185\n      jump\t// in\n    tag_441:\n        /* \"#utility.yul\":20810:20882   */\n      tag_442\n        /* \"#utility.yul\":20878:20880   */\n      0x40\n        /* \"#utility.yul\":20867:20876   */\n      dup4\n        /* \"#utility.yul\":20863:20881   */\n      add\n        /* \"#utility.yul\":20854:20860   */\n      dup6\n        /* \"#utility.yul\":20810:20882   */\n      tag_183\n      jump\t// in\n    tag_442:\n        /* \"#utility.yul\":20892:20964   */\n      tag_443\n        /* \"#utility.yul\":20960:20962   */\n      0x60\n        /* \"#utility.yul\":20949:20958   */\n      dup4\n        /* \"#utility.yul\":20945:20963   */\n      add\n        /* \"#utility.yul\":20936:20942   */\n      dup5\n        /* \"#utility.yul\":20892:20964   */\n      tag_183\n      jump\t// in\n    tag_443:\n        /* \"#utility.yul\":20426:20971   */\n      swap6\n      swap5\n      pop\n      pop\n      pop\n      pop\n      pop\n      jump\t// out\n        /* \"#utility.yul\":20977:21151   */\n    tag_210:\n        /* \"#utility.yul\":21117:21143   */\n      0x496e76616c6964207369676e6174757265206c656e6774680000000000000000\n        /* \"#utility.yul\":21113:21114   */\n      0x00\n        /* \"#utility.yul\":21105:21111   */\n      dup3\n        /* \"#utility.yul\":21101:21115   */\n      add\n        /* \"#utility.yul\":21094:21144   */\n      mstore\n        /* \"#utility.yul\":20977:21151   */\n      pop\n      jump\t// out\n        /* \"#utility.yul\":21157:21523   */\n    tag_211:\n        /* \"#utility.yul\":21299:21302   */\n      0x00\n        /* \"#utility.yul\":21320:21387   */\n      tag_446\n        /* \"#utility.yul\":21384:21386   */\n      0x18\n        /* \"#utility.yul\":21379:21382   */\n      dup4\n        /* \"#utility.yul\":21320:21387   */\n      tag_161\n      jump\t// in\n    tag_446:\n        /* \"#utility.yul\":21313:21387   */\n      swap2\n      pop\n        /* \"#utility.yul\":21396:21489   */\n      tag_447\n        /* \"#utility.yul\":21485:21488   */\n      dup3\n        /* \"#utility.yul\":21396:21489   */\n      tag_210\n      jump\t// in\n    tag_447:\n        /* \"#utility.yul\":21514:21516   */\n      0x20\n        /* \"#utility.yul\":21509:21512   */\n      dup3\n        /* \"#utility.yul\":21505:21517   */\n      add\n        /* \"#utility.yul\":21498:21517   */\n      swap1\n      pop\n        /* \"#utility.yul\":21157:21523   */\n      swap2\n      swap1\n      pop\n      jump\t// out\n        /* \"#utility.yul\":21529:21948   */\n    tag_120:\n        /* \"#utility.yul\":21695:21699   */\n      0x00\n        /* \"#utility.yul\":21733:21735   */\n      0x20\n        /* \"#utility.yul\":21722:21731   */\n      dup3\n        /* \"#utility.yul\":21718:21736   */\n      add\n        /* \"#utility.yul\":21710:21736   */\n      swap1\n      pop\n        /* \"#utility.yul\":21782:21791   */\n      dup2\n        /* \"#utility.yul\":21776:21780   */\n      dup2\n        /* \"#utility.yul\":21772:21792   */\n      sub\n        /* \"#utility.yul\":21768:21769   */\n      0x00\n        /* \"#utility.yul\":21757:21766   */\n      dup4\n        /* \"#utility.yul\":21753:21770   */\n      add\n        /* \"#utility.yul\":21746:21793   */\n      mstore\n        /* \"#utility.yul\":21810:21941   */\n      tag_449\n        /* \"#utility.yul\":21936:21940   */\n      dup2\n        /* \"#utility.yul\":21810:21941   */\n      tag_211\n      jump\t// in\n    tag_449:\n        /* \"#utility.yul\":21802:21941   */\n      swap1\n      pop\n        /* \"#utility.yul\":21529:21948   */\n      swap2\n      swap1\n      pop\n      jump\t// out\n        /* \"#utility.yul\":21954:22131   */\n    tag_212:\n        /* \"#utility.yul\":22094:22123   */\n      0x55736572206163636f756e742069732064656163746976617465640000000000\n        /* \"#utility.yul\":22090:22091   */\n      0x00\n        /* \"#utility.yul\":22082:22088   */\n      dup3\n        /* \"#utility.yul\":22078:22092   */\n      add\n        /* \"#utility.yul\":22071:22124   */\n      mstore\n        /* \"#utility.yul\":21954:22131   */\n      pop\n      jump\t// out\n        /* \"#utility.yul\":22137:22503   */\n    tag_213:\n        /* \"#utility.yul\":22279:22282   */\n      0x00\n        /* \"#utility.yul\":22300:22367   */\n      tag_452\n        /* \"#utility.yul\":22364:22366   */\n      0x1b\n        /* \"#utility.yul\":22359:22362   */\n      dup4\n        /* \"#utility.yul\":22300:22367   */\n      tag_161\n      jump\t// in\n    tag_452:\n        /* \"#utility.yul\":22293:22367   */\n      swap2\n      pop\n        /* \"#utility.yul\":22376:22469   */\n      tag_453\n        /* \"#utility.yul\":22465:22468   */\n      dup3\n        /* \"#utility.yul\":22376:22469   */\n      tag_212\n      jump\t// in\n    tag_453:\n        /* \"#utility.yul\":22494:22496   */\n      0x20\n        /* \"#utility.yul\":22489:22492   */\n      dup3\n        /* \"#utility.yul\":22485:22497   */\n      add\n        /* \"#utility.yul\":22478:22497   */\n      swap1\n      pop\n        /* \"#utility.yul\":22137:22503   */\n      swap2\n      swap1\n      pop\n      jump\t// out\n        /* \"#utility.yul\":22509:22928   */\n    tag_132:\n        /* \"#utility.yul\":22675:22679   */\n      0x00\n        /* \"#utility.yul\":22713:22715   */\n      0x20\n        /* \"#utility.yul\":22702:22711   */\n      dup3\n        /* \"#utility.yul\":22698:22716   */\n      add\n        /* \"#utility.yul\":22690:22716   */\n      swap1\n      pop\n        /* \"#utility.yul\":22762:22771   */\n      dup2\n        /* \"#utility.yul\":22756:22760   */\n      dup2\n        /* \"#utility.yul\":22752:22772   */\n      sub\n        /* \"#utility.yul\":22748:22749   */\n      0x00\n        /* \"#utility.yul\":22737:22746   */\n      dup4\n        /* \"#utility.yul\":22733:22750   */\n      add\n        /* \"#utility.yul\":22726:22773   */\n      mstore\n        /* \"#utility.yul\":22790:22921   */\n      tag_455\n        /* \"#utility.yul\":22916:22920   */\n      dup2\n        /* \"#utility.yul\":22790:22921   */\n      tag_213\n      jump\t// in\n    tag_455:\n        /* \"#utility.yul\":22782:22921   */\n      swap1\n      pop\n        /* \"#utility.yul\":22509:22928   */\n      swap2\n      swap1\n      pop\n      jump\t// out\n        /* \"#utility.yul\":22934:23082   */\n    tag_214:\n        /* \"#utility.yul\":23036:23047   */\n      0x00\n        /* \"#utility.yul\":23073:23076   */\n      dup2\n        /* \"#utility.yul\":23058:23076   */\n      swap1\n      pop\n        /* \"#utility.yul\":22934:23082   */\n      swap3\n      swap2\n      pop\n      pop\n      jump\t// out\n        /* \"#utility.yul\":23088:23302   */\n    tag_215:\n        /* \"#utility.yul\":23228:23294   */\n      0x19457468657265756d205369676e6564204d6573736167653a0a333200000000\n        /* \"#utility.yul\":23224:23225   */\n      0x00\n        /* \"#utility.yul\":23216:23222   */\n      dup3\n        /* \"#utility.yul\":23212:23226   */\n      add\n        /* \"#utility.yul\":23205:23295   */\n      mstore\n        /* \"#utility.yul\":23088:23302   */\n      pop\n      jump\t// out\n        /* \"#utility.yul\":23308:23710   */\n    tag_216:\n        /* \"#utility.yul\":23468:23471   */\n      0x00\n        /* \"#utility.yul\":23489:23574   */\n      tag_459\n        /* \"#utility.yul\":23571:23573   */\n      0x1c\n        /* \"#utility.yul\":23566:23569   */\n      dup4\n        /* \"#utility.yul\":23489:23574   */\n      tag_214\n      jump\t// in\n    tag_459:\n        /* \"#utility.yul\":23482:23574   */\n      swap2\n      pop\n        /* \"#utility.yul\":23583:23676   */\n      tag_460\n        /* \"#utility.yul\":23672:23675   */\n      dup3\n        /* \"#utility.yul\":23583:23676   */\n      tag_215\n      jump\t// in\n    tag_460:\n        /* \"#utility.yul\":23701:23703   */\n      0x1c\n        /* \"#utility.yul\":23696:23699   */\n      dup3\n        /* \"#utility.yul\":23692:23704   */\n      add\n        /* \"#utility.yul\":23685:23704   */\n      swap1\n      pop\n        /* \"#utility.yul\":23308:23710   */\n      swap2\n      swap1\n      pop\n      jump\t// out\n        /* \"#utility.yul\":23716:23795   */\n    tag_217:\n        /* \"#utility.yul\":23755:23762   */\n      0x00\n        /* \"#utility.yul\":23784:23789   */\n      dup2\n        /* \"#utility.yul\":23773:23789   */\n      swap1\n      pop\n        /* \"#utility.yul\":23716:23795   */\n      swap2\n      swap1\n      pop\n      jump\t// out\n        /* \"#utility.yul\":23801:23958   */\n    tag_218:\n        /* \"#utility.yul\":23906:23951   */\n      tag_463\n        /* \"#utility.yul\":23926:23950   */\n      tag_464\n        /* \"#utility.yul\":23944:23949   */\n      dup3\n        /* \"#utility.yul\":23926:23950   */\n      tag_177\n      jump\t// in\n    tag_464:\n        /* \"#utility.yul\":23906:23951   */\n      tag_217\n      jump\t// in\n    tag_463:\n        /* \"#utility.yul\":23901:23904   */\n      dup3\n        /* \"#utility.yul\":23894:23952   */\n      mstore\n        /* \"#utility.yul\":23801:23958   */\n      pop\n      pop\n      jump\t// out\n        /* \"#utility.yul\":23964:24486   */\n    tag_148:\n        /* \"#utility.yul\":24177:24180   */\n      0x00\n        /* \"#utility.yul\":24199:24347   */\n      tag_466\n        /* \"#utility.yul\":24343:24346   */\n      dup3\n        /* \"#utility.yul\":24199:24347   */\n      tag_216\n      jump\t// in\n    tag_466:\n        /* \"#utility.yul\":24192:24347   */\n      swap2\n      pop\n        /* \"#utility.yul\":24357:24432   */\n      tag_467\n        /* \"#utility.yul\":24428:24431   */\n      dup3\n        /* \"#utility.yul\":24419:24425   */\n      dup5\n        /* \"#utility.yul\":24357:24432   */\n      tag_218\n      jump\t// in\n    tag_467:\n        /* \"#utility.yul\":24457:24459   */\n      0x20\n        /* \"#utility.yul\":24452:24455   */\n      dup3\n        /* \"#utility.yul\":24448:24460   */\n      add\n        /* \"#utility.yul\":24441:24460   */\n      swap2\n      pop\n        /* \"#utility.yul\":24477:24480   */\n      dup2\n        /* \"#utility.yul\":24470:24480   */\n      swap1\n      pop\n        /* \"#utility.yul\":23964:24486   */\n      swap3\n      swap2\n      pop\n      pop\n      jump\t// out\n\n    auxdata: 0xa26469706673582212205d9876ce917acf4ca74d8ac0cec372ce8e960d32a1e776f6493746f54b42827464736f6c634300081e0033\n}\n",
				"bytecode": {
					"linkReferences": {},
					"object": "6080604052348015600f57600080fd5b50611c488061001f6000396000f3fe608060405234801561001057600080fd5b50600436106100cf5760003560e01c8063a7bb58031161008c578063c96cea7011610066578063c96cea7014610257578063daca6f7814610273578063e040e9a0146102a3578063fa540801146102ad576100cf565b8063a7bb5803146101c2578063a87430ba146101f4578063c3c5a54714610227576100cf565b8063502c9bd5146100d45780636386c1c714610104578063704f1b94146101375780637daa10ce1461015357806397aba7f9146101745780639be572f6146101a4575b600080fd5b6100ee60048036038101906100e99190610fd7565b6102dd565b6040516100fb9190611045565b60405180910390f35b61011e6004803603810190610119919061108c565b61031c565b60405161012e9493929190611173565b60405180910390f35b610151600480360381019061014c91906112f4565b61052d565b005b61015b61080d565b60405161016b9493929190611173565b60405180910390f35b61018e60048036038101906101899190611414565b610a1d565b60405161019b9190611045565b60405180910390f35b6101ac610a8c565b6040516101b99190611470565b60405180910390f35b6101dc60048036038101906101d7919061148b565b610a99565b6040516101eb939291906114ff565b60405180910390f35b61020e6004803603810190610209919061108c565b610b01565b60405161021e9493929190611173565b60405180910390f35b610241600480360381019061023c919061108c565b610be6565b60405161024e9190611536565b60405180910390f35b610271600480360381019061026c91906112f4565b610c06565b005b61028d60048036038101906102889190611414565b610e06565b60405161029a9190611045565b60405180910390f35b6102ab610e27565b005b6102c760048036038101906102c29190611551565b610f5d565b6040516102d4919061157e565b60405180910390f35b600281815481106102ed57600080fd5b906000526020600020016000915054906101000a900473ffffffffffffffffffffffffffffffffffffffff1681565b60006060600080600160008673ffffffffffffffffffffffffffffffffffffffff1673ffffffffffffffffffffffffffffffffffffffff16815260200190815260200160002060009054906101000a900460ff166103af576040517f08c379a00000000000000000000000000000000000000000000000000000000081526004016103a6906115e5565b60405180910390fd5b60008060008773ffffffffffffffffffffffffffffffffffffffff1673ffffffffffffffffffffffffffffffffffffffff1681526020019081526020016000206040518060800160405290816000820160009054906101000a900473ffffffffffffffffffffffffffffffffffffffff1673ffffffffffffffffffffffffffffffffffffffff1673ffffffffffffffffffffffffffffffffffffffff16815260200160018201805461046090611634565b80601f016020809104026020016040519081016040528092919081815260200182805461048c90611634565b80156104d95780601f106104ae576101008083540402835291602001916104d9565b820191906000526020600020905b8154815290600101906020018083116104bc57829003601f168201915b50505050508152602001600282015481526020016003820160009054906101000a900460ff161515151581525050905080600001518160200151826040015183606001519450945094509450509193509193565b600160003373ffffffffffffffffffffffffffffffffffffffff1673ffffffffffffffffffffffffffffffffffffffff16815260200190815260200160002060009054906101000a900460ff16156105ba576040517f08c379a00000000000000000000000000000000000000000000000000000000081526004016105b1906116b1565b60405180910390fd5b60008151116105fe576040517f08c379a00000000000000000000000000000000000000000000000000000000081526004016105f59061171d565b60405180910390fd5b60405180608001604052803373ffffffffffffffffffffffffffffffffffffffff168152602001828152602001428152602001600115158152506000803373ffffffffffffffffffffffffffffffffffffffff1673ffffffffffffffffffffffffffffffffffffffff16815260200190815260200160002060008201518160000160006101000a81548173ffffffffffffffffffffffffffffffffffffffff021916908373ffffffffffffffffffffffffffffffffffffffff16021790555060208201518160010190816106d291906118e9565b506040820151816002015560608201518160030160006101000a81548160ff02191690831515021790555090505060018060003373ffffffffffffffffffffffffffffffffffffffff1673ffffffffffffffffffffffffffffffffffffffff16815260200190815260200160002060006101000a81548160ff0219169083151502179055506002339080600181540180825580915050600190039060005260206000200160009091909190916101000a81548173ffffffffffffffffffffffffffffffffffffffff021916908373ffffffffffffffffffffffffffffffffffffffff1602179055503373ffffffffffffffffffffffffffffffffffffffff167f89105a1c6a3c2fbd471255c66a31ccab604af5697f67d7e2e9a0028c5e4dbd9182426040516108029291906119bb565b60405180910390a250565b60006060600080600160003373ffffffffffffffffffffffffffffffffffffffff1673ffffffffffffffffffffffffffffffffffffffff16815260200190815260200160002060009054906101000a900460ff166108a0576040517f08c379a000000000000000000000000000000000000000000000000000000000815260040161089790611a37565b60405180910390fd5b60008060003373ffffffffffffffffffffffffffffffffffffffff1673ffffffffffffffffffffffffffffffffffffffff1681526020019081526020016000206040518060800160405290816000820160009054906101000a900473ffffffffffffffffffffffffffffffffffffffff1673ffffffffffffffffffffffffffffffffffffffff1673ffffffffffffffffffffffffffffffffffffffff16815260200160018201805461095190611634565b80601f016020809104026020016040519081016040528092919081815260200182805461097d90611634565b80156109ca5780601f1061099f576101008083540402835291602001916109ca565b820191906000526020600020905b8154815290600101906020018083116109ad57829003601f168201915b50505050508152602001600282015481526020016003820160009054906101000a900460ff1615151515815250509050806000015181602001518260400151836060015194509450945094505090919293565b600080600080610a2c85610a99565b92509250925060018682858560405160008152602001604052604051610a559493929190611a57565b6020604051602081039080840390855afa158015610a77573d6000803e3d6000fd5b50505060206040510351935050505092915050565b6000600280549050905090565b60008060006041845114610ae2576040517f08c379a0000000000000000000000000000000000000000000000000000000008152600401610ad990611ae8565b60405180910390fd5b6020840151925060408401519150606084015160001a90509193909250565b60006020528060005260406000206000915090508060000160009054906101000a900473ffffffffffffffffffffffffffffffffffffffff1690806001018054610b4a90611634565b80601f0160208091040260200160405190810160405280929190818152602001828054610b7690611634565b8015610bc35780601f10610b9857610100808354040283529160200191610bc3565b820191906000526020600020905b815481529060010190602001808311610ba657829003601f168201915b5050505050908060020154908060030160009054906101000a900460ff16905084565b60016020528060005260406000206000915054906101000a900460ff1681565b600160003373ffffffffffffffffffffffffffffffffffffffff1673ffffffffffffffffffffffffffffffffffffffff16815260200190815260200160002060009054906101000a900460ff16610c92576040517f08c379a0000000000000000000000000000000000000000000000000000000008152600401610c8990611a37565b60405180910390fd5b6000803373ffffffffffffffffffffffffffffffffffffffff1673ffffffffffffffffffffffffffffffffffffffff16815260200190815260200160002060030160009054906101000a900460ff16610d20576040517f08c379a0000000000000000000000000000000000000000000000000000000008152600401610d1790611b54565b60405180910390fd5b6000815111610d64576040517f08c379a0000000000000000000000000000000000000000000000000000000008152600401610d5b9061171d565b60405180910390fd5b806000803373ffffffffffffffffffffffffffffffffffffffff1673ffffffffffffffffffffffffffffffffffffffff1681526020019081526020016000206001019081610db291906118e9565b503373ffffffffffffffffffffffffffffffffffffffff167f429ad3a7ede99d93a72d6f0ba190681a2763d681f984e2f299af21ca35caebdb8242604051610dfb9291906119bb565b60405180910390a250565b600080610e1284610f5d565b9050610e1e8184610a1d565b91505092915050565b600160003373ffffffffffffffffffffffffffffffffffffffff1673ffffffffffffffffffffffffffffffffffffffff16815260200190815260200160002060009054906101000a900460ff16610eb3576040517f08c379a0000000000000000000000000000000000000000000000000000000008152600401610eaa90611a37565b60405180910390fd5b60008060003373ffffffffffffffffffffffffffffffffffffffff1673ffffffffffffffffffffffffffffffffffffffff16815260200190815260200160002060030160006101000a81548160ff0219169083151502179055503373ffffffffffffffffffffffffffffffffffffffff167f0a3c4dd3ee5277d6eada470cf9b47a480953120ecafcbbdc14bde6f8a624893042604051610f539190611470565b60405180910390a2565b600081604051602001610f709190611bec565b604051602081830303815290604052805190602001209050919050565b6000604051905090565b600080fd5b600080fd5b6000819050919050565b610fb481610fa1565b8114610fbf57600080fd5b50565b600081359050610fd181610fab565b92915050565b600060208284031215610fed57610fec610f97565b5b6000610ffb84828501610fc2565b91505092915050565b600073ffffffffffffffffffffffffffffffffffffffff82169050919050565b600061102f82611004565b9050919050565b61103f81611024565b82525050565b600060208201905061105a6000830184611036565b92915050565b61106981611024565b811461107457600080fd5b50565b60008135905061108681611060565b92915050565b6000602082840312156110a2576110a1610f97565b5b60006110b084828501611077565b91505092915050565b600081519050919050565b600082825260208201905092915050565b60005b838110156110f35780820151818401526020810190506110d8565b60008484015250505050565b6000601f19601f8301169050919050565b600061111b826110b9565b61112581856110c4565b93506111358185602086016110d5565b61113e816110ff565b840191505092915050565b61115281610fa1565b82525050565b60008115159050919050565b61116d81611158565b82525050565b60006080820190506111886000830187611036565b818103602083015261119a8186611110565b90506111a96040830185611149565b6111b66060830184611164565b95945050505050565b600080fd5b600080fd5b7f4e487b7100000000000000000000000000000000000000000000000000000000600052604160045260246000fd5b611201826110ff565b810181811067ffffffffffffffff821117156112205761121f6111c9565b5b80604052505050565b6000611233610f8d565b905061123f82826111f8565b919050565b600067ffffffffffffffff82111561125f5761125e6111c9565b5b611268826110ff565b9050602081019050919050565b82818337600083830152505050565b600061129761129284611244565b611229565b9050828152602081018484840111156112b3576112b26111c4565b5b6112be848285611275565b509392505050565b600082601f8301126112db576112da6111bf565b5b81356112eb848260208601611284565b91505092915050565b60006020828403121561130a57611309610f97565b5b600082013567ffffffffffffffff81111561132857611327610f9c565b5b611334848285016112c6565b91505092915050565b6000819050919050565b6113508161133d565b811461135b57600080fd5b50565b60008135905061136d81611347565b92915050565b600067ffffffffffffffff82111561138e5761138d6111c9565b5b611397826110ff565b9050602081019050919050565b60006113b76113b284611373565b611229565b9050828152602081018484840111156113d3576113d26111c4565b5b6113de848285611275565b509392505050565b600082601f8301126113fb576113fa6111bf565b5b813561140b8482602086016113a4565b91505092915050565b6000806040838503121561142b5761142a610f97565b5b60006114398582860161135e565b925050602083013567ffffffffffffffff81111561145a57611459610f9c565b5b611466858286016113e6565b9150509250929050565b60006020820190506114856000830184611149565b92915050565b6000602082840312156114a1576114a0610f97565b5b600082013567ffffffffffffffff8111156114bf576114be610f9c565b5b6114cb848285016113e6565b91505092915050565b6114dd8161133d565b82525050565b600060ff82169050919050565b6114f9816114e3565b82525050565b600060608201905061151460008301866114d4565b61152160208301856114d4565b61152e60408301846114f0565b949350505050565b600060208201905061154b6000830184611164565b92915050565b60006020828403121561156757611566610f97565b5b60006115758482850161135e565b91505092915050565b600060208201905061159360008301846114d4565b92915050565b7f55736572206e6f7420666f756e64000000000000000000000000000000000000600082015250565b60006115cf600e836110c4565b91506115da82611599565b602082019050919050565b600060208201905081810360008301526115fe816115c2565b9050919050565b7f4e487b7100000000000000000000000000000000000000000000000000000000600052602260045260246000fd5b6000600282049050600182168061164c57607f821691505b60208210810361165f5761165e611605565b5b50919050565b7f5573657220616c72656164792072656769737465726564000000000000000000600082015250565b600061169b6017836110c4565b91506116a682611665565b602082019050919050565b600060208201905081810360008301526116ca8161168e565b9050919050565b7f557365726e616d652063616e6e6f7420626520656d7074790000000000000000600082015250565b60006117076018836110c4565b9150611712826116d1565b602082019050919050565b60006020820190508181036000830152611736816116fa565b9050919050565b60008190508160005260206000209050919050565b60006020601f8301049050919050565b600082821b905092915050565b60006008830261179f7fffffffffffffffffffffffffffffffffffffffffffffffffffffffffffffffff82611762565b6117a98683611762565b95508019841693508086168417925050509392505050565b6000819050919050565b60006117e66117e16117dc84610fa1565b6117c1565b610fa1565b9050919050565b6000819050919050565b611800836117cb565b61181461180c826117ed565b84845461176f565b825550505050565b600090565b61182961181c565b6118348184846117f7565b505050565b5b818110156118585761184d600082611821565b60018101905061183a565b5050565b601f82111561189d5761186e8161173d565b61187784611752565b81016020851015611886578190505b61189a61189285611752565b830182611839565b50505b505050565b600082821c905092915050565b60006118c0600019846008026118a2565b1980831691505092915050565b60006118d983836118af565b9150826002028217905092915050565b6118f2826110b9565b67ffffffffffffffff81111561190b5761190a6111c9565b5b6119158254611634565b61192082828561185c565b600060209050601f8311600181146119535760008415611941578287015190505b61194b85826118cd565b8655506119b3565b601f1984166119618661173d565b60005b8281101561198957848901518255600182019150602085019450602081019050611964565b868310156119a657848901516119a2601f8916826118af565b8355505b6001600288020188555050505b505050505050565b600060408201905081810360008301526119d58185611110565b90506119e46020830184611149565b9392505050565b7f55736572206e6f74207265676973746572656400000000000000000000000000600082015250565b6000611a216013836110c4565b9150611a2c826119eb565b602082019050919050565b60006020820190508181036000830152611a5081611a14565b9050919050565b6000608082019050611a6c60008301876114d4565b611a7960208301866114f0565b611a8660408301856114d4565b611a9360608301846114d4565b95945050505050565b7f496e76616c6964207369676e6174757265206c656e6774680000000000000000600082015250565b6000611ad26018836110c4565b9150611add82611a9c565b602082019050919050565b60006020820190508181036000830152611b0181611ac5565b9050919050565b7f55736572206163636f756e742069732064656163746976617465640000000000600082015250565b6000611b3e601b836110c4565b9150611b4982611b08565b602082019050919050565b60006020820190508181036000830152611b6d81611b31565b9050919050565b600081905092915050565b7f19457468657265756d205369676e6564204d6573736167653a0a333200000000600082015250565b6000611bb5601c83611b74565b9150611bc082611b7f565b601c82019050919050565b6000819050919050565b611be6611be18261133d565b611bcb565b82525050565b6000611bf782611ba8565b9150611c038284611bd5565b6020820191508190509291505056fea26469706673582212205d9876ce917acf4ca74d8ac0cec372ce8e960d32a1e776f6493746f54b42827464736f6c634300081e0033",
					"opcodes": "PUSH1 0x80 PUSH1 0x40 MSTORE CALLVALUE DUP1 ISZERO PUSH1 0xF JUMPI PUSH1 0x0 DUP1 REVERT JUMPDEST POP PUSH2 0x1C48 DUP1 PUSH2 0x1F PUSH1 0x0 CODECOPY PUSH1 0x0 RETURN INVALID PUSH1 0x80 PUSH1 0x40 MSTORE CALLVALUE DUP1 ISZERO PUSH2 0x10 JUMPI PUSH1 0x0 DUP1 REVERT JUMPDEST POP PUSH1 0x4 CALLDATASIZE LT PUSH2 0xCF JUMPI PUSH1 0x0 CALLDATALOAD PUSH1 0xE0 SHR DUP1 PUSH4 0xA7BB5803 GT PUSH2 0x8C JUMPI DUP1 PUSH4 0xC96CEA70 GT PUSH2 0x66 JUMPI DUP1 PUSH4 0xC96CEA70 EQ PUSH2 0x257 JUMPI DUP1 PUSH4 0xDACA6F78 EQ PUSH2 0x273 JUMPI DUP1 PUSH4 0xE040E9A0 EQ PUSH2 0x2A3 JUMPI DUP1 PUSH4 0xFA540801 EQ PUSH2 0x2AD JUMPI PUSH2 0xCF JUMP JUMPDEST DUP1 PUSH4 0xA7BB5803 EQ PUSH2 0x1C2 JUMPI DUP1 PUSH4 0xA87430BA EQ PUSH2 0x1F4 JUMPI DUP1 PUSH4 0xC3C5A547 EQ PUSH2 0x227 JUMPI PUSH2 0xCF JUMP JUMPDEST DUP1 PUSH4 0x502C9BD5 EQ PUSH2 0xD4 JUMPI DUP1 PUSH4 0x6386C1C7 EQ PUSH2 0x104 JUMPI DUP1 PUSH4 0x704F1B94 EQ PUSH2 0x137 JUMPI DUP1 PUSH4 0x7DAA10CE EQ PUSH2 0x153 JUMPI DUP1 PUSH4 0x97ABA7F9 EQ PUSH2 0x174 JUMPI DUP1 PUSH4 0x9BE572F6 EQ PUSH2 0x1A4 JUMPI JUMPDEST PUSH1 0x0 DUP1 REVERT JUMPDEST PUSH2 0xEE PUSH1 0x4 DUP1 CALLDATASIZE SUB DUP2 ADD SWAP1 PUSH2 0xE9 SWAP2 SWAP1 PUSH2 0xFD7 JUMP JUMPDEST PUSH2 0x2DD JUMP JUMPDEST PUSH1 0x40 MLOAD PUSH2 0xFB SWAP2 SWAP1 PUSH2 0x1045 JUMP JUMPDEST PUSH1 0x40 MLOAD DUP1 SWAP2 SUB SWAP1 RETURN JUMPDEST PUSH2 0x11E PUSH1 0x4 DUP1 CALLDATASIZE SUB DUP2 ADD SWAP1 PUSH2 0x119 SWAP2 SWAP1 PUSH2 0x108C JUMP JUMPDEST PUSH2 0x31C JUMP JUMPDEST PUSH1 0x40 MLOAD PUSH2 0x12E SWAP5 SWAP4 SWAP3 SWAP2 SWAP1 PUSH2 0x1173 JUMP JUMPDEST PUSH1 0x40 MLOAD DUP1 SWAP2 SUB SWAP1 RETURN JUMPDEST PUSH2 0x151 PUSH1 0x4 DUP1 CALLDATASIZE SUB DUP2 ADD SWAP1 PUSH2 0x14C SWAP2 SWAP1 PUSH2 0x12F4 JUMP JUMPDEST PUSH2 0x52D JUMP JUMPDEST STOP JUMPDEST PUSH2 0x15B PUSH2 0x80D JUMP JUMPDEST PUSH1 0x40 MLOAD PUSH2 0x16B SWAP5 SWAP4 SWAP3 SWAP2 SWAP1 PUSH2 0x1173 JUMP JUMPDEST PUSH1 0x40 MLOAD DUP1 SWAP2 SUB SWAP1 RETURN JUMPDEST PUSH2 0x18E PUSH1 0x4 DUP1 CALLDATASIZE SUB DUP2 ADD SWAP1 PUSH2 0x189 SWAP2 SWAP1 PUSH2 0x1414 JUMP JUMPDEST PUSH2 0xA1D JUMP JUMPDEST PUSH1 0x40 MLOAD PUSH2 0x19B SWAP2 SWAP1 PUSH2 0x1045 JUMP JUMPDEST PUSH1 0x40 MLOAD DUP1 SWAP2 SUB SWAP1 RETURN JUMPDEST PUSH2 0x1AC PUSH2 0xA8C JUMP JUMPDEST PUSH1 0x40 MLOAD PUSH2 0x1B9 SWAP2 SWAP1 PUSH2 0x1470 JUMP JUMPDEST PUSH1 0x40 MLOAD DUP1 SWAP2 SUB SWAP1 RETURN JUMPDEST PUSH2 0x1DC PUSH1 0x4 DUP1 CALLDATASIZE SUB DUP2 ADD SWAP1 PUSH2 0x1D7 SWAP2 SWAP1 PUSH2 0x148B JUMP JUMPDEST PUSH2 0xA99 JUMP JUMPDEST PUSH1 0x40 MLOAD PUSH2 0x1EB SWAP4 SWAP3 SWAP2 SWAP1 PUSH2 0x14FF JUMP JUMPDEST PUSH1 0x40 MLOAD DUP1 SWAP2 SUB SWAP1 RETURN JUMPDEST PUSH2 0x20E PUSH1 0x4 DUP1 CALLDATASIZE SUB DUP2 ADD SWAP1 PUSH2 0x209 SWAP2 SWAP1 PUSH2 0x108C JUMP JUMPDEST PUSH2 0xB01 JUMP JUMPDEST PUSH1 0x40 MLOAD PUSH2 0x21E SWAP5 SWAP4 SWAP3 SWAP2 SWAP1 PUSH2 0x1173 JUMP JUMPDEST PUSH1 0x40 MLOAD DUP1 SWAP2 SUB SWAP1 RETURN JUMPDEST PUSH2 0x241 PUSH1 0x4 DUP1 CALLDATASIZE SUB DUP2 ADD SWAP1 PUSH2 0x23C SWAP2 SWAP1 PUSH2 0x108C JUMP JUMPDEST PUSH2 0xBE6 JUMP JUMPDEST PUSH1 0x40 MLOAD PUSH2 0x24E SWAP2 SWAP1 PUSH2 0x1536 JUMP JUMPDEST PUSH1 0x40 MLOAD DUP1 SWAP2 SUB SWAP1 RETURN JUMPDEST PUSH2 0x271 PUSH1 0x4 DUP1 CALLDATASIZE SUB DUP2 ADD SWAP1 PUSH2 0x26C SWAP2 SWAP1 PUSH2 0x12F4 JUMP JUMPDEST PUSH2 0xC06 JUMP JUMPDEST STOP JUMPDEST PUSH2 0x28D PUSH1 0x4 DUP1 CALLDATASIZE SUB DUP2 ADD SWAP1 PUSH2 0x288 SWAP2 SWAP1 PUSH2 0x1414 JUMP JUMPDEST PUSH2 0xE06 JUMP JUMPDEST PUSH1 0x40 MLOAD PUSH2 0x29A SWAP2 SWAP1 PUSH2 0x1045 JUMP JUMPDEST PUSH1 0x40 MLOAD DUP1 SWAP2 SUB SWAP1 RETURN JUMPDEST PUSH2 0x2AB PUSH2 0xE27 JUMP JUMPDEST STOP JUMPDEST PUSH2 0x2C7 PUSH1 0x4 DUP1 CALLDATASIZE SUB DUP2 ADD SWAP1 PUSH2 0x2C2 SWAP2 SWAP1 PUSH2 0x1551 JUMP JUMPDEST PUSH2 0xF5D JUMP JUMPDEST PUSH1 0x40 MLOAD PUSH2 0x2D4 SWAP2 SWAP1 PUSH2 0x157E JUMP JUMPDEST PUSH1 0x40 MLOAD DUP1 SWAP2 SUB SWAP1 RETURN JUMPDEST PUSH1 0x2 DUP2 DUP2 SLOAD DUP2 LT PUSH2 0x2ED JUMPI PUSH1 0x0 DUP1 REVERT JUMPDEST SWAP1 PUSH1 0x0 MSTORE PUSH1 0x20 PUSH1 0x0 KECCAK256 ADD PUSH1 0x0 SWAP2 POP SLOAD SWAP1 PUSH2 0x100 EXP SWAP1 DIV PUSH20 0xFFFFFFFFFFFFFFFFFFFFFFFFFFFFFFFFFFFFFFFF AND DUP2 JUMP JUMPDEST PUSH1 0x0 PUSH1 0x60 PUSH1 0x0 DUP1 PUSH1 0x1 PUSH1 0x0 DUP7 PUSH20 0xFFFFFFFFFFFFFFFFFFFFFFFFFFFFFFFFFFFFFFFF AND PUSH20 0xFFFFFFFFFFFFFFFFFFFFFFFFFFFFFFFFFFFFFFFF AND DUP2 MSTORE PUSH1 0x20 ADD SWAP1 DUP2 MSTORE PUSH1 0x20 ADD PUSH1 0x0 KECCAK256 PUSH1 0x0 SWAP1 SLOAD SWAP1 PUSH2 0x100 EXP SWAP1 DIV PUSH1 0xFF AND PUSH2 0x3AF JUMPI PUSH1 0x40 MLOAD PUSH32 0x8C379A000000000000000000000000000000000000000000000000000000000 DUP2 MSTORE PUSH1 0x4 ADD PUSH2 0x3A6 SWAP1 PUSH2 0x15E5 JUMP JUMPDEST PUSH1 0x40 MLOAD DUP1 SWAP2 SUB SWAP1 REVERT JUMPDEST PUSH1 0x0 DUP1 PUSH1 0x0 DUP8 PUSH20 0xFFFFFFFFFFFFFFFFFFFFFFFFFFFFFFFFFFFFFFFF AND PUSH20 0xFFFFFFFFFFFFFFFFFFFFFFFFFFFFFFFFFFFFFFFF AND DUP2 MSTORE PUSH1 0x20 ADD SWAP1 DUP2 MSTORE PUSH1 0x20 ADD PUSH1 0x0 KECCAK256 PUSH1 0x40 MLOAD DUP1 PUSH1 0x80 ADD PUSH1 0x40 MSTORE SWAP1 DUP2 PUSH1 0x0 DUP3 ADD PUSH1 0x0 SWAP1 SLOAD SWAP1 PUSH2 0x100 EXP SWAP1 DIV PUSH20 0xFFFFFFFFFFFFFFFFFFFFFFFFFFFFFFFFFFFFFFFF AND PUSH20 0xFFFFFFFFFFFFFFFFFFFFFFFFFFFFFFFFFFFFFFFF AND PUSH20 0xFFFFFFFFFFFFFFFFFFFFFFFFFFFFFFFFFFFFFFFF AND DUP2 MSTORE PUSH1 0x20 ADD PUSH1 0x1 DUP3 ADD DUP1 SLOAD PUSH2 0x460 SWAP1 PUSH2 0x1634 JUMP JUMPDEST DUP1 PUSH1 0x1F ADD PUSH1 0x20 DUP1 SWAP2 DIV MUL PUSH1 0x20 ADD PUSH1 0x40 MLOAD SWAP1 DUP2 ADD PUSH1 0x40 MSTORE DUP1 SWAP3 SWAP2 SWAP1 DUP2 DUP2 MSTORE PUSH1 0x20 ADD DUP3 DUP1 SLOAD PUSH2 0x48C SWAP1 PUSH2 0x1634 JUMP JUMPDEST DUP1 ISZERO PUSH2 0x4D9 JUMPI DUP1 PUSH1 0x1F LT PUSH2 0x4AE JUMPI PUSH2 0x100 DUP1 DUP4 SLOAD DIV MUL DUP4 MSTORE SWAP2 PUSH1 0x20 ADD SWAP2 PUSH2 0x4D9 JUMP JUMPDEST DUP3 ADD SWAP2 SWAP1 PUSH1 0x0 MSTORE PUSH1 0x20 PUSH1 0x0 KECCAK256 SWAP1 JUMPDEST DUP2 SLOAD DUP2 MSTORE SWAP1 PUSH1 0x1 ADD SWAP1 PUSH1 0x20 ADD DUP1 DUP4 GT PUSH2 0x4BC JUMPI DUP3 SWAP1 SUB PUSH1 0x1F AND DUP3 ADD SWAP2 JUMPDEST POP POP POP POP POP DUP2 MSTORE PUSH1 0x20 ADD PUSH1 0x2 DUP3 ADD SLOAD DUP2 MSTORE PUSH1 0x20 ADD PUSH1 0x3 DUP3 ADD PUSH1 0x0 SWAP1 SLOAD SWAP1 PUSH2 0x100 EXP SWAP1 DIV PUSH1 0xFF AND ISZERO ISZERO ISZERO ISZERO DUP2 MSTORE POP POP SWAP1 POP DUP1 PUSH1 0x0 ADD MLOAD DUP2 PUSH1 0x20 ADD MLOAD DUP3 PUSH1 0x40 ADD MLOAD DUP4 PUSH1 0x60 ADD MLOAD SWAP5 POP SWAP5 POP SWAP5 POP SWAP5 POP POP SWAP2 SWAP4 POP SWAP2 SWAP4 JUMP JUMPDEST PUSH1 0x1 PUSH1 0x0 CALLER PUSH20 0xFFFFFFFFFFFFFFFFFFFFFFFFFFFFFFFFFFFFFFFF AND PUSH20 0xFFFFFFFFFFFFFFFFFFFFFFFFFFFFFFFFFFFFFFFF AND DUP2 MSTORE PUSH1 0x20 ADD SWAP1 DUP2 MSTORE PUSH1 0x20 ADD PUSH1 0x0 KECCAK256 PUSH1 0x0 SWAP1 SLOAD SWAP1 PUSH2 0x100 EXP SWAP1 DIV PUSH1 0xFF AND ISZERO PUSH2 0x5BA JUMPI PUSH1 0x40 MLOAD PUSH32 0x8C379A000000000000000000000000000000000000000000000000000000000 DUP2 MSTORE PUSH1 0x4 ADD PUSH2 0x5B1 SWAP1 PUSH2 0x16B1 JUMP JUMPDEST PUSH1 0x40 MLOAD DUP1 SWAP2 SUB SWAP1 REVERT JUMPDEST PUSH1 0x0 DUP2 MLOAD GT PUSH2 0x5FE JUMPI PUSH1 0x40 MLOAD PUSH32 0x8C379A000000000000000000000000000000000000000000000000000000000 DUP2 MSTORE PUSH1 0x4 ADD PUSH2 0x5F5 SWAP1 PUSH2 0x171D JUMP JUMPDEST PUSH1 0x40 MLOAD DUP1 SWAP2 SUB SWAP1 REVERT JUMPDEST PUSH1 0x40 MLOAD DUP1 PUSH1 0x80 ADD PUSH1 0x40 MSTORE DUP1 CALLER PUSH20 0xFFFFFFFFFFFFFFFFFFFFFFFFFFFFFFFFFFFFFFFF AND DUP2 MSTORE PUSH1 0x20 ADD DUP3 DUP2 MSTORE PUSH1 0x20 ADD TIMESTAMP DUP2 MSTORE PUSH1 0x20 ADD PUSH1 0x1 ISZERO ISZERO DUP2 MSTORE POP PUSH1 0x0 DUP1 CALLER PUSH20 0xFFFFFFFFFFFFFFFFFFFFFFFFFFFFFFFFFFFFFFFF AND PUSH20 0xFFFFFFFFFFFFFFFFFFFFFFFFFFFFFFFFFFFFFFFF AND DUP2 MSTORE PUSH1 0x20 ADD SWAP1 DUP2 MSTORE PUSH1 0x20 ADD PUSH1 0x0 KECCAK256 PUSH1 0x0 DUP3 ADD MLOAD DUP2 PUSH1 0x0 ADD PUSH1 0x0 PUSH2 0x100 EXP DUP2 SLOAD DUP2 PUSH20 0xFFFFFFFFFFFFFFFFFFFFFFFFFFFFFFFFFFFFFFFF MUL NOT AND SWAP1 DUP4 PUSH20 0xFFFFFFFFFFFFFFFFFFFFFFFFFFFFFFFFFFFFFFFF AND MUL OR SWAP1 SSTORE POP PUSH1 0x20 DUP3 ADD MLOAD DUP2 PUSH1 0x1 ADD SWAP1 DUP2 PUSH2 0x6D2 SWAP2 SWAP1 PUSH2 0x18E9 JUMP JUMPDEST POP PUSH1 0x40 DUP3 ADD MLOAD DUP2 PUSH1 0x2 ADD SSTORE PUSH1 0x60 DUP3 ADD MLOAD DUP2 PUSH1 0x3 ADD PUSH1 0x0 PUSH2 0x100 EXP DUP2 SLOAD DUP2 PUSH1 0xFF MUL NOT AND SWAP1 DUP4 ISZERO ISZERO MUL OR SWAP1 SSTORE POP SWAP1 POP POP PUSH1 0x1 DUP1 PUSH1 0x0 CALLER PUSH20 0xFFFFFFFFFFFFFFFFFFFFFFFFFFFFFFFFFFFFFFFF AND PUSH20 0xFFFFFFFFFFFFFFFFFFFFFFFFFFFFFFFFFFFFFFFF AND DUP2 MSTORE PUSH1 0x20 ADD SWAP1 DUP2 MSTORE PUSH1 0x20 ADD PUSH1 0x0 KECCAK256 PUSH1 0x0 PUSH2 0x100 EXP DUP2 SLOAD DUP2 PUSH1 0xFF MUL NOT AND SWAP1 DUP4 ISZERO ISZERO MUL OR SWAP1 SSTORE POP PUSH1 0x2 CALLER SWAP1 DUP1 PUSH1 0x1 DUP2 SLOAD ADD DUP1 DUP3 SSTORE DUP1 SWAP2 POP POP PUSH1 0x1 SWAP1 SUB SWAP1 PUSH1 0x0 MSTORE PUSH1 0x20 PUSH1 0x0 KECCAK256 ADD PUSH1 0x0 SWAP1 SWAP2 SWAP1 SWAP2 SWAP1 SWAP2 PUSH2 0x100 EXP DUP2 SLOAD DUP2 PUSH20 0xFFFFFFFFFFFFFFFFFFFFFFFFFFFFFFFFFFFFFFFF MUL NOT AND SWAP1 DUP4 PUSH20 0xFFFFFFFFFFFFFFFFFFFFFFFFFFFFFFFFFFFFFFFF AND MUL OR SWAP1 SSTORE POP CALLER PUSH20 0xFFFFFFFFFFFFFFFFFFFFFFFFFFFFFFFFFFFFFFFF AND PUSH32 0x89105A1C6A3C2FBD471255C66A31CCAB604AF5697F67D7E2E9A0028C5E4DBD91 DUP3 TIMESTAMP PUSH1 0x40 MLOAD PUSH2 0x802 SWAP3 SWAP2 SWAP1 PUSH2 0x19BB JUMP JUMPDEST PUSH1 0x40 MLOAD DUP1 SWAP2 SUB SWAP1 LOG2 POP JUMP JUMPDEST PUSH1 0x0 PUSH1 0x60 PUSH1 0x0 DUP1 PUSH1 0x1 PUSH1 0x0 CALLER PUSH20 0xFFFFFFFFFFFFFFFFFFFFFFFFFFFFFFFFFFFFFFFF AND PUSH20 0xFFFFFFFFFFFFFFFFFFFFFFFFFFFFFFFFFFFFFFFF AND DUP2 MSTORE PUSH1 0x20 ADD SWAP1 DUP2 MSTORE PUSH1 0x20 ADD PUSH1 0x0 KECCAK256 PUSH1 0x0 SWAP1 SLOAD SWAP1 PUSH2 0x100 EXP SWAP1 DIV PUSH1 0xFF AND PUSH2 0x8A0 JUMPI PUSH1 0x40 MLOAD PUSH32 0x8C379A000000000000000000000000000000000000000000000000000000000 DUP2 MSTORE PUSH1 0x4 ADD PUSH2 0x897 SWAP1 PUSH2 0x1A37 JUMP JUMPDEST PUSH1 0x40 MLOAD DUP1 SWAP2 SUB SWAP1 REVERT JUMPDEST PUSH1 0x0 DUP1 PUSH1 0x0 CALLER PUSH20 0xFFFFFFFFFFFFFFFFFFFFFFFFFFFFFFFFFFFFFFFF AND PUSH20 0xFFFFFFFFFFFFFFFFFFFFFFFFFFFFFFFFFFFFFFFF AND DUP2 MSTORE PUSH1 0x20 ADD SWAP1 DUP2 MSTORE PUSH1 0x20 ADD PUSH1 0x0 KECCAK256 PUSH1 0x40 MLOAD DUP1 PUSH1 0x80 ADD PUSH1 0x40 MSTORE SWAP1 DUP2 PUSH1 0x0 DUP3 ADD PUSH1 0x0 SWAP1 SLOAD SWAP1 PUSH2 0x100 EXP SWAP1 DIV PUSH20 0xFFFFFFFFFFFFFFFFFFFFFFFFFFFFFFFFFFFFFFFF AND PUSH20 0xFFFFFFFFFFFFFFFFFFFFFFFFFFFFFFFFFFFFFFFF AND PUSH20 0xFFFFFFFFFFFFFFFFFFFFFFFFFFFFFFFFFFFFFFFF AND DUP2 MSTORE PUSH1 0x20 ADD PUSH1 0x1 DUP3 ADD DUP1 SLOAD PUSH2 0x951 SWAP1 PUSH2 0x1634 JUMP JUMPDEST DUP1 PUSH1 0x1F ADD PUSH1 0x20 DUP1 SWAP2 DIV MUL PUSH1 0x20 ADD PUSH1 0x40 MLOAD SWAP1 DUP2 ADD PUSH1 0x40 MSTORE DUP1 SWAP3 SWAP2 SWAP1 DUP2 DUP2 MSTORE PUSH1 0x20 ADD DUP3 DUP1 SLOAD PUSH2 0x97D SWAP1 PUSH2 0x1634 JUMP JUMPDEST DUP1 ISZERO PUSH2 0x9CA JUMPI DUP1 PUSH1 0x1F LT PUSH2 0x99F JUMPI PUSH2 0x100 DUP1 DUP4 SLOAD DIV MUL DUP4 MSTORE SWAP2 PUSH1 0x20 ADD SWAP2 PUSH2 0x9CA JUMP JUMPDEST DUP3 ADD SWAP2 SWAP1 PUSH1 0x0 MSTORE PUSH1 0x20 PUSH1 0x0 KECCAK256 SWAP1 JUMPDEST DUP2 SLOAD DUP2 MSTORE SWAP1 PUSH1 0x1 ADD SWAP1 PUSH1 0x20 ADD DUP1 DUP4 GT PUSH2 0x9AD JUMPI DUP3 SWAP1 SUB PUSH1 0x1F AND DUP3 ADD SWAP2 JUMPDEST POP POP POP POP POP DUP2 MSTORE PUSH1 0x20 ADD PUSH1 0x2 DUP3 ADD SLOAD DUP2 MSTORE PUSH1 0x20 ADD PUSH1 0x3 DUP3 ADD PUSH1 0x0 SWAP1 SLOAD SWAP1 PUSH2 0x100 EXP SWAP1 DIV PUSH1 0xFF AND ISZERO ISZERO ISZERO ISZERO DUP2 MSTORE POP POP SWAP1 POP DUP1 PUSH1 0x0 ADD MLOAD DUP2 PUSH1 0x20 ADD MLOAD DUP3 PUSH1 0x40 ADD MLOAD DUP4 PUSH1 0x60 ADD MLOAD SWAP5 POP SWAP5 POP SWAP5 POP SWAP5 POP POP SWAP1 SWAP2 SWAP3 SWAP4 JUMP JUMPDEST PUSH1 0x0 DUP1 PUSH1 0x0 DUP1 PUSH2 0xA2C DUP6 PUSH2 0xA99 JUMP JUMPDEST SWAP3 POP SWAP3 POP SWAP3 POP PUSH1 0x1 DUP7 DUP3 DUP6 DUP6 PUSH1 0x40 MLOAD PUSH1 0x0 DUP2 MSTORE PUSH1 0x20 ADD PUSH1 0x40 MSTORE PUSH1 0x40 MLOAD PUSH2 0xA55 SWAP5 SWAP4 SWAP3 SWAP2 SWAP1 PUSH2 0x1A57 JUMP JUMPDEST PUSH1 0x20 PUSH1 0x40 MLOAD PUSH1 0x20 DUP2 SUB SWAP1 DUP1 DUP5 SUB SWAP1 DUP6 GAS STATICCALL ISZERO DUP1 ISZERO PUSH2 0xA77 JUMPI RETURNDATASIZE PUSH1 0x0 DUP1 RETURNDATACOPY RETURNDATASIZE PUSH1 0x0 REVERT JUMPDEST POP POP POP PUSH1 0x20 PUSH1 0x40 MLOAD SUB MLOAD SWAP4 POP POP POP POP SWAP3 SWAP2 POP POP JUMP JUMPDEST PUSH1 0x0 PUSH1 0x2 DUP1 SLOAD SWAP1 POP SWAP1 POP SWAP1 JUMP JUMPDEST PUSH1 0x0 DUP1 PUSH1 0x0 PUSH1 0x41 DUP5 MLOAD EQ PUSH2 0xAE2 JUMPI PUSH1 0x40 MLOAD PUSH32 0x8C379A000000000000000000000000000000000000000000000000000000000 DUP2 MSTORE PUSH1 0x4 ADD PUSH2 0xAD9 SWAP1 PUSH2 0x1AE8 JUMP JUMPDEST PUSH1 0x40 MLOAD DUP1 SWAP2 SUB SWAP1 REVERT JUMPDEST PUSH1 0x20 DUP5 ADD MLOAD SWAP3 POP PUSH1 0x40 DUP5 ADD MLOAD SWAP2 POP PUSH1 0x60 DUP5 ADD MLOAD PUSH1 0x0 BYTE SWAP1 POP SWAP2 SWAP4 SWAP1 SWAP3 POP JUMP JUMPDEST PUSH1 0x0 PUSH1 0x20 MSTORE DUP1 PUSH1 0x0 MSTORE PUSH1 0x40 PUSH1 0x0 KECCAK256 PUSH1 0x0 SWAP2 POP SWAP1 POP DUP1 PUSH1 0x0 ADD PUSH1 0x0 SWAP1 SLOAD SWAP1 PUSH2 0x100 EXP SWAP1 DIV PUSH20 0xFFFFFFFFFFFFFFFFFFFFFFFFFFFFFFFFFFFFFFFF AND SWAP1 DUP1 PUSH1 0x1 ADD DUP1 SLOAD PUSH2 0xB4A SWAP1 PUSH2 0x1634 JUMP JUMPDEST DUP1 PUSH1 0x1F ADD PUSH1 0x20 DUP1 SWAP2 DIV MUL PUSH1 0x20 ADD PUSH1 0x40 MLOAD SWAP1 DUP2 ADD PUSH1 0x40 MSTORE DUP1 SWAP3 SWAP2 SWAP1 DUP2 DUP2 MSTORE PUSH1 0x20 ADD DUP3 DUP1 SLOAD PUSH2 0xB76 SWAP1 PUSH2 0x1634 JUMP JUMPDEST DUP1 ISZERO PUSH2 0xBC3 JUMPI DUP1 PUSH1 0x1F LT PUSH2 0xB98 JUMPI PUSH2 0x100 DUP1 DUP4 SLOAD DIV MUL DUP4 MSTORE SWAP2 PUSH1 0x20 ADD SWAP2 PUSH2 0xBC3 JUMP JUMPDEST DUP3 ADD SWAP2 SWAP1 PUSH1 0x0 MSTORE PUSH1 0x20 PUSH1 0x0 KECCAK256 SWAP1 JUMPDEST DUP2 SLOAD DUP2 MSTORE SWAP1 PUSH1 0x1 ADD SWAP1 PUSH1 0x20 ADD DUP1 DUP4 GT PUSH2 0xBA6 JUMPI DUP3 SWAP1 SUB PUSH1 0x1F AND DUP3 ADD SWAP2 JUMPDEST POP POP POP POP POP SWAP1 DUP1 PUSH1 0x2 ADD SLOAD SWAP1 DUP1 PUSH1 0x3 ADD PUSH1 0x0 SWAP1 SLOAD SWAP1 PUSH2 0x100 EXP SWAP1 DIV PUSH1 0xFF AND SWAP1 POP DUP5 JUMP JUMPDEST PUSH1 0x1 PUSH1 0x20 MSTORE DUP1 PUSH1 0x0 MSTORE PUSH1 0x40 PUSH1 0x0 KECCAK256 PUSH1 0x0 SWAP2 POP SLOAD SWAP1 PUSH2 0x100 EXP SWAP1 DIV PUSH1 0xFF AND DUP2 JUMP JUMPDEST PUSH1 0x1 PUSH1 0x0 CALLER PUSH20 0xFFFFFFFFFFFFFFFFFFFFFFFFFFFFFFFFFFFFFFFF AND PUSH20 0xFFFFFFFFFFFFFFFFFFFFFFFFFFFFFFFFFFFFFFFF AND DUP2 MSTORE PUSH1 0x20 ADD SWAP1 DUP2 MSTORE PUSH1 0x20 ADD PUSH1 0x0 KECCAK256 PUSH1 0x0 SWAP1 SLOAD SWAP1 PUSH2 0x100 EXP SWAP1 DIV PUSH1 0xFF AND PUSH2 0xC92 JUMPI PUSH1 0x40 MLOAD PUSH32 0x8C379A000000000000000000000000000000000000000000000000000000000 DUP2 MSTORE PUSH1 0x4 ADD PUSH2 0xC89 SWAP1 PUSH2 0x1A37 JUMP JUMPDEST PUSH1 0x40 MLOAD DUP1 SWAP2 SUB SWAP1 REVERT JUMPDEST PUSH1 0x0 DUP1 CALLER PUSH20 0xFFFFFFFFFFFFFFFFFFFFFFFFFFFFFFFFFFFFFFFF AND PUSH20 0xFFFFFFFFFFFFFFFFFFFFFFFFFFFFFFFFFFFFFFFF AND DUP2 MSTORE PUSH1 0x20 ADD SWAP1 DUP2 MSTORE PUSH1 0x20 ADD PUSH1 0x0 KECCAK256 PUSH1 0x3 ADD PUSH1 0x0 SWAP1 SLOAD SWAP1 PUSH2 0x100 EXP SWAP1 DIV PUSH1 0xFF AND PUSH2 0xD20 JUMPI PUSH1 0x40 MLOAD PUSH32 0x8C379A000000000000000000000000000000000000000000000000000000000 DUP2 MSTORE PUSH1 0x4 ADD PUSH2 0xD17 SWAP1 PUSH2 0x1B54 JUMP JUMPDEST PUSH1 0x40 MLOAD DUP1 SWAP2 SUB SWAP1 REVERT JUMPDEST PUSH1 0x0 DUP2 MLOAD GT PUSH2 0xD64 JUMPI PUSH1 0x40 MLOAD PUSH32 0x8C379A000000000000000000000000000000000000000000000000000000000 DUP2 MSTORE PUSH1 0x4 ADD PUSH2 0xD5B SWAP1 PUSH2 0x171D JUMP JUMPDEST PUSH1 0x40 MLOAD DUP1 SWAP2 SUB SWAP1 REVERT JUMPDEST DUP1 PUSH1 0x0 DUP1 CALLER PUSH20 0xFFFFFFFFFFFFFFFFFFFFFFFFFFFFFFFFFFFFFFFF AND PUSH20 0xFFFFFFFFFFFFFFFFFFFFFFFFFFFFFFFFFFFFFFFF AND DUP2 MSTORE PUSH1 0x20 ADD SWAP1 DUP2 MSTORE PUSH1 0x20 ADD PUSH1 0x0 KECCAK256 PUSH1 0x1 ADD SWAP1 DUP2 PUSH2 0xDB2 SWAP2 SWAP1 PUSH2 0x18E9 JUMP JUMPDEST POP CALLER PUSH20 0xFFFFFFFFFFFFFFFFFFFFFFFFFFFFFFFFFFFFFFFF AND PUSH32 0x429AD3A7EDE99D93A72D6F0BA190681A2763D681F984E2F299AF21CA35CAEBDB DUP3 TIMESTAMP PUSH1 0x40 MLOAD PUSH2 0xDFB SWAP3 SWAP2 SWAP1 PUSH2 0x19BB JUMP JUMPDEST PUSH1 0x40 MLOAD DUP1 SWAP2 SUB SWAP1 LOG2 POP JUMP JUMPDEST PUSH1 0x0 DUP1 PUSH2 0xE12 DUP5 PUSH2 0xF5D JUMP JUMPDEST SWAP1 POP PUSH2 0xE1E DUP2 DUP5 PUSH2 0xA1D JUMP JUMPDEST SWAP2 POP POP SWAP3 SWAP2 POP POP JUMP JUMPDEST PUSH1 0x1 PUSH1 0x0 CALLER PUSH20 0xFFFFFFFFFFFFFFFFFFFFFFFFFFFFFFFFFFFFFFFF AND PUSH20 0xFFFFFFFFFFFFFFFFFFFFFFFFFFFFFFFFFFFFFFFF AND DUP2 MSTORE PUSH1 0x20 ADD SWAP1 DUP2 MSTORE PUSH1 0x20 ADD PUSH1 0x0 KECCAK256 PUSH1 0x0 SWAP1 SLOAD SWAP1 PUSH2 0x100 EXP SWAP1 DIV PUSH1 0xFF AND PUSH2 0xEB3 JUMPI PUSH1 0x40 MLOAD PUSH32 0x8C379A000000000000000000000000000000000000000000000000000000000 DUP2 MSTORE PUSH1 0x4 ADD PUSH2 0xEAA SWAP1 PUSH2 0x1A37 JUMP JUMPDEST PUSH1 0x40 MLOAD DUP1 SWAP2 SUB SWAP1 REVERT JUMPDEST PUSH1 0x0 DUP1 PUSH1 0x0 CALLER PUSH20 0xFFFFFFFFFFFFFFFFFFFFFFFFFFFFFFFFFFFFFFFF AND PUSH20 0xFFFFFFFFFFFFFFFFFFFFFFFFFFFFFFFFFFFFFFFF AND DUP2 MSTORE PUSH1 0x20 ADD SWAP1 DUP2 MSTORE PUSH1 0x20 ADD PUSH1 0x0 KECCAK256 PUSH1 0x3 ADD PUSH1 0x0 PUSH2 0x100 EXP DUP2 SLOAD DUP2 PUSH1 0xFF MUL NOT AND SWAP1 DUP4 ISZERO ISZERO MUL OR SWAP1 SSTORE POP CALLER PUSH20 0xFFFFFFFFFFFFFFFFFFFFFFFFFFFFFFFFFFFFFFFF AND PUSH32 0xA3C4DD3EE5277D6EADA470CF9B47A480953120ECAFCBBDC14BDE6F8A6248930 TIMESTAMP PUSH1 0x40 MLOAD PUSH2 0xF53 SWAP2 SWAP1 PUSH2 0x1470 JUMP JUMPDEST PUSH1 0x40 MLOAD DUP1 SWAP2 SUB SWAP1 LOG2 JUMP JUMPDEST PUSH1 0x0 DUP2 PUSH1 0x40 MLOAD PUSH1 0x20 ADD PUSH2 0xF70 SWAP2 SWAP1 PUSH2 0x1BEC JUMP JUMPDEST PUSH1 0x40 MLOAD PUSH1 0x20 DUP2 DUP4 SUB SUB DUP2 MSTORE SWAP1 PUSH1 0x40 MSTORE DUP1 MLOAD SWAP1 PUSH1 0x20 ADD KECCAK256 SWAP1 POP SWAP2 SWAP1 POP JUMP JUMPDEST PUSH1 0x0 PUSH1 0x40 MLOAD SWAP1 POP SWAP1 JUMP JUMPDEST PUSH1 0x0 DUP1 REVERT JUMPDEST PUSH1 0x0 DUP1 REVERT JUMPDEST PUSH1 0x0 DUP2 SWAP1 POP SWAP2 SWAP1 POP JUMP JUMPDEST PUSH2 0xFB4 DUP2 PUSH2 0xFA1 JUMP JUMPDEST DUP2 EQ PUSH2 0xFBF JUMPI PUSH1 0x0 DUP1 REVERT JUMPDEST POP JUMP JUMPDEST PUSH1 0x0 DUP2 CALLDATALOAD SWAP1 POP PUSH2 0xFD1 DUP2 PUSH2 0xFAB JUMP JUMPDEST SWAP3 SWAP2 POP POP JUMP JUMPDEST PUSH1 0x0 PUSH1 0x20 DUP3 DUP5 SUB SLT ISZERO PUSH2 0xFED JUMPI PUSH2 0xFEC PUSH2 0xF97 JUMP JUMPDEST JUMPDEST PUSH1 0x0 PUSH2 0xFFB DUP5 DUP3 DUP6 ADD PUSH2 0xFC2 JUMP JUMPDEST SWAP2 POP POP SWAP3 SWAP2 POP POP JUMP JUMPDEST PUSH1 0x0 PUSH20 0xFFFFFFFFFFFFFFFFFFFFFFFFFFFFFFFFFFFFFFFF DUP3 AND SWAP1 POP SWAP2 SWAP1 POP JUMP JUMPDEST PUSH1 0x0 PUSH2 0x102F DUP3 PUSH2 0x1004 JUMP JUMPDEST SWAP1 POP SWAP2 SWAP1 POP JUMP JUMPDEST PUSH2 0x103F DUP2 PUSH2 0x1024 JUMP JUMPDEST DUP3 MSTORE POP POP JUMP JUMPDEST PUSH1 0x0 PUSH1 0x20 DUP3 ADD SWAP1 POP PUSH2 0x105A PUSH1 0x0 DUP4 ADD DUP5 PUSH2 0x1036 JUMP JUMPDEST SWAP3 SWAP2 POP POP JUMP JUMPDEST PUSH2 0x1069 DUP2 PUSH2 0x1024 JUMP JUMPDEST DUP2 EQ PUSH2 0x1074 JUMPI PUSH1 0x0 DUP1 REVERT JUMPDEST POP JUMP JUMPDEST PUSH1 0x0 DUP2 CALLDATALOAD SWAP1 POP PUSH2 0x1086 DUP2 PUSH2 0x1060 JUMP JUMPDEST SWAP3 SWAP2 POP POP JUMP JUMPDEST PUSH1 0x0 PUSH1 0x20 DUP3 DUP5 SUB SLT ISZERO PUSH2 0x10A2 JUMPI PUSH2 0x10A1 PUSH2 0xF97 JUMP JUMPDEST JUMPDEST PUSH1 0x0 PUSH2 0x10B0 DUP5 DUP3 DUP6 ADD PUSH2 0x1077 JUMP JUMPDEST SWAP2 POP POP SWAP3 SWAP2 POP POP JUMP JUMPDEST PUSH1 0x0 DUP2 MLOAD SWAP1 POP SWAP2 SWAP1 POP JUMP JUMPDEST PUSH1 0x0 DUP3 DUP3 MSTORE PUSH1 0x20 DUP3 ADD SWAP1 POP SWAP3 SWAP2 POP POP JUMP JUMPDEST PUSH1 0x0 JUMPDEST DUP4 DUP2 LT ISZERO PUSH2 0x10F3 JUMPI DUP1 DUP3 ADD MLOAD DUP2 DUP5 ADD MSTORE PUSH1 0x20 DUP2 ADD SWAP1 POP PUSH2 0x10D8 JUMP JUMPDEST PUSH1 0x0 DUP5 DUP5 ADD MSTORE POP POP POP POP JUMP JUMPDEST PUSH1 0x0 PUSH1 0x1F NOT PUSH1 0x1F DUP4 ADD AND SWAP1 POP SWAP2 SWAP1 POP JUMP JUMPDEST PUSH1 0x0 PUSH2 0x111B DUP3 PUSH2 0x10B9 JUMP JUMPDEST PUSH2 0x1125 DUP2 DUP6 PUSH2 0x10C4 JUMP JUMPDEST SWAP4 POP PUSH2 0x1135 DUP2 DUP6 PUSH1 0x20 DUP7 ADD PUSH2 0x10D5 JUMP JUMPDEST PUSH2 0x113E DUP2 PUSH2 0x10FF JUMP JUMPDEST DUP5 ADD SWAP2 POP POP SWAP3 SWAP2 POP POP JUMP JUMPDEST PUSH2 0x1152 DUP2 PUSH2 0xFA1 JUMP JUMPDEST DUP3 MSTORE POP POP JUMP JUMPDEST PUSH1 0x0 DUP2 ISZERO ISZERO SWAP1 POP SWAP2 SWAP1 POP JUMP JUMPDEST PUSH2 0x116D DUP2 PUSH2 0x1158 JUMP JUMPDEST DUP3 MSTORE POP POP JUMP JUMPDEST PUSH1 0x0 PUSH1 0x80 DUP3 ADD SWAP1 POP PUSH2 0x1188 PUSH1 0x0 DUP4 ADD DUP8 PUSH2 0x1036 JUMP JUMPDEST DUP2 DUP2 SUB PUSH1 0x20 DUP4 ADD MSTORE PUSH2 0x119A DUP2 DUP7 PUSH2 0x1110 JUMP JUMPDEST SWAP1 POP PUSH2 0x11A9 PUSH1 0x40 DUP4 ADD DUP6 PUSH2 0x1149 JUMP JUMPDEST PUSH2 0x11B6 PUSH1 0x60 DUP4 ADD DUP5 PUSH2 0x1164 JUMP JUMPDEST SWAP6 SWAP5 POP POP POP POP POP JUMP JUMPDEST PUSH1 0x0 DUP1 REVERT JUMPDEST PUSH1 0x0 DUP1 REVERT JUMPDEST PUSH32 0x4E487B7100000000000000000000000000000000000000000000000000000000 PUSH1 0x0 MSTORE PUSH1 0x41 PUSH1 0x4 MSTORE PUSH1 0x24 PUSH1 0x0 REVERT JUMPDEST PUSH2 0x1201 DUP3 PUSH2 0x10FF JUMP JUMPDEST DUP2 ADD DUP2 DUP2 LT PUSH8 0xFFFFFFFFFFFFFFFF DUP3 GT OR ISZERO PUSH2 0x1220 JUMPI PUSH2 0x121F PUSH2 0x11C9 JUMP JUMPDEST JUMPDEST DUP1 PUSH1 0x40 MSTORE POP POP POP JUMP JUMPDEST PUSH1 0x0 PUSH2 0x1233 PUSH2 0xF8D JUMP JUMPDEST SWAP1 POP PUSH2 0x123F DUP3 DUP3 PUSH2 0x11F8 JUMP JUMPDEST SWAP2 SWAP1 POP JUMP JUMPDEST PUSH1 0x0 PUSH8 0xFFFFFFFFFFFFFFFF DUP3 GT ISZERO PUSH2 0x125F JUMPI PUSH2 0x125E PUSH2 0x11C9 JUMP JUMPDEST JUMPDEST PUSH2 0x1268 DUP3 PUSH2 0x10FF JUMP JUMPDEST SWAP1 POP PUSH1 0x20 DUP2 ADD SWAP1 POP SWAP2 SWAP1 POP JUMP JUMPDEST DUP3 DUP2 DUP4 CALLDATACOPY PUSH1 0x0 DUP4 DUP4 ADD MSTORE POP POP POP JUMP JUMPDEST PUSH1 0x0 PUSH2 0x1297 PUSH2 0x1292 DUP5 PUSH2 0x1244 JUMP JUMPDEST PUSH2 0x1229 JUMP JUMPDEST SWAP1 POP DUP3 DUP2 MSTORE PUSH1 0x20 DUP2 ADD DUP5 DUP5 DUP5 ADD GT ISZERO PUSH2 0x12B3 JUMPI PUSH2 0x12B2 PUSH2 0x11C4 JUMP JUMPDEST JUMPDEST PUSH2 0x12BE DUP5 DUP3 DUP6 PUSH2 0x1275 JUMP JUMPDEST POP SWAP4 SWAP3 POP POP POP JUMP JUMPDEST PUSH1 0x0 DUP3 PUSH1 0x1F DUP4 ADD SLT PUSH2 0x12DB JUMPI PUSH2 0x12DA PUSH2 0x11BF JUMP JUMPDEST JUMPDEST DUP2 CALLDATALOAD PUSH2 0x12EB DUP5 DUP3 PUSH1 0x20 DUP7 ADD PUSH2 0x1284 JUMP JUMPDEST SWAP2 POP POP SWAP3 SWAP2 POP POP JUMP JUMPDEST PUSH1 0x0 PUSH1 0x20 DUP3 DUP5 SUB SLT ISZERO PUSH2 0x130A JUMPI PUSH2 0x1309 PUSH2 0xF97 JUMP JUMPDEST JUMPDEST PUSH1 0x0 DUP3 ADD CALLDATALOAD PUSH8 0xFFFFFFFFFFFFFFFF DUP2 GT ISZERO PUSH2 0x1328 JUMPI PUSH2 0x1327 PUSH2 0xF9C JUMP JUMPDEST JUMPDEST PUSH2 0x1334 DUP5 DUP3 DUP6 ADD PUSH2 0x12C6 JUMP JUMPDEST SWAP2 POP POP SWAP3 SWAP2 POP POP JUMP JUMPDEST PUSH1 0x0 DUP2 SWAP1 POP SWAP2 SWAP1 POP JUMP JUMPDEST PUSH2 0x1350 DUP2 PUSH2 0x133D JUMP JUMPDEST DUP2 EQ PUSH2 0x135B JUMPI PUSH1 0x0 DUP1 REVERT JUMPDEST POP JUMP JUMPDEST PUSH1 0x0 DUP2 CALLDATALOAD SWAP1 POP PUSH2 0x136D DUP2 PUSH2 0x1347 JUMP JUMPDEST SWAP3 SWAP2 POP POP JUMP JUMPDEST PUSH1 0x0 PUSH8 0xFFFFFFFFFFFFFFFF DUP3 GT ISZERO PUSH2 0x138E JUMPI PUSH2 0x138D PUSH2 0x11C9 JUMP JUMPDEST JUMPDEST PUSH2 0x1397 DUP3 PUSH2 0x10FF JUMP JUMPDEST SWAP1 POP PUSH1 0x20 DUP2 ADD SWAP1 POP SWAP2 SWAP1 POP JUMP JUMPDEST PUSH1 0x0 PUSH2 0x13B7 PUSH2 0x13B2 DUP5 PUSH2 0x1373 JUMP JUMPDEST PUSH2 0x1229 JUMP JUMPDEST SWAP1 POP DUP3 DUP2 MSTORE PUSH1 0x20 DUP2 ADD DUP5 DUP5 DUP5 ADD GT ISZERO PUSH2 0x13D3 JUMPI PUSH2 0x13D2 PUSH2 0x11C4 JUMP JUMPDEST JUMPDEST PUSH2 0x13DE DUP5 DUP3 DUP6 PUSH2 0x1275 JUMP JUMPDEST POP SWAP4 SWAP3 POP POP POP JUMP JUMPDEST PUSH1 0x0 DUP3 PUSH1 0x1F DUP4 ADD SLT PUSH2 0x13FB JUMPI PUSH2 0x13FA PUSH2 0x11BF JUMP JUMPDEST JUMPDEST DUP2 CALLDATALOAD PUSH2 0x140B DUP5 DUP3 PUSH1 0x20 DUP7 ADD PUSH2 0x13A4 JUMP JUMPDEST SWAP2 POP POP SWAP3 SWAP2 POP POP JUMP JUMPDEST PUSH1 0x0 DUP1 PUSH1 0x40 DUP4 DUP6 SUB SLT ISZERO PUSH2 0x142B JUMPI PUSH2 0x142A PUSH2 0xF97 JUMP JUMPDEST JUMPDEST PUSH1 0x0 PUSH2 0x1439 DUP6 DUP3 DUP7 ADD PUSH2 0x135E JUMP JUMPDEST SWAP3 POP POP PUSH1 0x20 DUP4 ADD CALLDATALOAD PUSH8 0xFFFFFFFFFFFFFFFF DUP2 GT ISZERO PUSH2 0x145A JUMPI PUSH2 0x1459 PUSH2 0xF9C JUMP JUMPDEST JUMPDEST PUSH2 0x1466 DUP6 DUP3 DUP7 ADD PUSH2 0x13E6 JUMP JUMPDEST SWAP2 POP POP SWAP3 POP SWAP3 SWAP1 POP JUMP JUMPDEST PUSH1 0x0 PUSH1 0x20 DUP3 ADD SWAP1 POP PUSH2 0x1485 PUSH1 0x0 DUP4 ADD DUP5 PUSH2 0x1149 JUMP JUMPDEST SWAP3 SWAP2 POP POP JUMP JUMPDEST PUSH1 0x0 PUSH1 0x20 DUP3 DUP5 SUB SLT ISZERO PUSH2 0x14A1 JUMPI PUSH2 0x14A0 PUSH2 0xF97 JUMP JUMPDEST JUMPDEST PUSH1 0x0 DUP3 ADD CALLDATALOAD PUSH8 0xFFFFFFFFFFFFFFFF DUP2 GT ISZERO PUSH2 0x14BF JUMPI PUSH2 0x14BE PUSH2 0xF9C JUMP JUMPDEST JUMPDEST PUSH2 0x14CB DUP5 DUP3 DUP6 ADD PUSH2 0x13E6 JUMP JUMPDEST SWAP2 POP POP SWAP3 SWAP2 POP POP JUMP JUMPDEST PUSH2 0x14DD DUP2 PUSH2 0x133D JUMP JUMPDEST DUP3 MSTORE POP POP JUMP JUMPDEST PUSH1 0x0 PUSH1 0xFF DUP3 AND SWAP1 POP SWAP2 SWAP1 POP JUMP JUMPDEST PUSH2 0x14F9 DUP2 PUSH2 0x14E3 JUMP JUMPDEST DUP3 MSTORE POP POP JUMP JUMPDEST PUSH1 0x0 PUSH1 0x60 DUP3 ADD SWAP1 POP PUSH2 0x1514 PUSH1 0x0 DUP4 ADD DUP7 PUSH2 0x14D4 JUMP JUMPDEST PUSH2 0x1521 PUSH1 0x20 DUP4 ADD DUP6 PUSH2 0x14D4 JUMP JUMPDEST PUSH2 0x152E PUSH1 0x40 DUP4 ADD DUP5 PUSH2 0x14F0 JUMP JUMPDEST SWAP5 SWAP4 POP POP POP POP JUMP JUMPDEST PUSH1 0x0 PUSH1 0x20 DUP3 ADD SWAP1 POP PUSH2 0x154B PUSH1 0x0 DUP4 ADD DUP5 PUSH2 0x1164 JUMP JUMPDEST SWAP3 SWAP2 POP POP JUMP JUMPDEST PUSH1 0x0 PUSH1 0x20 DUP3 DUP5 SUB SLT ISZERO PUSH2 0x1567 JUMPI PUSH2 0x1566 PUSH2 0xF97 JUMP JUMPDEST JUMPDEST PUSH1 0x0 PUSH2 0x1575 DUP5 DUP3 DUP6 ADD PUSH2 0x135E JUMP JUMPDEST SWAP2 POP POP SWAP3 SWAP2 POP POP JUMP JUMPDEST PUSH1 0x0 PUSH1 0x20 DUP3 ADD SWAP1 POP PUSH2 0x1593 PUSH1 0x0 DUP4 ADD DUP5 PUSH2 0x14D4 JUMP JUMPDEST SWAP3 SWAP2 POP POP JUMP JUMPDEST PUSH32 0x55736572206E6F7420666F756E64000000000000000000000000000000000000 PUSH1 0x0 DUP3 ADD MSTORE POP JUMP JUMPDEST PUSH1 0x0 PUSH2 0x15CF PUSH1 0xE DUP4 PUSH2 0x10C4 JUMP JUMPDEST SWAP2 POP PUSH2 0x15DA DUP3 PUSH2 0x1599 JUMP JUMPDEST PUSH1 0x20 DUP3 ADD SWAP1 POP SWAP2 SWAP1 POP JUMP JUMPDEST PUSH1 0x0 PUSH1 0x20 DUP3 ADD SWAP1 POP DUP2 DUP2 SUB PUSH1 0x0 DUP4 ADD MSTORE PUSH2 0x15FE DUP2 PUSH2 0x15C2 JUMP JUMPDEST SWAP1 POP SWAP2 SWAP1 POP JUMP JUMPDEST PUSH32 0x4E487B7100000000000000000000000000000000000000000000000000000000 PUSH1 0x0 MSTORE PUSH1 0x22 PUSH1 0x4 MSTORE PUSH1 0x24 PUSH1 0x0 REVERT JUMPDEST PUSH1 0x0 PUSH1 0x2 DUP3 DIV SWAP1 POP PUSH1 0x1 DUP3 AND DUP1 PUSH2 0x164C JUMPI PUSH1 0x7F DUP3 AND SWAP2 POP JUMPDEST PUSH1 0x20 DUP3 LT DUP2 SUB PUSH2 0x165F JUMPI PUSH2 0x165E PUSH2 0x1605 JUMP JUMPDEST JUMPDEST POP SWAP2 SWAP1 POP JUMP JUMPDEST PUSH32 0x5573657220616C72656164792072656769737465726564000000000000000000 PUSH1 0x0 DUP3 ADD MSTORE POP JUMP JUMPDEST PUSH1 0x0 PUSH2 0x169B PUSH1 0x17 DUP4 PUSH2 0x10C4 JUMP JUMPDEST SWAP2 POP PUSH2 0x16A6 DUP3 PUSH2 0x1665 JUMP JUMPDEST PUSH1 0x20 DUP3 ADD SWAP1 POP SWAP2 SWAP1 POP JUMP JUMPDEST PUSH1 0x0 PUSH1 0x20 DUP3 ADD SWAP1 POP DUP2 DUP2 SUB PUSH1 0x0 DUP4 ADD MSTORE PUSH2 0x16CA DUP2 PUSH2 0x168E JUMP JUMPDEST SWAP1 POP SWAP2 SWAP1 POP JUMP JUMPDEST PUSH32 0x557365726E616D652063616E6E6F7420626520656D7074790000000000000000 PUSH1 0x0 DUP3 ADD MSTORE POP JUMP JUMPDEST PUSH1 0x0 PUSH2 0x1707 PUSH1 0x18 DUP4 PUSH2 0x10C4 JUMP JUMPDEST SWAP2 POP PUSH2 0x1712 DUP3 PUSH2 0x16D1 JUMP JUMPDEST PUSH1 0x20 DUP3 ADD SWAP1 POP SWAP2 SWAP1 POP JUMP JUMPDEST PUSH1 0x0 PUSH1 0x20 DUP3 ADD SWAP1 POP DUP2 DUP2 SUB PUSH1 0x0 DUP4 ADD MSTORE PUSH2 0x1736 DUP2 PUSH2 0x16FA JUMP JUMPDEST SWAP1 POP SWAP2 SWAP1 POP JUMP JUMPDEST PUSH1 0x0 DUP2 SWAP1 POP DUP2 PUSH1 0x0 MSTORE PUSH1 0x20 PUSH1 0x0 KECCAK256 SWAP1 POP SWAP2 SWAP1 POP JUMP JUMPDEST PUSH1 0x0 PUSH1 0x20 PUSH1 0x1F DUP4 ADD DIV SWAP1 POP SWAP2 SWAP1 POP JUMP JUMPDEST PUSH1 0x0 DUP3 DUP3 SHL SWAP1 POP SWAP3 SWAP2 POP POP JUMP JUMPDEST PUSH1 0x0 PUSH1 0x8 DUP4 MUL PUSH2 0x179F PUSH32 0xFFFFFFFFFFFFFFFFFFFFFFFFFFFFFFFFFFFFFFFFFFFFFFFFFFFFFFFFFFFFFFFF DUP3 PUSH2 0x1762 JUMP JUMPDEST PUSH2 0x17A9 DUP7 DUP4 PUSH2 0x1762 JUMP JUMPDEST SWAP6 POP DUP1 NOT DUP5 AND SWAP4 POP DUP1 DUP7 AND DUP5 OR SWAP3 POP POP POP SWAP4 SWAP3 POP POP POP JUMP JUMPDEST PUSH1 0x0 DUP2 SWAP1 POP SWAP2 SWAP1 POP JUMP JUMPDEST PUSH1 0x0 PUSH2 0x17E6 PUSH2 0x17E1 PUSH2 0x17DC DUP5 PUSH2 0xFA1 JUMP JUMPDEST PUSH2 0x17C1 JUMP JUMPDEST PUSH2 0xFA1 JUMP JUMPDEST SWAP1 POP SWAP2 SWAP1 POP JUMP JUMPDEST PUSH1 0x0 DUP2 SWAP1 POP SWAP2 SWAP1 POP JUMP JUMPDEST PUSH2 0x1800 DUP4 PUSH2 0x17CB JUMP JUMPDEST PUSH2 0x1814 PUSH2 0x180C DUP3 PUSH2 0x17ED JUMP JUMPDEST DUP5 DUP5 SLOAD PUSH2 0x176F JUMP JUMPDEST DUP3 SSTORE POP POP POP POP JUMP JUMPDEST PUSH1 0x0 SWAP1 JUMP JUMPDEST PUSH2 0x1829 PUSH2 0x181C JUMP JUMPDEST PUSH2 0x1834 DUP2 DUP5 DUP5 PUSH2 0x17F7 JUMP JUMPDEST POP POP POP JUMP JUMPDEST JUMPDEST DUP2 DUP2 LT ISZERO PUSH2 0x1858 JUMPI PUSH2 0x184D PUSH1 0x0 DUP3 PUSH2 0x1821 JUMP JUMPDEST PUSH1 0x1 DUP2 ADD SWAP1 POP PUSH2 0x183A JUMP JUMPDEST POP POP JUMP JUMPDEST PUSH1 0x1F DUP3 GT ISZERO PUSH2 0x189D JUMPI PUSH2 0x186E DUP2 PUSH2 0x173D JUMP JUMPDEST PUSH2 0x1877 DUP5 PUSH2 0x1752 JUMP JUMPDEST DUP2 ADD PUSH1 0x20 DUP6 LT ISZERO PUSH2 0x1886 JUMPI DUP2 SWAP1 POP JUMPDEST PUSH2 0x189A PUSH2 0x1892 DUP6 PUSH2 0x1752 JUMP JUMPDEST DUP4 ADD DUP3 PUSH2 0x1839 JUMP JUMPDEST POP POP JUMPDEST POP POP POP JUMP JUMPDEST PUSH1 0x0 DUP3 DUP3 SHR SWAP1 POP SWAP3 SWAP2 POP POP JUMP JUMPDEST PUSH1 0x0 PUSH2 0x18C0 PUSH1 0x0 NOT DUP5 PUSH1 0x8 MUL PUSH2 0x18A2 JUMP JUMPDEST NOT DUP1 DUP4 AND SWAP2 POP POP SWAP3 SWAP2 POP POP JUMP JUMPDEST PUSH1 0x0 PUSH2 0x18D9 DUP4 DUP4 PUSH2 0x18AF JUMP JUMPDEST SWAP2 POP DUP3 PUSH1 0x2 MUL DUP3 OR SWAP1 POP SWAP3 SWAP2 POP POP JUMP JUMPDEST PUSH2 0x18F2 DUP3 PUSH2 0x10B9 JUMP JUMPDEST PUSH8 0xFFFFFFFFFFFFFFFF DUP2 GT ISZERO PUSH2 0x190B JUMPI PUSH2 0x190A PUSH2 0x11C9 JUMP JUMPDEST JUMPDEST PUSH2 0x1915 DUP3 SLOAD PUSH2 0x1634 JUMP JUMPDEST PUSH2 0x1920 DUP3 DUP3 DUP6 PUSH2 0x185C JUMP JUMPDEST PUSH1 0x0 PUSH1 0x20 SWAP1 POP PUSH1 0x1F DUP4 GT PUSH1 0x1 DUP2 EQ PUSH2 0x1953 JUMPI PUSH1 0x0 DUP5 ISZERO PUSH2 0x1941 JUMPI DUP3 DUP8 ADD MLOAD SWAP1 POP JUMPDEST PUSH2 0x194B DUP6 DUP3 PUSH2 0x18CD JUMP JUMPDEST DUP7 SSTORE POP PUSH2 0x19B3 JUMP JUMPDEST PUSH1 0x1F NOT DUP5 AND PUSH2 0x1961 DUP7 PUSH2 0x173D JUMP JUMPDEST PUSH1 0x0 JUMPDEST DUP3 DUP2 LT ISZERO PUSH2 0x1989 JUMPI DUP5 DUP10 ADD MLOAD DUP3 SSTORE PUSH1 0x1 DUP3 ADD SWAP2 POP PUSH1 0x20 DUP6 ADD SWAP5 POP PUSH1 0x20 DUP2 ADD SWAP1 POP PUSH2 0x1964 JUMP JUMPDEST DUP7 DUP4 LT ISZERO PUSH2 0x19A6 JUMPI DUP5 DUP10 ADD MLOAD PUSH2 0x19A2 PUSH1 0x1F DUP10 AND DUP3 PUSH2 0x18AF JUMP JUMPDEST DUP4 SSTORE POP JUMPDEST PUSH1 0x1 PUSH1 0x2 DUP9 MUL ADD DUP9 SSTORE POP POP POP JUMPDEST POP POP POP POP POP POP JUMP JUMPDEST PUSH1 0x0 PUSH1 0x40 DUP3 ADD SWAP1 POP DUP2 DUP2 SUB PUSH1 0x0 DUP4 ADD MSTORE PUSH2 0x19D5 DUP2 DUP6 PUSH2 0x1110 JUMP JUMPDEST SWAP1 POP PUSH2 0x19E4 PUSH1 0x20 DUP4 ADD DUP5 PUSH2 0x1149 JUMP JUMPDEST SWAP4 SWAP3 POP POP POP JUMP JUMPDEST PUSH32 0x55736572206E6F74207265676973746572656400000000000000000000000000 PUSH1 0x0 DUP3 ADD MSTORE POP JUMP JUMPDEST PUSH1 0x0 PUSH2 0x1A21 PUSH1 0x13 DUP4 PUSH2 0x10C4 JUMP JUMPDEST SWAP2 POP PUSH2 0x1A2C DUP3 PUSH2 0x19EB JUMP JUMPDEST PUSH1 0x20 DUP3 ADD SWAP1 POP SWAP2 SWAP1 POP JUMP JUMPDEST PUSH1 0x0 PUSH1 0x20 DUP3 ADD SWAP1 POP DUP2 DUP2 SUB PUSH1 0x0 DUP4 ADD MSTORE PUSH2 0x1A50 DUP2 PUSH2 0x1A14 JUMP JUMPDEST SWAP1 POP SWAP2 SWAP1 POP JUMP JUMPDEST PUSH1 0x0 PUSH1 0x80 DUP3 ADD SWAP1 POP PUSH2 0x1A6C PUSH1 0x0 DUP4 ADD DUP8 PUSH2 0x14D4 JUMP JUMPDEST PUSH2 0x1A79 PUSH1 0x20 DUP4 ADD DUP7 PUSH2 0x14F0 JUMP JUMPDEST PUSH2 0x1A86 PUSH1 0x40 DUP4 ADD DUP6 PUSH2 0x14D4 JUMP JUMPDEST PUSH2 0x1A93 PUSH1 0x60 DUP4 ADD DUP5 PUSH2 0x14D4 JUMP JUMPDEST SWAP6 SWAP5 POP POP POP POP POP JUMP JUMPDEST PUSH32 0x496E76616C6964207369676E6174757265206C656E6774680000000000000000 PUSH1 0x0 DUP3 ADD MSTORE POP JUMP JUMPDEST PUSH1 0x0 PUSH2 0x1AD2 PUSH1 0x18 DUP4 PUSH2 0x10C4 JUMP JUMPDEST SWAP2 POP PUSH2 0x1ADD DUP3 PUSH2 0x1A9C JUMP JUMPDEST PUSH1 0x20 DUP3 ADD SWAP1 POP SWAP2 SWAP1 POP JUMP JUMPDEST PUSH1 0x0 PUSH1 0x20 DUP3 ADD SWAP1 POP DUP2 DUP2 SUB PUSH1 0x0 DUP4 ADD MSTORE PUSH2 0x1B01 DUP2 PUSH2 0x1AC5 JUMP JUMPDEST SWAP1 POP SWAP2 SWAP1 POP JUMP JUMPDEST PUSH32 0x55736572206163636F756E742069732064656163746976617465640000000000 PUSH1 0x0 DUP3 ADD MSTORE POP JUMP JUMPDEST PUSH1 0x0 PUSH2 0x1B3E PUSH1 0x1B DUP4 PUSH2 0x10C4 JUMP JUMPDEST SWAP2 POP PUSH2 0x1B49 DUP3 PUSH2 0x1B08 JUMP JUMPDEST PUSH1 0x20 DUP3 ADD SWAP1 POP SWAP2 SWAP1 POP JUMP JUMPDEST PUSH1 0x0 PUSH1 0x20 DUP3 ADD SWAP1 POP DUP2 DUP2 SUB PUSH1 0x0 DUP4 ADD MSTORE PUSH2 0x1B6D DUP2 PUSH2 0x1B31 JUMP JUMPDEST SWAP1 POP SWAP2 SWAP1 POP JUMP JUMPDEST PUSH1 0x0 DUP2 SWAP1 POP SWAP3 SWAP2 POP POP JUMP JUMPDEST PUSH32 0x19457468657265756D205369676E6564204D6573736167653A0A333200000000 PUSH1 0x0 DUP3 ADD MSTORE POP JUMP JUMPDEST PUSH1 0x0 PUSH2 0x1BB5 PUSH1 0x1C DUP4 PUSH2 0x1B74 JUMP JUMPDEST SWAP2 POP PUSH2 0x1BC0 DUP3 PUSH2 0x1B7F JUMP JUMPDEST PUSH1 0x1C DUP3 ADD SWAP1 POP SWAP2 SWAP1 POP JUMP JUMPDEST PUSH1 0x0 DUP2 SWAP1 POP SWAP2 SWAP1 POP JUMP JUMPDEST PUSH2 0x1BE6 PUSH2 0x1BE1 DUP3 PUSH2 0x133D JUMP JUMPDEST PUSH2 0x1BCB JUMP JUMPDEST DUP3 MSTORE POP POP JUMP JUMPDEST PUSH1 0x0 PUSH2 0x1BF7 DUP3 PUSH2 0x1BA8 JUMP JUMPDEST SWAP2 POP PUSH2 0x1C03 DUP3 DUP5 PUSH2 0x1BD5 JUMP JUMPDEST PUSH1 0x20 DUP3 ADD SWAP2 POP DUP2 SWAP1 POP SWAP3 SWAP2 POP POP JUMP INVALID LOG2 PUSH5 0x6970667358 0x22 SLT KECCAK256 TSTORE SWAP9 PUSH23 0xCE917ACF4CA74D8AC0CEC372CE8E960D32A1E776F64937 CHAINID CREATE2 0x4B TIMESTAMP DUP3 PUSH21 0x64736F6C634300081E003300000000000000000000 "
				},
				"gasEstimates": {
					"creation": {
						"codeDepositCost": "1448000",
						"executionCost": "1513",
						"totalCost": "1449513"
					},
					"external": {
						"deactivateAccount()": "28387",
						"getEthSignedMessageHash(bytes32)": "infinite",
						"getMyInfo()": "infinite",
						"getTotalUsers()": "2556",
						"getUserInfo(address)": "infinite",
						"isRegistered(address)": "2912",
						"recoverSigner(bytes32,bytes)": "infinite",
						"registerUser(string)": "infinite",
						"splitSignature(bytes)": "infinite",
						"updateUsername(string)": "infinite",
						"userAddresses(uint256)": "4957",
						"users(address)": "infinite",
						"verifySignature(bytes32,bytes)": "infinite"
					}
				},
				"methodIdentifiers": {
					"deactivateAccount()": "e040e9a0",
					"getEthSignedMessageHash(bytes32)": "fa540801",
					"getMyInfo()": "7daa10ce",
					"getTotalUsers()": "9be572f6",
					"getUserInfo(address)": "6386c1c7",
					"isRegistered(address)": "c3c5a547",
					"recoverSigner(bytes32,bytes)": "97aba7f9",
					"registerUser(string)": "704f1b94",
					"splitSignature(bytes)": "a7bb5803",
					"updateUsername(string)": "c96cea70",
					"userAddresses(uint256)": "502c9bd5",
					"users(address)": "a87430ba",
					"verifySignature(bytes32,bytes)": "daca6f78"
				}
			},
			"storageLayout": {
				"storage": [
					{
						"astId": 15,
						"contract": "UserAuth.sol:UserAuth",
						"label": "users",
						"offset": 0,
						"slot": "0",
						"type": "t_mapping(t_address,t_struct(User)10_storage)"
					},
					{
						"astId": 19,
						"contract": "UserAuth.sol:UserAuth",
						"label": "isRegistered",
						"offset": 0,
						"slot": "1",
						"type": "t_mapping(t_address,t_bool)"
					},
					{
						"astId": 22,
						"contract": "UserAuth.sol:UserAuth",
						"label": "userAddresses",
						"offset": 0,
						"slot": "2",
						"type": "t_array(t_address)dyn_storage"
					}
				],
				"types": {
					"t_address": {
						"encoding": "inplace",
						"label": "address",
						"numberOfBytes": "20"
					},
					"t_array(t_address)dyn_storage": {
						"base": "t_address",
						"encoding": "dynamic_array",
						"label": "address[]",
						"numberOfBytes": "32"
					},
					"t_bool": {
						"encoding": "inplace",
						"label": "bool",
						"numberOfBytes": "1"
					},
					"t_mapping(t_address,t_bool)": {
						"encoding": "mapping",
						"key": "t_address",
						"label": "mapping(address => bool)",
						"numberOfBytes": "32",
						"value": "t_bool"
					},
					"t_mapping(t_address,t_struct(User)10_storage)": {
						"encoding": "mapping",
						"key": "t_address",
						"label": "mapping(address => struct UserAuth.User)",
						"numberOfBytes": "32",
						"value": "t_struct(User)10_storage"
					},
					"t_string_storage": {
						"encoding": "bytes",
						"label": "string",
						"numberOfBytes": "32"
					},
					"t_struct(User)10_storage": {
						"encoding": "inplace",
						"label": "struct UserAuth.User",
						"members": [
							{
								"astId": 3,
								"contract": "UserAuth.sol:UserAuth",
								"label": "userAddress",
								"offset": 0,
								"slot": "0",
								"type": "t_address"
							},
							{
								"astId": 5,
								"contract": "UserAuth.sol:UserAuth",
								"label": "username",
								"offset": 0,
								"slot": "1",
								"type": "t_string_storage"
							},
							{
								"astId": 7,
								"contract": "UserAuth.sol:UserAuth",
								"label": "registeredAt",
								"offset": 0,
								"slot": "2",
								"type": "t_uint256"
							},
							{
								"astId": 9,
								"contract": "UserAuth.sol:UserAuth",
								"label": "isActive",
								"offset": 0,
								"slot": "3",
								"type": "t_bool"
							}
						],
						"numberOfBytes": "128"
					},
					"t_uint256": {
						"encoding": "inplace",
						"label": "uint256",
						"numberOfBytes": "32"
					}
				}
			},
			"userdoc": {
				"kind": "user",
				"methods": {},
				"version": 1
			}
		}
	}
}