{"contracts/UserAuth.sol":{"UserAuth":{"abi":[{"anonymous":false,"inputs":[{"indexed":true,"internalType":"address","name":"userAddress","type":"address"},{"indexed":false,"internalType":"uint256","name":"docId","type":"uint256"},{"indexed":false,"internalType":"string","name":"docType","type":"string"},{"indexed":false,"internalType":"string","name":"fileName","type":"string"}],"name":"DocumentUploaded","type":"event"},{"anonymous":false,"inputs":[{"indexed":true,"internalType":"address","name":"userAddress","type":"address"},{"indexed":false,"internalType":"uint256","name":"timestamp","type":"uint256"}],"name":"UserDeactivated","type":"event"},{"anonymous":false,"inputs":[{"indexed":true,"internalType":"address","name":"userAddress","type":"address"},{"indexed":false,"internalType":"string","name":"username","type":"string"},{"indexed":false,"internalType":"uint256","name":"timestamp","type":"uint256"}],"name":"UserRegistered","type":"event"},{"anonymous":false,"inputs":[{"indexed":true,"internalType":"address","name":"userAddress","type":"address"},{"indexed":false,"internalType":"string","name":"username","type":"string"},{"indexed":false,"internalType":"uint256","name":"timestamp","type":"uint256"}],"name":"UserUpdated","type":"event"},{"inputs":[{"internalType":"string","name":"_docType","type":"string"},{"internalType":"string","name":"_fileName","type":"string"},{"internalType":"string","name":"_ipfsHash","type":"string"},{"internalType":"bytes32","name":"_contentHash","type":"bytes32"},{"internalType":"string","name":"_verificationId","type":"string"}],"name":"addDocument","outputs":[],"stateMutability":"nonpayable","type":"function"},{"inputs":[],"name":"deactivateAccount","outputs":[],"stateMutability":"nonpayable","type":"function"},{"inputs":[{"internalType":"bytes32","name":"messageHash","type":"bytes32"}],"name":"getEthSignedMessageHash","outputs":[{"internalType":"bytes32","name":"","type":"bytes32"}],"stateMutability":"pure","type":"function"},{"inputs":[],"name":"getMyDocuments","outputs":[{"components":[{"internalType":"uint256","name":"id","type":"uint256"},{"internalType":"string","name":"docType","type":"string"},{"internalType":"string","name":"fileName","type":"string"},{"internalType":"string","name":"ipfsHash","type":"string"},{"internalType":"bytes32","name":"contentHash","type":"bytes32"},{"internalType":"string","name":"verificationId","type":"string"},{"internalType":"uint256","name":"uploadedAt","type":"uint256"}],"internalType":"struct UserAuth.Document[]","name":"","type":"tuple[]"}],"stateMutability":"view","type":"function"},{"inputs":[],"name":"getMyInfo","outputs":[{"internalType":"address","name":"userAddress","type":"address"},{"internalType":"string","name":"username","type":"string"},{"internalType":"uint256","name":"registeredAt","type":"uint256"},{"internalType":"bool","name":"isActive","type":"bool"}],"stateMutability":"view","type":"function"},{"inputs":[],"name":"getTotalUsers","outputs":[{"internalType":"uint256","name":"","type":"uint256"}],"stateMutability":"view","type":"function"},{"inputs":[{"internalType":"address","name":"_userAddress","type":"address"}],"name":"getUserDocuments","outputs":[{"components":[{"internalType":"uint256","name":"id","type":"uint256"},{"internalType":"string","name":"docType","type":"string"},{"internalType":"string","name":"fileName","type":"string"},{"internalType":"string","name":"ipfsHash","type":"string"},{"internalType":"bytes32","name":"contentHash","type":"bytes32"},{"internalType":"string","name":"verificationId","type":"string"},{"internalType":"uint256","name":"uploadedAt","type":"uint256"}],"internalType":"struct UserAuth.Document[]","name":"","type":"tuple[]"}],"stateMutability":"view","type":"function"},{"inputs":[{"internalType":"address","name":"_userAddress","type":"address"}],"name":"getUserInfo","outputs":[{"internalType":"address","name":"userAddress","type":"address"},{"internalType":"string","name":"username","type":"string"},{"internalType":"uint256","name":"registeredAt","type":"uint256"},{"internalType":"bool","name":"isActive","type":"bool"}],"stateMutability":"view","type":"function"},{"inputs":[{"internalType":"address","name":"","type":"address"}],"name":"isRegistered","outputs":[{"internalType":"bool","name":"","type":"bool"}],"stateMutability":"view","type":"function"},{"inputs":[{"internalType":"bytes32","name":"ethSignedMessageHash","type":"bytes32"},{"internalType":"bytes","name":"signature","type":"bytes"}],"name":"recoverSigner","outputs":[{"internalType":"address","name":"","type":"address"}],"stateMutability":"pure","type":"function"},{"inputs":[{"internalType":"string","name":"_username","type":"string"}],"name":"registerUser","outputs":[],"stateMutability":"nonpayable","type":"function"},{"inputs":[{"internalType":"bytes","name":"sig","type":"bytes"}],"name":"splitSignature","outputs":[{"internalType":"bytes32","name":"r","type":"bytes32"},{"internalType":"bytes32","name":"s","type":"bytes32"},{"internalType":"uint8","name":"v","type":"uint8"}],"stateMutability":"pure","type":"function"},{"inputs":[{"internalType":"string","name":"_newUsername","type":"string"}],"name":"updateUsername","outputs":[],"stateMutability":"nonpayable","type":"function"},{"inputs":[{"internalType":"uint256","name":"","type":"uint256"}],"name":"userAddresses","outputs":[{"internalType":"address","name":"","type":"address"}],"stateMutability":"view","type":"function"},{"inputs":[{"internalType":"address","name":"","type":"address"},{"internalType":"uint256","name":"","type":"uint256"}],"name":"userDocuments","outputs":[{"internalType":"uint256","name":"id","type":"uint256"},{"internalType":"string","name":"docType","type":"string"},{"internalType":"string","name":"fileName","type":"string"},{"internalType":"string","name":"ipfsHash","type":"string"},{"internalType":"bytes32","name":"contentHash","type":"bytes32"},{"internalType":"string","name":"verificationId","type":"string"},{"internalType":"uint256","name":"uploadedAt","type":"uint256"}],"stateMutability":"view","type":"function"},{"inputs":[{"internalType":"address","name":"","type":"address"}],"name":"users","outputs":[{"internalType":"address","name":"userAddress","type":"address"},{"internalType":"string","name":"username","type":"string"},{"internalType":"uint256","name":"registeredAt","type":"uint256"},{"internalType":"bool","name":"isActive","type":"bool"}],"stateMutability":"view","type":"function"},{"inputs":[{"internalType":"bytes32","name":"message","type":"bytes32"},{"internalType":"bytes","name":"signature","type":"bytes"}],"name":"verifySignature","outputs":[{"internalType":"address","name":"","type":"address"}],"stateMutability":"pure","type":"function"}],"evm":{"bytecode":{"linkReferences":{},"object":"608060405234801561001057600080fd5b50611b78806100206000396000f3fe608060405234801561001057600080fd5b506004361061010b5760003560e01c806397aba7f9116100a2578063c3c5a54711610071578063c3c5a5471461024a578063c96cea701461027d578063daca6f7814610290578063e040e9a0146102a3578063fa540801146102ab57600080fd5b806397aba7f9146101e15780639be572f6146101f4578063a7bb580314610206578063a87430ba1461023757600080fd5b8063704f1b94116100de578063704f1b941461019e5780637daa10ce146101b157806390a4b162146101b95780639111976e146101d957600080fd5b80631521578414610110578063502c9bd514610125578063577a1b92146101555780636386c1c71461017b575b600080fd5b61012361011e3660046115f4565b6102be565b005b6101386101333660046116ab565b61046b565b6040516001600160a01b0390911681526020015b60405180910390f35b6101686101633660046116e0565b610495565b60405161014c9796959493929190611750565b61018e6101893660046117be565b610714565b60405161014c94939291906117e0565b6101236101ac36600461181c565b610876565b61018e610a3a565b6101cc6101c73660046117be565b610b6c565b60405161014c9190611851565b6101cc610e7d565b6101386101ef36600461192e565b61117a565b6003545b60405190815260200161014c565b61021961021436600461181c565b6111f9565b60408051938452602084019290925260ff169082015260600161014c565b61018e6102453660046117be565b61126d565b61026d6102583660046117be565b60016020526000908152604090205460ff1681565b604051901515815260200161014c565b61012361028b36600461181c565b61132c565b61013861029e36600461192e565b611461565b610123611481565b6101f86102b93660046116ab565b6114fe565b3360009081526001602052604090205460ff166102f65760405162461bcd60e51b81526004016102ed90611975565b60405180910390fd5b3360009081526020819052604090206003015460ff166103585760405162461bcd60e51b815260206004820152601b60248201527f55736572206163636f756e74206973206465616374697661746564000000000060448201526064016102ed565b6040805160e0810182523360009081526002602081815284832080548086528286018c81529686018b9052606086018a90526080860189905260a086018890524260c0870152928252600180840182559084529220835160079092020190815592519192839290918201906103cd9082611a2b565b50604082015160028201906103e29082611a2b565b50606082015160038201906103f79082611a2b565b506080820151600482015560a082015160058201906104169082611a2b565b5060c09190910151600690910155805160405133917fa9087cdc21e5c66543fde424b69d7d1d27a930228e18086258e84d24c5d2c3149161045b91908a908a90611aeb565b60405180910390a2505050505050565b6003818154811061047b57600080fd5b6000918252602090912001546001600160a01b0316905081565b600260205281600052604060002081815481106104b157600080fd5b9060005260206000209060070201600091509150508060000154908060010180546104db906119a2565b80601f0160208091040260200160405190810160405280929190818152602001828054610507906119a2565b80156105545780601f1061052957610100808354040283529160200191610554565b820191906000526020600020905b81548152906001019060200180831161053757829003601f168201915b505050505090806002018054610569906119a2565b80601f0160208091040260200160405190810160405280929190818152602001828054610595906119a2565b80156105e25780601f106105b7576101008083540402835291602001916105e2565b820191906000526020600020905b8154815290600101906020018083116105c557829003601f168201915b5050505050908060030180546105f7906119a2565b80601f0160208091040260200160405190810160405280929190818152602001828054610623906119a2565b80156106705780601f1061064557610100808354040283529160200191610670565b820191906000526020600020905b81548152906001019060200180831161065357829003601f168201915b50505050509080600401549080600501805461068b906119a2565b80601f01602080910402602001604051908101604052809291908181526020018280546106b7906119a2565b80156107045780601f106106d957610100808354040283529160200191610704565b820191906000526020600020905b8154815290600101906020018083116106e757829003601f168201915b5050505050908060060154905087565b6001600160a01b0381166000908152600160205260408120546060908290819060ff166107745760405162461bcd60e51b815260206004820152600e60248201526d155cd95c881b9bdd08199bdd5b9960921b60448201526064016102ed565b6001600160a01b03808616600090815260208181526040808320815160808101909252805490941681526001840180549394919391928401916107b6906119a2565b80601f01602080910402602001604051908101604052809291908181526020018280546107e2906119a2565b801561082f5780601f106108045761010080835404028352916020019161082f565b820191906000526020600020905b81548152906001019060200180831161081257829003601f168201915b5050509183525050600282015460208083019190915260039092015460ff161515604091820152825191830151908301516060909301519199909850919650945092505050565b3360009081526001602052604090205460ff16156108d65760405162461bcd60e51b815260206004820152601760248201527f5573657220616c7265616479207265676973746572656400000000000000000060448201526064016102ed565b60008151116109225760405162461bcd60e51b8152602060048201526018602482015277557365726e616d652063616e6e6f7420626520656d70747960401b60448201526064016102ed565b60408051608081018252338082526020808301858152428486015260016060850181905260009384529183905293909120825181546001600160a01b0319166001600160a01b039091161781559251919291908201906109829082611a2b565b5060408281015160028301556060909201516003918201805491151560ff19928316179055336000818152600160208190528582208054909416811790935583549283018455929092527fc2575a0e9e593c00f959f8c92f12db2869c3395a3b0502d05e2516446f71f85b0180546001600160a01b0319168217905590517f89105a1c6a3c2fbd471255c66a31ccab604af5697f67d7e2e9a0028c5e4dbd9190610a2f9084904290611b20565b60405180910390a250565b336000908152600160205260408120546060908290819060ff16610a705760405162461bcd60e51b81526004016102ed90611975565b3360009081526020818152604080832081516080810190925280546001600160a01b031682526001810180549293919291840191610aad906119a2565b80601f0160208091040260200160405190810160405280929190818152602001828054610ad9906119a2565b8015610b265780601f10610afb57610100808354040283529160200191610b26565b820191906000526020600020905b815481529060010190602001808311610b0957829003601f168201915b5050509183525050600282015460208083019190915260039092015460ff1615156040918201528251918301519083015160609093015191989097509195509350915050565b6001600160a01b03811660009081526001602052604090205460609060ff16610ba75760405162461bcd60e51b81526004016102ed90611975565b6001600160a01b038216600090815260026020908152604080832080548251818502810185019093528083529193909284015b82821015610e7257838290600052602060002090600702016040518060e001604052908160008201548152602001600182018054610c17906119a2565b80601f0160208091040260200160405190810160405280929190818152602001828054610c43906119a2565b8015610c905780601f10610c6557610100808354040283529160200191610c90565b820191906000526020600020905b815481529060010190602001808311610c7357829003601f168201915b50505050508152602001600282018054610ca9906119a2565b80601f0160208091040260200160405190810160405280929190818152602001828054610cd5906119a2565b8015610d225780601f10610cf757610100808354040283529160200191610d22565b820191906000526020600020905b815481529060010190602001808311610d0557829003601f168201915b50505050508152602001600382018054610d3b906119a2565b80601f0160208091040260200160405190810160405280929190818152602001828054610d67906119a2565b8015610db45780601f10610d8957610100808354040283529160200191610db4565b820191906000526020600020905b815481529060010190602001808311610d9757829003601f168201915b5050505050815260200160048201548152602001600582018054610dd7906119a2565b80601f0160208091040260200160405190810160405280929190818152602001828054610e03906119a2565b8015610e505780601f10610e2557610100808354040283529160200191610e50565b820191906000526020600020905b815481529060010190602001808311610e3357829003601f168201915b5050505050815260200160068201548152505081526020019060010190610bda565b505050509050919050565b3360009081526001602052604090205460609060ff16610eaf5760405162461bcd60e51b81526004016102ed90611975565b33600090815260026020908152604080832080548251818502810185019093528083529193909284015b8282101561117157838290600052602060002090600702016040518060e001604052908160008201548152602001600182018054610f16906119a2565b80601f0160208091040260200160405190810160405280929190818152602001828054610f42906119a2565b8015610f8f5780601f10610f6457610100808354040283529160200191610f8f565b820191906000526020600020905b815481529060010190602001808311610f7257829003601f168201915b50505050508152602001600282018054610fa8906119a2565b80601f0160208091040260200160405190810160405280929190818152602001828054610fd4906119a2565b80156110215780601f10610ff657610100808354040283529160200191611021565b820191906000526020600020905b81548152906001019060200180831161100457829003601f168201915b5050505050815260200160038201805461103a906119a2565b80601f0160208091040260200160405190810160405280929190818152602001828054611066906119a2565b80156110b35780601f10611088576101008083540402835291602001916110b3565b820191906000526020600020905b81548152906001019060200180831161109657829003601f168201915b50505050508152602001600482015481526020016005820180546110d6906119a2565b80601f0160208091040260200160405190810160405280929190818152602001828054611102906119a2565b801561114f5780601f106111245761010080835404028352916020019161114f565b820191906000526020600020905b81548152906001019060200180831161113257829003601f168201915b5050505050815260200160068201548152505081526020019060010190610ed9565b50505050905090565b600080600080611189856111f9565b6040805160008152602081018083528b905260ff8316918101919091526060810184905260808101839052929550909350915060019060a0016020604051602081039080840390855afa1580156111e4573d6000803e3d6000fd5b5050604051601f190151979650505050505050565b6000806000835160411461124f5760405162461bcd60e51b815260206004820152601860248201527f496e76616c6964207369676e6174757265206c656e677468000000000000000060448201526064016102ed565b50505060208101516040820151606090920151909260009190911a90565b600060208190529081526040902080546001820180546001600160a01b039092169291611299906119a2565b80601f01602080910402602001604051908101604052809291908181526020018280546112c5906119a2565b80156113125780601f106112e757610100808354040283529160200191611312565b820191906000526020600020905b8154815290600101906020018083116112f557829003601f168201915b50505050600283015460039093015491929160ff16905084565b3360009081526001602052604090205460ff1661135b5760405162461bcd60e51b81526004016102ed90611975565b3360009081526020819052604090206003015460ff166113bd5760405162461bcd60e51b815260206004820152601b60248201527f55736572206163636f756e74206973206465616374697661746564000000000060448201526064016102ed565b60008151116114095760405162461bcd60e51b8152602060048201526018602482015277557365726e616d652063616e6e6f7420626520656d70747960401b60448201526064016102ed565b3360009081526020819052604090206001016114258282611a2b565b50336001600160a01b03167f429ad3a7ede99d93a72d6f0ba190681a2763d681f984e2f299af21ca35caebdb8242604051610a2f929190611b20565b60008061146d846114fe565b9050611479818461117a565b949350505050565b3360009081526001602052604090205460ff166114b05760405162461bcd60e51b81526004016102ed90611975565b3360008181526020818152604091829020600301805460ff1916905590514281527f0a3c4dd3ee5277d6eada470cf9b47a480953120ecafcbbdc14bde6f8a6248930910160405180910390a2565b6040517f19457468657265756d205369676e6564204d6573736167653a0a3332000000006020820152603c8101829052600090605c01604051602081830303815290604052805190602001209050919050565b634e487b7160e01b600052604160045260246000fd5b600082601f83011261157857600080fd5b813567ffffffffffffffff8082111561159357611593611551565b604051601f8301601f19908116603f011681019082821181831017156115bb576115bb611551565b816040528381528660208588010111156115d457600080fd5b836020870160208301376000602085830101528094505050505092915050565b600080600080600060a0868803121561160c57600080fd5b853567ffffffffffffffff8082111561162457600080fd5b61163089838a01611567565b9650602088013591508082111561164657600080fd5b61165289838a01611567565b9550604088013591508082111561166857600080fd5b61167489838a01611567565b945060608801359350608088013591508082111561169157600080fd5b5061169e88828901611567565b9150509295509295909350565b6000602082840312156116bd57600080fd5b5035919050565b80356001600160a01b03811681146116db57600080fd5b919050565b600080604083850312156116f357600080fd5b6116fc836116c4565b946020939093013593505050565b6000815180845260005b8181101561173057602081850181015186830182015201611714565b506000602082860101526020601f19601f83011685010191505092915050565b87815260e06020820152600061176960e083018961170a565b828103604084015261177b818961170a565b9050828103606084015261178f818861170a565b905085608084015282810360a08401526117a9818661170a565b9150508260c083015298975050505050505050565b6000602082840312156117d057600080fd5b6117d9826116c4565b9392505050565b6001600160a01b03851681526080602082018190526000906118049083018661170a565b60408301949094525090151560609091015292915050565b60006020828403121561182e57600080fd5b813567ffffffffffffffff81111561184557600080fd5b61147984828501611567565b60006020808301818452808551808352604092508286019150828160051b87010184880160005b8381101561192057603f19898403018552815160e08151855288820151818a8701526118a68287018261170a565b91505087820151858203898701526118be828261170a565b915050606080830151868303828801526118d8838261170a565b92505050608080830151818701525060a080830151868303828801526118fe838261170a565b60c0948501519790940196909652505094870194925090860190600101611878565b509098975050505050505050565b6000806040838503121561194157600080fd5b82359150602083013567ffffffffffffffff81111561195f57600080fd5b61196b85828601611567565b9150509250929050565b602080825260139082015272155cd95c881b9bdd081c9959da5cdd195c9959606a1b604082015260600190565b600181811c908216806119b657607f821691505b6020821081036119d657634e487b7160e01b600052602260045260246000fd5b50919050565b601f821115611a2657600081815260208120601f850160051c81016020861015611a035750805b601f850160051c820191505b81811015611a2257828155600101611a0f565b5050505b505050565b815167ffffffffffffffff811115611a4557611a45611551565b611a5981611a5384546119a2565b846119dc565b602080601f831160018114611a8e5760008415611a765750858301515b600019600386901b1c1916600185901b178555611a22565b600085815260208120601f198616915b82811015611abd57888601518255948401946001909101908401611a9e565b5085821015611adb5787850151600019600388901b60f8161c191681555b5050505050600190811b01905550565b838152606060208201526000611b04606083018561170a565b8281036040840152611b16818561170a565b9695505050505050565b604081526000611b33604083018561170a565b9050826020830152939250505056fea2646970667358221220485653787e4fa770decc9670b521121a38fb0eb1cc97be9fbccfecfca441c93764736f6c63430008140033","opcodes":"PUSH1 0x80 PUSH1 0x40 MSTORE CALLVALUE DUP1 ISZERO PUSH2 0x10 JUMPI PUSH1 0x0 DUP1 REVERT JUMPDEST POP PUSH2 0x1B78 DUP1 PUSH2 0x20 PUSH1 0x0 CODECOPY PUSH1 0x0 RETURN INVALID PUSH1 0x80 PUSH1 0x40 MSTORE CALLVALUE DUP1 ISZERO PUSH2 0x10 JUMPI PUSH1 0x0 DUP1 REVERT JUMPDEST POP PUSH1 0x4 CALLDATASIZE LT PUSH2 0x10B JUMPI PUSH1 0x0 CALLDATALOAD PUSH1 0xE0 SHR DUP1 PUSH4 0x97ABA7F9 GT PUSH2 0xA2 JUMPI DUP1 PUSH4 0xC3C5A547 GT PUSH2 0x71 JUMPI DUP1 PUSH4 0xC3C5A547 EQ PUSH2 0x24A JUMPI DUP1 PUSH4 0xC96CEA70 EQ PUSH2 0x27D JUMPI DUP1 PUSH4 0xDACA6F78 EQ PUSH2 0x290 JUMPI DUP1 PUSH4 0xE040E9A0 EQ PUSH2 0x2A3 JUMPI DUP1 PUSH4 0xFA540801 EQ PUSH2 0x2AB JUMPI PUSH1 0x0 DUP1 REVERT JUMPDEST DUP1 PUSH4 0x97ABA7F9 EQ PUSH2 0x1E1 JUMPI DUP1 PUSH4 0x9BE572F6 EQ PUSH2 0x1F4 JUMPI DUP1 PUSH4 0xA7BB5803 EQ PUSH2 0x206 JUMPI DUP1 PUSH4 0xA87430BA EQ PUSH2 0x237 JUMPI PUSH1 0x0 DUP1 REVERT JUMPDEST DUP1 PUSH4 0x704F1B94 GT PUSH2 0xDE JUMPI DUP1 PUSH4 0x704F1B94 EQ PUSH2 0x19E JUMPI DUP1 PUSH4 0x7DAA10CE EQ PUSH2 0x1B1 JUMPI DUP1 PUSH4 0x90A4B162 EQ PUSH2 0x1B9 JUMPI DUP1 PUSH4 0x9111976E EQ PUSH2 0x1D9 JUMPI PUSH1 0x0 DUP1 REVERT JUMPDEST DUP1 PUSH4 0x15215784 EQ PUSH2 0x110 JUMPI DUP1 PUSH4 0x502C9BD5 EQ PUSH2 0x125 JUMPI DUP1 PUSH4 0x577A1B92 EQ PUSH2 0x155 JUMPI DUP1 PUSH4 0x6386C1C7 EQ PUSH2 0x17B JUMPI JUMPDEST PUSH1 0x0 DUP1 REVERT JUMPDEST PUSH2 0x123 PUSH2 0x11E CALLDATASIZE PUSH1 0x4 PUSH2 0x15F4 JUMP JUMPDEST PUSH2 0x2BE JUMP JUMPDEST STOP JUMPDEST PUSH2 0x138 PUSH2 0x133 CALLDATASIZE PUSH1 0x4 PUSH2 0x16AB JUMP JUMPDEST PUSH2 0x46B JUMP JUMPDEST PUSH1 0x40 MLOAD PUSH1 0x1 PUSH1 0x1 PUSH1 0xA0 SHL SUB SWAP1 SWAP2 AND DUP2 MSTORE PUSH1 0x20 ADD JUMPDEST PUSH1 0x40 MLOAD DUP1 SWAP2 SUB SWAP1 RETURN JUMPDEST PUSH2 0x168 PUSH2 0x163 CALLDATASIZE PUSH1 0x4 PUSH2 0x16E0 JUMP JUMPDEST PUSH2 0x495 JUMP JUMPDEST PUSH1 0x40 MLOAD PUSH2 0x14C SWAP8 SWAP7 SWAP6 SWAP5 SWAP4 SWAP3 SWAP2 SWAP1 PUSH2 0x1750 JUMP JUMPDEST PUSH2 0x18E PUSH2 0x189 CALLDATASIZE PUSH1 0x4 PUSH2 0x17BE JUMP JUMPDEST PUSH2 0x714 JUMP JUMPDEST PUSH1 0x40 MLOAD PUSH2 0x14C SWAP5 SWAP4 SWAP3 SWAP2 SWAP1 PUSH2 0x17E0 JUMP JUMPDEST PUSH2 0x123 PUSH2 0x1AC CALLDATASIZE PUSH1 0x4 PUSH2 0x181C JUMP JUMPDEST PUSH2 0x876 JUMP JUMPDEST PUSH2 0x18E PUSH2 0xA3A JUMP JUMPDEST PUSH2 0x1CC PUSH2 0x1C7 CALLDATASIZE PUSH1 0x4 PUSH2 0x17BE JUMP JUMPDEST PUSH2 0xB6C JUMP JUMPDEST PUSH1 0x40 MLOAD PUSH2 0x14C SWAP2 SWAP1 PUSH2 0x1851 JUMP JUMPDEST PUSH2 0x1CC PUSH2 0xE7D JUMP JUMPDEST PUSH2 0x138 PUSH2 0x1EF CALLDATASIZE PUSH1 0x4 PUSH2 0x192E JUMP JUMPDEST PUSH2 0x117A JUMP JUMPDEST PUSH1 0x3 SLOAD JUMPDEST PUSH1 0x40 MLOAD SWAP1 DUP2 MSTORE PUSH1 0x20 ADD PUSH2 0x14C JUMP JUMPDEST PUSH2 0x219 PUSH2 0x214 CALLDATASIZE PUSH1 0x4 PUSH2 0x181C JUMP JUMPDEST PUSH2 0x11F9 JUMP JUMPDEST PUSH1 0x40 DUP1 MLOAD SWAP4 DUP5 MSTORE PUSH1 0x20 DUP5 ADD SWAP3 SWAP1 SWAP3 MSTORE PUSH1 0xFF AND SWAP1 DUP3 ADD MSTORE PUSH1 0x60 ADD PUSH2 0x14C JUMP JUMPDEST PUSH2 0x18E PUSH2 0x245 CALLDATASIZE PUSH1 0x4 PUSH2 0x17BE JUMP JUMPDEST PUSH2 0x126D JUMP JUMPDEST PUSH2 0x26D PUSH2 0x258 CALLDATASIZE PUSH1 0x4 PUSH2 0x17BE JUMP JUMPDEST PUSH1 0x1 PUSH1 0x20 MSTORE PUSH1 0x0 SWAP1 DUP2 MSTORE PUSH1 0x40 SWAP1 KECCAK256 SLOAD PUSH1 0xFF AND DUP2 JUMP JUMPDEST PUSH1 0x40 MLOAD SWAP1 ISZERO ISZERO DUP2 MSTORE PUSH1 0x20 ADD PUSH2 0x14C JUMP JUMPDEST PUSH2 0x123 PUSH2 0x28B CALLDATASIZE PUSH1 0x4 PUSH2 0x181C JUMP JUMPDEST PUSH2 0x132C JUMP JUMPDEST PUSH2 0x138 PUSH2 0x29E CALLDATASIZE PUSH1 0x4 PUSH2 0x192E JUMP JUMPDEST PUSH2 0x1461 JUMP JUMPDEST PUSH2 0x123 PUSH2 0x1481 JUMP JUMPDEST PUSH2 0x1F8 PUSH2 0x2B9 CALLDATASIZE PUSH1 0x4 PUSH2 0x16AB JUMP JUMPDEST PUSH2 0x14FE JUMP JUMPDEST CALLER PUSH1 0x0 SWAP1 DUP2 MSTORE PUSH1 0x1 PUSH1 0x20 MSTORE PUSH1 0x40 SWAP1 KECCAK256 SLOAD PUSH1 0xFF AND PUSH2 0x2F6 JUMPI PUSH1 0x40 MLOAD PUSH3 0x461BCD PUSH1 0xE5 SHL DUP2 MSTORE PUSH1 0x4 ADD PUSH2 0x2ED SWAP1 PUSH2 0x1975 JUMP JUMPDEST PUSH1 0x40 MLOAD DUP1 SWAP2 SUB SWAP1 REVERT JUMPDEST CALLER PUSH1 0x0 SWAP1 DUP2 MSTORE PUSH1 0x20 DUP2 SWAP1 MSTORE PUSH1 0x40 SWAP1 KECCAK256 PUSH1 0x3 ADD SLOAD PUSH1 0xFF AND PUSH2 0x358 JUMPI PUSH1 0x40 MLOAD PUSH3 0x461BCD PUSH1 0xE5 SHL DUP2 MSTORE PUSH1 0x20 PUSH1 0x4 DUP3 ADD MSTORE PUSH1 0x1B PUSH1 0x24 DUP3 ADD MSTORE PUSH32 0x55736572206163636F756E742069732064656163746976617465640000000000 PUSH1 0x44 DUP3 ADD MSTORE PUSH1 0x64 ADD PUSH2 0x2ED JUMP JUMPDEST PUSH1 0x40 DUP1 MLOAD PUSH1 0xE0 DUP2 ADD DUP3 MSTORE CALLER PUSH1 0x0 SWAP1 DUP2 MSTORE PUSH1 0x2 PUSH1 0x20 DUP2 DUP2 MSTORE DUP5 DUP4 KECCAK256 DUP1 SLOAD DUP1 DUP7 MSTORE DUP3 DUP7 ADD DUP13 DUP2 MSTORE SWAP7 DUP7 ADD DUP12 SWAP1 MSTORE PUSH1 0x60 DUP7 ADD DUP11 SWAP1 MSTORE PUSH1 0x80 DUP7 ADD DUP10 SWAP1 MSTORE PUSH1 0xA0 DUP7 ADD DUP9 SWAP1 MSTORE TIMESTAMP PUSH1 0xC0 DUP8 ADD MSTORE SWAP3 DUP3 MSTORE PUSH1 0x1 DUP1 DUP5 ADD DUP3 SSTORE SWAP1 DUP5 MSTORE SWAP3 KECCAK256 DUP4 MLOAD PUSH1 0x7 SWAP1 SWAP3 MUL ADD SWAP1 DUP2 SSTORE SWAP3 MLOAD SWAP2 SWAP3 DUP4 SWAP3 SWAP1 SWAP2 DUP3 ADD SWAP1 PUSH2 0x3CD SWAP1 DUP3 PUSH2 0x1A2B JUMP JUMPDEST POP PUSH1 0x40 DUP3 ADD MLOAD PUSH1 0x2 DUP3 ADD SWAP1 PUSH2 0x3E2 SWAP1 DUP3 PUSH2 0x1A2B JUMP JUMPDEST POP PUSH1 0x60 DUP3 ADD MLOAD PUSH1 0x3 DUP3 ADD SWAP1 PUSH2 0x3F7 SWAP1 DUP3 PUSH2 0x1A2B JUMP JUMPDEST POP PUSH1 0x80 DUP3 ADD MLOAD PUSH1 0x4 DUP3 ADD SSTORE PUSH1 0xA0 DUP3 ADD MLOAD PUSH1 0x5 DUP3 ADD SWAP1 PUSH2 0x416 SWAP1 DUP3 PUSH2 0x1A2B JUMP JUMPDEST POP PUSH1 0xC0 SWAP2 SWAP1 SWAP2 ADD MLOAD PUSH1 0x6 SWAP1 SWAP2 ADD SSTORE DUP1 MLOAD PUSH1 0x40 MLOAD CALLER SWAP2 PUSH32 0xA9087CDC21E5C66543FDE424B69D7D1D27A930228E18086258E84D24C5D2C314 SWAP2 PUSH2 0x45B SWAP2 SWAP1 DUP11 SWAP1 DUP11 SWAP1 PUSH2 0x1AEB JUMP JUMPDEST PUSH1 0x40 MLOAD DUP1 SWAP2 SUB SWAP1 LOG2 POP POP POP POP POP POP JUMP JUMPDEST PUSH1 0x3 DUP2 DUP2 SLOAD DUP2 LT PUSH2 0x47B JUMPI PUSH1 0x0 DUP1 REVERT JUMPDEST PUSH1 0x0 SWAP2 DUP3 MSTORE PUSH1 0x20 SWAP1 SWAP2 KECCAK256 ADD SLOAD PUSH1 0x1 PUSH1 0x1 PUSH1 0xA0 SHL SUB AND SWAP1 POP DUP2 JUMP JUMPDEST PUSH1 0x2 PUSH1 0x20 MSTORE DUP2 PUSH1 0x0 MSTORE PUSH1 0x40 PUSH1 0x0 KECCAK256 DUP2 DUP2 SLOAD DUP2 LT PUSH2 0x4B1 JUMPI PUSH1 0x0 DUP1 REVERT JUMPDEST SWAP1 PUSH1 0x0 MSTORE PUSH1 0x20 PUSH1 0x0 KECCAK256 SWAP1 PUSH1 0x7 MUL ADD PUSH1 0x0 SWAP2 POP SWAP2 POP POP DUP1 PUSH1 0x0 ADD SLOAD SWAP1 DUP1 PUSH1 0x1 ADD DUP1 SLOAD PUSH2 0x4DB SWAP1 PUSH2 0x19A2 JUMP JUMPDEST DUP1 PUSH1 0x1F ADD PUSH1 0x20 DUP1 SWAP2 DIV MUL PUSH1 0x20 ADD PUSH1 0x40 MLOAD SWAP1 DUP2 ADD PUSH1 0x40 MSTORE DUP1 SWAP3 SWAP2 SWAP1 DUP2 DUP2 MSTORE PUSH1 0x20 ADD DUP3 DUP1 SLOAD PUSH2 0x507 SWAP1 PUSH2 0x19A2 JUMP JUMPDEST DUP1 ISZERO PUSH2 0x554 JUMPI DUP1 PUSH1 0x1F LT PUSH2 0x529 JUMPI PUSH2 0x100 DUP1 DUP4 SLOAD DIV MUL DUP4 MSTORE SWAP2 PUSH1 0x20 ADD SWAP2 PUSH2 0x554 JUMP JUMPDEST DUP3 ADD SWAP2 SWAP1 PUSH1 0x0 MSTORE PUSH1 0x20 PUSH1 0x0 KECCAK256 SWAP1 JUMPDEST DUP2 SLOAD DUP2 MSTORE SWAP1 PUSH1 0x1 ADD SWAP1 PUSH1 0x20 ADD DUP1 DUP4 GT PUSH2 0x537 JUMPI DUP3 SWAP1 SUB PUSH1 0x1F AND DUP3 ADD SWAP2 JUMPDEST POP POP POP POP POP SWAP1 DUP1 PUSH1 0x2 ADD DUP1 SLOAD PUSH2 0x569 SWAP1 PUSH2 0x19A2 JUMP JUMPDEST DUP1 PUSH1 0x1F ADD PUSH1 0x20 DUP1 SWAP2 DIV MUL PUSH1 0x20 ADD PUSH1 0x40 MLOAD SWAP1 DUP2 ADD PUSH1 0x40 MSTORE DUP1 SWAP3 SWAP2 SWAP1 DUP2 DUP2 MSTORE PUSH1 0x20 ADD DUP3 DUP1 SLOAD PUSH2 0x595 SWAP1 PUSH2 0x19A2 JUMP JUMPDEST DUP1 ISZERO PUSH2 0x5E2 JUMPI DUP1 PUSH1 0x1F LT PUSH2 0x5B7 JUMPI PUSH2 0x100 DUP1 DUP4 SLOAD DIV MUL DUP4 MSTORE SWAP2 PUSH1 0x20 ADD SWAP2 PUSH2 0x5E2 JUMP JUMPDEST DUP3 ADD SWAP2 SWAP1 PUSH1 0x0 MSTORE PUSH1 0x20 PUSH1 0x0 KECCAK256 SWAP1 JUMPDEST DUP2 SLOAD DUP2 MSTORE SWAP1 PUSH1 0x1 ADD SWAP1 PUSH1 0x20 ADD DUP1 DUP4 GT PUSH2 0x5C5 JUMPI DUP3 SWAP1 SUB PUSH1 0x1F AND DUP3 ADD SWAP2 JUMPDEST POP POP POP POP POP SWAP1 DUP1 PUSH1 0x3 ADD DUP1 SLOAD PUSH2 0x5F7 SWAP1 PUSH2 0x19A2 JUMP JUMPDEST DUP1 PUSH1 0x1F ADD PUSH1 0x20 DUP1 SWAP2 DIV MUL PUSH1 0x20 ADD PUSH1 0x40 MLOAD SWAP1 DUP2 ADD PUSH1 0x40 MSTORE DUP1 SWAP3 SWAP2 SWAP1 DUP2 DUP2 MSTORE PUSH1 0x20 ADD DUP3 DUP1 SLOAD PUSH2 0x623 SWAP1 PUSH2 0x19A2 JUMP JUMPDEST DUP1 ISZERO PUSH2 0x670 JUMPI DUP1 PUSH1 0x1F LT PUSH2 0x645 JUMPI PUSH2 0x100 DUP1 DUP4 SLOAD DIV MUL DUP4 MSTORE SWAP2 PUSH1 0x20 ADD SWAP2 PUSH2 0x670 JUMP JUMPDEST DUP3 ADD SWAP2 SWAP1 PUSH1 0x0 MSTORE PUSH1 0x20 PUSH1 0x0 KECCAK256 SWAP1 JUMPDEST DUP2 SLOAD DUP2 MSTORE SWAP1 PUSH1 0x1 ADD SWAP1 PUSH1 0x20 ADD DUP1 DUP4 GT PUSH2 0x653 JUMPI DUP3 SWAP1 SUB PUSH1 0x1F AND DUP3 ADD SWAP2 JUMPDEST POP POP POP POP POP SWAP1 DUP1 PUSH1 0x4 ADD SLOAD SWAP1 DUP1 PUSH1 0x5 ADD DUP1 SLOAD PUSH2 0x68B SWAP1 PUSH2 0x19A2 JUMP JUMPDEST DUP1 PUSH1 0x1F ADD PUSH1 0x20 DUP1 SWAP2 DIV MUL PUSH1 0x20 ADD PUSH1 0x40 MLOAD SWAP1 DUP2 ADD PUSH1 0x40 MSTORE DUP1 SWAP3 SWAP2 SWAP1 DUP2 DUP2 MSTORE PUSH1 0x20 ADD DUP3 DUP1 SLOAD PUSH2 0x6B7 SWAP1 PUSH2 0x19A2 JUMP JUMPDEST DUP1 ISZERO PUSH2 0x704 JUMPI DUP1 PUSH1 0x1F LT PUSH2 0x6D9 JUMPI PUSH2 0x100 DUP1 DUP4 SLOAD DIV MUL DUP4 MSTORE SWAP2 PUSH1 0x20 ADD SWAP2 PUSH2 0x704 JUMP JUMPDEST DUP3 ADD SWAP2 SWAP1 PUSH1 0x0 MSTORE PUSH1 0x20 PUSH1 0x0 KECCAK256 SWAP1 JUMPDEST DUP2 SLOAD DUP2 MSTORE SWAP1 PUSH1 0x1 ADD SWAP1 PUSH1 0x20 ADD DUP1 DUP4 GT PUSH2 0x6E7 JUMPI DUP3 SWAP1 SUB PUSH1 0x1F AND DUP3 ADD SWAP2 JUMPDEST POP POP POP POP POP SWAP1 DUP1 PUSH1 0x6 ADD SLOAD SWAP1 POP DUP8 JUMP JUMPDEST PUSH1 0x1 PUSH1 0x1 PUSH1 0xA0 SHL SUB DUP2 AND PUSH1 0x0 SWAP1 DUP2 MSTORE PUSH1 0x1 PUSH1 0x20 MSTORE PUSH1 0x40 DUP2 KECCAK256 SLOAD PUSH1 0x60 SWAP1 DUP3 SWAP1 DUP2 SWAP1 PUSH1 0xFF AND PUSH2 0x774 JUMPI PUSH1 0x40 MLOAD PUSH3 0x461BCD PUSH1 0xE5 SHL DUP2 MSTORE PUSH1 0x20 PUSH1 0x4 DUP3 ADD MSTORE PUSH1 0xE PUSH1 0x24 DUP3 ADD MSTORE PUSH14 0x155CD95C881B9BDD08199BDD5B99 PUSH1 0x92 SHL PUSH1 0x44 DUP3 ADD MSTORE PUSH1 0x64 ADD PUSH2 0x2ED JUMP JUMPDEST PUSH1 0x1 PUSH1 0x1 PUSH1 0xA0 SHL SUB DUP1 DUP7 AND PUSH1 0x0 SWAP1 DUP2 MSTORE PUSH1 0x20 DUP2 DUP2 MSTORE PUSH1 0x40 DUP1 DUP4 KECCAK256 DUP2 MLOAD PUSH1 0x80 DUP2 ADD SWAP1 SWAP3 MSTORE DUP1 SLOAD SWAP1 SWAP5 AND DUP2 MSTORE PUSH1 0x1 DUP5 ADD DUP1 SLOAD SWAP4 SWAP5 SWAP2 SWAP4 SWAP2 SWAP3 DUP5 ADD SWAP2 PUSH2 0x7B6 SWAP1 PUSH2 0x19A2 JUMP JUMPDEST DUP1 PUSH1 0x1F ADD PUSH1 0x20 DUP1 SWAP2 DIV MUL PUSH1 0x20 ADD PUSH1 0x40 MLOAD SWAP1 DUP2 ADD PUSH1 0x40 MSTORE DUP1 SWAP3 SWAP2 SWAP1 DUP2 DUP2 MSTORE PUSH1 0x20 ADD DUP3 DUP1 SLOAD PUSH2 0x7E2 SWAP1 PUSH2 0x19A2 JUMP JUMPDEST DUP1 ISZERO PUSH2 0x82F JUMPI DUP1 PUSH1 0x1F LT PUSH2 0x804 JUMPI PUSH2 0x100 DUP1 DUP4 SLOAD DIV MUL DUP4 MSTORE SWAP2 PUSH1 0x20 ADD SWAP2 PUSH2 0x82F JUMP JUMPDEST DUP3 ADD SWAP2 SWAP1 PUSH1 0x0 MSTORE PUSH1 0x20 PUSH1 0x0 KECCAK256 SWAP1 JUMPDEST DUP2 SLOAD DUP2 MSTORE SWAP1 PUSH1 0x1 ADD SWAP1 PUSH1 0x20 ADD DUP1 DUP4 GT PUSH2 0x812 JUMPI DUP3 SWAP1 SUB PUSH1 0x1F AND DUP3 ADD SWAP2 JUMPDEST POP POP POP SWAP2 DUP4 MSTORE POP POP PUSH1 0x2 DUP3 ADD SLOAD PUSH1 0x20 DUP1 DUP4 ADD SWAP2 SWAP1 SWAP2 MSTORE PUSH1 0x3 SWAP1 SWAP3 ADD SLOAD PUSH1 0xFF AND ISZERO ISZERO PUSH1 0x40 SWAP2 DUP3 ADD MSTORE DUP3 MLOAD SWAP2 DUP4 ADD MLOAD SWAP1 DUP4 ADD MLOAD PUSH1 0x60 SWAP1 SWAP4 ADD MLOAD SWAP2 SWAP10 SWAP1 SWAP9 POP SWAP2 SWAP7 POP SWAP5 POP SWAP3 POP POP POP JUMP JUMPDEST CALLER PUSH1 0x0 SWAP1 DUP2 MSTORE PUSH1 0x1 PUSH1 0x20 MSTORE PUSH1 0x40 SWAP1 KECCAK256 SLOAD PUSH1 0xFF AND ISZERO PUSH2 0x8D6 JUMPI PUSH1 0x40 MLOAD PUSH3 0x461BCD PUSH1 0xE5 SHL DUP2 MSTORE PUSH1 0x20 PUSH1 0x4 DUP3 ADD MSTORE PUSH1 0x17 PUSH1 0x24 DUP3 ADD MSTORE PUSH32 0x5573657220616C72656164792072656769737465726564000000000000000000 PUSH1 0x44 DUP3 ADD MSTORE PUSH1 0x64 ADD PUSH2 0x2ED JUMP JUMPDEST PUSH1 0x0 DUP2 MLOAD GT PUSH2 0x922 JUMPI PUSH1 0x40 MLOAD PUSH3 0x461BCD PUSH1 0xE5 SHL DUP2 MSTORE PUSH1 0x20 PUSH1 0x4 DUP3 ADD MSTORE PUSH1 0x18 PUSH1 0x24 DUP3 ADD MSTORE PUSH24 0x557365726E616D652063616E6E6F7420626520656D707479 PUSH1 0x40 SHL PUSH1 0x44 DUP3 ADD MSTORE PUSH1 0x64 ADD PUSH2 0x2ED JUMP JUMPDEST PUSH1 0x40 DUP1 MLOAD PUSH1 0x80 DUP2 ADD DUP3 MSTORE CALLER DUP1 DUP3 MSTORE PUSH1 0x20 DUP1 DUP4 ADD DUP6 DUP2 MSTORE TIMESTAMP DUP5 DUP7 ADD MSTORE PUSH1 0x1 PUSH1 0x60 DUP6 ADD DUP2 SWAP1 MSTORE PUSH1 0x0 SWAP4 DUP5 MSTORE SWAP2 DUP4 SWAP1 MSTORE SWAP4 SWAP1 SWAP2 KECCAK256 DUP3 MLOAD DUP2 SLOAD PUSH1 0x1 PUSH1 0x1 PUSH1 0xA0 SHL SUB NOT AND PUSH1 0x1 PUSH1 0x1 PUSH1 0xA0 SHL SUB SWAP1 SWAP2 AND OR DUP2 SSTORE SWAP3 MLOAD SWAP2 SWAP3 SWAP2 SWAP1 DUP3 ADD SWAP1 PUSH2 0x982 SWAP1 DUP3 PUSH2 0x1A2B JUMP JUMPDEST POP PUSH1 0x40 DUP3 DUP2 ADD MLOAD PUSH1 0x2 DUP4 ADD SSTORE PUSH1 0x60 SWAP1 SWAP3 ADD MLOAD PUSH1 0x3 SWAP2 DUP3 ADD DUP1 SLOAD SWAP2 ISZERO ISZERO PUSH1 0xFF NOT SWAP3 DUP4 AND OR SWAP1 SSTORE CALLER PUSH1 0x0 DUP2 DUP2 MSTORE PUSH1 0x1 PUSH1 0x20 DUP2 SWAP1 MSTORE DUP6 DUP3 KECCAK256 DUP1 SLOAD SWAP1 SWAP5 AND DUP2 OR SWAP1 SWAP4 SSTORE DUP4 SLOAD SWAP3 DUP4 ADD DUP5 SSTORE SWAP3 SWAP1 SWAP3 MSTORE PUSH32 0xC2575A0E9E593C00F959F8C92F12DB2869C3395A3B0502D05E2516446F71F85B ADD DUP1 SLOAD PUSH1 0x1 PUSH1 0x1 PUSH1 0xA0 SHL SUB NOT AND DUP3 OR SWAP1 SSTORE SWAP1 MLOAD PUSH32 0x89105A1C6A3C2FBD471255C66A31CCAB604AF5697F67D7E2E9A0028C5E4DBD91 SWAP1 PUSH2 0xA2F SWAP1 DUP5 SWAP1 TIMESTAMP SWAP1 PUSH2 0x1B20 JUMP JUMPDEST PUSH1 0x40 MLOAD DUP1 SWAP2 SUB SWAP1 LOG2 POP JUMP JUMPDEST CALLER PUSH1 0x0 SWAP1 DUP2 MSTORE PUSH1 0x1 PUSH1 0x20 MSTORE PUSH1 0x40 DUP2 KECCAK256 SLOAD PUSH1 0x60 SWAP1 DUP3 SWAP1 DUP2 SWAP1 PUSH1 0xFF AND PUSH2 0xA70 JUMPI PUSH1 0x40 MLOAD PUSH3 0x461BCD PUSH1 0xE5 SHL DUP2 MSTORE PUSH1 0x4 ADD PUSH2 0x2ED SWAP1 PUSH2 0x1975 JUMP JUMPDEST CALLER PUSH1 0x0 SWAP1 DUP2 MSTORE PUSH1 0x20 DUP2 DUP2 MSTORE PUSH1 0x40 DUP1 DUP4 KECCAK256 DUP2 MLOAD PUSH1 0x80 DUP2 ADD SWAP1 SWAP3 MSTORE DUP1 SLOAD PUSH1 0x1 PUSH1 0x1 PUSH1 0xA0 SHL SUB AND DUP3 MSTORE PUSH1 0x1 DUP2 ADD DUP1 SLOAD SWAP3 SWAP4 SWAP2 SWAP3 SWAP2 DUP5 ADD SWAP2 PUSH2 0xAAD SWAP1 PUSH2 0x19A2 JUMP JUMPDEST DUP1 PUSH1 0x1F ADD PUSH1 0x20 DUP1 SWAP2 DIV MUL PUSH1 0x20 ADD PUSH1 0x40 MLOAD SWAP1 DUP2 ADD PUSH1 0x40 MSTORE DUP1 SWAP3 SWAP2 SWAP1 DUP2 DUP2 MSTORE PUSH1 0x20 ADD DUP3 DUP1 SLOAD PUSH2 0xAD9 SWAP1 PUSH2 0x19A2 JUMP JUMPDEST DUP1 ISZERO PUSH2 0xB26 JUMPI DUP1 PUSH1 0x1F LT PUSH2 0xAFB JUMPI PUSH2 0x100 DUP1 DUP4 SLOAD DIV MUL DUP4 MSTORE SWAP2 PUSH1 0x20 ADD SWAP2 PUSH2 0xB26 JUMP JUMPDEST DUP3 ADD SWAP2 SWAP1 PUSH1 0x0 MSTORE PUSH1 0x20 PUSH1 0x0 KECCAK256 SWAP1 JUMPDEST DUP2 SLOAD DUP2 MSTORE SWAP1 PUSH1 0x1 ADD SWAP1 PUSH1 0x20 ADD DUP1 DUP4 GT PUSH2 0xB09 JUMPI DUP3 SWAP1 SUB PUSH1 0x1F AND DUP3 ADD SWAP2 JUMPDEST POP POP POP SWAP2 DUP4 MSTORE POP POP PUSH1 0x2 DUP3 ADD SLOAD PUSH1 0x20 DUP1 DUP4 ADD SWAP2 SWAP1 SWAP2 MSTORE PUSH1 0x3 SWAP1 SWAP3 ADD SLOAD PUSH1 0xFF AND ISZERO ISZERO PUSH1 0x40 SWAP2 DUP3 ADD MSTORE DUP3 MLOAD SWAP2 DUP4 ADD MLOAD SWAP1 DUP4 ADD MLOAD PUSH1 0x60 SWAP1 SWAP4 ADD MLOAD SWAP2 SWAP9 SWAP1 SWAP8 POP SWAP2 SWAP6 POP SWAP4 POP SWAP2 POP POP JUMP JUMPDEST PUSH1 0x1 PUSH1 0x1 PUSH1 0xA0 SHL SUB DUP2 AND PUSH1 0x0 SWAP1 DUP2 MSTORE PUSH1 0x1 PUSH1 0x20 MSTORE PUSH1 0x40 SWAP1 KECCAK256 SLOAD PUSH1 0x60 SWAP1 PUSH1 0xFF AND PUSH2 0xBA7 JUMPI PUSH1 0x40 MLOAD PUSH3 0x461BCD PUSH1 0xE5 SHL DUP2 MSTORE PUSH1 0x4 ADD PUSH2 0x2ED SWAP1 PUSH2 0x1975 JUMP JUMPDEST PUSH1 0x1 PUSH1 0x1 PUSH1 0xA0 SHL SUB DUP3 AND PUSH1 0x0 SWAP1 DUP2 MSTORE PUSH1 0x2 PUSH1 0x20 SWAP1 DUP2 MSTORE PUSH1 0x40 DUP1 DUP4 KECCAK256 DUP1 SLOAD DUP3 MLOAD DUP2 DUP6 MUL DUP2 ADD DUP6 ADD SWAP1 SWAP4 MSTORE DUP1 DUP4 MSTORE SWAP2 SWAP4 SWAP1 SWAP3 DUP5 ADD JUMPDEST DUP3 DUP3 LT ISZERO PUSH2 0xE72 JUMPI DUP4 DUP3 SWAP1 PUSH1 0x0 MSTORE PUSH1 0x20 PUSH1 0x0 KECCAK256 SWAP1 PUSH1 0x7 MUL ADD PUSH1 0x40 MLOAD DUP1 PUSH1 0xE0 ADD PUSH1 0x40 MSTORE SWAP1 DUP2 PUSH1 0x0 DUP3 ADD SLOAD DUP2 MSTORE PUSH1 0x20 ADD PUSH1 0x1 DUP3 ADD DUP1 SLOAD PUSH2 0xC17 SWAP1 PUSH2 0x19A2 JUMP JUMPDEST DUP1 PUSH1 0x1F ADD PUSH1 0x20 DUP1 SWAP2 DIV MUL PUSH1 0x20 ADD PUSH1 0x40 MLOAD SWAP1 DUP2 ADD PUSH1 0x40 MSTORE DUP1 SWAP3 SWAP2 SWAP1 DUP2 DUP2 MSTORE PUSH1 0x20 ADD DUP3 DUP1 SLOAD PUSH2 0xC43 SWAP1 PUSH2 0x19A2 JUMP JUMPDEST DUP1 ISZERO PUSH2 0xC90 JUMPI DUP1 PUSH1 0x1F LT PUSH2 0xC65 JUMPI PUSH2 0x100 DUP1 DUP4 SLOAD DIV MUL DUP4 MSTORE SWAP2 PUSH1 0x20 ADD SWAP2 PUSH2 0xC90 JUMP JUMPDEST DUP3 ADD SWAP2 SWAP1 PUSH1 0x0 MSTORE PUSH1 0x20 PUSH1 0x0 KECCAK256 SWAP1 JUMPDEST DUP2 SLOAD DUP2 MSTORE SWAP1 PUSH1 0x1 ADD SWAP1 PUSH1 0x20 ADD DUP1 DUP4 GT PUSH2 0xC73 JUMPI DUP3 SWAP1 SUB PUSH1 0x1F AND DUP3 ADD SWAP2 JUMPDEST POP POP POP POP POP DUP2 MSTORE PUSH1 0x20 ADD PUSH1 0x2 DUP3 ADD DUP1 SLOAD PUSH2 0xCA9 SWAP1 PUSH2 0x19A2 JUMP JUMPDEST DUP1 PUSH1 0x1F ADD PUSH1 0x20 DUP1 SWAP2 DIV MUL PUSH1 0x20 ADD PUSH1 0x40 MLOAD SWAP1 DUP2 ADD PUSH1 0x40 MSTORE DUP1 SWAP3 SWAP2 SWAP1 DUP2 DUP2 MSTORE PUSH1 0x20 ADD DUP3 DUP1 SLOAD PUSH2 0xCD5 SWAP1 PUSH2 0x19A2 JUMP JUMPDEST DUP1 ISZERO PUSH2 0xD22 JUMPI DUP1 PUSH1 0x1F LT PUSH2 0xCF7 JUMPI PUSH2 0x100 DUP1 DUP4 SLOAD DIV MUL DUP4 MSTORE SWAP2 PUSH1 0x20 ADD SWAP2 PUSH2 0xD22 JUMP JUMPDEST DUP3 ADD SWAP2 SWAP1 PUSH1 0x0 MSTORE PUSH1 0x20 PUSH1 0x0 KECCAK256 SWAP1 JUMPDEST DUP2 SLOAD DUP2 MSTORE SWAP1 PUSH1 0x1 ADD SWAP1 PUSH1 0x20 ADD DUP1 DUP4 GT PUSH2 0xD05 JUMPI DUP3 SWAP1 SUB PUSH1 0x1F AND DUP3 ADD SWAP2 JUMPDEST POP POP POP POP POP DUP2 MSTORE PUSH1 0x20 ADD PUSH1 0x3 DUP3 ADD DUP1 SLOAD PUSH2 0xD3B SWAP1 PUSH2 0x19A2 JUMP JUMPDEST DUP1 PUSH1 0x1F ADD PUSH1 0x20 DUP1 SWAP2 DIV MUL PUSH1 0x20 ADD PUSH1 0x40 MLOAD SWAP1 DUP2 ADD PUSH1 0x40 MSTORE DUP1 SWAP3 SWAP2 SWAP1 DUP2 DUP2 MSTORE PUSH1 0x20 ADD DUP3 DUP1 SLOAD PUSH2 0xD67 SWAP1 PUSH2 0x19A2 JUMP JUMPDEST DUP1 ISZERO PUSH2 0xDB4 JUMPI DUP1 PUSH1 0x1F LT PUSH2 0xD89 JUMPI PUSH2 0x100 DUP1 DUP4 SLOAD DIV MUL DUP4 MSTORE SWAP2 PUSH1 0x20 ADD SWAP2 PUSH2 0xDB4 JUMP JUMPDEST DUP3 ADD SWAP2 SWAP1 PUSH1 0x0 MSTORE PUSH1 0x20 PUSH1 0x0 KECCAK256 SWAP1 JUMPDEST DUP2 SLOAD DUP2 MSTORE SWAP1 PUSH1 0x1 ADD SWAP1 PUSH1 0x20 ADD DUP1 DUP4 GT PUSH2 0xD97 JUMPI DUP3 SWAP1 SUB PUSH1 0x1F AND DUP3 ADD SWAP2 JUMPDEST POP POP POP POP POP DUP2 MSTORE PUSH1 0x20 ADD PUSH1 0x4 DUP3 ADD SLOAD DUP2 MSTORE PUSH1 0x20 ADD PUSH1 0x5 DUP3 ADD DUP1 SLOAD PUSH2 0xDD7 SWAP1 PUSH2 0x19A2 JUMP JUMPDEST DUP1 PUSH1 0x1F ADD PUSH1 0x20 DUP1 SWAP2 DIV MUL PUSH1 0x20 ADD PUSH1 0x40 MLOAD SWAP1 DUP2 ADD PUSH1 0x40 MSTORE DUP1 SWAP3 SWAP2 SWAP1 DUP2 DUP2 MSTORE PUSH1 0x20 ADD DUP3 DUP1 SLOAD PUSH2 0xE03 SWAP1 PUSH2 0x19A2 JUMP JUMPDEST DUP1 ISZERO PUSH2 0xE50 JUMPI DUP1 PUSH1 0x1F LT PUSH2 0xE25 JUMPI PUSH2 0x100 DUP1 DUP4 SLOAD DIV MUL DUP4 MSTORE SWAP2 PUSH1 0x20 ADD SWAP2 PUSH2 0xE50 JUMP JUMPDEST DUP3 ADD SWAP2 SWAP1 PUSH1 0x0 MSTORE PUSH1 0x20 PUSH1 0x0 KECCAK256 SWAP1 JUMPDEST DUP2 SLOAD DUP2 MSTORE SWAP1 PUSH1 0x1 ADD SWAP1 PUSH1 0x20 ADD DUP1 DUP4 GT PUSH2 0xE33 JUMPI DUP3 SWAP1 SUB PUSH1 0x1F AND DUP3 ADD SWAP2 JUMPDEST POP POP POP POP POP DUP2 MSTORE PUSH1 0x20 ADD PUSH1 0x6 DUP3 ADD SLOAD DUP2 MSTORE POP POP DUP2 MSTORE PUSH1 0x20 ADD SWAP1 PUSH1 0x1 ADD SWAP1 PUSH2 0xBDA JUMP JUMPDEST POP POP POP POP SWAP1 POP SWAP2 SWAP1 POP JUMP JUMPDEST CALLER PUSH1 0x0 SWAP1 DUP2 MSTORE PUSH1 0x1 PUSH1 0x20 MSTORE PUSH1 0x40 SWAP1 KECCAK256 SLOAD PUSH1 0x60 SWAP1 PUSH1 0xFF AND PUSH2 0xEAF JUMPI PUSH1 0x40 MLOAD PUSH3 0x461BCD PUSH1 0xE5 SHL DUP2 MSTORE PUSH1 0x4 ADD PUSH2 0x2ED SWAP1 PUSH2 0x1975 JUMP JUMPDEST CALLER PUSH1 0x0 SWAP1 DUP2 MSTORE PUSH1 0x2 PUSH1 0x20 SWAP1 DUP2 MSTORE PUSH1 0x40 DUP1 DUP4 KECCAK256 DUP1 SLOAD DUP3 MLOAD DUP2 DUP6 MUL DUP2 ADD DUP6 ADD SWAP1 SWAP4 MSTORE DUP1 DUP4 MSTORE SWAP2 SWAP4 SWAP1 SWAP3 DUP5 ADD JUMPDEST DUP3 DUP3 LT ISZERO PUSH2 0x1171 JUMPI DUP4 DUP3 SWAP1 PUSH1 0x0 MSTORE PUSH1 0x20 PUSH1 0x0 KECCAK256 SWAP1 PUSH1 0x7 MUL ADD PUSH1 0x40 MLOAD DUP1 PUSH1 0xE0 ADD PUSH1 0x40 MSTORE SWAP1 DUP2 PUSH1 0x0 DUP3 ADD SLOAD DUP2 MSTORE PUSH1 0x20 ADD PUSH1 0x1 DUP3 ADD DUP1 SLOAD PUSH2 0xF16 SWAP1 PUSH2 0x19A2 JUMP JUMPDEST DUP1 PUSH1 0x1F ADD PUSH1 0x20 DUP1 SWAP2 DIV MUL PUSH1 0x20 ADD PUSH1 0x40 MLOAD SWAP1 DUP2 ADD PUSH1 0x40 MSTORE DUP1 SWAP3 SWAP2 SWAP1 DUP2 DUP2 MSTORE PUSH1 0x20 ADD DUP3 DUP1 SLOAD PUSH2 0xF42 SWAP1 PUSH2 0x19A2 JUMP JUMPDEST DUP1 ISZERO PUSH2 0xF8F JUMPI DUP1 PUSH1 0x1F LT PUSH2 0xF64 JUMPI PUSH2 0x100 DUP1 DUP4 SLOAD DIV MUL DUP4 MSTORE SWAP2 PUSH1 0x20 ADD SWAP2 PUSH2 0xF8F JUMP JUMPDEST DUP3 ADD SWAP2 SWAP1 PUSH1 0x0 MSTORE PUSH1 0x20 PUSH1 0x0 KECCAK256 SWAP1 JUMPDEST DUP2 SLOAD DUP2 MSTORE SWAP1 PUSH1 0x1 ADD SWAP1 PUSH1 0x20 ADD DUP1 DUP4 GT PUSH2 0xF72 JUMPI DUP3 SWAP1 SUB PUSH1 0x1F AND DUP3 ADD SWAP2 JUMPDEST POP POP POP POP POP DUP2 MSTORE PUSH1 0x20 ADD PUSH1 0x2 DUP3 ADD DUP1 SLOAD PUSH2 0xFA8 SWAP1 PUSH2 0x19A2 JUMP JUMPDEST DUP1 PUSH1 0x1F ADD PUSH1 0x20 DUP1 SWAP2 DIV MUL PUSH1 0x20 ADD PUSH1 0x40 MLOAD SWAP1 DUP2 ADD PUSH1 0x40 MSTORE DUP1 SWAP3 SWAP2 SWAP1 DUP2 DUP2 MSTORE PUSH1 0x20 ADD DUP3 DUP1 SLOAD PUSH2 0xFD4 SWAP1 PUSH2 0x19A2 JUMP JUMPDEST DUP1 ISZERO PUSH2 0x1021 JUMPI DUP1 PUSH1 0x1F LT PUSH2 0xFF6 JUMPI PUSH2 0x100 DUP1 DUP4 SLOAD DIV MUL DUP4 MSTORE SWAP2 PUSH1 0x20 ADD SWAP2 PUSH2 0x1021 JUMP JUMPDEST DUP3 ADD SWAP2 SWAP1 PUSH1 0x0 MSTORE PUSH1 0x20 PUSH1 0x0 KECCAK256 SWAP1 JUMPDEST DUP2 SLOAD DUP2 MSTORE SWAP1 PUSH1 0x1 ADD SWAP1 PUSH1 0x20 ADD DUP1 DUP4 GT PUSH2 0x1004 JUMPI DUP3 SWAP1 SUB PUSH1 0x1F AND DUP3 ADD SWAP2 JUMPDEST POP POP POP POP POP DUP2 MSTORE PUSH1 0x20 ADD PUSH1 0x3 DUP3 ADD DUP1 SLOAD PUSH2 0x103A SWAP1 PUSH2 0x19A2 JUMP JUMPDEST DUP1 PUSH1 0x1F ADD PUSH1 0x20 DUP1 SWAP2 DIV MUL PUSH1 0x20 ADD PUSH1 0x40 MLOAD SWAP1 DUP2 ADD PUSH1 0x40 MSTORE DUP1 SWAP3 SWAP2 SWAP1 DUP2 DUP2 MSTORE PUSH1 0x20 ADD DUP3 DUP1 SLOAD PUSH2 0x1066 SWAP1 PUSH2 0x19A2 JUMP JUMPDEST DUP1 ISZERO PUSH2 0x10B3 JUMPI DUP1 PUSH1 0x1F LT PUSH2 0x1088 JUMPI PUSH2 0x100 DUP1 DUP4 SLOAD DIV MUL DUP4 MSTORE SWAP2 PUSH1 0x20 ADD SWAP2 PUSH2 0x10B3 JUMP JUMPDEST DUP3 ADD SWAP2 SWAP1 PUSH1 0x0 MSTORE PUSH1 0x20 PUSH1 0x0 KECCAK256 SWAP1 JUMPDEST DUP2 SLOAD DUP2 MSTORE SWAP1 PUSH1 0x1 ADD SWAP1 PUSH1 0x20 ADD DUP1 DUP4 GT PUSH2 0x1096 JUMPI DUP3 SWAP1 SUB PUSH1 0x1F AND DUP3 ADD SWAP2 JUMPDEST POP POP POP POP POP DUP2 MSTORE PUSH1 0x20 ADD PUSH1 0x4 DUP3 ADD SLOAD DUP2 MSTORE PUSH1 0x20 ADD PUSH1 0x5 DUP3 ADD DUP1 SLOAD PUSH2 0x10D6 SWAP1 PUSH2 0x19A2 JUMP JUMPDEST DUP1 PUSH1 0x1F ADD PUSH1 0x20 DUP1 SWAP2 DIV MUL PUSH1 0x20 ADD PUSH1 0x40 MLOAD SWAP1 DUP2 ADD PUSH1 0x40 MSTORE DUP1 SWAP3 SWAP2 SWAP1 DUP2 DUP2 MSTORE PUSH1 0x20 ADD DUP3 DUP1 SLOAD PUSH2 0x1102 SWAP1 PUSH2 0x19A2 JUMP JUMPDEST DUP1 ISZERO PUSH2 0x114F JUMPI DUP1 PUSH1 0x1F LT PUSH2 0x1124 JUMPI PUSH2 0x100 DUP1 DUP4 SLOAD DIV MUL DUP4 MSTORE SWAP2 PUSH1 0x20 ADD SWAP2 PUSH2 0x114F JUMP JUMPDEST DUP3 ADD SWAP2 SWAP1 PUSH1 0x0 MSTORE PUSH1 0x20 PUSH1 0x0 KECCAK256 SWAP1 JUMPDEST DUP2 SLOAD DUP2 MSTORE SWAP1 PUSH1 0x1 ADD SWAP1 PUSH1 0x20 ADD DUP1 DUP4 GT PUSH2 0x1132 JUMPI DUP3 SWAP1 SUB PUSH1 0x1F AND DUP3 ADD SWAP2 JUMPDEST POP POP POP POP POP DUP2 MSTORE PUSH1 0x20 ADD PUSH1 0x6 DUP3 ADD SLOAD DUP2 MSTORE POP POP DUP2 MSTORE PUSH1 0x20 ADD SWAP1 PUSH1 0x1 ADD SWAP1 PUSH2 0xED9 JUMP JUMPDEST POP POP POP POP SWAP1 POP SWAP1 JUMP JUMPDEST PUSH1 0x0 DUP1 PUSH1 0x0 DUP1 PUSH2 0x1189 DUP6 PUSH2 0x11F9 JUMP JUMPDEST PUSH1 0x40 DUP1 MLOAD PUSH1 0x0 DUP2 MSTORE PUSH1 0x20 DUP2 ADD DUP1 DUP4 MSTORE DUP12 SWAP1 MSTORE PUSH1 0xFF DUP4 AND SWAP2 DUP2 ADD SWAP2 SWAP1 SWAP2 MSTORE PUSH1 0x60 DUP2 ADD DUP5 SWAP1 MSTORE PUSH1 0x80 DUP2 ADD DUP4 SWAP1 MSTORE SWAP3 SWAP6 POP SWAP1 SWAP4 POP SWAP2 POP PUSH1 0x1 SWAP1 PUSH1 0xA0 ADD PUSH1 0x20 PUSH1 0x40 MLOAD PUSH1 0x20 DUP2 SUB SWAP1 DUP1 DUP5 SUB SWAP1 DUP6 GAS STATICCALL ISZERO DUP1 ISZERO PUSH2 0x11E4 JUMPI RETURNDATASIZE PUSH1 0x0 DUP1 RETURNDATACOPY RETURNDATASIZE PUSH1 0x0 REVERT JUMPDEST POP POP PUSH1 0x40 MLOAD PUSH1 0x1F NOT ADD MLOAD SWAP8 SWAP7 POP POP POP POP POP POP POP JUMP JUMPDEST PUSH1 0x0 DUP1 PUSH1 0x0 DUP4 MLOAD PUSH1 0x41 EQ PUSH2 0x124F JUMPI PUSH1 0x40 MLOAD PUSH3 0x461BCD PUSH1 0xE5 SHL DUP2 MSTORE PUSH1 0x20 PUSH1 0x4 DUP3 ADD MSTORE PUSH1 0x18 PUSH1 0x24 DUP3 ADD MSTORE PUSH32 0x496E76616C6964207369676E6174757265206C656E6774680000000000000000 PUSH1 0x44 DUP3 ADD MSTORE PUSH1 0x64 ADD PUSH2 0x2ED JUMP JUMPDEST POP POP POP PUSH1 0x20 DUP2 ADD MLOAD PUSH1 0x40 DUP3 ADD MLOAD PUSH1 0x60 SWAP1 SWAP3 ADD MLOAD SWAP1 SWAP3 PUSH1 0x0 SWAP2 SWAP1 SWAP2 BYTE SWAP1 JUMP JUMPDEST PUSH1 0x0 PUSH1 0x20 DUP2 SWAP1 MSTORE SWAP1 DUP2 MSTORE PUSH1 0x40 SWAP1 KECCAK256 DUP1 SLOAD PUSH1 0x1 DUP3 ADD DUP1 SLOAD PUSH1 0x1 PUSH1 0x1 PUSH1 0xA0 SHL SUB SWAP1 SWAP3 AND SWAP3 SWAP2 PUSH2 0x1299 SWAP1 PUSH2 0x19A2 JUMP JUMPDEST DUP1 PUSH1 0x1F ADD PUSH1 0x20 DUP1 SWAP2 DIV MUL PUSH1 0x20 ADD PUSH1 0x40 MLOAD SWAP1 DUP2 ADD PUSH1 0x40 MSTORE DUP1 SWAP3 SWAP2 SWAP1 DUP2 DUP2 MSTORE PUSH1 0x20 ADD DUP3 DUP1 SLOAD PUSH2 0x12C5 SWAP1 PUSH2 0x19A2 JUMP JUMPDEST DUP1 ISZERO PUSH2 0x1312 JUMPI DUP1 PUSH1 0x1F LT PUSH2 0x12E7 JUMPI PUSH2 0x100 DUP1 DUP4 SLOAD DIV MUL DUP4 MSTORE SWAP2 PUSH1 0x20 ADD SWAP2 PUSH2 0x1312 JUMP JUMPDEST DUP3 ADD SWAP2 SWAP1 PUSH1 0x0 MSTORE PUSH1 0x20 PUSH1 0x0 KECCAK256 SWAP1 JUMPDEST DUP2 SLOAD DUP2 MSTORE SWAP1 PUSH1 0x1 ADD SWAP1 PUSH1 0x20 ADD DUP1 DUP4 GT PUSH2 0x12F5 JUMPI DUP3 SWAP1 SUB PUSH1 0x1F AND DUP3 ADD SWAP2 JUMPDEST POP POP POP POP PUSH1 0x2 DUP4 ADD SLOAD PUSH1 0x3 SWAP1 SWAP4 ADD SLOAD SWAP2 SWAP3 SWAP2 PUSH1 0xFF AND SWAP1 POP DUP5 JUMP JUMPDEST CALLER PUSH1 0x0 SWAP1 DUP2 MSTORE PUSH1 0x1 PUSH1 0x20 MSTORE PUSH1 0x40 SWAP1 KECCAK256 SLOAD PUSH1 0xFF AND PUSH2 0x135B JUMPI PUSH1 0x40 MLOAD PUSH3 0x461BCD PUSH1 0xE5 SHL DUP2 MSTORE PUSH1 0x4 ADD PUSH2 0x2ED SWAP1 PUSH2 0x1975 JUMP JUMPDEST CALLER PUSH1 0x0 SWAP1 DUP2 MSTORE PUSH1 0x20 DUP2 SWAP1 MSTORE PUSH1 0x40 SWAP1 KECCAK256 PUSH1 0x3 ADD SLOAD PUSH1 0xFF AND PUSH2 0x13BD JUMPI PUSH1 0x40 MLOAD PUSH3 0x461BCD PUSH1 0xE5 SHL DUP2 MSTORE PUSH1 0x20 PUSH1 0x4 DUP3 ADD MSTORE PUSH1 0x1B PUSH1 0x24 DUP3 ADD MSTORE PUSH32 0x55736572206163636F756E742069732064656163746976617465640000000000 PUSH1 0x44 DUP3 ADD MSTORE PUSH1 0x64 ADD PUSH2 0x2ED JUMP JUMPDEST PUSH1 0x0 DUP2 MLOAD GT PUSH2 0x1409 JUMPI PUSH1 0x40 MLOAD PUSH3 0x461BCD PUSH1 0xE5 SHL DUP2 MSTORE PUSH1 0x20 PUSH1 0x4 DUP3 ADD MSTORE PUSH1 0x18 PUSH1 0x24 DUP3 ADD MSTORE PUSH24 0x557365726E616D652063616E6E6F7420626520656D707479 PUSH1 0x40 SHL PUSH1 0x44 DUP3 ADD MSTORE PUSH1 0x64 ADD PUSH2 0x2ED JUMP JUMPDEST CALLER PUSH1 0x0 SWAP1 DUP2 MSTORE PUSH1 0x20 DUP2 SWAP1 MSTORE PUSH1 0x40 SWAP1 KECCAK256 PUSH1 0x1 ADD PUSH2 0x1425 DUP3 DUP3 PUSH2 0x1A2B JUMP JUMPDEST POP CALLER PUSH1 0x1 PUSH1 0x1 PUSH1 0xA0 SHL SUB AND PUSH32 0x429AD3A7EDE99D93A72D6F0BA190681A2763D681F984E2F299AF21CA35CAEBDB DUP3 TIMESTAMP PUSH1 0x40 MLOAD PUSH2 0xA2F SWAP3 SWAP2 SWAP1 PUSH2 0x1B20 JUMP JUMPDEST PUSH1 0x0 DUP1 PUSH2 0x146D DUP5 PUSH2 0x14FE JUMP JUMPDEST SWAP1 POP PUSH2 0x1479 DUP2 DUP5 PUSH2 0x117A JUMP JUMPDEST SWAP5 SWAP4 POP POP POP POP JUMP JUMPDEST CALLER PUSH1 0x0 SWAP1 DUP2 MSTORE PUSH1 0x1 PUSH1 0x20 MSTORE PUSH1 0x40 SWAP1 KECCAK256 SLOAD PUSH1 0xFF AND PUSH2 0x14B0 JUMPI PUSH1 0x40 MLOAD PUSH3 0x461BCD PUSH1 0xE5 SHL DUP2 MSTORE PUSH1 0x4 ADD PUSH2 0x2ED SWAP1 PUSH2 0x1975 JUMP JUMPDEST CALLER PUSH1 0x0 DUP2 DUP2 MSTORE PUSH1 0x20 DUP2 DUP2 MSTORE PUSH1 0x40 SWAP2 DUP3 SWAP1 KECCAK256 PUSH1 0x3 ADD DUP1 SLOAD PUSH1 0xFF NOT AND SWAP1 SSTORE SWAP1 MLOAD TIMESTAMP DUP2 MSTORE PUSH32 0xA3C4DD3EE5277D6EADA470CF9B47A480953120ECAFCBBDC14BDE6F8A6248930 SWAP2 ADD PUSH1 0x40 MLOAD DUP1 SWAP2 SUB SWAP1 LOG2 JUMP JUMPDEST PUSH1 0x40 MLOAD PUSH32 0x19457468657265756D205369676E6564204D6573736167653A0A333200000000 PUSH1 0x20 DUP3 ADD MSTORE PUSH1 0x3C DUP2 ADD DUP3 SWAP1 MSTORE PUSH1 0x0 SWAP1 PUSH1 0x5C ADD PUSH1 0x40 MLOAD PUSH1 0x20 DUP2 DUP4 SUB SUB DUP2 MSTORE SWAP1 PUSH1 0x40 MSTORE DUP1 MLOAD SWAP1 PUSH1 0x20 ADD KECCAK256 SWAP1 POP SWAP2 SWAP1 POP JUMP JUMPDEST PUSH4 0x4E487B71 PUSH1 0xE0 SHL PUSH1 0x0 MSTORE PUSH1 0x41 PUSH1 0x4 MSTORE PUSH1 0x24 PUSH1 0x0 REVERT JUMPDEST PUSH1 0x0 DUP3 PUSH1 0x1F DUP4 ADD SLT PUSH2 0x1578 JUMPI PUSH1 0x0 DUP1 REVERT JUMPDEST DUP2 CALLDATALOAD PUSH8 0xFFFFFFFFFFFFFFFF DUP1 DUP3 GT ISZERO PUSH2 0x1593 JUMPI PUSH2 0x1593 PUSH2 0x1551 JUMP JUMPDEST PUSH1 0x40 MLOAD PUSH1 0x1F DUP4 ADD PUSH1 0x1F NOT SWAP1 DUP2 AND PUSH1 0x3F ADD AND DUP2 ADD SWAP1 DUP3 DUP3 GT DUP2 DUP4 LT OR ISZERO PUSH2 0x15BB JUMPI PUSH2 0x15BB PUSH2 0x1551 JUMP JUMPDEST DUP2 PUSH1 0x40 MSTORE DUP4 DUP2 MSTORE DUP7 PUSH1 0x20 DUP6 DUP9 ADD ADD GT ISZERO PUSH2 0x15D4 JUMPI PUSH1 0x0 DUP1 REVERT JUMPDEST DUP4 PUSH1 0x20 DUP8 ADD PUSH1 0x20 DUP4 ADD CALLDATACOPY PUSH1 0x0 PUSH1 0x20 DUP6 DUP4 ADD ADD MSTORE DUP1 SWAP5 POP POP POP POP POP SWAP3 SWAP2 POP POP JUMP JUMPDEST PUSH1 0x0 DUP1 PUSH1 0x0 DUP1 PUSH1 0x0 PUSH1 0xA0 DUP7 DUP9 SUB SLT ISZERO PUSH2 0x160C JUMPI PUSH1 0x0 DUP1 REVERT JUMPDEST DUP6 CALLDATALOAD PUSH8 0xFFFFFFFFFFFFFFFF DUP1 DUP3 GT ISZERO PUSH2 0x1624 JUMPI PUSH1 0x0 DUP1 REVERT JUMPDEST PUSH2 0x1630 DUP10 DUP4 DUP11 ADD PUSH2 0x1567 JUMP JUMPDEST SWAP7 POP PUSH1 0x20 DUP9 ADD CALLDATALOAD SWAP2 POP DUP1 DUP3 GT ISZERO PUSH2 0x1646 JUMPI PUSH1 0x0 DUP1 REVERT JUMPDEST PUSH2 0x1652 DUP10 DUP4 DUP11 ADD PUSH2 0x1567 JUMP JUMPDEST SWAP6 POP PUSH1 0x40 DUP9 ADD CALLDATALOAD SWAP2 POP DUP1 DUP3 GT ISZERO PUSH2 0x1668 JUMPI PUSH1 0x0 DUP1 REVERT JUMPDEST PUSH2 0x1674 DUP10 DUP4 DUP11 ADD PUSH2 0x1567 JUMP JUMPDEST SWAP5 POP PUSH1 0x60 DUP9 ADD CALLDATALOAD SWAP4 POP PUSH1 0x80 DUP9 ADD CALLDATALOAD SWAP2 POP DUP1 DUP3 GT ISZERO PUSH2 0x1691 JUMPI PUSH1 0x0 DUP1 REVERT JUMPDEST POP PUSH2 0x169E DUP9 DUP3 DUP10 ADD PUSH2 0x1567 JUMP JUMPDEST SWAP2 POP POP SWAP3 SWAP6 POP SWAP3 SWAP6 SWAP1 SWAP4 POP JUMP JUMPDEST PUSH1 0x0 PUSH1 0x20 DUP3 DUP5 SUB SLT ISZERO PUSH2 0x16BD JUMPI PUSH1 0x0 DUP1 REVERT JUMPDEST POP CALLDATALOAD SWAP2 SWAP1 POP JUMP JUMPDEST DUP1 CALLDATALOAD PUSH1 0x1 PUSH1 0x1 PUSH1 0xA0 SHL SUB DUP2 AND DUP2 EQ PUSH2 0x16DB JUMPI PUSH1 0x0 DUP1 REVERT JUMPDEST SWAP2 SWAP1 POP JUMP JUMPDEST PUSH1 0x0 DUP1 PUSH1 0x40 DUP4 DUP6 SUB SLT ISZERO PUSH2 0x16F3 JUMPI PUSH1 0x0 DUP1 REVERT JUMPDEST PUSH2 0x16FC DUP4 PUSH2 0x16C4 JUMP JUMPDEST SWAP5 PUSH1 0x20 SWAP4 SWAP1 SWAP4 ADD CALLDATALOAD SWAP4 POP POP POP JUMP JUMPDEST PUSH1 0x0 DUP2 MLOAD DUP1 DUP5 MSTORE PUSH1 0x0 JUMPDEST DUP2 DUP2 LT ISZERO PUSH2 0x1730 JUMPI PUSH1 0x20 DUP2 DUP6 ADD DUP2 ADD MLOAD DUP7 DUP4 ADD DUP3 ADD MSTORE ADD PUSH2 0x1714 JUMP JUMPDEST POP PUSH1 0x0 PUSH1 0x20 DUP3 DUP7 ADD ADD MSTORE PUSH1 0x20 PUSH1 0x1F NOT PUSH1 0x1F DUP4 ADD AND DUP6 ADD ADD SWAP2 POP POP SWAP3 SWAP2 POP POP JUMP JUMPDEST DUP8 DUP2 MSTORE PUSH1 0xE0 PUSH1 0x20 DUP3 ADD MSTORE PUSH1 0x0 PUSH2 0x1769 PUSH1 0xE0 DUP4 ADD DUP10 PUSH2 0x170A JUMP JUMPDEST DUP3 DUP2 SUB PUSH1 0x40 DUP5 ADD MSTORE PUSH2 0x177B DUP2 DUP10 PUSH2 0x170A JUMP JUMPDEST SWAP1 POP DUP3 DUP2 SUB PUSH1 0x60 DUP5 ADD MSTORE PUSH2 0x178F DUP2 DUP9 PUSH2 0x170A JUMP JUMPDEST SWAP1 POP DUP6 PUSH1 0x80 DUP5 ADD MSTORE DUP3 DUP2 SUB PUSH1 0xA0 DUP5 ADD MSTORE PUSH2 0x17A9 DUP2 DUP7 PUSH2 0x170A JUMP JUMPDEST SWAP2 POP POP DUP3 PUSH1 0xC0 DUP4 ADD MSTORE SWAP9 SWAP8 POP POP POP POP POP POP POP POP JUMP JUMPDEST PUSH1 0x0 PUSH1 0x20 DUP3 DUP5 SUB SLT ISZERO PUSH2 0x17D0 JUMPI PUSH1 0x0 DUP1 REVERT JUMPDEST PUSH2 0x17D9 DUP3 PUSH2 0x16C4 JUMP JUMPDEST SWAP4 SWAP3 POP POP POP JUMP JUMPDEST PUSH1 0x1 PUSH1 0x1 PUSH1 0xA0 SHL SUB DUP6 AND DUP2 MSTORE PUSH1 0x80 PUSH1 0x20 DUP3 ADD DUP2 SWAP1 MSTORE PUSH1 0x0 SWAP1 PUSH2 0x1804 SWAP1 DUP4 ADD DUP7 PUSH2 0x170A JUMP JUMPDEST PUSH1 0x40 DUP4 ADD SWAP5 SWAP1 SWAP5 MSTORE POP SWAP1 ISZERO ISZERO PUSH1 0x60 SWAP1 SWAP2 ADD MSTORE SWAP3 SWAP2 POP POP JUMP JUMPDEST PUSH1 0x0 PUSH1 0x20 DUP3 DUP5 SUB SLT ISZERO PUSH2 0x182E JUMPI PUSH1 0x0 DUP1 REVERT JUMPDEST DUP2 CALLDATALOAD PUSH8 0xFFFFFFFFFFFFFFFF DUP2 GT ISZERO PUSH2 0x1845 JUMPI PUSH1 0x0 DUP1 REVERT JUMPDEST PUSH2 0x1479 DUP5 DUP3 DUP6 ADD PUSH2 0x1567 JUMP JUMPDEST PUSH1 0x0 PUSH1 0x20 DUP1 DUP4 ADD DUP2 DUP5 MSTORE DUP1 DUP6 MLOAD DUP1 DUP4 MSTORE PUSH1 0x40 SWAP3 POP DUP3 DUP7 ADD SWAP2 POP DUP3 DUP2 PUSH1 0x5 SHL DUP8 ADD ADD DUP5 DUP9 ADD PUSH1 0x0 JUMPDEST DUP4 DUP2 LT ISZERO PUSH2 0x1920 JUMPI PUSH1 0x3F NOT DUP10 DUP5 SUB ADD DUP6 MSTORE DUP2 MLOAD PUSH1 0xE0 DUP2 MLOAD DUP6 MSTORE DUP9 DUP3 ADD MLOAD DUP2 DUP11 DUP8 ADD MSTORE PUSH2 0x18A6 DUP3 DUP8 ADD DUP3 PUSH2 0x170A JUMP JUMPDEST SWAP2 POP POP DUP8 DUP3 ADD MLOAD DUP6 DUP3 SUB DUP10 DUP8 ADD MSTORE PUSH2 0x18BE DUP3 DUP3 PUSH2 0x170A JUMP JUMPDEST SWAP2 POP POP PUSH1 0x60 DUP1 DUP4 ADD MLOAD DUP7 DUP4 SUB DUP3 DUP9 ADD MSTORE PUSH2 0x18D8 DUP4 DUP3 PUSH2 0x170A JUMP JUMPDEST SWAP3 POP POP POP PUSH1 0x80 DUP1 DUP4 ADD MLOAD DUP2 DUP8 ADD MSTORE POP PUSH1 0xA0 DUP1 DUP4 ADD MLOAD DUP7 DUP4 SUB DUP3 DUP9 ADD MSTORE PUSH2 0x18FE DUP4 DUP3 PUSH2 0x170A JUMP JUMPDEST PUSH1 0xC0 SWAP5 DUP6 ADD MLOAD SWAP8 SWAP1 SWAP5 ADD SWAP7 SWAP1 SWAP7 MSTORE POP POP SWAP5 DUP8 ADD SWAP5 SWAP3 POP SWAP1 DUP7 ADD SWAP1 PUSH1 0x1 ADD PUSH2 0x1878 JUMP JUMPDEST POP SWAP1 SWAP9 SWAP8 POP POP POP POP POP POP POP POP JUMP JUMPDEST PUSH1 0x0 DUP1 PUSH1 0x40 DUP4 DUP6 SUB SLT ISZERO PUSH2 0x1941 JUMPI PUSH1 0x0 DUP1 REVERT JUMPDEST DUP3 CALLDATALOAD SWAP2 POP PUSH1 0x20 DUP4 ADD CALLDATALOAD PUSH8 0xFFFFFFFFFFFFFFFF DUP2 GT ISZERO PUSH2 0x195F JUMPI PUSH1 0x0 DUP1 REVERT JUMPDEST PUSH2 0x196B DUP6 DUP3 DUP7 ADD PUSH2 0x1567 JUMP JUMPDEST SWAP2 POP POP SWAP3 POP SWAP3 SWAP1 POP JUMP JUMPDEST PUSH1 0x20 DUP1 DUP3 MSTORE PUSH1 0x13 SWAP1 DUP3 ADD MSTORE PUSH19 0x155CD95C881B9BDD081C9959DA5CDD195C9959 PUSH1 0x6A SHL PUSH1 0x40 DUP3 ADD MSTORE PUSH1 0x60 ADD SWAP1 JUMP JUMPDEST PUSH1 0x1 DUP2 DUP2 SHR SWAP1 DUP3 AND DUP1 PUSH2 0x19B6 JUMPI PUSH1 0x7F DUP3 AND SWAP2 POP JUMPDEST PUSH1 0x20 DUP3 LT DUP2 SUB PUSH2 0x19D6 JUMPI PUSH4 0x4E487B71 PUSH1 0xE0 SHL PUSH1 0x0 MSTORE PUSH1 0x22 PUSH1 0x4 MSTORE PUSH1 0x24 PUSH1 0x0 REVERT JUMPDEST POP SWAP2 SWAP1 POP JUMP JUMPDEST PUSH1 0x1F DUP3 GT ISZERO PUSH2 0x1A26 JUMPI PUSH1 0x0 DUP2 DUP2 MSTORE PUSH1 0x20 DUP2 KECCAK256 PUSH1 0x1F DUP6 ADD PUSH1 0x5 SHR DUP2 ADD PUSH1 0x20 DUP7 LT ISZERO PUSH2 0x1A03 JUMPI POP DUP1 JUMPDEST PUSH1 0x1F DUP6 ADD PUSH1 0x5 SHR DUP3 ADD SWAP2 POP JUMPDEST DUP2 DUP2 LT ISZERO PUSH2 0x1A22 JUMPI DUP3 DUP2 SSTORE PUSH1 0x1 ADD PUSH2 0x1A0F JUMP JUMPDEST POP POP POP JUMPDEST POP POP POP JUMP JUMPDEST DUP2 MLOAD PUSH8 0xFFFFFFFFFFFFFFFF DUP2 GT ISZERO PUSH2 0x1A45 JUMPI PUSH2 0x1A45 PUSH2 0x1551 JUMP JUMPDEST PUSH2 0x1A59 DUP2 PUSH2 0x1A53 DUP5 SLOAD PUSH2 0x19A2 JUMP JUMPDEST DUP5 PUSH2 0x19DC JUMP JUMPDEST PUSH1 0x20 DUP1 PUSH1 0x1F DUP4 GT PUSH1 0x1 DUP2 EQ PUSH2 0x1A8E JUMPI PUSH1 0x0 DUP5 ISZERO PUSH2 0x1A76 JUMPI POP DUP6 DUP4 ADD MLOAD JUMPDEST PUSH1 0x0 NOT PUSH1 0x3 DUP7 SWAP1 SHL SHR NOT AND PUSH1 0x1 DUP6 SWAP1 SHL OR DUP6 SSTORE PUSH2 0x1A22 JUMP JUMPDEST PUSH1 0x0 DUP6 DUP2 MSTORE PUSH1 0x20 DUP2 KECCAK256 PUSH1 0x1F NOT DUP7 AND SWAP2 JUMPDEST DUP3 DUP2 LT ISZERO PUSH2 0x1ABD JUMPI DUP9 DUP7 ADD MLOAD DUP3 SSTORE SWAP5 DUP5 ADD SWAP5 PUSH1 0x1 SWAP1 SWAP2 ADD SWAP1 DUP5 ADD PUSH2 0x1A9E JUMP JUMPDEST POP DUP6 DUP3 LT ISZERO PUSH2 0x1ADB JUMPI DUP8 DUP6 ADD MLOAD PUSH1 0x0 NOT PUSH1 0x3 DUP9 SWAP1 SHL PUSH1 0xF8 AND SHR NOT AND DUP2 SSTORE JUMPDEST POP POP POP POP POP PUSH1 0x1 SWAP1 DUP2 SHL ADD SWAP1 SSTORE POP JUMP JUMPDEST DUP4 DUP2 MSTORE PUSH1 0x60 PUSH1 0x20 DUP3 ADD MSTORE PUSH1 0x0 PUSH2 0x1B04 PUSH1 0x60 DUP4 ADD DUP6 PUSH2 0x170A JUMP JUMPDEST DUP3 DUP2 SUB PUSH1 0x40 DUP5 ADD MSTORE PUSH2 0x1B16 DUP2 DUP6 PUSH2 0x170A JUMP JUMPDEST SWAP7 SWAP6 POP POP POP POP POP POP JUMP JUMPDEST PUSH1 0x40 DUP2 MSTORE PUSH1 0x0 PUSH2 0x1B33 PUSH1 0x40 DUP4 ADD DUP6 PUSH2 0x170A JUMP JUMPDEST SWAP1 POP DUP3 PUSH1 0x20 DUP4 ADD MSTORE SWAP4 SWAP3 POP POP POP JUMP INVALID LOG2 PUSH5 0x6970667358 0x22 SLT KECCAK256 BASEFEE JUMP MSTORE8 PUSH25 0x7E4FA770DECC9670B521121A38FB0EB1CC97BE9FBCCFECFCA4 COINBASE 0xC9 CALLDATACOPY PUSH5 0x736F6C6343 STOP ADDMOD EQ STOP CALLER "},"methodIdentifiers":{"addDocument(string,string,string,bytes32,string)":"15215784","deactivateAccount()":"e040e9a0","getEthSignedMessageHash(bytes32)":"fa540801","getMyDocuments()":"9111976e","getMyInfo()":"7daa10ce","getTotalUsers()":"9be572f6","getUserDocuments(address)":"90a4b162","getUserInfo(address)":"6386c1c7","isRegistered(address)":"c3c5a547","recoverSigner(bytes32,bytes)":"97aba7f9","registerUser(string)":"704f1b94","splitSignature(bytes)":"a7bb5803","updateUsername(string)":"c96cea70","userAddresses(uint256)":"502c9bd5","userDocuments(address,uint256)":"577a1b92","users(address)":"a87430ba","verifySignature(bytes32,bytes)":"daca6f78"}}}}}