{
  "_format": "hh-sol-artifact-1",
  "contractName": "UserAuth",
  "sourceName": "contracts/UserAuth.sol",
  "abi": [
    {
      "anonymous": false,
      "inputs": [
        {
          "indexed": true,
          "internalType": "address",
          "name": "userAddress",
          "type": "address"
        },
        {
          "indexed": false,
          "internalType": "uint256",
          "name": "docId",
          "type": "uint256"
        },
        {
          "indexed": false,
          "internalType": "string",
          "name": "docType",
          "type": "string"
        },
        {
          "indexed": false,
          "internalType": "string",
          "name": "fileName",
          "type": "string"
        }
      ],
      "name": "DocumentUploaded",
      "type": "event"
    },
    {
      "anonymous": false,
      "inputs": [
        {
          "indexed": true,
          "internalType": "address",
          "name": "userAddress",
          "type": "address"
        },
        {
          "indexed": false,
          "internalType": "uint256",
          "name": "timestamp",
          "type": "uint256"
        }
      ],
      "name": "UserDeactivated",
      "type": "event"
    },
    {
      "anonymous": false,
      "inputs": [
        {
          "indexed": true,
          "internalType": "address",
          "name": "userAddress",
          "type": "address"
        },
        {
          "indexed": false,
          "internalType": "string",
          "name": "username",
          "type": "string"
        },
        {
          "indexed": false,
          "internalType": "uint256",
          "name": "timestamp",
          "type": "uint256"
        }
      ],
      "name": "UserRegistered",
      "type": "event"
    },
    {
      "anonymous": false,
      "inputs": [
        {
          "indexed": true,
          "internalType": "address",
          "name": "userAddress",
          "type": "address"
        },
        {
          "indexed": false,
          "internalType": "string",
          "name": "username",
          "type": "string"
        },
        {
          "indexed": false,
          "internalType": "uint256",
          "name": "timestamp",
          "type": "uint256"
        }
      ],
      "name": "UserUpdated",
      "type": "event"
    },
    {
      "inputs": [
        {
          "internalType": "string",
          "name": "_docType",
          "type": "string"
        },
        {
          "internalType": "string",
          "name": "_fileName",
          "type": "string"
        },
        {
          "internalType": "string",
          "name": "_ipfsHash",
          "type": "string"
        },
        {
          "internalType": "bytes32",
          "name": "_contentHash",
          "type": "bytes32"
        },
        {
          "internalType": "string",
          "name": "_verificationId",
          "type": "string"
        }
      ],
      "name": "addDocument",
      "outputs": [],
      "stateMutability": "nonpayable",
      "type": "function"
    },
    {
      "inputs": [],
      "name": "deactivateAccount",
      "outputs": [],
      "stateMutability": "nonpayable",
      "type": "function"
    },
    {
      "inputs": [
        {
          "internalType": "bytes32",
          "name": "messageHash",
          "type": "bytes32"
        }
      ],
      "name": "getEthSignedMessageHash",
      "outputs": [
        {
          "internalType": "bytes32",
          "name": "",
          "type": "bytes32"
        }
      ],
      "stateMutability": "pure",
      "type": "function"
    },
    {
      "inputs": [],
      "name": "getMyDocuments",
      "outputs": [
        {
          "components": [
            {
              "internalType": "uint256",
              "name": "id",
              "type": "uint256"
            },
            {
              "internalType": "string",
              "name": "docType",
              "type": "string"
            },
            {
              "internalType": "string",
              "name": "fileName",
              "type": "string"
            },
            {
              "internalType": "string",
              "name": "ipfsHash",
              "type": "string"
            },
            {
              "internalType": "bytes32",
              "name": "contentHash",
              "type": "bytes32"
            },
            {
              "internalType": "string",
              "name": "verificationId",
              "type": "string"
            },
            {
              "internalType": "uint256",
              "name": "uploadedAt",
              "type": "uint256"
            }
          ],
          "internalType": "struct UserAuth.Document[]",
          "name": "",
          "type": "tuple[]"
        }
      ],
      "stateMutability": "view",
      "type": "function"
    },
    {
      "inputs": [],
      "name": "getMyInfo",
      "outputs": [
        {
          "internalType": "address",
          "name": "userAddress",
          "type": "address"
        },
        {
          "internalType": "string",
          "name": "username",
          "type": "string"
        },
        {
          "internalType": "uint256",
          "name": "registeredAt",
          "type": "uint256"
        },
        {
          "internalType": "bool",
          "name": "isActive",
          "type": "bool"
        }
      ],
      "stateMutability": "view",
      "type": "function"
    },
    {
      "inputs": [],
      "name": "getTotalUsers",
      "outputs": [
        {
          "internalType": "uint256",
          "name": "",
          "type": "uint256"
        }
      ],
      "stateMutability": "view",
      "type": "function"
    },
    {
      "inputs": [
        {
          "internalType": "address",
          "name": "_userAddress",
          "type": "address"
        }
      ],
      "name": "getUserDocuments",
      "outputs": [
        {
          "components": [
            {
              "internalType": "uint256",
              "name": "id",
              "type": "uint256"
            },
            {
              "internalType": "string",
              "name": "docType",
              "type": "string"
            },
            {
              "internalType": "string",
              "name": "fileName",
              "type": "string"
            },
            {
              "internalType": "string",
              "name": "ipfsHash",
              "type": "string"
            },
            {
              "internalType": "bytes32",
              "name": "contentHash",
              "type": "bytes32"
            },
            {
              "internalType": "string",
              "name": "verificationId",
              "type": "string"
            },
            {
              "internalType": "uint256",
              "name": "uploadedAt",
              "type": "uint256"
            }
          ],
          "internalType": "struct UserAuth.Document[]",
          "name": "",
          "type": "tuple[]"
        }
      ],
      "stateMutability": "view",
      "type": "function"
    },
    {
      "inputs": [
        {
          "internalType": "address",
          "name": "_userAddress",
          "type": "address"
        }
      ],
      "name": "getUserInfo",
      "outputs": [
        {
          "internalType": "address",
          "name": "userAddress",
          "type": "address"
        },
        {
          "internalType": "string",
          "name": "username",
          "type": "string"
        },
        {
          "internalType": "uint256",
          "name": "registeredAt",
          "type": "uint256"
        },
        {
          "internalType": "bool",
          "name": "isActive",
          "type": "bool"
        }
      ],
      "stateMutability": "view",
      "type": "function"
    },
    {
      "inputs": [
        {
          "internalType": "bytes32",
          "name": "_hash",
          "type": "bytes32"
        }
      ],
      "name": "hashExists",
      "outputs": [
        {
          "internalType": "bool",
          "name": "",
          "type": "bool"
        }
      ],
      "stateMutability": "view",
      "type": "function"
    },
    {
      "inputs": [
        {
          "internalType": "address",
          "name": "",
          "type": "address"
        }
      ],
      "name": "isRegistered",
      "outputs": [
        {
          "internalType": "bool",
          "name": "",
          "type": "bool"
        }
      ],
      "stateMutability": "view",
      "type": "function"
    },
    {
      "inputs": [
        {
          "internalType": "bytes32",
          "name": "ethSignedMessageHash",
          "type": "bytes32"
        },
        {
          "internalType": "bytes",
          "name": "signature",
          "type": "bytes"
        }
      ],
      "name": "recoverSigner",
      "outputs": [
        {
          "internalType": "address",
          "name": "",
          "type": "address"
        }
      ],
      "stateMutability": "pure",
      "type": "function"
    },
    {
      "inputs": [
        {
          "internalType": "string",
          "name": "_username",
          "type": "string"
        }
      ],
      "name": "registerUser",
      "outputs": [],
      "stateMutability": "nonpayable",
      "type": "function"
    },
    {
      "inputs": [
        {
          "internalType": "address",
          "name": "_userAddress",
          "type": "address"
        },
        {
          "internalType": "string",
          "name": "_username",
          "type": "string"
        }
      ],
      "name": "registerUserFor",
      "outputs": [],
      "stateMutability": "nonpayable",
      "type": "function"
    },
    {
      "inputs": [
        {
          "internalType": "bytes",
          "name": "sig",
          "type": "bytes"
        }
      ],
      "name": "splitSignature",
      "outputs": [
        {
          "internalType": "bytes32",
          "name": "r",
          "type": "bytes32"
        },
        {
          "internalType": "bytes32",
          "name": "s",
          "type": "bytes32"
        },
        {
          "internalType": "uint8",
          "name": "v",
          "type": "uint8"
        }
      ],
      "stateMutability": "pure",
      "type": "function"
    },
    {
      "inputs": [
        {
          "internalType": "string",
          "name": "_newUsername",
          "type": "string"
        }
      ],
      "name": "updateUsername",
      "outputs": [],
      "stateMutability": "nonpayable",
      "type": "function"
    },
    {
      "inputs": [
        {
          "internalType": "uint256",
          "name": "",
          "type": "uint256"
        }
      ],
      "name": "userAddresses",
      "outputs": [
        {
          "internalType": "address",
          "name": "",
          "type": "address"
        }
      ],
      "stateMutability": "view",
      "type": "function"
    },
    {
      "inputs": [
        {
          "internalType": "address",
          "name": "",
          "type": "address"
        },
        {
          "internalType": "uint256",
          "name": "",
          "type": "uint256"
        }
      ],
      "name": "userDocuments",
      "outputs": [
        {
          "internalType": "uint256",
          "name": "id",
          "type": "uint256"
        },
        {
          "internalType": "string",
          "name": "docType",
          "type": "string"
        },
        {
          "internalType": "string",
          "name": "fileName",
          "type": "string"
        },
        {
          "internalType": "string",
          "name": "ipfsHash",
          "type": "string"
        },
        {
          "internalType": "bytes32",
          "name": "contentHash",
          "type": "bytes32"
        },
        {
          "internalType": "string",
          "name": "verificationId",
          "type": "string"
        },
        {
          "internalType": "uint256",
          "name": "uploadedAt",
          "type": "uint256"
        }
      ],
      "stateMutability": "view",
      "type": "function"
    },
    {
      "inputs": [
        {
          "internalType": "address",
          "name": "",
          "type": "address"
        }
      ],
      "name": "users",
      "outputs": [
        {
          "internalType": "address",
          "name": "userAddress",
          "type": "address"
        },
        {
          "internalType": "string",
          "name": "username",
          "type": "string"
        },
        {
          "internalType": "uint256",
          "name": "registeredAt",
          "type": "uint256"
        },
        {
          "internalType": "bool",
          "name": "isActive",
          "type": "bool"
        }
      ],
      "stateMutability": "view",
      "type": "function"
    },
    {
      "inputs": [
        {
          "internalType": "string",
          "name": "_verificationId",
          "type": "string"
        }
      ],
      "name": "verificationIdExists",
      "outputs": [
        {
          "internalType": "bool",
          "name": "",
          "type": "bool"
        }
      ],
      "stateMutability": "view",
      "type": "function"
    },
    {
      "inputs": [
        {
          "internalType": "bytes32",
          "name": "_hash",
          "type": "bytes32"
        }
      ],
      "name": "verifyByHash",
      "outputs": [
        {
          "internalType": "bool",
          "name": "verified",
          "type": "bool"
        },
        {
          "internalType": "address",
          "name": "owner",
          "type": "address"
        },
        {
          "internalType": "string",
          "name": "fileName",
          "type": "string"
        },
        {
          "internalType": "string",
          "name": "docType",
          "type": "string"
        },
        {
          "internalType": "string",
          "name": "verificationId",
          "type": "string"
        },
        {
          "internalType": "uint256",
          "name": "uploadedAt",
          "type": "uint256"
        }
      ],
      "stateMutability": "view",
      "type": "function"
    },
    {
      "inputs": [
        {
          "internalType": "string",
          "name": "_verificationId",
          "type": "string"
        }
      ],
      "name": "verifyById",
      "outputs": [
        {
          "internalType": "bool",
          "name": "verified",
          "type": "bool"
        },
        {
          "internalType": "address",
          "name": "owner",
          "type": "address"
        },
        {
          "internalType": "string",
          "name": "fileName",
          "type": "string"
        },
        {
          "internalType": "string",
          "name": "docType",
          "type": "string"
        },
        {
          "internalType": "bytes32",
          "name": "contentHash",
          "type": "bytes32"
        },
        {
          "internalType": "uint256",
          "name": "uploadedAt",
          "type": "uint256"
        }
      ],
      "stateMutability": "view",
      "type": "function"
    },
    {
      "inputs": [
        {
          "internalType": "bytes32",
          "name": "message",
          "type": "bytes32"
        },
        {
          "internalType": "bytes",
          "name": "signature",
          "type": "bytes"
        }
      ],
      "name": "verifySignature",
      "outputs": [
        {
          "internalType": "address",
          "name": "",
          "type": "address"
        }
      ],
      "stateMutability": "pure",
      "type": "function"
    }
  ],
  "bytecode": "0x608060405234801561001057600080fd5b506127a7806100206000396000f3fe608060405234801561001057600080fd5b50600436106101425760003560e01c80639be572f6116100b8578063c96cea701161007c578063c96cea7014610311578063cedde4ce14610324578063d7724e3014610337578063daca6f781461034a578063e040e9a01461035d578063fa5408011461036557600080fd5b80639be572f614610275578063a7bb580314610287578063a87430ba146102b8578063b535b5c3146102cb578063c3c5a547146102ee57600080fd5b80636386c1c71161010a5780636386c1c7146101fc578063704f1b941461021f5780637daa10ce1461023257806390a4b1621461023a5780639111976e1461025a57806397aba7f91461026257600080fd5b80631521578414610147578063502c9bd51461015c578063577a1b921461018c578063586fe076146101b25780635d4dd1be146101d7575b600080fd5b61015a610155366004612021565b610378565b005b61016f61016a3660046120d8565b610525565b6040516001600160a01b0390911681526020015b60405180910390f35b61019f61019a36600461210d565b61054f565b6040516101839796959493929190612187565b6101c56101c03660046121f5565b6107ce565b6040516101839695949392919061222a565b6101ea6101e53660046120d8565b610bf0565b6040516101839695949392919061227e565b61020f61020a3660046122e4565b610fcd565b6040516101839493929190612306565b61015a61022d3660046121f5565b61112f565b61020f6112c2565b61024d6102483660046122e4565b6113f4565b6040516101839190612342565b61024d611705565b61016f61027036600461241f565b611a02565b6003545b604051908152602001610183565b61029a6102953660046121f5565b611a81565b60408051938452602084019290925260ff1690820152606001610183565b61020f6102c63660046122e4565b611af5565b6102de6102d93660046120d8565b611bb4565b6040519015158152602001610183565b6102de6102fc3660046122e4565b60016020526000908152604090205460ff1681565b61015a61031f3660046121f5565b611bcd565b6102de6103323660046121f5565b611cd7565b61015a610345366004612466565b611ce3565b61016f61035836600461241f565b611e8e565b61015a611eae565b6102796103733660046120d8565b611f2b565b3360009081526001602052604090205460ff166103b05760405162461bcd60e51b81526004016103a79061249e565b60405180910390fd5b3360009081526020819052604090206003015460ff166104125760405162461bcd60e51b815260206004820152601b60248201527f55736572206163636f756e74206973206465616374697661746564000000000060448201526064016103a7565b6040805160e0810182523360009081526002602081815284832080548086528286018c81529686018b9052606086018a90526080860189905260a086018890524260c0870152928252600180840182559084529220835160079092020190815592519192839290918201906104879082612554565b506040820151600282019061049c9082612554565b50606082015160038201906104b19082612554565b506080820151600482015560a082015160058201906104d09082612554565b5060c09190910151600690910155805160405133917fa9087cdc21e5c66543fde424b69d7d1d27a930228e18086258e84d24c5d2c3149161051591908a908a90612614565b60405180910390a2505050505050565b6003818154811061053557600080fd5b6000918252602090912001546001600160a01b0316905081565b6002602052816000526040600020818154811061056b57600080fd5b906000526020600020906007020160009150915050806000015490806001018054610595906124cb565b80601f01602080910402602001604051908101604052809291908181526020018280546105c1906124cb565b801561060e5780601f106105e35761010080835404028352916020019161060e565b820191906000526020600020905b8154815290600101906020018083116105f157829003601f168201915b505050505090806002018054610623906124cb565b80601f016020809104026020016040519081016040528092919081815260200182805461064f906124cb565b801561069c5780601f106106715761010080835404028352916020019161069c565b820191906000526020600020905b81548152906001019060200180831161067f57829003601f168201915b5050505050908060030180546106b1906124cb565b80601f01602080910402602001604051908101604052809291908181526020018280546106dd906124cb565b801561072a5780601f106106ff5761010080835404028352916020019161072a565b820191906000526020600020905b81548152906001019060200180831161070d57829003601f168201915b505050505090806004015490806005018054610745906124cb565b80601f0160208091040260200160405190810160405280929190818152602001828054610771906124cb565b80156107be5780601f10610793576101008083540402835291602001916107be565b820191906000526020600020905b8154815290600101906020018083116107a157829003601f168201915b5050505050908060060154905087565b60008060608060008060005b600354811015610bbb576000600382815481106107f9576107f9612649565b60009182526020822001546001600160a01b031691505b6001600160a01b038216600090815260026020526040902054811015610ba65789604051602001610841919061265f565b60408051601f1981840301815291815281516020928301206001600160a01b03851660009081526002909352912080548390811061088157610881612649565b90600052602060002090600702016005016040516020016108a2919061267b565b6040516020818303038152906040528051906020012003610b94576001600160a01b03821660009081526002602052604081208054839081106108e7576108e7612649565b90600052602060002090600702016040518060e00160405290816000820154815260200160018201805461091a906124cb565b80601f0160208091040260200160405190810160405280929190818152602001828054610946906124cb565b80156109935780601f1061096857610100808354040283529160200191610993565b820191906000526020600020905b81548152906001019060200180831161097657829003601f168201915b505050505081526020016002820180546109ac906124cb565b80601f01602080910402602001604051908101604052809291908181526020018280546109d8906124cb565b8015610a255780601f106109fa57610100808354040283529160200191610a25565b820191906000526020600020905b815481529060010190602001808311610a0857829003601f168201915b50505050508152602001600382018054610a3e906124cb565b80601f0160208091040260200160405190810160405280929190818152602001828054610a6a906124cb565b8015610ab75780601f10610a8c57610100808354040283529160200191610ab7565b820191906000526020600020905b815481529060010190602001808311610a9a57829003601f168201915b5050505050815260200160048201548152602001600582018054610ada906124cb565b80601f0160208091040260200160405190810160405280929190818152602001828054610b06906124cb565b8015610b535780601f10610b2857610100808354040283529160200191610b53565b820191906000526020600020905b815481529060010190602001808311610b3657829003601f168201915b5050505050815260200160068201548152505090506001838260400151836020015184608001518560c0015199509950995099509950995050505050610be7565b80610b9e816126f1565b915050610810565b50508080610bb3906126f1565b9150506107da565b505060408051602080820183526000808352835191820190935282815291965086955093509150839050805b91939550919395565b6000806060808083805b600354811015610f9257600060038281548110610c1957610c19612649565b60009182526020822001546001600160a01b031691505b6001600160a01b038216600090815260026020526040902054811015610f7d576001600160a01b038216600090815260026020526040902080548b919083908110610c7d57610c7d612649565b90600052602060002090600702016004015403610f6b576001600160a01b0382166000908152600260205260408120805483908110610cbe57610cbe612649565b90600052602060002090600702016040518060e001604052908160008201548152602001600182018054610cf1906124cb565b80601f0160208091040260200160405190810160405280929190818152602001828054610d1d906124cb565b8015610d6a5780601f10610d3f57610100808354040283529160200191610d6a565b820191906000526020600020905b815481529060010190602001808311610d4d57829003601f168201915b50505050508152602001600282018054610d83906124cb565b80601f0160208091040260200160405190810160405280929190818152602001828054610daf906124cb565b8015610dfc5780601f10610dd157610100808354040283529160200191610dfc565b820191906000526020600020905b815481529060010190602001808311610ddf57829003601f168201915b50505050508152602001600382018054610e15906124cb565b80601f0160208091040260200160405190810160405280929190818152602001828054610e41906124cb565b8015610e8e5780601f10610e6357610100808354040283529160200191610e8e565b820191906000526020600020905b815481529060010190602001808311610e7157829003601f168201915b5050505050815260200160048201548152602001600582018054610eb1906124cb565b80601f0160208091040260200160405190810160405280929190818152602001828054610edd906124cb565b8015610f2a5780601f10610eff57610100808354040283529160200191610f2a565b820191906000526020600020905b815481529060010190602001808311610f0d57829003601f168201915b505050505081526020016006820154815250509050600183826040015183602001518460a001518560c0015199509950995099509950995050505050610be7565b80610f75816126f1565b915050610c30565b50508080610f8a906126f1565b915050610bfa565b505060408051602080820183526000808352835180830185528181528451928301909452808252998a99509197509195509093508692509050565b6001600160a01b0381166000908152600160205260408120546060908290819060ff1661102d5760405162461bcd60e51b815260206004820152600e60248201526d155cd95c881b9bdd08199bdd5b9960921b60448201526064016103a7565b6001600160a01b038086166000908152602081815260408083208151608081019092528054909416815260018401805493949193919284019161106f906124cb565b80601f016020809104026020016040519081016040528092919081815260200182805461109b906124cb565b80156110e85780601f106110bd576101008083540402835291602001916110e8565b820191906000526020600020905b8154815290600101906020018083116110cb57829003601f168201915b5050509183525050600282015460208083019190915260039092015460ff161515604091820152825191830151908301516060909301519199909850919650945092505050565b3360009081526001602052604090205460ff16156111895760405162461bcd60e51b8152602060048201526017602482015276155cd95c88185b1c9958591e481c9959da5cdd195c9959604a1b60448201526064016103a7565b60008151116111aa5760405162461bcd60e51b81526004016103a790612718565b60408051608081018252338082526020808301858152428486015260016060850181905260009384529183905293909120825181546001600160a01b0319166001600160a01b0390911617815592519192919082019061120a9082612554565b5060408281015160028301556060909201516003918201805491151560ff19928316179055336000818152600160208190528582208054909416811790935583549283018455929092527fc2575a0e9e593c00f959f8c92f12db2869c3395a3b0502d05e2516446f71f85b0180546001600160a01b0319168217905590517f89105a1c6a3c2fbd471255c66a31ccab604af5697f67d7e2e9a0028c5e4dbd91906112b7908490429061274f565b60405180910390a250565b336000908152600160205260408120546060908290819060ff166112f85760405162461bcd60e51b81526004016103a79061249e565b3360009081526020818152604080832081516080810190925280546001600160a01b031682526001810180549293919291840191611335906124cb565b80601f0160208091040260200160405190810160405280929190818152602001828054611361906124cb565b80156113ae5780601f10611383576101008083540402835291602001916113ae565b820191906000526020600020905b81548152906001019060200180831161139157829003601f168201915b5050509183525050600282015460208083019190915260039092015460ff1615156040918201528251918301519083015160609093015191989097509195509350915050565b6001600160a01b03811660009081526001602052604090205460609060ff1661142f5760405162461bcd60e51b81526004016103a79061249e565b6001600160a01b038216600090815260026020908152604080832080548251818502810185019093528083529193909284015b828210156116fa57838290600052602060002090600702016040518060e00160405290816000820154815260200160018201805461149f906124cb565b80601f01602080910402602001604051908101604052809291908181526020018280546114cb906124cb565b80156115185780601f106114ed57610100808354040283529160200191611518565b820191906000526020600020905b8154815290600101906020018083116114fb57829003601f168201915b50505050508152602001600282018054611531906124cb565b80601f016020809104026020016040519081016040528092919081815260200182805461155d906124cb565b80156115aa5780601f1061157f576101008083540402835291602001916115aa565b820191906000526020600020905b81548152906001019060200180831161158d57829003601f168201915b505050505081526020016003820180546115c3906124cb565b80601f01602080910402602001604051908101604052809291908181526020018280546115ef906124cb565b801561163c5780601f106116115761010080835404028352916020019161163c565b820191906000526020600020905b81548152906001019060200180831161161f57829003601f168201915b505050505081526020016004820154815260200160058201805461165f906124cb565b80601f016020809104026020016040519081016040528092919081815260200182805461168b906124cb565b80156116d85780601f106116ad576101008083540402835291602001916116d8565b820191906000526020600020905b8154815290600101906020018083116116bb57829003601f168201915b5050505050815260200160068201548152505081526020019060010190611462565b505050509050919050565b3360009081526001602052604090205460609060ff166117375760405162461bcd60e51b81526004016103a79061249e565b33600090815260026020908152604080832080548251818502810185019093528083529193909284015b828210156119f957838290600052602060002090600702016040518060e00160405290816000820154815260200160018201805461179e906124cb565b80601f01602080910402602001604051908101604052809291908181526020018280546117ca906124cb565b80156118175780601f106117ec57610100808354040283529160200191611817565b820191906000526020600020905b8154815290600101906020018083116117fa57829003601f168201915b50505050508152602001600282018054611830906124cb565b80601f016020809104026020016040519081016040528092919081815260200182805461185c906124cb565b80156118a95780601f1061187e576101008083540402835291602001916118a9565b820191906000526020600020905b81548152906001019060200180831161188c57829003601f168201915b505050505081526020016003820180546118c2906124cb565b80601f01602080910402602001604051908101604052809291908181526020018280546118ee906124cb565b801561193b5780601f106119105761010080835404028352916020019161193b565b820191906000526020600020905b81548152906001019060200180831161191e57829003601f168201915b505050505081526020016004820154815260200160058201805461195e906124cb565b80601f016020809104026020016040519081016040528092919081815260200182805461198a906124cb565b80156119d75780601f106119ac576101008083540402835291602001916119d7565b820191906000526020600020905b8154815290600101906020018083116119ba57829003601f168201915b5050505050815260200160068201548152505081526020019060010190611761565b50505050905090565b600080600080611a1185611a81565b6040805160008152602081018083528b905260ff8316918101919091526060810184905260808101839052929550909350915060019060a0016020604051602081039080840390855afa158015611a6c573d6000803e3d6000fd5b5050604051601f190151979650505050505050565b60008060008351604114611ad75760405162461bcd60e51b815260206004820152601860248201527f496e76616c6964207369676e6174757265206c656e677468000000000000000060448201526064016103a7565b50505060208101516040820151606090920151909260009190911a90565b600060208190529081526040902080546001820180546001600160a01b039092169291611b21906124cb565b80601f0160208091040260200160405190810160405280929190818152602001828054611b4d906124cb565b8015611b9a5780601f10611b6f57610100808354040283529160200191611b9a565b820191906000526020600020905b815481529060010190602001808311611b7d57829003601f168201915b50505050600283015460039093015491929160ff16905084565b600080611bc083610bf0565b5093979650505050505050565b3360009081526001602052604090205460ff16611bfc5760405162461bcd60e51b81526004016103a79061249e565b3360009081526020819052604090206003015460ff16611c5e5760405162461bcd60e51b815260206004820152601b60248201527f55736572206163636f756e74206973206465616374697661746564000000000060448201526064016103a7565b6000815111611c7f5760405162461bcd60e51b81526004016103a790612718565b336000908152602081905260409020600101611c9b8282612554565b50336001600160a01b03167f429ad3a7ede99d93a72d6f0ba190681a2763d681f984e2f299af21ca35caebdb82426040516112b792919061274f565b600080611bc0836107ce565b6001600160a01b03821660009081526001602052604090205460ff1615611d465760405162461bcd60e51b8152602060048201526017602482015276155cd95c88185b1c9958591e481c9959da5cdd195c9959604a1b60448201526064016103a7565b6000815111611d675760405162461bcd60e51b81526004016103a790612718565b604080516080810182526001600160a01b038481168083526020808401868152428587015260016060860181905260009384529183905294909120835181546001600160a01b031916931692909217825592519192909190820190611dcc9082612554565b5060408281015160028301556060909201516003918201805491151560ff199283161790556001600160a01b0385166000818152600160208190528582208054909416811790935583549283018455929092527fc2575a0e9e593c00f959f8c92f12db2869c3395a3b0502d05e2516446f71f85b0180546001600160a01b0319168217905590517f89105a1c6a3c2fbd471255c66a31ccab604af5697f67d7e2e9a0028c5e4dbd9190611e82908490429061274f565b60405180910390a25050565b600080611e9a84611f2b565b9050611ea68184611a02565b949350505050565b3360009081526001602052604090205460ff16611edd5760405162461bcd60e51b81526004016103a79061249e565b3360008181526020818152604091829020600301805460ff1916905590514281527f0a3c4dd3ee5277d6eada470cf9b47a480953120ecafcbbdc14bde6f8a6248930910160405180910390a2565b6040517f19457468657265756d205369676e6564204d6573736167653a0a3332000000006020820152603c8101829052600090605c01604051602081830303815290604052805190602001209050919050565b634e487b7160e01b600052604160045260246000fd5b600082601f830112611fa557600080fd5b813567ffffffffffffffff80821115611fc057611fc0611f7e565b604051601f8301601f19908116603f01168101908282118183101715611fe857611fe8611f7e565b8160405283815286602085880101111561200157600080fd5b836020870160208301376000602085830101528094505050505092915050565b600080600080600060a0868803121561203957600080fd5b853567ffffffffffffffff8082111561205157600080fd5b61205d89838a01611f94565b9650602088013591508082111561207357600080fd5b61207f89838a01611f94565b9550604088013591508082111561209557600080fd5b6120a189838a01611f94565b94506060880135935060808801359150808211156120be57600080fd5b506120cb88828901611f94565b9150509295509295909350565b6000602082840312156120ea57600080fd5b5035919050565b80356001600160a01b038116811461210857600080fd5b919050565b6000806040838503121561212057600080fd5b612129836120f1565b946020939093013593505050565b60005b8381101561215257818101518382015260200161213a565b50506000910152565b60008151808452612173816020860160208601612137565b601f01601f19169290920160200192915050565b87815260e0602082015260006121a060e083018961215b565b82810360408401526121b2818961215b565b905082810360608401526121c6818861215b565b905085608084015282810360a08401526121e0818661215b565b9150508260c083015298975050505050505050565b60006020828403121561220757600080fd5b813567ffffffffffffffff81111561221e57600080fd5b611ea684828501611f94565b86151581526001600160a01b038616602082015260c0604082018190526000906122569083018761215b565b8281036060840152612268818761215b565b6080840195909552505060a00152949350505050565b86151581526001600160a01b038616602082015260c0604082018190526000906122aa9083018761215b565b82810360608401526122bc818761215b565b905082810360808401526122d0818661215b565b9150508260a0830152979650505050505050565b6000602082840312156122f657600080fd5b6122ff826120f1565b9392505050565b6001600160a01b038516815260806020820181905260009061232a9083018661215b565b60408301949094525090151560609091015292915050565b60006020808301818452808551808352604092508286019150828160051b87010184880160005b8381101561241157603f19898403018552815160e08151855288820151818a8701526123978287018261215b565b91505087820151858203898701526123af828261215b565b915050606080830151868303828801526123c9838261215b565b92505050608080830151818701525060a080830151868303828801526123ef838261215b565b60c0948501519790940196909652505094870194925090860190600101612369565b509098975050505050505050565b6000806040838503121561243257600080fd5b82359150602083013567ffffffffffffffff81111561245057600080fd5b61245c85828601611f94565b9150509250929050565b6000806040838503121561247957600080fd5b612482836120f1565b9150602083013567ffffffffffffffff81111561245057600080fd5b602080825260139082015272155cd95c881b9bdd081c9959da5cdd195c9959606a1b604082015260600190565b600181811c908216806124df57607f821691505b6020821081036124ff57634e487b7160e01b600052602260045260246000fd5b50919050565b601f82111561254f57600081815260208120601f850160051c8101602086101561252c5750805b601f850160051c820191505b8181101561254b57828155600101612538565b5050505b505050565b815167ffffffffffffffff81111561256e5761256e611f7e565b6125828161257c84546124cb565b84612505565b602080601f8311600181146125b7576000841561259f5750858301515b600019600386901b1c1916600185901b17855561254b565b600085815260208120601f198616915b828110156125e6578886015182559484019460019091019084016125c7565b50858210156126045787850151600019600388901b60f8161c191681555b5050505050600190811b01905550565b83815260606020820152600061262d606083018561215b565b828103604084015261263f818561215b565b9695505050505050565b634e487b7160e01b600052603260045260246000fd5b60008251612671818460208701612137565b9190910192915050565b6000808354612689816124cb565b600182811680156126a157600181146126b6576126e5565b60ff19841687528215158302870194506126e5565b8760005260208060002060005b858110156126dc5781548a8201529084019082016126c3565b50505082870194505b50929695505050505050565b60006001820161271157634e487b7160e01b600052601160045260246000fd5b5060010190565b60208082526018908201527f557365726e616d652063616e6e6f7420626520656d7074790000000000000000604082015260600190565b604081526000612762604083018561215b565b9050826020830152939250505056fea26469706673582212202f11e6a34ca77473895095f91e22f95e037087831335418f887c3fe70f378feb64736f6c63430008140033",
  "linkReferences": {},
  "deployedLinkReferences": {}
}