{
  "_format": "hh-sol-artifact-1",
  "contractName": "UserAuth",
  "sourceName": "contracts/UserAuth.sol",
  "abi": [
    {
      "anonymous": false,
      "inputs": [
        {
          "indexed": true,
          "internalType": "address",
          "name": "userAddress",
          "type": "address"
        },
        {
          "indexed": false,
          "internalType": "uint256",
          "name": "docId",
          "type": "uint256"
        },
        {
          "indexed": false,
          "internalType": "string",
          "name": "docType",
          "type": "string"
        },
        {
          "indexed": false,
          "internalType": "string",
          "name": "fileName",
          "type": "string"
        }
      ],
      "name": "DocumentUploaded",
      "type": "event"
    },
    {
      "anonymous": false,
      "inputs": [
        {
          "indexed": true,
          "internalType": "address",
          "name": "userAddress",
          "type": "address"
        },
        {
          "indexed": false,
          "internalType": "uint256",
          "name": "timestamp",
          "type": "uint256"
        }
      ],
      "name": "UserDeactivated",
      "type": "event"
    },
    {
      "anonymous": false,
      "inputs": [
        {
          "indexed": true,
          "internalType": "address",
          "name": "userAddress",
          "type": "address"
        },
        {
          "indexed": false,
          "internalType": "string",
          "name": "username",
          "type": "string"
        },
        {
          "indexed": false,
          "internalType": "uint256",
          "name": "timestamp",
          "type": "uint256"
        }
      ],
      "name": "UserRegistered",
      "type": "event"
    },
    {
      "anonymous": false,
      "inputs": [
        {
          "indexed": true,
          "internalType": "address",
          "name": "userAddress",
          "type": "address"
        },
        {
          "indexed": false,
          "internalType": "string",
          "name": "username",
          "type": "string"
        },
        {
          "indexed": false,
          "internalType": "uint256",
          "name": "timestamp",
          "type": "uint256"
        }
      ],
      "name": "UserUpdated",
      "type": "event"
    },
    {
      "inputs": [
        {
          "internalType": "string",
          "name": "_docType",
          "type": "string"
        },
        {
          "internalType": "string",
          "name": "_fileName",
          "type": "string"
        },
        {
          "internalType": "string",
          "name": "_ipfsHash",
          "type": "string"
        },
        {
          "internalType": "bytes32",
          "name": "_contentHash",
          "type": "bytes32"
        },
        {
          "internalType": "string",
          "name": "_verificationId",
          "type": "string"
        }
      ],
      "name": "addDocument",
      "outputs": [],
      "stateMutability": "nonpayable",
      "type": "function"
    },
    {
      "inputs": [],
      "name": "deactivateAccount",
      "outputs": [],
      "stateMutability": "nonpayable",
      "type": "function"
    },
    {
      "inputs": [
        {
          "internalType": "bytes32",
          "name": "messageHash",
          "type": "bytes32"
        }
      ],
      "name": "getEthSignedMessageHash",
      "outputs": [
        {
          "internalType": "bytes32",
          "name": "",
          "type": "bytes32"
        }
      ],
      "stateMutability": "pure",
      "type": "function"
    },
    {
      "inputs": [],
      "name": "getMyDocuments",
      "outputs": [
        {
          "components": [
            {
              "internalType": "uint256",
              "name": "id",
              "type": "uint256"
            },
            {
              "internalType": "string",
              "name": "docType",
              "type": "string"
            },
            {
              "internalType": "string",
              "name": "fileName",
              "type": "string"
            },
            {
              "internalType": "string",
              "name": "ipfsHash",
              "type": "string"
            },
            {
              "internalType": "bytes32",
              "name": "contentHash",
              "type": "bytes32"
            },
            {
              "internalType": "string",
              "name": "verificationId",
              "type": "string"
            },
            {
              "internalType": "uint256",
              "name": "uploadedAt",
              "type": "uint256"
            }
          ],
          "internalType": "struct UserAuth.Document[]",
          "name": "",
          "type": "tuple[]"
        }
      ],
      "stateMutability": "view",
      "type": "function"
    },
    {
      "inputs": [],
      "name": "getMyInfo",
      "outputs": [
        {
          "internalType": "address",
          "name": "userAddress",
          "type": "address"
        },
        {
          "internalType": "string",
          "name": "username",
          "type": "string"
        },
        {
          "internalType": "uint256",
          "name": "registeredAt",
          "type": "uint256"
        },
        {
          "internalType": "bool",
          "name": "isActive",
          "type": "bool"
        }
      ],
      "stateMutability": "view",
      "type": "function"
    },
    {
      "inputs": [],
      "name": "getTotalUsers",
      "outputs": [
        {
          "internalType": "uint256",
          "name": "",
          "type": "uint256"
        }
      ],
      "stateMutability": "view",
      "type": "function"
    },
    {
      "inputs": [
        {
          "internalType": "address",
          "name": "_userAddress",
          "type": "address"
        }
      ],
      "name": "getUserDocuments",
      "outputs": [
        {
          "components": [
            {
              "internalType": "uint256",
              "name": "id",
              "type": "uint256"
            },
            {
              "internalType": "string",
              "name": "docType",
              "type": "string"
            },
            {
              "internalType": "string",
              "name": "fileName",
              "type": "string"
            },
            {
              "internalType": "string",
              "name": "ipfsHash",
              "type": "string"
            },
            {
              "internalType": "bytes32",
              "name": "contentHash",
              "type": "bytes32"
            },
            {
              "internalType": "string",
              "name": "verificationId",
              "type": "string"
            },
            {
              "internalType": "uint256",
              "name": "uploadedAt",
              "type": "uint256"
            }
          ],
          "internalType": "struct UserAuth.Document[]",
          "name": "",
          "type": "tuple[]"
        }
      ],
      "stateMutability": "view",
      "type": "function"
    },
    {
      "inputs": [
        {
          "internalType": "address",
          "name": "_userAddress",
          "type": "address"
        }
      ],
      "name": "getUserInfo",
      "outputs": [
        {
          "internalType": "address",
          "name": "userAddress",
          "type": "address"
        },
        {
          "internalType": "string",
          "name": "username",
          "type": "string"
        },
        {
          "internalType": "uint256",
          "name": "registeredAt",
          "type": "uint256"
        },
        {
          "internalType": "bool",
          "name": "isActive",
          "type": "bool"
        }
      ],
      "stateMutability": "view",
      "type": "function"
    },
    {
      "inputs": [
        {
          "internalType": "address",
          "name": "",
          "type": "address"
        }
      ],
      "name": "isRegistered",
      "outputs": [
        {
          "internalType": "bool",
          "name": "",
          "type": "bool"
        }
      ],
      "stateMutability": "view",
      "type": "function"
    },
    {
      "inputs": [
        {
          "internalType": "bytes32",
          "name": "ethSignedMessageHash",
          "type": "bytes32"
        },
        {
          "internalType": "bytes",
          "name": "signature",
          "type": "bytes"
        }
      ],
      "name": "recoverSigner",
      "outputs": [
        {
          "internalType": "address",
          "name": "",
          "type": "address"
        }
      ],
      "stateMutability": "pure",
      "type": "function"
    },
    {
      "inputs": [
        {
          "internalType": "string",
          "name": "_username",
          "type": "string"
        }
      ],
      "name": "registerUser",
      "outputs": [],
      "stateMutability": "nonpayable",
      "type": "function"
    },
    {
      "inputs": [
        {
          "internalType": "bytes",
          "name": "sig",
          "type": "bytes"
        }
      ],
      "name": "splitSignature",
      "outputs": [
        {
          "internalType": "bytes32",
          "name": "r",
          "type": "bytes32"
        },
        {
          "internalType": "bytes32",
          "name": "s",
          "type": "bytes32"
        },
        {
          "internalType": "uint8",
          "name": "v",
          "type": "uint8"
        }
      ],
      "stateMutability": "pure",
      "type": "function"
    },
    {
      "inputs": [
        {
          "internalType": "string",
          "name": "_newUsername",
          "type": "string"
        }
      ],
      "name": "updateUsername",
      "outputs": [],
      "stateMutability": "nonpayable",
      "type": "function"
    },
    {
      "inputs": [
        {
          "internalType": "uint256",
          "name": "",
          "type": "uint256"
        }
      ],
      "name": "userAddresses",
      "outputs": [
        {
          "internalType": "address",
          "name": "",
          "type": "address"
        }
      ],
      "stateMutability": "view",
      "type": "function"
    },
    {
      "inputs": [
        {
          "internalType": "address",
          "name": "",
          "type": "address"
        },
        {
          "internalType": "uint256",
          "name": "",
          "type": "uint256"
        }
      ],
      "name": "userDocuments",
      "outputs": [
        {
          "internalType": "uint256",
          "name": "id",
          "type": "uint256"
        },
        {
          "internalType": "string",
          "name": "docType",
          "type": "string"
        },
        {
          "internalType": "string",
          "name": "fileName",
          "type": "string"
        },
        {
          "internalType": "string",
          "name": "ipfsHash",
          "type": "string"
        },
        {
          "internalType": "bytes32",
          "name": "contentHash",
          "type": "bytes32"
        },
        {
          "internalType": "string",
          "name": "verificationId",
          "type": "string"
        },
        {
          "internalType": "uint256",
          "name": "uploadedAt",
          "type": "uint256"
        }
      ],
      "stateMutability": "view",
      "type": "function"
    },
    {
      "inputs": [
        {
          "internalType": "address",
          "name": "",
          "type": "address"
        }
      ],
      "name": "users",
      "outputs": [
        {
          "internalType": "address",
          "name": "userAddress",
          "type": "address"
        },
        {
          "internalType": "string",
          "name": "username",
          "type": "string"
        },
        {
          "internalType": "uint256",
          "name": "registeredAt",
          "type": "uint256"
        },
        {
          "internalType": "bool",
          "name": "isActive",
          "type": "bool"
        }
      ],
      "stateMutability": "view",
      "type": "function"
    },
    {
      "inputs": [
        {
          "internalType": "bytes32",
          "name": "message",
          "type": "bytes32"
        },
        {
          "internalType": "bytes",
          "name": "signature",
          "type": "bytes"
        }
      ],
      "name": "verifySignature",
      "outputs": [
        {
          "internalType": "address",
          "name": "",
          "type": "address"
        }
      ],
      "stateMutability": "pure",
      "type": "function"
    }
  ],
  "bytecode": "0x608060405234801561001057600080fd5b50611b78806100206000396000f3fe608060405234801561001057600080fd5b506004361061010b5760003560e01c806397aba7f9116100a2578063c3c5a54711610071578063c3c5a5471461024a578063c96cea701461027d578063daca6f7814610290578063e040e9a0146102a3578063fa540801146102ab57600080fd5b806397aba7f9146101e15780639be572f6146101f4578063a7bb580314610206578063a87430ba1461023757600080fd5b8063704f1b94116100de578063704f1b941461019e5780637daa10ce146101b157806390a4b162146101b95780639111976e146101d957600080fd5b80631521578414610110578063502c9bd514610125578063577a1b92146101555780636386c1c71461017b575b600080fd5b61012361011e3660046115f4565b6102be565b005b6101386101333660046116ab565b61046b565b6040516001600160a01b0390911681526020015b60405180910390f35b6101686101633660046116e0565b610495565b60405161014c9796959493929190611750565b61018e6101893660046117be565b610714565b60405161014c94939291906117e0565b6101236101ac36600461181c565b610876565b61018e610a3a565b6101cc6101c73660046117be565b610b6c565b60405161014c9190611851565b6101cc610e7d565b6101386101ef36600461192e565b61117a565b6003545b60405190815260200161014c565b61021961021436600461181c565b6111f9565b60408051938452602084019290925260ff169082015260600161014c565b61018e6102453660046117be565b61126d565b61026d6102583660046117be565b60016020526000908152604090205460ff1681565b604051901515815260200161014c565b61012361028b36600461181c565b61132c565b61013861029e36600461192e565b611461565b610123611481565b6101f86102b93660046116ab565b6114fe565b3360009081526001602052604090205460ff166102f65760405162461bcd60e51b81526004016102ed90611975565b60405180910390fd5b3360009081526020819052604090206003015460ff166103585760405162461bcd60e51b815260206004820152601b60248201527f55736572206163636f756e74206973206465616374697661746564000000000060448201526064016102ed565b6040805160e0810182523360009081526002602081815284832080548086528286018c81529686018b9052606086018a90526080860189905260a086018890524260c0870152928252600180840182559084529220835160079092020190815592519192839290918201906103cd9082611a2b565b50604082015160028201906103e29082611a2b565b50606082015160038201906103f79082611a2b565b506080820151600482015560a082015160058201906104169082611a2b565b5060c09190910151600690910155805160405133917fa9087cdc21e5c66543fde424b69d7d1d27a930228e18086258e84d24c5d2c3149161045b91908a908a90611aeb565b60405180910390a2505050505050565b6003818154811061047b57600080fd5b6000918252602090912001546001600160a01b0316905081565b600260205281600052604060002081815481106104b157600080fd5b9060005260206000209060070201600091509150508060000154908060010180546104db906119a2565b80601f0160208091040260200160405190810160405280929190818152602001828054610507906119a2565b80156105545780601f1061052957610100808354040283529160200191610554565b820191906000526020600020905b81548152906001019060200180831161053757829003601f168201915b505050505090806002018054610569906119a2565b80601f0160208091040260200160405190810160405280929190818152602001828054610595906119a2565b80156105e25780601f106105b7576101008083540402835291602001916105e2565b820191906000526020600020905b8154815290600101906020018083116105c557829003601f168201915b5050505050908060030180546105f7906119a2565b80601f0160208091040260200160405190810160405280929190818152602001828054610623906119a2565b80156106705780601f1061064557610100808354040283529160200191610670565b820191906000526020600020905b81548152906001019060200180831161065357829003601f168201915b50505050509080600401549080600501805461068b906119a2565b80601f01602080910402602001604051908101604052809291908181526020018280546106b7906119a2565b80156107045780601f106106d957610100808354040283529160200191610704565b820191906000526020600020905b8154815290600101906020018083116106e757829003601f168201915b5050505050908060060154905087565b6001600160a01b0381166000908152600160205260408120546060908290819060ff166107745760405162461bcd60e51b815260206004820152600e60248201526d155cd95c881b9bdd08199bdd5b9960921b60448201526064016102ed565b6001600160a01b03808616600090815260208181526040808320815160808101909252805490941681526001840180549394919391928401916107b6906119a2565b80601f01602080910402602001604051908101604052809291908181526020018280546107e2906119a2565b801561082f5780601f106108045761010080835404028352916020019161082f565b820191906000526020600020905b81548152906001019060200180831161081257829003601f168201915b5050509183525050600282015460208083019190915260039092015460ff161515604091820152825191830151908301516060909301519199909850919650945092505050565b3360009081526001602052604090205460ff16156108d65760405162461bcd60e51b815260206004820152601760248201527f5573657220616c7265616479207265676973746572656400000000000000000060448201526064016102ed565b60008151116109225760405162461bcd60e51b8152602060048201526018602482015277557365726e616d652063616e6e6f7420626520656d70747960401b60448201526064016102ed565b60408051608081018252338082526020808301858152428486015260016060850181905260009384529183905293909120825181546001600160a01b0319166001600160a01b039091161781559251919291908201906109829082611a2b565b5060408281015160028301556060909201516003918201805491151560ff19928316179055336000818152600160208190528582208054909416811790935583549283018455929092527fc2575a0e9e593c00f959f8c92f12db2869c3395a3b0502d05e2516446f71f85b0180546001600160a01b0319168217905590517f89105a1c6a3c2fbd471255c66a31ccab604af5697f67d7e2e9a0028c5e4dbd9190610a2f9084904290611b20565b60405180910390a250565b336000908152600160205260408120546060908290819060ff16610a705760405162461bcd60e51b81526004016102ed90611975565b3360009081526020818152604080832081516080810190925280546001600160a01b031682526001810180549293919291840191610aad906119a2565b80601f0160208091040260200160405190810160405280929190818152602001828054610ad9906119a2565b8015610b265780601f10610afb57610100808354040283529160200191610b26565b820191906000526020600020905b815481529060010190602001808311610b0957829003601f168201915b5050509183525050600282015460208083019190915260039092015460ff1615156040918201528251918301519083015160609093015191989097509195509350915050565b6001600160a01b03811660009081526001602052604090205460609060ff16610ba75760405162461bcd60e51b81526004016102ed90611975565b6001600160a01b038216600090815260026020908152604080832080548251818502810185019093528083529193909284015b82821015610e7257838290600052602060002090600702016040518060e001604052908160008201548152602001600182018054610c17906119a2565b80601f0160208091040260200160405190810160405280929190818152602001828054610c43906119a2565b8015610c905780601f10610c6557610100808354040283529160200191610c90565b820191906000526020600020905b815481529060010190602001808311610c7357829003601f168201915b50505050508152602001600282018054610ca9906119a2565b80601f0160208091040260200160405190810160405280929190818152602001828054610cd5906119a2565b8015610d225780601f10610cf757610100808354040283529160200191610d22565b820191906000526020600020905b815481529060010190602001808311610d0557829003601f168201915b50505050508152602001600382018054610d3b906119a2565b80601f0160208091040260200160405190810160405280929190818152602001828054610d67906119a2565b8015610db45780601f10610d8957610100808354040283529160200191610db4565b820191906000526020600020905b815481529060010190602001808311610d9757829003601f168201915b5050505050815260200160048201548152602001600582018054610dd7906119a2565b80601f0160208091040260200160405190810160405280929190818152602001828054610e03906119a2565b8015610e505780601f10610e2557610100808354040283529160200191610e50565b820191906000526020600020905b815481529060010190602001808311610e3357829003601f168201915b5050505050815260200160068201548152505081526020019060010190610bda565b505050509050919050565b3360009081526001602052604090205460609060ff16610eaf5760405162461bcd60e51b81526004016102ed90611975565b33600090815260026020908152604080832080548251818502810185019093528083529193909284015b8282101561117157838290600052602060002090600702016040518060e001604052908160008201548152602001600182018054610f16906119a2565b80601f0160208091040260200160405190810160405280929190818152602001828054610f42906119a2565b8015610f8f5780601f10610f6457610100808354040283529160200191610f8f565b820191906000526020600020905b815481529060010190602001808311610f7257829003601f168201915b50505050508152602001600282018054610fa8906119a2565b80601f0160208091040260200160405190810160405280929190818152602001828054610fd4906119a2565b80156110215780601f10610ff657610100808354040283529160200191611021565b820191906000526020600020905b81548152906001019060200180831161100457829003601f168201915b5050505050815260200160038201805461103a906119a2565b80601f0160208091040260200160405190810160405280929190818152602001828054611066906119a2565b80156110b35780601f10611088576101008083540402835291602001916110b3565b820191906000526020600020905b81548152906001019060200180831161109657829003601f168201915b50505050508152602001600482015481526020016005820180546110d6906119a2565b80601f0160208091040260200160405190810160405280929190818152602001828054611102906119a2565b801561114f5780601f106111245761010080835404028352916020019161114f565b820191906000526020600020905b81548152906001019060200180831161113257829003601f168201915b5050505050815260200160068201548152505081526020019060010190610ed9565b50505050905090565b600080600080611189856111f9565b6040805160008152602081018083528b905260ff8316918101919091526060810184905260808101839052929550909350915060019060a0016020604051602081039080840390855afa1580156111e4573d6000803e3d6000fd5b5050604051601f190151979650505050505050565b6000806000835160411461124f5760405162461bcd60e51b815260206004820152601860248201527f496e76616c6964207369676e6174757265206c656e677468000000000000000060448201526064016102ed565b50505060208101516040820151606090920151909260009190911a90565b600060208190529081526040902080546001820180546001600160a01b039092169291611299906119a2565b80601f01602080910402602001604051908101604052809291908181526020018280546112c5906119a2565b80156113125780601f106112e757610100808354040283529160200191611312565b820191906000526020600020905b8154815290600101906020018083116112f557829003601f168201915b50505050600283015460039093015491929160ff16905084565b3360009081526001602052604090205460ff1661135b5760405162461bcd60e51b81526004016102ed90611975565b3360009081526020819052604090206003015460ff166113bd5760405162461bcd60e51b815260206004820152601b60248201527f55736572206163636f756e74206973206465616374697661746564000000000060448201526064016102ed565b60008151116114095760405162461bcd60e51b8152602060048201526018602482015277557365726e616d652063616e6e6f7420626520656d70747960401b60448201526064016102ed565b3360009081526020819052604090206001016114258282611a2b565b50336001600160a01b03167f429ad3a7ede99d93a72d6f0ba190681a2763d681f984e2f299af21ca35caebdb8242604051610a2f929190611b20565b60008061146d846114fe565b9050611479818461117a565b949350505050565b3360009081526001602052604090205460ff166114b05760405162461bcd60e51b81526004016102ed90611975565b3360008181526020818152604091829020600301805460ff1916905590514281527f0a3c4dd3ee5277d6eada470cf9b47a480953120ecafcbbdc14bde6f8a6248930910160405180910390a2565b6040517f19457468657265756d205369676e6564204d6573736167653a0a3332000000006020820152603c8101829052600090605c01604051602081830303815290604052805190602001209050919050565b634e487b7160e01b600052604160045260246000fd5b600082601f83011261157857600080fd5b813567ffffffffffffffff8082111561159357611593611551565b604051601f8301601f19908116603f011681019082821181831017156115bb576115bb611551565b816040528381528660208588010111156115d457600080fd5b836020870160208301376000602085830101528094505050505092915050565b600080600080600060a0868803121561160c57600080fd5b853567ffffffffffffffff8082111561162457600080fd5b61163089838a01611567565b9650602088013591508082111561164657600080fd5b61165289838a01611567565b9550604088013591508082111561166857600080fd5b61167489838a01611567565b945060608801359350608088013591508082111561169157600080fd5b5061169e88828901611567565b9150509295509295909350565b6000602082840312156116bd57600080fd5b5035919050565b80356001600160a01b03811681146116db57600080fd5b919050565b600080604083850312156116f357600080fd5b6116fc836116c4565b946020939093013593505050565b6000815180845260005b8181101561173057602081850181015186830182015201611714565b506000602082860101526020601f19601f83011685010191505092915050565b87815260e06020820152600061176960e083018961170a565b828103604084015261177b818961170a565b9050828103606084015261178f818861170a565b905085608084015282810360a08401526117a9818661170a565b9150508260c083015298975050505050505050565b6000602082840312156117d057600080fd5b6117d9826116c4565b9392505050565b6001600160a01b03851681526080602082018190526000906118049083018661170a565b60408301949094525090151560609091015292915050565b60006020828403121561182e57600080fd5b813567ffffffffffffffff81111561184557600080fd5b61147984828501611567565b60006020808301818452808551808352604092508286019150828160051b87010184880160005b8381101561192057603f19898403018552815160e08151855288820151818a8701526118a68287018261170a565b91505087820151858203898701526118be828261170a565b915050606080830151868303828801526118d8838261170a565b92505050608080830151818701525060a080830151868303828801526118fe838261170a565b60c0948501519790940196909652505094870194925090860190600101611878565b509098975050505050505050565b6000806040838503121561194157600080fd5b82359150602083013567ffffffffffffffff81111561195f57600080fd5b61196b85828601611567565b9150509250929050565b602080825260139082015272155cd95c881b9bdd081c9959da5cdd195c9959606a1b604082015260600190565b600181811c908216806119b657607f821691505b6020821081036119d657634e487b7160e01b600052602260045260246000fd5b50919050565b601f821115611a2657600081815260208120601f850160051c81016020861015611a035750805b601f850160051c820191505b81811015611a2257828155600101611a0f565b5050505b505050565b815167ffffffffffffffff811115611a4557611a45611551565b611a5981611a5384546119a2565b846119dc565b602080601f831160018114611a8e5760008415611a765750858301515b600019600386901b1c1916600185901b178555611a22565b600085815260208120601f198616915b82811015611abd57888601518255948401946001909101908401611a9e565b5085821015611adb5787850151600019600388901b60f8161c191681555b5050505050600190811b01905550565b838152606060208201526000611b04606083018561170a565b8281036040840152611b16818561170a565b9695505050505050565b604081526000611b33604083018561170a565b9050826020830152939250505056fea2646970667358221220485653787e4fa770decc9670b521121a38fb0eb1cc97be9fbccfecfca441c93764736f6c63430008140033",
  "linkReferences": {},
  "deployedLinkReferences": {}
}