{
  "_format": "hh-sol-artifact-1",
  "contractName": "UserAuth",
  "sourceName": "contracts/UserAuth.sol",
  "abi": [
    {
      "anonymous": false,
      "inputs": [
        {
          "indexed": true,
          "internalType": "address",
          "name": "userAddress",
          "type": "address"
        },
        {
          "indexed": false,
          "internalType": "uint256",
          "name": "docId",
          "type": "uint256"
        },
        {
          "indexed": false,
          "internalType": "string",
          "name": "docType",
          "type": "string"
        },
        {
          "indexed": false,
          "internalType": "string",
          "name": "fileName",
          "type": "string"
        }
      ],
      "name": "DocumentUploaded",
      "type": "event"
    },
    {
      "anonymous": false,
      "inputs": [
        {
          "indexed": true,
          "internalType": "address",
          "name": "userAddress",
          "type": "address"
        },
        {
          "indexed": false,
          "internalType": "uint256",
          "name": "timestamp",
          "type": "uint256"
        }
      ],
      "name": "UserDeactivated",
      "type": "event"
    },
    {
      "anonymous": false,
      "inputs": [
        {
          "indexed": true,
          "internalType": "address",
          "name": "userAddress",
          "type": "address"
        },
        {
          "indexed": false,
          "internalType": "string",
          "name": "username",
          "type": "string"
        },
        {
          "indexed": false,
          "internalType": "uint256",
          "name": "timestamp",
          "type": "uint256"
        }
      ],
      "name": "UserRegistered",
      "type": "event"
    },
    {
      "anonymous": false,
      "inputs": [
        {
          "indexed": true,
          "internalType": "address",
          "name": "userAddress",
          "type": "address"
        },
        {
          "indexed": false,
          "internalType": "string",
          "name": "username",
          "type": "string"
        },
        {
          "indexed": false,
          "internalType": "uint256",
          "name": "timestamp",
          "type": "uint256"
        }
      ],
      "name": "UserUpdated",
      "type": "event"
    },
    {
      "inputs": [
        {
          "internalType": "string",
          "name": "_docType",
          "type": "string"
        },
        {
          "internalType": "string",
          "name": "_fileName",
          "type": "string"
        },
        {
          "internalType": "string",
          "name": "_ipfsHash",
          "type": "string"
        },
        {
          "internalType": "bytes32",
          "name": "_contentHash",
          "type": "bytes32"
        },
        {
          "internalType": "string",
          "name": "_verificationId",
          "type": "string"
        }
      ],
      "name": "addDocument",
      "outputs": [],
      "stateMutability": "nonpayable",
      "type": "function"
    },
    {
      "inputs": [],
      "name": "deactivateAccount",
      "outputs": [],
      "stateMutability": "nonpayable",
      "type": "function"
    },
    {
      "inputs": [
        {
          "internalType": "bytes32",
          "name": "messageHash",
          "type": "bytes32"
        }
      ],
      "name": "getEthSignedMessageHash",
      "outputs": [
        {
          "internalType": "bytes32",
          "name": "",
          "type": "bytes32"
        }
      ],
      "stateMutability": "pure",
      "type": "function"
    },
    {
      "inputs": [],
      "name": "getMyDocuments",
      "outputs": [
        {
          "components": [
            {
              "internalType": "uint256",
              "name": "id",
              "type": "uint256"
            },
            {
              "internalType": "string",
              "name": "docType",
              "type": "string"
            },
            {
              "internalType": "string",
              "name": "fileName",
              "type": "string"
            },
            {
              "internalType": "string",
              "name": "ipfsHash",
              "type": "string"
            },
            {
              "internalType": "bytes32",
              "name": "contentHash",
              "type": "bytes32"
            },
            {
              "internalType": "string",
              "name": "verificationId",
              "type": "string"
            },
            {
              "internalType": "uint256",
              "name": "uploadedAt",
              "type": "uint256"
            }
          ],
          "internalType": "struct UserAuth.Document[]",
          "name": "",
          "type": "tuple[]"
        }
      ],
      "stateMutability": "view",
      "type": "function"
    },
    {
      "inputs": [],
      "name": "getMyInfo",
      "outputs": [
        {
          "internalType": "address",
          "name": "userAddress",
          "type": "address"
        },
        {
          "internalType": "string",
          "name": "username",
          "type": "string"
        },
        {
          "internalType": "uint256",
          "name": "registeredAt",
          "type": "uint256"
        },
        {
          "internalType": "bool",
          "name": "isActive",
          "type": "bool"
        }
      ],
      "stateMutability": "view",
      "type": "function"
    },
    {
      "inputs": [],
      "name": "getTotalUsers",
      "outputs": [
        {
          "internalType": "uint256",
          "name": "",
          "type": "uint256"
        }
      ],
      "stateMutability": "view",
      "type": "function"
    },
    {
      "inputs": [
        {
          "internalType": "address",
          "name": "_userAddress",
          "type": "address"
        }
      ],
      "name": "getUserDocuments",
      "outputs": [
        {
          "components": [
            {
              "internalType": "uint256",
              "name": "id",
              "type": "uint256"
            },
            {
              "internalType": "string",
              "name": "docType",
              "type": "string"
            },
            {
              "internalType": "string",
              "name": "fileName",
              "type": "string"
            },
            {
              "internalType": "string",
              "name": "ipfsHash",
              "type": "string"
            },
            {
              "internalType": "bytes32",
              "name": "contentHash",
              "type": "bytes32"
            },
            {
              "internalType": "string",
              "name": "verificationId",
              "type": "string"
            },
            {
              "internalType": "uint256",
              "name": "uploadedAt",
              "type": "uint256"
            }
          ],
          "internalType": "struct UserAuth.Document[]",
          "name": "",
          "type": "tuple[]"
        }
      ],
      "stateMutability": "view",
      "type": "function"
    },
    {
      "inputs": [
        {
          "internalType": "address",
          "name": "_userAddress",
          "type": "address"
        }
      ],
      "name": "getUserInfo",
      "outputs": [
        {
          "internalType": "address",
          "name": "userAddress",
          "type": "address"
        },
        {
          "internalType": "string",
          "name": "username",
          "type": "string"
        },
        {
          "internalType": "uint256",
          "name": "registeredAt",
          "type": "uint256"
        },
        {
          "internalType": "bool",
          "name": "isActive",
          "type": "bool"
        }
      ],
      "stateMutability": "view",
      "type": "function"
    },
    {
      "inputs": [
        {
          "internalType": "address",
          "name": "",
          "type": "address"
        }
      ],
      "name": "isRegistered",
      "outputs": [
        {
          "internalType": "bool",
          "name": "",
          "type": "bool"
        }
      ],
      "stateMutability": "view",
      "type": "function"
    },
    {
      "inputs": [
        {
          "internalType": "bytes32",
          "name": "ethSignedMessageHash",
          "type": "bytes32"
        },
        {
          "internalType": "bytes",
          "name": "signature",
          "type": "bytes"
        }
      ],
      "name": "recoverSigner",
      "outputs": [
        {
          "internalType": "address",
          "name": "",
          "type": "address"
        }
      ],
      "stateMutability": "pure",
      "type": "function"
    },
    {
      "inputs": [
        {
          "internalType": "string",
          "name": "_username",
          "type": "string"
        }
      ],
      "name": "registerUser",
      "outputs": [],
      "stateMutability": "nonpayable",
      "type": "function"
    },
    {
      "inputs": [
        {
          "internalType": "address",
          "name": "_userAddress",
          "type": "address"
        },
        {
          "internalType": "string",
          "name": "_username",
          "type": "string"
        }
      ],
      "name": "registerUserFor",
      "outputs": [],
      "stateMutability": "nonpayable",
      "type": "function"
    },
    {
      "inputs": [
        {
          "internalType": "bytes",
          "name": "sig",
          "type": "bytes"
        }
      ],
      "name": "splitSignature",
      "outputs": [
        {
          "internalType": "bytes32",
          "name": "r",
          "type": "bytes32"
        },
        {
          "internalType": "bytes32",
          "name": "s",
          "type": "bytes32"
        },
        {
          "internalType": "uint8",
          "name": "v",
          "type": "uint8"
        }
      ],
      "stateMutability": "pure",
      "type": "function"
    },
    {
      "inputs": [
        {
          "internalType": "string",
          "name": "_newUsername",
          "type": "string"
        }
      ],
      "name": "updateUsername",
      "outputs": [],
      "stateMutability": "nonpayable",
      "type": "function"
    },
    {
      "inputs": [
        {
          "internalType": "uint256",
          "name": "",
          "type": "uint256"
        }
      ],
      "name": "userAddresses",
      "outputs": [
        {
          "internalType": "address",
          "name": "",
          "type": "address"
        }
      ],
      "stateMutability": "view",
      "type": "function"
    },
    {
      "inputs": [
        {
          "internalType": "address",
          "name": "",
          "type": "address"
        },
        {
          "internalType": "uint256",
          "name": "",
          "type": "uint256"
        }
      ],
      "name": "userDocuments",
      "outputs": [
        {
          "internalType": "uint256",
          "name": "id",
          "type": "uint256"
        },
        {
          "internalType": "string",
          "name": "docType",
          "type": "string"
        },
        {
          "internalType": "string",
          "name": "fileName",
          "type": "string"
        },
        {
          "internalType": "string",
          "name": "ipfsHash",
          "type": "string"
        },
        {
          "internalType": "bytes32",
          "name": "contentHash",
          "type": "bytes32"
        },
        {
          "internalType": "string",
          "name": "verificationId",
          "type": "string"
        },
        {
          "internalType": "uint256",
          "name": "uploadedAt",
          "type": "uint256"
        }
      ],
      "stateMutability": "view",
      "type": "function"
    },
    {
      "inputs": [
        {
          "internalType": "address",
          "name": "",
          "type": "address"
        }
      ],
      "name": "users",
      "outputs": [
        {
          "internalType": "address",
          "name": "userAddress",
          "type": "address"
        },
        {
          "internalType": "string",
          "name": "username",
          "type": "string"
        },
        {
          "internalType": "uint256",
          "name": "registeredAt",
          "type": "uint256"
        },
        {
          "internalType": "bool",
          "name": "isActive",
          "type": "bool"
        }
      ],
      "stateMutability": "view",
      "type": "function"
    },
    {
      "inputs": [
        {
          "internalType": "bytes32",
          "name": "message",
          "type": "bytes32"
        },
        {
          "internalType": "bytes",
          "name": "signature",
          "type": "bytes"
        }
      ],
      "name": "verifySignature",
      "outputs": [
        {
          "internalType": "address",
          "name": "",
          "type": "address"
        }
      ],
      "stateMutability": "pure",
      "type": "function"
    }
  ],
  "bytecode": "0x608060405234801561001057600080fd5b50611d54806100206000396000f3fe608060405234801561001057600080fd5b50600436106101165760003560e01c80639be572f6116100a2578063c96cea7011610071578063c96cea7014610288578063d7724e301461029b578063daca6f78146102ae578063e040e9a0146102c1578063fa540801146102c957600080fd5b80639be572f6146101ff578063a7bb580314610211578063a87430ba14610242578063c3c5a5471461025557600080fd5b8063704f1b94116100e9578063704f1b94146101a95780637daa10ce146101bc57806390a4b162146101c45780639111976e146101e457806397aba7f9146101ec57600080fd5b8063152157841461011b578063502c9bd514610130578063577a1b92146101605780636386c1c714610186575b600080fd5b61012e610129366004611761565b6102dc565b005b61014361013e366004611818565b610489565b6040516001600160a01b0390911681526020015b60405180910390f35b61017361016e36600461184d565b6104b3565b60405161015797969594939291906118bd565b61019961019436600461192b565b610732565b604051610157949392919061194d565b61012e6101b7366004611989565b610894565b610199610a27565b6101d76101d236600461192b565b610b59565b60405161015791906119be565b6101d7610e6a565b6101436101fa366004611a9b565b611167565b6003545b604051908152602001610157565b61022461021f366004611989565b6111e6565b60408051938452602084019290925260ff1690820152606001610157565b61019961025036600461192b565b61125a565b61027861026336600461192b565b60016020526000908152604090205460ff1681565b6040519015158152602001610157565b61012e610296366004611989565b611319565b61012e6102a9366004611ae2565b611423565b6101436102bc366004611a9b565b6115ce565b61012e6115ee565b6102036102d7366004611818565b61166b565b3360009081526001602052604090205460ff166103145760405162461bcd60e51b815260040161030b90611b1a565b60405180910390fd5b3360009081526020819052604090206003015460ff166103765760405162461bcd60e51b815260206004820152601b60248201527f55736572206163636f756e742069732064656163746976617465640000000000604482015260640161030b565b6040805160e0810182523360009081526002602081815284832080548086528286018c81529686018b9052606086018a90526080860189905260a086018890524260c0870152928252600180840182559084529220835160079092020190815592519192839290918201906103eb9082611bd0565b50604082015160028201906104009082611bd0565b50606082015160038201906104159082611bd0565b506080820151600482015560a082015160058201906104349082611bd0565b5060c09190910151600690910155805160405133917fa9087cdc21e5c66543fde424b69d7d1d27a930228e18086258e84d24c5d2c3149161047991908a908a90611c90565b60405180910390a2505050505050565b6003818154811061049957600080fd5b6000918252602090912001546001600160a01b0316905081565b600260205281600052604060002081815481106104cf57600080fd5b9060005260206000209060070201600091509150508060000154908060010180546104f990611b47565b80601f016020809104026020016040519081016040528092919081815260200182805461052590611b47565b80156105725780601f1061054757610100808354040283529160200191610572565b820191906000526020600020905b81548152906001019060200180831161055557829003601f168201915b50505050509080600201805461058790611b47565b80601f01602080910402602001604051908101604052809291908181526020018280546105b390611b47565b80156106005780601f106105d557610100808354040283529160200191610600565b820191906000526020600020905b8154815290600101906020018083116105e357829003601f168201915b50505050509080600301805461061590611b47565b80601f016020809104026020016040519081016040528092919081815260200182805461064190611b47565b801561068e5780601f106106635761010080835404028352916020019161068e565b820191906000526020600020905b81548152906001019060200180831161067157829003601f168201915b5050505050908060040154908060050180546106a990611b47565b80601f01602080910402602001604051908101604052809291908181526020018280546106d590611b47565b80156107225780601f106106f757610100808354040283529160200191610722565b820191906000526020600020905b81548152906001019060200180831161070557829003601f168201915b5050505050908060060154905087565b6001600160a01b0381166000908152600160205260408120546060908290819060ff166107925760405162461bcd60e51b815260206004820152600e60248201526d155cd95c881b9bdd08199bdd5b9960921b604482015260640161030b565b6001600160a01b03808616600090815260208181526040808320815160808101909252805490941681526001840180549394919391928401916107d490611b47565b80601f016020809104026020016040519081016040528092919081815260200182805461080090611b47565b801561084d5780601f106108225761010080835404028352916020019161084d565b820191906000526020600020905b81548152906001019060200180831161083057829003601f168201915b5050509183525050600282015460208083019190915260039092015460ff161515604091820152825191830151908301516060909301519199909850919650945092505050565b3360009081526001602052604090205460ff16156108ee5760405162461bcd60e51b8152602060048201526017602482015276155cd95c88185b1c9958591e481c9959da5cdd195c9959604a1b604482015260640161030b565b600081511161090f5760405162461bcd60e51b815260040161030b90611cc5565b60408051608081018252338082526020808301858152428486015260016060850181905260009384529183905293909120825181546001600160a01b0319166001600160a01b0390911617815592519192919082019061096f9082611bd0565b5060408281015160028301556060909201516003918201805491151560ff19928316179055336000818152600160208190528582208054909416811790935583549283018455929092527fc2575a0e9e593c00f959f8c92f12db2869c3395a3b0502d05e2516446f71f85b0180546001600160a01b0319168217905590517f89105a1c6a3c2fbd471255c66a31ccab604af5697f67d7e2e9a0028c5e4dbd9190610a1c9084904290611cfc565b60405180910390a250565b336000908152600160205260408120546060908290819060ff16610a5d5760405162461bcd60e51b815260040161030b90611b1a565b3360009081526020818152604080832081516080810190925280546001600160a01b031682526001810180549293919291840191610a9a90611b47565b80601f0160208091040260200160405190810160405280929190818152602001828054610ac690611b47565b8015610b135780601f10610ae857610100808354040283529160200191610b13565b820191906000526020600020905b815481529060010190602001808311610af657829003601f168201915b5050509183525050600282015460208083019190915260039092015460ff1615156040918201528251918301519083015160609093015191989097509195509350915050565b6001600160a01b03811660009081526001602052604090205460609060ff16610b945760405162461bcd60e51b815260040161030b90611b1a565b6001600160a01b038216600090815260026020908152604080832080548251818502810185019093528083529193909284015b82821015610e5f57838290600052602060002090600702016040518060e001604052908160008201548152602001600182018054610c0490611b47565b80601f0160208091040260200160405190810160405280929190818152602001828054610c3090611b47565b8015610c7d5780601f10610c5257610100808354040283529160200191610c7d565b820191906000526020600020905b815481529060010190602001808311610c6057829003601f168201915b50505050508152602001600282018054610c9690611b47565b80601f0160208091040260200160405190810160405280929190818152602001828054610cc290611b47565b8015610d0f5780601f10610ce457610100808354040283529160200191610d0f565b820191906000526020600020905b815481529060010190602001808311610cf257829003601f168201915b50505050508152602001600382018054610d2890611b47565b80601f0160208091040260200160405190810160405280929190818152602001828054610d5490611b47565b8015610da15780601f10610d7657610100808354040283529160200191610da1565b820191906000526020600020905b815481529060010190602001808311610d8457829003601f168201915b5050505050815260200160048201548152602001600582018054610dc490611b47565b80601f0160208091040260200160405190810160405280929190818152602001828054610df090611b47565b8015610e3d5780601f10610e1257610100808354040283529160200191610e3d565b820191906000526020600020905b815481529060010190602001808311610e2057829003601f168201915b5050505050815260200160068201548152505081526020019060010190610bc7565b505050509050919050565b3360009081526001602052604090205460609060ff16610e9c5760405162461bcd60e51b815260040161030b90611b1a565b33600090815260026020908152604080832080548251818502810185019093528083529193909284015b8282101561115e57838290600052602060002090600702016040518060e001604052908160008201548152602001600182018054610f0390611b47565b80601f0160208091040260200160405190810160405280929190818152602001828054610f2f90611b47565b8015610f7c5780601f10610f5157610100808354040283529160200191610f7c565b820191906000526020600020905b815481529060010190602001808311610f5f57829003601f168201915b50505050508152602001600282018054610f9590611b47565b80601f0160208091040260200160405190810160405280929190818152602001828054610fc190611b47565b801561100e5780601f10610fe35761010080835404028352916020019161100e565b820191906000526020600020905b815481529060010190602001808311610ff157829003601f168201915b5050505050815260200160038201805461102790611b47565b80601f016020809104026020016040519081016040528092919081815260200182805461105390611b47565b80156110a05780601f10611075576101008083540402835291602001916110a0565b820191906000526020600020905b81548152906001019060200180831161108357829003601f168201915b50505050508152602001600482015481526020016005820180546110c390611b47565b80601f01602080910402602001604051908101604052809291908181526020018280546110ef90611b47565b801561113c5780601f106111115761010080835404028352916020019161113c565b820191906000526020600020905b81548152906001019060200180831161111f57829003601f168201915b5050505050815260200160068201548152505081526020019060010190610ec6565b50505050905090565b600080600080611176856111e6565b6040805160008152602081018083528b905260ff8316918101919091526060810184905260808101839052929550909350915060019060a0016020604051602081039080840390855afa1580156111d1573d6000803e3d6000fd5b5050604051601f190151979650505050505050565b6000806000835160411461123c5760405162461bcd60e51b815260206004820152601860248201527f496e76616c6964207369676e6174757265206c656e6774680000000000000000604482015260640161030b565b50505060208101516040820151606090920151909260009190911a90565b600060208190529081526040902080546001820180546001600160a01b03909216929161128690611b47565b80601f01602080910402602001604051908101604052809291908181526020018280546112b290611b47565b80156112ff5780601f106112d4576101008083540402835291602001916112ff565b820191906000526020600020905b8154815290600101906020018083116112e257829003601f168201915b50505050600283015460039093015491929160ff16905084565b3360009081526001602052604090205460ff166113485760405162461bcd60e51b815260040161030b90611b1a565b3360009081526020819052604090206003015460ff166113aa5760405162461bcd60e51b815260206004820152601b60248201527f55736572206163636f756e742069732064656163746976617465640000000000604482015260640161030b565b60008151116113cb5760405162461bcd60e51b815260040161030b90611cc5565b3360009081526020819052604090206001016113e78282611bd0565b50336001600160a01b03167f429ad3a7ede99d93a72d6f0ba190681a2763d681f984e2f299af21ca35caebdb8242604051610a1c929190611cfc565b6001600160a01b03821660009081526001602052604090205460ff16156114865760405162461bcd60e51b8152602060048201526017602482015276155cd95c88185b1c9958591e481c9959da5cdd195c9959604a1b604482015260640161030b565b60008151116114a75760405162461bcd60e51b815260040161030b90611cc5565b604080516080810182526001600160a01b038481168083526020808401868152428587015260016060860181905260009384529183905294909120835181546001600160a01b03191693169290921782559251919290919082019061150c9082611bd0565b5060408281015160028301556060909201516003918201805491151560ff199283161790556001600160a01b0385166000818152600160208190528582208054909416811790935583549283018455929092527fc2575a0e9e593c00f959f8c92f12db2869c3395a3b0502d05e2516446f71f85b0180546001600160a01b0319168217905590517f89105a1c6a3c2fbd471255c66a31ccab604af5697f67d7e2e9a0028c5e4dbd91906115c29084904290611cfc565b60405180910390a25050565b6000806115da8461166b565b90506115e68184611167565b949350505050565b3360009081526001602052604090205460ff1661161d5760405162461bcd60e51b815260040161030b90611b1a565b3360008181526020818152604091829020600301805460ff1916905590514281527f0a3c4dd3ee5277d6eada470cf9b47a480953120ecafcbbdc14bde6f8a6248930910160405180910390a2565b6040517f19457468657265756d205369676e6564204d6573736167653a0a3332000000006020820152603c8101829052600090605c01604051602081830303815290604052805190602001209050919050565b634e487b7160e01b600052604160045260246000fd5b600082601f8301126116e557600080fd5b813567ffffffffffffffff80821115611700576117006116be565b604051601f8301601f19908116603f01168101908282118183101715611728576117286116be565b8160405283815286602085880101111561174157600080fd5b836020870160208301376000602085830101528094505050505092915050565b600080600080600060a0868803121561177957600080fd5b853567ffffffffffffffff8082111561179157600080fd5b61179d89838a016116d4565b965060208801359150808211156117b357600080fd5b6117bf89838a016116d4565b955060408801359150808211156117d557600080fd5b6117e189838a016116d4565b94506060880135935060808801359150808211156117fe57600080fd5b5061180b888289016116d4565b9150509295509295909350565b60006020828403121561182a57600080fd5b5035919050565b80356001600160a01b038116811461184857600080fd5b919050565b6000806040838503121561186057600080fd5b61186983611831565b946020939093013593505050565b6000815180845260005b8181101561189d57602081850181015186830182015201611881565b506000602082860101526020601f19601f83011685010191505092915050565b87815260e0602082015260006118d660e0830189611877565b82810360408401526118e88189611877565b905082810360608401526118fc8188611877565b905085608084015282810360a08401526119168186611877565b9150508260c083015298975050505050505050565b60006020828403121561193d57600080fd5b61194682611831565b9392505050565b6001600160a01b038516815260806020820181905260009061197190830186611877565b60408301949094525090151560609091015292915050565b60006020828403121561199b57600080fd5b813567ffffffffffffffff8111156119b257600080fd5b6115e6848285016116d4565b60006020808301818452808551808352604092508286019150828160051b87010184880160005b83811015611a8d57603f19898403018552815160e08151855288820151818a870152611a1382870182611877565b9150508782015185820389870152611a2b8282611877565b91505060608083015186830382880152611a458382611877565b92505050608080830151818701525060a08083015186830382880152611a6b8382611877565b60c09485015197909401969096525050948701949250908601906001016119e5565b509098975050505050505050565b60008060408385031215611aae57600080fd5b82359150602083013567ffffffffffffffff811115611acc57600080fd5b611ad8858286016116d4565b9150509250929050565b60008060408385031215611af557600080fd5b611afe83611831565b9150602083013567ffffffffffffffff811115611acc57600080fd5b602080825260139082015272155cd95c881b9bdd081c9959da5cdd195c9959606a1b604082015260600190565b600181811c90821680611b5b57607f821691505b602082108103611b7b57634e487b7160e01b600052602260045260246000fd5b50919050565b601f821115611bcb57600081815260208120601f850160051c81016020861015611ba85750805b601f850160051c820191505b81811015611bc757828155600101611bb4565b5050505b505050565b815167ffffffffffffffff811115611bea57611bea6116be565b611bfe81611bf88454611b47565b84611b81565b602080601f831160018114611c335760008415611c1b5750858301515b600019600386901b1c1916600185901b178555611bc7565b600085815260208120601f198616915b82811015611c6257888601518255948401946001909101908401611c43565b5085821015611c805787850151600019600388901b60f8161c191681555b5050505050600190811b01905550565b838152606060208201526000611ca96060830185611877565b8281036040840152611cbb8185611877565b9695505050505050565b60208082526018908201527f557365726e616d652063616e6e6f7420626520656d7074790000000000000000604082015260600190565b604081526000611d0f6040830185611877565b9050826020830152939250505056fea26469706673582212205559ac46f8919dd74d6ba310581e71b1a4594f91851480d319c0051fb0201ddd64736f6c63430008140033",
  "linkReferences": {},
  "deployedLinkReferences": {}
}