{
  "_format": "hh-sol-artifact-1",
  "contractName": "OrgRegistry",
  "sourceName": "contracts/OrgRegistry.sol",
  "abi": [
    {
      "inputs": [],
      "stateMutability": "nonpayable",
      "type": "constructor"
    },
    {
      "anonymous": false,
      "inputs": [
        {
          "indexed": true,
          "internalType": "string",
          "name": "verificationId",
          "type": "string"
        },
        {
          "indexed": true,
          "internalType": "address",
          "name": "verifier",
          "type": "address"
        },
        {
          "indexed": false,
          "internalType": "string",
          "name": "reason",
          "type": "string"
        }
      ],
      "name": "DocumentRejected",
      "type": "event"
    },
    {
      "anonymous": false,
      "inputs": [
        {
          "indexed": true,
          "internalType": "string",
          "name": "verificationId",
          "type": "string"
        },
        {
          "indexed": true,
          "internalType": "address",
          "name": "verifier",
          "type": "address"
        },
        {
          "indexed": false,
          "internalType": "uint256",
          "name": "timestamp",
          "type": "uint256"
        }
      ],
      "name": "DocumentVerified",
      "type": "event"
    },
    {
      "anonymous": false,
      "inputs": [
        {
          "indexed": true,
          "internalType": "address",
          "name": "wallet",
          "type": "address"
        },
        {
          "indexed": false,
          "internalType": "string",
          "name": "name",
          "type": "string"
        }
      ],
      "name": "OrganizationRegistered",
      "type": "event"
    },
    {
      "anonymous": false,
      "inputs": [
        {
          "indexed": true,
          "internalType": "string",
          "name": "verificationId",
          "type": "string"
        },
        {
          "indexed": true,
          "internalType": "address",
          "name": "uploader",
          "type": "address"
        },
        {
          "indexed": true,
          "internalType": "address",
          "name": "targetOrg",
          "type": "address"
        }
      ],
      "name": "VerificationRequested",
      "type": "event"
    },
    {
      "inputs": [
        {
          "internalType": "address",
          "name": "_wallet",
          "type": "address"
        }
      ],
      "name": "deactivateOrganization",
      "outputs": [],
      "stateMutability": "nonpayable",
      "type": "function"
    },
    {
      "inputs": [
        {
          "internalType": "string",
          "name": "",
          "type": "string"
        },
        {
          "internalType": "uint256",
          "name": "",
          "type": "uint256"
        }
      ],
      "name": "documentAuditTrail",
      "outputs": [
        {
          "internalType": "string",
          "name": "verificationId",
          "type": "string"
        },
        {
          "internalType": "address",
          "name": "verifierOrg",
          "type": "address"
        },
        {
          "internalType": "uint256",
          "name": "timestamp",
          "type": "uint256"
        },
        {
          "internalType": "string",
          "name": "remarks",
          "type": "string"
        }
      ],
      "stateMutability": "view",
      "type": "function"
    },
    {
      "inputs": [],
      "name": "getAllOrganizations",
      "outputs": [
        {
          "internalType": "address[]",
          "name": "",
          "type": "address[]"
        }
      ],
      "stateMutability": "view",
      "type": "function"
    },
    {
      "inputs": [
        {
          "internalType": "string",
          "name": "_verificationId",
          "type": "string"
        }
      ],
      "name": "getAuditTrail",
      "outputs": [
        {
          "components": [
            {
              "internalType": "string",
              "name": "verificationId",
              "type": "string"
            },
            {
              "internalType": "address",
              "name": "verifierOrg",
              "type": "address"
            },
            {
              "internalType": "uint256",
              "name": "timestamp",
              "type": "uint256"
            },
            {
              "internalType": "string",
              "name": "remarks",
              "type": "string"
            }
          ],
          "internalType": "struct OrgRegistry.VerificationLog[]",
          "name": "",
          "type": "tuple[]"
        }
      ],
      "stateMutability": "view",
      "type": "function"
    },
    {
      "inputs": [
        {
          "internalType": "string",
          "name": "_verificationId",
          "type": "string"
        }
      ],
      "name": "getVerificationStatus",
      "outputs": [
        {
          "internalType": "enum OrgRegistry.VerificationStatus",
          "name": "status",
          "type": "uint8"
        },
        {
          "internalType": "address",
          "name": "verifierOrg",
          "type": "address"
        },
        {
          "internalType": "string",
          "name": "rejectionReason",
          "type": "string"
        },
        {
          "internalType": "uint256",
          "name": "lastUpdated",
          "type": "uint256"
        }
      ],
      "stateMutability": "view",
      "type": "function"
    },
    {
      "inputs": [
        {
          "internalType": "uint256",
          "name": "",
          "type": "uint256"
        }
      ],
      "name": "orgAddresses",
      "outputs": [
        {
          "internalType": "address",
          "name": "",
          "type": "address"
        }
      ],
      "stateMutability": "view",
      "type": "function"
    },
    {
      "inputs": [
        {
          "internalType": "address",
          "name": "",
          "type": "address"
        }
      ],
      "name": "organizations",
      "outputs": [
        {
          "internalType": "string",
          "name": "name",
          "type": "string"
        },
        {
          "internalType": "address",
          "name": "wallet",
          "type": "address"
        },
        {
          "internalType": "bool",
          "name": "isAuthorized",
          "type": "bool"
        },
        {
          "internalType": "uint256",
          "name": "registeredAt",
          "type": "uint256"
        }
      ],
      "stateMutability": "view",
      "type": "function"
    },
    {
      "inputs": [],
      "name": "owner",
      "outputs": [
        {
          "internalType": "address",
          "name": "",
          "type": "address"
        }
      ],
      "stateMutability": "view",
      "type": "function"
    },
    {
      "inputs": [
        {
          "internalType": "string",
          "name": "_name",
          "type": "string"
        },
        {
          "internalType": "address",
          "name": "_wallet",
          "type": "address"
        }
      ],
      "name": "registerOrganization",
      "outputs": [],
      "stateMutability": "nonpayable",
      "type": "function"
    },
    {
      "inputs": [
        {
          "internalType": "string",
          "name": "_verificationId",
          "type": "string"
        },
        {
          "internalType": "string",
          "name": "_reason",
          "type": "string"
        }
      ],
      "name": "rejectDocument",
      "outputs": [],
      "stateMutability": "nonpayable",
      "type": "function"
    },
    {
      "inputs": [
        {
          "internalType": "string",
          "name": "_verificationId",
          "type": "string"
        },
        {
          "internalType": "address",
          "name": "_org",
          "type": "address"
        }
      ],
      "name": "requestVerification",
      "outputs": [],
      "stateMutability": "nonpayable",
      "type": "function"
    },
    {
      "inputs": [
        {
          "internalType": "string",
          "name": "",
          "type": "string"
        }
      ],
      "name": "verificationRequests",
      "outputs": [
        {
          "internalType": "string",
          "name": "verificationId",
          "type": "string"
        },
        {
          "internalType": "address",
          "name": "requester",
          "type": "address"
        },
        {
          "internalType": "address",
          "name": "verifierOrg",
          "type": "address"
        },
        {
          "internalType": "enum OrgRegistry.VerificationStatus",
          "name": "status",
          "type": "uint8"
        },
        {
          "internalType": "string",
          "name": "rejectionReason",
          "type": "string"
        },
        {
          "internalType": "uint256",
          "name": "lastUpdated",
          "type": "uint256"
        }
      ],
      "stateMutability": "view",
      "type": "function"
    },
    {
      "inputs": [
        {
          "internalType": "string",
          "name": "_verificationId",
          "type": "string"
        },
        {
          "internalType": "string",
          "name": "_remarks",
          "type": "string"
        }
      ],
      "name": "verifyDocument",
      "outputs": [],
      "stateMutability": "nonpayable",
      "type": "function"
    }
  ],
  "bytecode": "0x608060405234801561001057600080fd5b50600480546001600160a01b03191633179055611926806100326000396000f3fe608060405234801561001057600080fd5b50600436106100cf5760003560e01c80633b7cd6101161008c5780638da5cb5b116100665780638da5cb5b146101d457806397b88547146101e7578063a4ca650b1461020c578063bdd184191461021f57600080fd5b80633b7cd6101461017b5780634c2ce4941461018e5780635a1f7406146101b157600080fd5b8063042b2167146100d4578063086ed938146101005780630e362d7b146101155780631502a8a21461012a5780631c74b85a1461013d57806321d0326f14610150575b600080fd5b6100e76100e2366004611355565b61023f565b6040516100f7949392919061141a565b60405180910390f35b61010861041b565b6040516100f7919061145c565b6101286101233660046114a9565b61047d565b005b610128610138366004611529565b61063d565b61012861014b36600461154b565b6106b9565b61016361015e366004611599565b61096b565b6040516001600160a01b0390911681526020016100f7565b61012861018936600461154b565b610995565b6101a161019c3660046115b2565b610af9565b6040516100f794939291906115f7565b6101c46101bf366004611529565b610c73565b6040516100f7949392919061163d565b600454610163906001600160a01b031681565b6101fa6101f5366004611355565b610d33565b6040516100f796959493929190611675565b61012861021a3660046114a9565b610e97565b61023261022d366004611355565b6110f0565b6040516100f791906116d2565b60008060606000806002866040516102579190611778565b90815260200160405180910390206040518060c001604052908160008201805461028090611794565b80601f01602080910402602001604051908101604052809291908181526020018280546102ac90611794565b80156102f95780601f106102ce576101008083540402835291602001916102f9565b820191906000526020600020905b8154815290600101906020018083116102dc57829003601f168201915b505050918352505060018201546001600160a01b03908116602083015260028301549081166040830152606090910190600160a01b900460ff16600381111561034457610344611392565b600381111561035557610355611392565b815260200160038201805461036990611794565b80601f016020809104026020016040519081016040528092919081815260200182805461039590611794565b80156103e25780601f106103b7576101008083540402835291602001916103e2565b820191906000526020600020905b8154815290600101906020018083116103c557829003601f168201915b5050505050815260200160048201548152505090508060600151816040015182608001518360a001519450945094509450509193509193565b6060600380548060200260200160405190810160405280929190818152602001828054801561047357602002820191906000526020600020905b81546001600160a01b03168152600190910190602001808311610455575b5050505050905090565b33600090815260208190526040902060010154600160a01b900460ff166104eb5760405162461bcd60e51b815260206004820152601e60248201527f4e6f7420616e20617574686f72697a6564206f7267616e697a6174696f6e000060448201526064015b60405180910390fd5b60006002836040516104fd9190611778565b908152604051908190036020019020905060016002820154600160a01b900460ff16600381111561053057610530611392565b1461056b5760405162461bcd60e51b815260206004820152600b60248201526a4e6f742070656e64696e6760a81b60448201526064016104e2565b60028101546001600160a01b031633146105bf5760405162461bcd60e51b81526020600482015260156024820152742737ba1030b9b9b4b3b732b2103b32b934b334b2b960591b60448201526064016104e2565b60028101805460ff60a01b1916600360a01b179055600381016105e2838261181d565b5042600482015560405133906105f9908590611778565b60405180910390207fc680183e07a9f7809b32b0311283de8e3f87826d72f7c219836f94fe287674d48460405161063091906118dd565b60405180910390a3505050565b6004546001600160a01b031633146106925760405162461bcd60e51b81526020600482015260186024820152774f6e6c79206f776e65722063616e2063616c6c207468697360401b60448201526064016104e2565b6001600160a01b03166000908152602081905260409020600101805460ff60a01b19169055565b6001600160a01b038116600090815260208190526040902060010154600160a01b900460ff1661072b5760405162461bcd60e51b815260206004820152601960248201527f546172676574206f7267206e6f7420617574686f72697a65640000000000000060448201526064016104e2565b600060028360405161073d9190611778565b9081526040519081900360200190206002015460ff600160a01b90910416600381111561076c5761076c611392565b14806107b6575060036002836040516107859190611778565b9081526040519081900360200190206002015460ff600160a01b9091041660038111156107b4576107b4611392565b145b6108185760405162461bcd60e51b815260206004820152602d60248201527f566572696669636174696f6e20616c726561647920696e2070726f677265737360448201526c081bdc8818dbdb5c1b195d1959609a1b60648201526084016104e2565b6040805160c081018252838152336020808301919091526001600160a01b0384168284015260016060830152825190810183526000815260808201524260a0820152905160029061086a908590611778565b90815260405190819003602001902081518190610887908261181d565b5060208201516001820180546001600160a01b03199081166001600160a01b03938416179091556040840151600284018054928316919093169081178355606085015192916001600160a81b03191617600160a01b8360038111156108ee576108ee611392565b021790555060808201516003820190610907908261181d565b5060a08201518160040155905050806001600160a01b0316336001600160a01b0316836040516109379190611778565b604051908190038120907fb0048b18fd272331059c60d971a72b9ce2a34fdbc0ea71dffbebce378aee01b790600090a45050565b6003818154811061097b57600080fd5b6000918252602090912001546001600160a01b0316905081565b6004546001600160a01b031633146109ea5760405162461bcd60e51b81526020600482015260186024820152774f6e6c79206f776e65722063616e2063616c6c207468697360401b60448201526064016104e2565b604080516080810182528381526001600160a01b038316602080830182905260018385015242606084015260009182528190529190912081518190610a2f908261181d565b506020820151600180830180546040808701511515600160a01b026001600160a81b03199092166001600160a01b0395861617919091179091556060909401516002909301929092556003805492830181556000527fc2575a0e9e593c00f959f8c92f12db2869c3395a3b0502d05e2516446f71f85b90910180549184166001600160a01b0319929092168217905590517f783e607e94efcb9adce3489c806008ddc378d784ae22a1f801458720054325a290610aed9085906118dd565b60405180910390a25050565b81516020818401810180516001825292820191850191909120919052805482908110610b2457600080fd5b906000526020600020906004020160009150915050806000018054610b4890611794565b80601f0160208091040260200160405190810160405280929190818152602001828054610b7490611794565b8015610bc15780601f10610b9657610100808354040283529160200191610bc1565b820191906000526020600020905b815481529060010190602001808311610ba457829003601f168201915b505050506001830154600284015460038501805494956001600160a01b039093169491935090610bf090611794565b80601f0160208091040260200160405190810160405280929190818152602001828054610c1c90611794565b8015610c695780601f10610c3e57610100808354040283529160200191610c69565b820191906000526020600020905b815481529060010190602001808311610c4c57829003601f168201915b5050505050905084565b600060208190529081526040902080548190610c8e90611794565b80601f0160208091040260200160405190810160405280929190818152602001828054610cba90611794565b8015610d075780601f10610cdc57610100808354040283529160200191610d07565b820191906000526020600020905b815481529060010190602001808311610cea57829003601f168201915b50505050600183015460029093015491926001600160a01b03811692600160a01b90910460ff16915084565b8051602081830181018051600282529282019190930120915280548190610d5990611794565b80601f0160208091040260200160405190810160405280929190818152602001828054610d8590611794565b8015610dd25780601f10610da757610100808354040283529160200191610dd2565b820191906000526020600020905b815481529060010190602001808311610db557829003601f168201915b505050506001830154600284015460038501805494956001600160a01b03938416959383169450600160a01b90920460ff1692610e0e90611794565b80601f0160208091040260200160405190810160405280929190818152602001828054610e3a90611794565b8015610e875780601f10610e5c57610100808354040283529160200191610e87565b820191906000526020600020905b815481529060010190602001808311610e6a57829003601f168201915b5050505050908060040154905086565b33600090815260208190526040902060010154600160a01b900460ff16610f005760405162461bcd60e51b815260206004820152601e60248201527f4e6f7420616e20617574686f72697a6564206f7267616e697a6174696f6e000060448201526064016104e2565b6000600283604051610f129190611778565b908152604051908190036020019020905060016002820154600160a01b900460ff166003811115610f4557610f45611392565b14610f805760405162461bcd60e51b815260206004820152600b60248201526a4e6f742070656e64696e6760a81b60448201526064016104e2565b60028101546001600160a01b03163314610fd45760405162461bcd60e51b81526020600482015260156024820152742737ba1030b9b9b4b3b732b2103b32b934b334b2b960591b60448201526064016104e2565b60028101805460ff60a01b1916600160a11b179055426004820181905560408051608081018252858152336020820152808201929092526060820184905251600190611021908690611778565b908152604051602091819003820190208054600181018255600091825291902082518392600402909101908190611058908261181d565b5060208201516001820180546001600160a01b0319166001600160a01b03909216919091179055604082015160028201556060820151600382019061109d908261181d565b50506040513391506110b0908690611778565b604051908190038120428252907f90e55e04a248395f5aba580fac6ab8b20cba0e1ed42c938f62d9accf1cd8ca079060200160405180910390a350505050565b60606001826040516111029190611778565b9081526020016040518091039020805480602002602001604051908101604052809291908181526020016000905b828210156112a7578382906000526020600020906004020160405180608001604052908160008201805461116390611794565b80601f016020809104026020016040519081016040528092919081815260200182805461118f90611794565b80156111dc5780601f106111b1576101008083540402835291602001916111dc565b820191906000526020600020905b8154815290600101906020018083116111bf57829003601f168201915b505050918352505060018201546001600160a01b031660208201526002820154604082015260038201805460609092019161121690611794565b80601f016020809104026020016040519081016040528092919081815260200182805461124290611794565b801561128f5780601f106112645761010080835404028352916020019161128f565b820191906000526020600020905b81548152906001019060200180831161127257829003601f168201915b50505050508152505081526020019060010190611130565b505050509050919050565b634e487b7160e01b600052604160045260246000fd5b600082601f8301126112d957600080fd5b813567ffffffffffffffff808211156112f4576112f46112b2565b604051601f8301601f19908116603f0116810190828211818310171561131c5761131c6112b2565b8160405283815286602085880101111561133557600080fd5b836020870160208301376000602085830101528094505050505092915050565b60006020828403121561136757600080fd5b813567ffffffffffffffff81111561137e57600080fd5b61138a848285016112c8565b949350505050565b634e487b7160e01b600052602160045260246000fd5b600481106113c657634e487b7160e01b600052602160045260246000fd5b9052565b60005b838110156113e55781810151838201526020016113cd565b50506000910152565b600081518084526114068160208601602086016113ca565b601f01601f19169290920160200192915050565b61142481866113a8565b6001600160a01b038416602082015260806040820181905260009061144b908301856113ee565b905082606083015295945050505050565b6020808252825182820181905260009190848201906040850190845b8181101561149d5783516001600160a01b031683529284019291840191600101611478565b50909695505050505050565b600080604083850312156114bc57600080fd5b823567ffffffffffffffff808211156114d457600080fd5b6114e0868387016112c8565b935060208501359150808211156114f657600080fd5b50611503858286016112c8565b9150509250929050565b80356001600160a01b038116811461152457600080fd5b919050565b60006020828403121561153b57600080fd5b6115448261150d565b9392505050565b6000806040838503121561155e57600080fd5b823567ffffffffffffffff81111561157557600080fd5b611581858286016112c8565b9250506115906020840161150d565b90509250929050565b6000602082840312156115ab57600080fd5b5035919050565b600080604083850312156115c557600080fd5b823567ffffffffffffffff8111156115dc57600080fd5b6115e8858286016112c8565b95602094909401359450505050565b60808152600061160a60808301876113ee565b6001600160a01b038616602084015260408301859052828103606084015261163281856113ee565b979650505050505050565b60808152600061165060808301876113ee565b6001600160a01b03959095166020830152509115156040830152606090910152919050565b60c08152600061168860c08301896113ee565b6001600160a01b038881166020850152871660408401526116ac60608401876113a8565b82810360808401526116be81866113ee565b9150508260a0830152979650505050505050565b60006020808301818452808551808352604092508286019150828160051b87010184880160005b8381101561176a57603f1989840301855281516080815181865261171f828701826113ee565b838b01516001600160a01b0316878c0152898401518a880152606093840151878203948801949094529150611756905081836113ee565b9689019694505050908601906001016116f9565b509098975050505050505050565b6000825161178a8184602087016113ca565b9190910192915050565b600181811c908216806117a857607f821691505b6020821081036117c857634e487b7160e01b600052602260045260246000fd5b50919050565b601f82111561181857600081815260208120601f850160051c810160208610156117f55750805b601f850160051c820191505b8181101561181457828155600101611801565b5050505b505050565b815167ffffffffffffffff811115611837576118376112b2565b61184b816118458454611794565b846117ce565b602080601f83116001811461188057600084156118685750858301515b600019600386901b1c1916600185901b178555611814565b600085815260208120601f198616915b828110156118af57888601518255948401946001909101908401611890565b50858210156118cd5787850151600019600388901b60f8161c191681555b5050505050600190811b01905550565b60208152600061154460208301846113ee56fea26469706673582212207938170f85f9cafdf53a0ae3e205cafdf5b7c2138586a3a4ec0b9b3909345e0164736f6c63430008140033",
  "linkReferences": {},
  "deployedLinkReferences": {}
}