{
  "_format": "hh-sol-artifact-1",
  "contractName": "OrgRegistry",
  "sourceName": "contracts/OrgRegistry.sol",
  "abi": [
    {
      "inputs": [],
      "stateMutability": "nonpayable",
      "type": "constructor"
    },
    {
      "anonymous": false,
      "inputs": [
        {
          "indexed": true,
          "internalType": "string",
          "name": "verificationId",
          "type": "string"
        },
        {
          "indexed": true,
          "internalType": "address",
          "name": "verifier",
          "type": "address"
        },
        {
          "indexed": false,
          "internalType": "string",
          "name": "reason",
          "type": "string"
        }
      ],
      "name": "DocumentRejected",
      "type": "event"
    },
    {
      "anonymous": false,
      "inputs": [
        {
          "indexed": true,
          "internalType": "string",
          "name": "verificationId",
          "type": "string"
        },
        {
          "indexed": true,
          "internalType": "address",
          "name": "verifier",
          "type": "address"
        },
        {
          "indexed": false,
          "internalType": "uint256",
          "name": "timestamp",
          "type": "uint256"
        }
      ],
      "name": "DocumentVerified",
      "type": "event"
    },
    {
      "anonymous": false,
      "inputs": [
        {
          "indexed": true,
          "internalType": "address",
          "name": "wallet",
          "type": "address"
        },
        {
          "indexed": false,
          "internalType": "string",
          "name": "name",
          "type": "string"
        }
      ],
      "name": "OrganizationRegistered",
      "type": "event"
    },
    {
      "anonymous": false,
      "inputs": [
        {
          "indexed": true,
          "internalType": "string",
          "name": "verificationId",
          "type": "string"
        },
        {
          "indexed": true,
          "internalType": "address",
          "name": "uploader",
          "type": "address"
        },
        {
          "indexed": true,
          "internalType": "address",
          "name": "targetOrg",
          "type": "address"
        }
      ],
      "name": "VerificationRequested",
      "type": "event"
    },
    {
      "inputs": [
        {
          "internalType": "address",
          "name": "_wallet",
          "type": "address"
        }
      ],
      "name": "deactivateOrganization",
      "outputs": [],
      "stateMutability": "nonpayable",
      "type": "function"
    },
    {
      "inputs": [
        {
          "internalType": "string",
          "name": "",
          "type": "string"
        },
        {
          "internalType": "uint256",
          "name": "",
          "type": "uint256"
        }
      ],
      "name": "documentAuditTrail",
      "outputs": [
        {
          "internalType": "string",
          "name": "verificationId",
          "type": "string"
        },
        {
          "internalType": "address",
          "name": "verifierOrg",
          "type": "address"
        },
        {
          "internalType": "uint256",
          "name": "timestamp",
          "type": "uint256"
        },
        {
          "internalType": "string",
          "name": "remarks",
          "type": "string"
        }
      ],
      "stateMutability": "view",
      "type": "function"
    },
    {
      "inputs": [],
      "name": "getAllOrganizations",
      "outputs": [
        {
          "internalType": "address[]",
          "name": "",
          "type": "address[]"
        }
      ],
      "stateMutability": "view",
      "type": "function"
    },
    {
      "inputs": [
        {
          "internalType": "string",
          "name": "_verificationId",
          "type": "string"
        }
      ],
      "name": "getAuditTrail",
      "outputs": [
        {
          "components": [
            {
              "internalType": "string",
              "name": "verificationId",
              "type": "string"
            },
            {
              "internalType": "address",
              "name": "verifierOrg",
              "type": "address"
            },
            {
              "internalType": "uint256",
              "name": "timestamp",
              "type": "uint256"
            },
            {
              "internalType": "string",
              "name": "remarks",
              "type": "string"
            }
          ],
          "internalType": "struct OrgRegistry.VerificationLog[]",
          "name": "",
          "type": "tuple[]"
        }
      ],
      "stateMutability": "view",
      "type": "function"
    },
    {
      "inputs": [
        {
          "internalType": "string",
          "name": "_verificationId",
          "type": "string"
        }
      ],
      "name": "getVerificationStatus",
      "outputs": [
        {
          "internalType": "enum OrgRegistry.VerificationStatus",
          "name": "status",
          "type": "uint8"
        },
        {
          "internalType": "address",
          "name": "verifierOrg",
          "type": "address"
        },
        {
          "internalType": "string",
          "name": "rejectionReason",
          "type": "string"
        },
        {
          "internalType": "uint256",
          "name": "lastUpdated",
          "type": "uint256"
        }
      ],
      "stateMutability": "view",
      "type": "function"
    },
    {
      "inputs": [
        {
          "internalType": "uint256",
          "name": "",
          "type": "uint256"
        }
      ],
      "name": "orgList",
      "outputs": [
        {
          "internalType": "address",
          "name": "",
          "type": "address"
        }
      ],
      "stateMutability": "view",
      "type": "function"
    },
    {
      "inputs": [
        {
          "internalType": "address",
          "name": "",
          "type": "address"
        }
      ],
      "name": "organizations",
      "outputs": [
        {
          "internalType": "string",
          "name": "name",
          "type": "string"
        },
        {
          "internalType": "address",
          "name": "wallet",
          "type": "address"
        },
        {
          "internalType": "bool",
          "name": "isAuthorized",
          "type": "bool"
        },
        {
          "internalType": "uint256",
          "name": "registeredAt",
          "type": "uint256"
        }
      ],
      "stateMutability": "view",
      "type": "function"
    },
    {
      "inputs": [],
      "name": "owner",
      "outputs": [
        {
          "internalType": "address",
          "name": "",
          "type": "address"
        }
      ],
      "stateMutability": "view",
      "type": "function"
    },
    {
      "inputs": [
        {
          "internalType": "string",
          "name": "_name",
          "type": "string"
        },
        {
          "internalType": "address",
          "name": "_wallet",
          "type": "address"
        }
      ],
      "name": "registerOrganization",
      "outputs": [],
      "stateMutability": "nonpayable",
      "type": "function"
    },
    {
      "inputs": [
        {
          "internalType": "string",
          "name": "_verificationId",
          "type": "string"
        },
        {
          "internalType": "string",
          "name": "_reason",
          "type": "string"
        }
      ],
      "name": "rejectDocument",
      "outputs": [],
      "stateMutability": "nonpayable",
      "type": "function"
    },
    {
      "inputs": [
        {
          "internalType": "string",
          "name": "_verificationId",
          "type": "string"
        },
        {
          "internalType": "address",
          "name": "_org",
          "type": "address"
        }
      ],
      "name": "requestVerification",
      "outputs": [],
      "stateMutability": "nonpayable",
      "type": "function"
    },
    {
      "inputs": [
        {
          "internalType": "string",
          "name": "",
          "type": "string"
        }
      ],
      "name": "verifications",
      "outputs": [
        {
          "internalType": "address",
          "name": "uploader",
          "type": "address"
        },
        {
          "internalType": "address",
          "name": "verifierOrg",
          "type": "address"
        },
        {
          "internalType": "enum OrgRegistry.VerificationStatus",
          "name": "status",
          "type": "uint8"
        },
        {
          "internalType": "string",
          "name": "rejectionReason",
          "type": "string"
        },
        {
          "internalType": "uint256",
          "name": "lastUpdated",
          "type": "uint256"
        }
      ],
      "stateMutability": "view",
      "type": "function"
    },
    {
      "inputs": [
        {
          "internalType": "string",
          "name": "_verificationId",
          "type": "string"
        },
        {
          "internalType": "string",
          "name": "_remarks",
          "type": "string"
        }
      ],
      "name": "verifyDocument",
      "outputs": [],
      "stateMutability": "nonpayable",
      "type": "function"
    }
  ],
  "bytecode": "0x608060405234801561001057600080fd5b50600480546001600160a01b03191633179055611738806100326000396000f3fe608060405234801561001057600080fd5b50600436106100cf5760003560e01c80634c2ce4941161008c5780639b5b2ef6116100665780639b5b2ef6146101d4578063a4ca650b146101f8578063ae9f461f1461020b578063bdd184191461021e57600080fd5b80634c2ce494146101635780635a1f7406146101865780638da5cb5b146101a957600080fd5b8063042b2167146100d4578063086ed938146101005780630e362d7b146101155780631502a8a21461012a5780631c74b85a1461013d5780633b7cd61014610150575b600080fd5b6100e76100e236600461117b565b61023e565b6040516100f79493929190611240565b60405180910390f35b610108610383565b6040516100f79190611282565b6101286101233660046112cf565b6103e5565b005b61012861013836600461134f565b6105c0565b61012861014b366004611371565b61063c565b61012861015e366004611371565b6107f9565b6101766101713660046113bf565b610987565b6040516100f79493929190611404565b61019961019436600461134f565b610b01565b6040516100f7949392919061144a565b6004546101bc906001600160a01b031681565b6040516001600160a01b0390911681526020016100f7565b6101e76101e236600461117b565b610bc1565b6040516100f7959493929190611482565b6101286102063660046112cf565b610c97565b6101bc6102193660046114cb565b610eec565b61023161022c36600461117b565b610f16565b6040516100f791906114e4565b6000806060600080600386604051610256919061158a565b90815260408051918290036020908101832060a08401835280546001600160a01b0390811685526001820154908116928501929092529183019060ff600160a01b9091041660038111156102ac576102ac6111b8565b60038111156102bd576102bd6111b8565b81526020016002820180546102d1906115a6565b80601f01602080910402602001604051908101604052809291908181526020018280546102fd906115a6565b801561034a5780601f1061031f5761010080835404028352916020019161034a565b820191906000526020600020905b81548152906001019060200180831161032d57829003601f168201915b50505050508152602001600382015481525050905080604001518160200151826060015183608001519450945094509450509193509193565b606060018054806020026020016040519081016040528092919081815260200182805480156103db57602002820191906000526020600020905b81546001600160a01b031681526001909101906020018083116103bd575b5050505050905090565b33600090815260208190526040902060010154600160a01b900460ff166104535760405162461bcd60e51b815260206004820152601e60248201527f4e6f7420616e20617574686f72697a6564206f7267616e697a6174696f6e000060448201526064015b60405180910390fd5b336001600160a01b031660038360405161046d919061158a565b908152604051908190036020019020600101546001600160a01b0316146104d25760405162461bcd60e51b81526020600482015260196024820152782737ba103a34329030b9b9b4b3b732b2103b32b934b334b2b960391b604482015260640161044a565b600380836040516104e3919061158a565b908152604051908190036020019020600101805460ff60a01b1916600160a01b836003811115610515576105156111b8565b02179055508060038360405161052b919061158a565b90815260200160405180910390206002019081610548919061162f565b504260038360405161055a919061158a565b90815260405190819003602001812060030191909155339061057d90849061158a565b60405180910390207fc680183e07a9f7809b32b0311283de8e3f87826d72f7c219836f94fe287674d4836040516105b491906116ef565b60405180910390a35050565b6004546001600160a01b031633146106155760405162461bcd60e51b81526020600482015260186024820152774f6e6c79206f776e65722063616e2063616c6c207468697360401b604482015260640161044a565b6001600160a01b03166000908152602081905260409020600101805460ff60a01b19169055565b6001600160a01b038116600090815260208190526040902060010154600160a01b900460ff166106bc5760405162461bcd60e51b815260206004820152602560248201527f546172676574206f7267616e697a6174696f6e206973206e6f7420617574686f6044820152641c9a5e995960da1b606482015260840161044a565b6040805160a0810182523381526001600160a01b0383166020820152908101600181526020016040518060200160405280600081525081526020014281525060038360405161070b919061158a565b9081526040805160209281900383019020835181546001600160a01b03199081166001600160a01b0392831617835593850151600183018054958616919092169081178255928501519193919290916001600160a81b03191617600160a01b83600381111561077c5761077c6111b8565b021790555060608201516002820190610795908261162f565b5060808201518160030155905050806001600160a01b0316336001600160a01b0316836040516107c5919061158a565b604051908190038120907fb0048b18fd272331059c60d971a72b9ce2a34fdbc0ea71dffbebce378aee01b790600090a45050565b6004546001600160a01b0316331461084e5760405162461bcd60e51b81526020600482015260186024820152774f6e6c79206f776e65722063616e2063616c6c207468697360401b604482015260640161044a565b6001600160a01b03811660009081526020819052604081206002015490036108bb576001805480820182556000919091527fb10e2d527612073b26eecdfd717e6a320cf44b4afac2b0732d9fcbe2b7fa0cf60180546001600160a01b0319166001600160a01b0383161790555b604080516080810182528381526001600160a01b038316602080830182905260018385015242606084015260009182528190529190912081518190610900908261162f565b5060208201516001820180546040808601511515600160a01b026001600160a81b03199092166001600160a01b0394851617919091179091556060909301516002909201919091559051908216907f783e607e94efcb9adce3489c806008ddc378d784ae22a1f801458720054325a29061097b9085906116ef565b60405180910390a25050565b815160208184018101805160028252928201918501919091209190528054829081106109b257600080fd5b9060005260206000209060040201600091509150508060000180546109d6906115a6565b80601f0160208091040260200160405190810160405280929190818152602001828054610a02906115a6565b8015610a4f5780601f10610a2457610100808354040283529160200191610a4f565b820191906000526020600020905b815481529060010190602001808311610a3257829003601f168201915b505050506001830154600284015460038501805494956001600160a01b039093169491935090610a7e906115a6565b80601f0160208091040260200160405190810160405280929190818152602001828054610aaa906115a6565b8015610af75780601f10610acc57610100808354040283529160200191610af7565b820191906000526020600020905b815481529060010190602001808311610ada57829003601f168201915b5050505050905084565b600060208190529081526040902080548190610b1c906115a6565b80601f0160208091040260200160405190810160405280929190818152602001828054610b48906115a6565b8015610b955780601f10610b6a57610100808354040283529160200191610b95565b820191906000526020600020905b815481529060010190602001808311610b7857829003601f168201915b50505050600183015460029093015491926001600160a01b03811692600160a01b90910460ff16915084565b80516020818301810180516003825292820191909301209152805460018201546002830180546001600160a01b039384169493831693600160a01b90930460ff16929190610c0e906115a6565b80601f0160208091040260200160405190810160405280929190818152602001828054610c3a906115a6565b8015610c875780601f10610c5c57610100808354040283529160200191610c87565b820191906000526020600020905b815481529060010190602001808311610c6a57829003601f168201915b5050505050908060030154905085565b33600090815260208190526040902060010154600160a01b900460ff16610d005760405162461bcd60e51b815260206004820152601e60248201527f4e6f7420616e20617574686f72697a6564206f7267616e697a6174696f6e0000604482015260640161044a565b336001600160a01b0316600383604051610d1a919061158a565b908152604051908190036020019020600101546001600160a01b031614610d7f5760405162461bcd60e51b81526020600482015260196024820152782737ba103a34329030b9b9b4b3b732b2103b32b934b334b2b960391b604482015260640161044a565b604080516080810182528381523360208201524281830152606081018390529051600290600390610db190869061158a565b908152604051908190036020019020600101805460ff60a01b1916600160a01b836003811115610de357610de36111b8565b021790555042600384604051610df9919061158a565b908152602001604051809103902060030181905550600283604051610e1e919061158a565b908152604051602091819003820190208054600181018255600091825291902082518392600402909101908190610e55908261162f565b5060208201516001820180546001600160a01b0319166001600160a01b039092169190911790556040820151600282015560608201516003820190610e9a908261162f565b5050604051339150610ead90859061158a565b604051908190038120428252907f90e55e04a248395f5aba580fac6ab8b20cba0e1ed42c938f62d9accf1cd8ca079060200160405180910390a3505050565b60018181548110610efc57600080fd5b6000918252602090912001546001600160a01b0316905081565b6060600282604051610f28919061158a565b9081526020016040518091039020805480602002602001604051908101604052809291908181526020016000905b828210156110cd5783829060005260206000209060040201604051806080016040529081600082018054610f89906115a6565b80601f0160208091040260200160405190810160405280929190818152602001828054610fb5906115a6565b80156110025780601f10610fd757610100808354040283529160200191611002565b820191906000526020600020905b815481529060010190602001808311610fe557829003601f168201915b505050918352505060018201546001600160a01b031660208201526002820154604082015260038201805460609092019161103c906115a6565b80601f0160208091040260200160405190810160405280929190818152602001828054611068906115a6565b80156110b55780601f1061108a576101008083540402835291602001916110b5565b820191906000526020600020905b81548152906001019060200180831161109857829003601f168201915b50505050508152505081526020019060010190610f56565b505050509050919050565b634e487b7160e01b600052604160045260246000fd5b600082601f8301126110ff57600080fd5b813567ffffffffffffffff8082111561111a5761111a6110d8565b604051601f8301601f19908116603f01168101908282118183101715611142576111426110d8565b8160405283815286602085880101111561115b57600080fd5b836020870160208301376000602085830101528094505050505092915050565b60006020828403121561118d57600080fd5b813567ffffffffffffffff8111156111a457600080fd5b6111b0848285016110ee565b949350505050565b634e487b7160e01b600052602160045260246000fd5b600481106111ec57634e487b7160e01b600052602160045260246000fd5b9052565b60005b8381101561120b5781810151838201526020016111f3565b50506000910152565b6000815180845261122c8160208601602086016111f0565b601f01601f19169290920160200192915050565b61124a81866111ce565b6001600160a01b038416602082015260806040820181905260009061127190830185611214565b905082606083015295945050505050565b6020808252825182820181905260009190848201906040850190845b818110156112c35783516001600160a01b03168352928401929184019160010161129e565b50909695505050505050565b600080604083850312156112e257600080fd5b823567ffffffffffffffff808211156112fa57600080fd5b611306868387016110ee565b9350602085013591508082111561131c57600080fd5b50611329858286016110ee565b9150509250929050565b80356001600160a01b038116811461134a57600080fd5b919050565b60006020828403121561136157600080fd5b61136a82611333565b9392505050565b6000806040838503121561138457600080fd5b823567ffffffffffffffff81111561139b57600080fd5b6113a7858286016110ee565b9250506113b660208401611333565b90509250929050565b600080604083850312156113d257600080fd5b823567ffffffffffffffff8111156113e957600080fd5b6113f5858286016110ee565b95602094909401359450505050565b6080815260006114176080830187611214565b6001600160a01b038616602084015260408301859052828103606084015261143f8185611214565b979650505050505050565b60808152600061145d6080830187611214565b6001600160a01b03959095166020830152509115156040830152606090910152919050565b6001600160a01b0386811682528516602082015260006114a560408301866111ce565b60a060608301526114b960a0830185611214565b90508260808301529695505050505050565b6000602082840312156114dd57600080fd5b5035919050565b60006020808301818452808551808352604092508286019150828160051b87010184880160005b8381101561157c57603f1989840301855281516080815181865261153182870182611214565b838b01516001600160a01b0316878c0152898401518a88015260609384015187820394880194909452915061156890508183611214565b96890196945050509086019060010161150b565b509098975050505050505050565b6000825161159c8184602087016111f0565b9190910192915050565b600181811c908216806115ba57607f821691505b6020821081036115da57634e487b7160e01b600052602260045260246000fd5b50919050565b601f82111561162a57600081815260208120601f850160051c810160208610156116075750805b601f850160051c820191505b8181101561162657828155600101611613565b5050505b505050565b815167ffffffffffffffff811115611649576116496110d8565b61165d8161165784546115a6565b846115e0565b602080601f831160018114611692576000841561167a5750858301515b600019600386901b1c1916600185901b178555611626565b600085815260208120601f198616915b828110156116c1578886015182559484019460019091019084016116a2565b50858210156116df5787850151600019600388901b60f8161c191681555b5050505050600190811b01905550565b60208152600061136a602083018461121456fea2646970667358221220cc67b173d6bee140ef6784e4530c1ac07be656a47bdb321bc74d5e6f37f1887864736f6c63430008140033",
  "linkReferences": {},
  "deployedLinkReferences": {}
}